{
  "contractName": "BEP20",
  "abi": [
    {
      "inputs": [
        {
          "internalType": "string",
          "name": "_name",
          "type": "string"
        },
        {
          "internalType": "string",
          "name": "_symbol",
          "type": "string"
        },
        {
          "internalType": "uint8",
          "name": "_decimals",
          "type": "uint8"
        },
        {
          "internalType": "uint256",
          "name": "_startingBalance",
          "type": "uint256"
        },
        {
          "internalType": "bool",
          "name": "_burnable",
          "type": "bool"
        }
      ],
      "payable": false,
      "stateMutability": "nonpayable",
      "type": "constructor"
    },
    {
      "anonymous": false,
      "inputs": [
        {
          "indexed": true,
          "internalType": "address",
          "name": "owner",
          "type": "address"
        },
        {
          "indexed": true,
          "internalType": "address",
          "name": "spender",
          "type": "address"
        },
        {
          "indexed": false,
          "internalType": "uint256",
          "name": "value",
          "type": "uint256"
        }
      ],
      "name": "Approval",
      "type": "event"
    },
    {
      "anonymous": false,
      "inputs": [
        {
          "indexed": true,
          "internalType": "address",
          "name": "from",
          "type": "address"
        },
        {
          "indexed": true,
          "internalType": "address",
          "name": "to",
          "type": "address"
        },
        {
          "indexed": false,
          "internalType": "uint256",
          "name": "value",
          "type": "uint256"
        }
      ],
      "name": "Transfer",
      "type": "event"
    },
    {
      "constant": true,
      "inputs": [
        {
          "internalType": "address",
          "name": "owner",
          "type": "address"
        },
        {
          "internalType": "address",
          "name": "spender",
          "type": "address"
        }
      ],
      "name": "allowance",
      "outputs": [
        {
          "internalType": "uint256",
          "name": "",
          "type": "uint256"
        }
      ],
      "payable": false,
      "stateMutability": "view",
      "type": "function"
    },
    {
      "constant": false,
      "inputs": [
        {
          "internalType": "address",
          "name": "spender",
          "type": "address"
        },
        {
          "internalType": "uint256",
          "name": "amount",
          "type": "uint256"
        }
      ],
      "name": "approve",
      "outputs": [
        {
          "internalType": "bool",
          "name": "",
          "type": "bool"
        }
      ],
      "payable": false,
      "stateMutability": "nonpayable",
      "type": "function"
    },
    {
      "constant": true,
      "inputs": [
        {
          "internalType": "address",
          "name": "account",
          "type": "address"
        }
      ],
      "name": "balanceOf",
      "outputs": [
        {
          "internalType": "uint256",
          "name": "",
          "type": "uint256"
        }
      ],
      "payable": false,
      "stateMutability": "view",
      "type": "function"
    },
    {
      "constant": true,
      "inputs": [],
      "name": "burnable",
      "outputs": [
        {
          "internalType": "bool",
          "name": "",
          "type": "bool"
        }
      ],
      "payable": false,
      "stateMutability": "view",
      "type": "function"
    },
    {
      "constant": true,
      "inputs": [],
      "name": "decimals",
      "outputs": [
        {
          "internalType": "uint8",
          "name": "",
          "type": "uint8"
        }
      ],
      "payable": false,
      "stateMutability": "view",
      "type": "function"
    },
    {
      "constant": false,
      "inputs": [
        {
          "internalType": "address",
          "name": "spender",
          "type": "address"
        },
        {
          "internalType": "uint256",
          "name": "subtractedValue",
          "type": "uint256"
        }
      ],
      "name": "decreaseAllowance",
      "outputs": [
        {
          "internalType": "bool",
          "name": "",
          "type": "bool"
        }
      ],
      "payable": false,
      "stateMutability": "nonpayable",
      "type": "function"
    },
    {
      "constant": false,
      "inputs": [
        {
          "internalType": "address",
          "name": "spender",
          "type": "address"
        },
        {
          "internalType": "uint256",
          "name": "addedValue",
          "type": "uint256"
        }
      ],
      "name": "increaseAllowance",
      "outputs": [
        {
          "internalType": "bool",
          "name": "",
          "type": "bool"
        }
      ],
      "payable": false,
      "stateMutability": "nonpayable",
      "type": "function"
    },
    {
      "constant": true,
      "inputs": [],
      "name": "name",
      "outputs": [
        {
          "internalType": "string",
          "name": "",
          "type": "string"
        }
      ],
      "payable": false,
      "stateMutability": "view",
      "type": "function"
    },
    {
      "constant": true,
      "inputs": [],
      "name": "symbol",
      "outputs": [
        {
          "internalType": "string",
          "name": "",
          "type": "string"
        }
      ],
      "payable": false,
      "stateMutability": "view",
      "type": "function"
    },
    {
      "constant": true,
      "inputs": [],
      "name": "totalSupply",
      "outputs": [
        {
          "internalType": "uint256",
          "name": "",
          "type": "uint256"
        }
      ],
      "payable": false,
      "stateMutability": "view",
      "type": "function"
    },
    {
      "constant": false,
      "inputs": [
        {
          "internalType": "address",
          "name": "recipient",
          "type": "address"
        },
        {
          "internalType": "uint256",
          "name": "amount",
          "type": "uint256"
        }
      ],
      "name": "transfer",
      "outputs": [
        {
          "internalType": "bool",
          "name": "",
          "type": "bool"
        }
      ],
      "payable": false,
      "stateMutability": "nonpayable",
      "type": "function"
    },
    {
      "constant": false,
      "inputs": [
        {
          "internalType": "address",
          "name": "sender",
          "type": "address"
        },
        {
          "internalType": "address",
          "name": "recipient",
          "type": "address"
        },
        {
          "internalType": "uint256",
          "name": "amount",
          "type": "uint256"
        }
      ],
      "name": "transferFrom",
      "outputs": [
        {
          "internalType": "bool",
          "name": "",
          "type": "bool"
        }
      ],
      "payable": false,
      "stateMutability": "nonpayable",
      "type": "function"
    },
    {
      "constant": false,
      "inputs": [
        {
          "internalType": "uint256",
          "name": "amount",
          "type": "uint256"
        }
      ],
      "name": "burn",
      "outputs": [],
      "payable": false,
      "stateMutability": "nonpayable",
      "type": "function"
    },
    {
      "constant": false,
      "inputs": [
        {
          "internalType": "address",
          "name": "account",
          "type": "address"
        },
        {
          "internalType": "uint256",
          "name": "amount",
          "type": "uint256"
        }
      ],
      "name": "burnFrom",
      "outputs": [],
      "payable": false,
      "stateMutability": "nonpayable",
      "type": "function"
    },
    {
      "constant": true,
      "inputs": [],
      "name": "getOwner",
      "outputs": [
        {
          "internalType": "address",
          "name": "",
          "type": "address"
        }
      ],
      "payable": false,
      "stateMutability": "view",
      "type": "function"
    },
    {
      "constant": true,
      "inputs": [],
      "name": "info",
      "outputs": [
        {
          "internalType": "string",
          "name": "",
          "type": "string"
        },
        {
          "internalType": "string",
          "name": "",
          "type": "string"
        },
        {
          "internalType": "uint8",
          "name": "",
          "type": "uint8"
        },
        {
          "internalType": "uint256",
          "name": "",
          "type": "uint256"
        },
        {
          "internalType": "uint256",
          "name": "",
          "type": "uint256"
        },
        {
          "internalType": "uint256",
          "name": "",
          "type": "uint256"
        },
        {
          "internalType": "bool",
          "name": "",
          "type": "bool"
        },
        {
          "internalType": "bool",
          "name": "",
          "type": "bool"
        }
      ],
      "payable": false,
      "stateMutability": "view",
      "type": "function"
    },
    {
      "constant": true,
      "inputs": [],
      "name": "mintable",
      "outputs": [
        {
          "internalType": "bool",
          "name": "",
          "type": "bool"
        }
      ],
      "payable": false,
      "stateMutability": "view",
      "type": "function"
    }
  ],
  "bytecode": "0x60806040523480156200001157600080fd5b506040516200137d3803806200137d833981810160405260a08110156200003757600080fd5b81019080805160405193929190846401000000008211156200005857600080fd5b9083019060208201858111156200006e57600080fd5b82516401000000008111828201881017156200008957600080fd5b82525081516020918201929091019080838360005b83811015620000b85781810151838201526020016200009e565b50505050905090810190601f168015620000e65780820380516001836020036101000a031916815260200191505b50604052602001805160405193929190846401000000008211156200010a57600080fd5b9083019060208201858111156200012057600080fd5b82516401000000008111828201881017156200013b57600080fd5b82525081516020918201929091019080838360005b838110156200016a57818101518382015260200162000150565b50505050905090810190601f168015620001985780820380516001836020036101000a031916815260200191505b5060409081526020820151908201516060909201519093509091508180156200020657326000818152602081815260408083208590556002859055805185815290517fddf252ad1be2c89b69c2b068fc378daa952ba7f163c4a11628f55a4df523b3ef929181900390910190a35b5084516200021c9060059060208801906200027d565b508351620002329060049060208701906200027d565b506003805460ff191660ff94909416939093179092555060068054326001600160a01b03199091161760ff60a01b1916600160a01b9215159290920291909117905550620003229050565b828054600181600116156101000203166002900490600052602060002090601f016020900481019282601f10620002c057805160ff1916838001178555620002f0565b82800160010185558215620002f0579182015b82811115620002f0578251825591602001919060010190620002d3565b50620002fe92915062000302565b5090565b6200031f91905b80821115620002fe576000815560010162000309565b90565b61104b80620003326000396000f3fe608060405234801561001057600080fd5b506004361061010b5760003560e01c80634bf365df116100a257806395d89b411161007157806395d89b4114610420578063a07c7ce414610428578063a457c2d714610430578063a9059cbb1461045c578063dd62ed3e146104885761010b565b80634bf365df146103a257806370a08231146103aa57806379cc6790146103d0578063893d20e8146103fc5761010b565b8063313ce567116100de578063313ce5671461021d578063370158ea1461023b578063395093511461035757806342966c68146103835761010b565b806306fdde0314610110578063095ea7b31461018d57806318160ddd146101cd57806323b872dd146101e7575b600080fd5b6101186104b6565b6040805160208082528351818301528351919283929083019185019080838360005b8381101561015257818101518382015260200161013a565b50505050905090810190601f16801561017f5780820380516001836020036101000a031916815260200191505b509250505060405180910390f35b6101b9600480360360408110156101a357600080fd5b506001600160a01b038135169060200135610544565b604080519115158252519081900360200190f35b6101d5610561565b60408051918252519081900360200190f35b6101b9600480360360608110156101fd57600080fd5b506001600160a01b03813581169160208101359091169060400135610567565b6102256105f4565b6040805160ff9092168252519081900360200190f35b6102436105fd565b6040805160ff881691810191909152606081018690526080810185905260a0810184905282151560c082015281151560e0820152610100808252895190820152885181906020808301916101208401918d019080838360005b838110156102b457818101518382015260200161029c565b50505050905090810190601f1680156102e15780820380516001836020036101000a031916815260200191505b5083810382528a5181528a516020918201918c019080838360005b838110156103145781810151838201526020016102fc565b50505050905090810190601f1680156103415780820380516001836020036101000a031916815260200191505b509a505050505050505050505060405180910390f35b6101b96004803603604081101561036d57600080fd5b506001600160a01b038135169060200135610777565b6103a06004803603602081101561039957600080fd5b50356107cb565b005b6101b9610831565b6101d5600480360360208110156103c057600080fd5b50356001600160a01b0316610836565b6103a0600480360360408110156103e657600080fd5b506001600160a01b038135169060200135610851565b6104046108b1565b604080516001600160a01b039092168252519081900360200190f35b6101186108c0565b6101b961091b565b6101b96004803603604081101561044657600080fd5b506001600160a01b03813516906020013561092b565b6101b96004803603604081101561047257600080fd5b506001600160a01b038135169060200135610999565b6101d56004803603604081101561049e57600080fd5b506001600160a01b03813581169160200135166109ad565b6005805460408051602060026001851615610100026000190190941693909304601f8101849004840282018401909252818152929183018282801561053c5780601f106105115761010080835404028352916020019161053c565b820191906000526020600020905b81548152906001019060200180831161051f57829003601f168201915b505050505081565b60006105586105516109d8565b84846109dc565b50600192915050565b60025490565b6000610574848484610ac8565b6105ea846105806109d8565b6105e585604051806060016040528060288152602001610f3c602891396001600160a01b038a166000908152600160205260408120906105be6109d8565b6001600160a01b03168152602081019190915260400160002054919063ffffffff610c2416565b6109dc565b5060019392505050565b60035460ff1681565b60608060008060008060008060056004600360009054906101000a900460ff16610625610561565b61062e33610836565b600654855460408051602060026101006001861615026000190190941693909304601f8101849004840282018401909252818152600093600160a01b900460ff169284928a918301828280156106c55780601f1061069a576101008083540402835291602001916106c5565b820191906000526020600020905b8154815290600101906020018083116106a857829003601f168201915b50508a5460408051602060026001851615610100026000190190941693909304601f8101849004840282018401909252818152959d508c9450925084019050828280156107535780601f1061072857610100808354040283529160200191610753565b820191906000526020600020905b81548152906001019060200180831161073657829003601f168201915b50505050509650829250975097509750975097509750975097509091929394959697565b60006105586107846109d8565b846105e585600160006107956109d8565b6001600160a01b03908116825260208083019390935260409182016000908120918c16815292529020549063ffffffff610cbb16565b600654600160a01b900460ff1661081d576040805162461bcd60e51b815260206004820152601160248201527045726332303a20556e4275726e61626c6560781b604482015290519081900360640190fd5b61082e6108286109d8565b82610d1c565b50565b600090565b6001600160a01b031660009081526020819052604090205490565b600654600160a01b900460ff166108a3576040805162461bcd60e51b815260206004820152601160248201527045726332303a20556e4275726e61626c6560781b604482015290519081900360640190fd5b6108ad8282610e18565b5050565b6006546001600160a01b031690565b6004805460408051602060026001851615610100026000190190941693909304601f8101849004840282018401909252818152929183018282801561053c5780601f106105115761010080835404028352916020019161053c565b600654600160a01b900460ff1681565b60006105586109386109d8565b846105e585604051806060016040528060258152602001610ff260259139600160006109626109d8565b6001600160a01b03908116825260208083019390935260409182016000908120918d1681529252902054919063ffffffff610c2416565b60006105586109a66109d8565b8484610ac8565b6001600160a01b03918216600090815260016020908152604080832093909416825291909152205490565b3390565b6001600160a01b038316610a215760405162461bcd60e51b8152600401808060200182810382526024815260200180610fce6024913960400191505060405180910390fd5b6001600160a01b038216610a665760405162461bcd60e51b8152600401808060200182810382526022815260200180610ef46022913960400191505060405180910390fd5b6001600160a01b03808416600081815260016020908152604080832094871680845294825291829020859055815185815291517f8c5be1e5ebec7d5bd14f71427d1e84f3dd0314c0f7b2291e5b200ac8c7c3b9259281900390910190a3505050565b6001600160a01b038316610b0d5760405162461bcd60e51b8152600401808060200182810382526025815260200180610fa96025913960400191505060405180910390fd5b6001600160a01b038216610b525760405162461bcd60e51b8152600401808060200182810382526023815260200180610eaf6023913960400191505060405180910390fd5b610b9581604051806060016040528060268152602001610f16602691396001600160a01b038616600090815260208190526040902054919063ffffffff610c2416565b6001600160a01b038085166000908152602081905260408082209390935590841681522054610bca908263ffffffff610cbb16565b6001600160a01b038084166000818152602081815260409182902094909455805185815290519193928716927fddf252ad1be2c89b69c2b068fc378daa952ba7f163c4a11628f55a4df523b3ef92918290030190a3505050565b60008184841115610cb35760405162461bcd60e51b81526004018080602001828103825283818151815260200191508051906020019080838360005b83811015610c78578181015183820152602001610c60565b50505050905090810190601f168015610ca55780820380516001836020036101000a031916815260200191505b509250505060405180910390fd5b505050900390565b600082820183811015610d15576040805162461bcd60e51b815260206004820152601b60248201527f536166654d6174683a206164646974696f6e206f766572666c6f770000000000604482015290519081900360640190fd5b9392505050565b6001600160a01b038216610d615760405162461bcd60e51b8152600401808060200182810382526021815260200180610f886021913960400191505060405180910390fd5b610da481604051806060016040528060228152602001610ed2602291396001600160a01b038516600090815260208190526040902054919063ffffffff610c2416565b6001600160a01b038316600090815260208190526040902055600254610dd0908263ffffffff610e6c16565b6002556040805182815290516000916001600160a01b038516917fddf252ad1be2c89b69c2b068fc378daa952ba7f163c4a11628f55a4df523b3ef9181900360200190a35050565b610e228282610d1c565b6108ad82610e2e6109d8565b6105e584604051806060016040528060248152602001610f64602491396001600160a01b0388166000908152600160205260408120906105be6109d8565b6000610d1583836040518060400160405280601e81526020017f536166654d6174683a207375627472616374696f6e206f766572666c6f770000815250610c2456fe45524332303a207472616e7366657220746f20746865207a65726f206164647265737345524332303a206275726e20616d6f756e7420657863656564732062616c616e636545524332303a20617070726f766520746f20746865207a65726f206164647265737345524332303a207472616e7366657220616d6f756e7420657863656564732062616c616e636545524332303a207472616e7366657220616d6f756e74206578636565647320616c6c6f77616e636545524332303a206275726e20616d6f756e74206578636565647320616c6c6f77616e636545524332303a206275726e2066726f6d20746865207a65726f206164647265737345524332303a207472616e736665722066726f6d20746865207a65726f206164647265737345524332303a20617070726f76652066726f6d20746865207a65726f206164647265737345524332303a2064656372656173656420616c6c6f77616e63652062656c6f77207a65726fa265627a7a72315820566c5c4aaeca822f81bec00bc20385e2b2f70fe15c1198c886fca7f5ddd70a8d64736f6c63430005110032",
  "source": "pragma solidity ^0.5;\n\nimport  \"./IBEP20.sol\";\nimport \"./openzeppelin-contracts-v2.5/ownership/Ownable.sol\";\nimport \"./openzeppelin-contracts-v2.5/math/SafeMath.sol\";\nimport \"./openzeppelin-contracts-v2.5/token/ERC20/IERC20.sol\";\nimport \"./openzeppelin-contracts-v2.5/token/ERC20/ERC20Burnable.sol\";\nimport \"./openzeppelin-contracts-v2.5/access/roles/MinterRole.sol\";\n// comes from //https://github.com/binance-chain/bsc-genesis-contract/blob/master/contracts/bep20_template/BEP20Token.template\n\n\ncontract BEP20 is IBEP20, ERC20 {\n  uint8 public decimals;\n  string public symbol;\n  string public name;\n  address private _owner;\n  bool public burnable;\n\n  constructor(string memory _name,string memory  _symbol, uint8 _decimals,uint256 _startingBalance,bool _burnable)\n  ERC20(_startingBalance)\n  public {\n    name = _name;\n    symbol = _symbol;\n    decimals = _decimals;\n    _owner=tx.origin;\n    burnable=_burnable;\n  }\n  modifier canBurn() {\n    require(burnable, \"Erc20: UnBurnable\");\n    _;\n  }\n\n  function burn(uint256 amount)  canBurn public {\n    _burn(_msgSender(), amount);\n  }\n\n  /**\n   * @dev See {ERC20-_burnFrom}.\n   */\n  function burnFrom(address account, uint256 amount) canBurn public {\n    _burnFrom(account, amount);\n  }\n\n  /**\n   * @dev Returns the bep token owner.\n   */\n  function getOwner() external view returns (address) {\n    return _owner;\n  }\n  function info() public view returns(string memory,string memory,uint8,uint256,uint256,uint256,bool,bool){\n    return (name,symbol,decimals,totalSupply(),balanceOf(msg.sender),0,burnable,false);\n  }\n  function mintable()   view external returns (bool){\n    return false;\n  }\n}\n",
  "sourcePath": "/Users/sudipbhattarai/Documents/erc20-tokensale-gen/solidity-contracts/BEP20.sol",
  "compiler": {
    "name": "solc",
    "version": "0.5.17+commit.d19bba13.Emscripten.clang"
  },
  "schemaVersion": "3.4.3",
  "updatedAt": "2022-02-06T18:13:26.057Z",
  "devdoc": {
    "methods": {
      "allowance(address,address)": {
        "details": "See {IERC20-allowance}."
      },
      "approve(address,uint256)": {
        "details": "See {IERC20-approve}.     * Requirements:     * - `spender` cannot be the zero address."
      },
      "balanceOf(address)": {
        "details": "See {IERC20-balanceOf}."
      },
      "burnFrom(address,uint256)": {
        "details": "See {ERC20-_burnFrom}."
      },
      "decreaseAllowance(address,uint256)": {
        "details": "Atomically decreases the allowance granted to `spender` by the caller.     * This is an alternative to {approve} that can be used as a mitigation for problems described in {IERC20-approve}.     * Emits an {Approval} event indicating the updated allowance.     * Requirements:     * - `spender` cannot be the zero address. - `spender` must have allowance for the caller of at least `subtractedValue`."
      },
      "getOwner()": {
        "details": "Returns the bep token owner."
      },
      "increaseAllowance(address,uint256)": {
        "details": "Atomically increases the allowance granted to `spender` by the caller.     * This is an alternative to {approve} that can be used as a mitigation for problems described in {IERC20-approve}.     * Emits an {Approval} event indicating the updated allowance.     * Requirements:     * - `spender` cannot be the zero address."
      },
      "transfer(address,uint256)": {
        "details": "See {IERC20-transfer}.     * Requirements:     * - `recipient` cannot be the zero address. - the caller must have a balance of at least `amount`."
      },
      "transferFrom(address,address,uint256)": {
        "details": "See {IERC20-transferFrom}.     * Emits an {Approval} event indicating the updated allowance. This is not required by the EIP. See the note at the beginning of {ERC20};     * Requirements: - `sender` and `recipient` cannot be the zero address. - `sender` must have a balance of at least `amount`. - the caller must have allowance for `sender`'s tokens of at least `amount`."
      }
    }
  },
  "userdoc": {
    "methods": {}
  }
}