{
  "contractName": "BEP20Mintable",
  "abi": [
    {
      "inputs": [
        {
          "internalType": "string",
          "name": "_name",
          "type": "string"
        },
        {
          "internalType": "string",
          "name": "_symbol",
          "type": "string"
        },
        {
          "internalType": "uint8",
          "name": "_decimals",
          "type": "uint8"
        },
        {
          "internalType": "uint256",
          "name": "_startingBalance",
          "type": "uint256"
        },
        {
          "internalType": "bool",
          "name": "_burnable",
          "type": "bool"
        },
        {
          "internalType": "uint256",
          "name": "cap",
          "type": "uint256"
        }
      ],
      "payable": false,
      "stateMutability": "nonpayable",
      "type": "constructor"
    },
    {
      "anonymous": false,
      "inputs": [
        {
          "indexed": true,
          "internalType": "address",
          "name": "owner",
          "type": "address"
        },
        {
          "indexed": true,
          "internalType": "address",
          "name": "spender",
          "type": "address"
        },
        {
          "indexed": false,
          "internalType": "uint256",
          "name": "value",
          "type": "uint256"
        }
      ],
      "name": "Approval",
      "type": "event"
    },
    {
      "anonymous": false,
      "inputs": [
        {
          "indexed": true,
          "internalType": "address",
          "name": "account",
          "type": "address"
        }
      ],
      "name": "MinterAdded",
      "type": "event"
    },
    {
      "anonymous": false,
      "inputs": [
        {
          "indexed": true,
          "internalType": "address",
          "name": "account",
          "type": "address"
        }
      ],
      "name": "MinterRemoved",
      "type": "event"
    },
    {
      "anonymous": false,
      "inputs": [
        {
          "indexed": true,
          "internalType": "address",
          "name": "from",
          "type": "address"
        },
        {
          "indexed": true,
          "internalType": "address",
          "name": "to",
          "type": "address"
        },
        {
          "indexed": false,
          "internalType": "uint256",
          "name": "value",
          "type": "uint256"
        }
      ],
      "name": "Transfer",
      "type": "event"
    },
    {
      "constant": false,
      "inputs": [
        {
          "internalType": "address",
          "name": "account",
          "type": "address"
        }
      ],
      "name": "addMinter",
      "outputs": [],
      "payable": false,
      "stateMutability": "nonpayable",
      "type": "function"
    },
    {
      "constant": true,
      "inputs": [
        {
          "internalType": "address",
          "name": "owner",
          "type": "address"
        },
        {
          "internalType": "address",
          "name": "spender",
          "type": "address"
        }
      ],
      "name": "allowance",
      "outputs": [
        {
          "internalType": "uint256",
          "name": "",
          "type": "uint256"
        }
      ],
      "payable": false,
      "stateMutability": "view",
      "type": "function"
    },
    {
      "constant": false,
      "inputs": [
        {
          "internalType": "address",
          "name": "spender",
          "type": "address"
        },
        {
          "internalType": "uint256",
          "name": "amount",
          "type": "uint256"
        }
      ],
      "name": "approve",
      "outputs": [
        {
          "internalType": "bool",
          "name": "",
          "type": "bool"
        }
      ],
      "payable": false,
      "stateMutability": "nonpayable",
      "type": "function"
    },
    {
      "constant": true,
      "inputs": [
        {
          "internalType": "address",
          "name": "account",
          "type": "address"
        }
      ],
      "name": "balanceOf",
      "outputs": [
        {
          "internalType": "uint256",
          "name": "",
          "type": "uint256"
        }
      ],
      "payable": false,
      "stateMutability": "view",
      "type": "function"
    },
    {
      "constant": false,
      "inputs": [
        {
          "internalType": "uint256",
          "name": "amount",
          "type": "uint256"
        }
      ],
      "name": "burn",
      "outputs": [],
      "payable": false,
      "stateMutability": "nonpayable",
      "type": "function"
    },
    {
      "constant": false,
      "inputs": [
        {
          "internalType": "address",
          "name": "account",
          "type": "address"
        },
        {
          "internalType": "uint256",
          "name": "amount",
          "type": "uint256"
        }
      ],
      "name": "burnFrom",
      "outputs": [],
      "payable": false,
      "stateMutability": "nonpayable",
      "type": "function"
    },
    {
      "constant": true,
      "inputs": [],
      "name": "burnable",
      "outputs": [
        {
          "internalType": "bool",
          "name": "",
          "type": "bool"
        }
      ],
      "payable": false,
      "stateMutability": "view",
      "type": "function"
    },
    {
      "constant": true,
      "inputs": [],
      "name": "decimals",
      "outputs": [
        {
          "internalType": "uint8",
          "name": "",
          "type": "uint8"
        }
      ],
      "payable": false,
      "stateMutability": "view",
      "type": "function"
    },
    {
      "constant": false,
      "inputs": [
        {
          "internalType": "address",
          "name": "spender",
          "type": "address"
        },
        {
          "internalType": "uint256",
          "name": "subtractedValue",
          "type": "uint256"
        }
      ],
      "name": "decreaseAllowance",
      "outputs": [
        {
          "internalType": "bool",
          "name": "",
          "type": "bool"
        }
      ],
      "payable": false,
      "stateMutability": "nonpayable",
      "type": "function"
    },
    {
      "constant": true,
      "inputs": [],
      "name": "getOwner",
      "outputs": [
        {
          "internalType": "address",
          "name": "",
          "type": "address"
        }
      ],
      "payable": false,
      "stateMutability": "view",
      "type": "function"
    },
    {
      "constant": false,
      "inputs": [
        {
          "internalType": "address",
          "name": "spender",
          "type": "address"
        },
        {
          "internalType": "uint256",
          "name": "addedValue",
          "type": "uint256"
        }
      ],
      "name": "increaseAllowance",
      "outputs": [
        {
          "internalType": "bool",
          "name": "",
          "type": "bool"
        }
      ],
      "payable": false,
      "stateMutability": "nonpayable",
      "type": "function"
    },
    {
      "constant": true,
      "inputs": [
        {
          "internalType": "address",
          "name": "account",
          "type": "address"
        }
      ],
      "name": "isMinter",
      "outputs": [
        {
          "internalType": "bool",
          "name": "",
          "type": "bool"
        }
      ],
      "payable": false,
      "stateMutability": "view",
      "type": "function"
    },
    {
      "constant": false,
      "inputs": [
        {
          "internalType": "address",
          "name": "account",
          "type": "address"
        },
        {
          "internalType": "uint256",
          "name": "amount",
          "type": "uint256"
        }
      ],
      "name": "mint",
      "outputs": [
        {
          "internalType": "bool",
          "name": "",
          "type": "bool"
        }
      ],
      "payable": false,
      "stateMutability": "nonpayable",
      "type": "function"
    },
    {
      "constant": true,
      "inputs": [],
      "name": "name",
      "outputs": [
        {
          "internalType": "string",
          "name": "",
          "type": "string"
        }
      ],
      "payable": false,
      "stateMutability": "view",
      "type": "function"
    },
    {
      "constant": false,
      "inputs": [],
      "name": "renounceMinter",
      "outputs": [],
      "payable": false,
      "stateMutability": "nonpayable",
      "type": "function"
    },
    {
      "constant": true,
      "inputs": [],
      "name": "symbol",
      "outputs": [
        {
          "internalType": "string",
          "name": "",
          "type": "string"
        }
      ],
      "payable": false,
      "stateMutability": "view",
      "type": "function"
    },
    {
      "constant": true,
      "inputs": [],
      "name": "totalSupply",
      "outputs": [
        {
          "internalType": "uint256",
          "name": "",
          "type": "uint256"
        }
      ],
      "payable": false,
      "stateMutability": "view",
      "type": "function"
    },
    {
      "constant": false,
      "inputs": [
        {
          "internalType": "address",
          "name": "recipient",
          "type": "address"
        },
        {
          "internalType": "uint256",
          "name": "amount",
          "type": "uint256"
        }
      ],
      "name": "transfer",
      "outputs": [
        {
          "internalType": "bool",
          "name": "",
          "type": "bool"
        }
      ],
      "payable": false,
      "stateMutability": "nonpayable",
      "type": "function"
    },
    {
      "constant": false,
      "inputs": [
        {
          "internalType": "address",
          "name": "sender",
          "type": "address"
        },
        {
          "internalType": "address",
          "name": "recipient",
          "type": "address"
        },
        {
          "internalType": "uint256",
          "name": "amount",
          "type": "uint256"
        }
      ],
      "name": "transferFrom",
      "outputs": [
        {
          "internalType": "bool",
          "name": "",
          "type": "bool"
        }
      ],
      "payable": false,
      "stateMutability": "nonpayable",
      "type": "function"
    },
    {
      "constant": true,
      "inputs": [],
      "name": "info",
      "outputs": [
        {
          "internalType": "string",
          "name": "",
          "type": "string"
        },
        {
          "internalType": "string",
          "name": "",
          "type": "string"
        },
        {
          "internalType": "uint8",
          "name": "",
          "type": "uint8"
        },
        {
          "internalType": "uint256",
          "name": "",
          "type": "uint256"
        },
        {
          "internalType": "uint256",
          "name": "",
          "type": "uint256"
        },
        {
          "internalType": "uint256",
          "name": "",
          "type": "uint256"
        },
        {
          "internalType": "bool",
          "name": "",
          "type": "bool"
        },
        {
          "internalType": "bool",
          "name": "",
          "type": "bool"
        }
      ],
      "payable": false,
      "stateMutability": "view",
      "type": "function"
    },
    {
      "constant": true,
      "inputs": [],
      "name": "mintable",
      "outputs": [
        {
          "internalType": "bool",
          "name": "",
          "type": "bool"
        }
      ],
      "payable": false,
      "stateMutability": "view",
      "type": "function"
    },
    {
      "constant": true,
      "inputs": [],
      "name": "cap",
      "outputs": [
        {
          "internalType": "uint256",
          "name": "",
          "type": "uint256"
        }
      ],
      "payable": false,
      "stateMutability": "view",
      "type": "function"
    },
    {
      "constant": true,
      "inputs": [],
      "name": "capped",
      "outputs": [
        {
          "internalType": "bool",
          "name": "",
          "type": "bool"
        }
      ],
      "payable": false,
      "stateMutability": "view",
      "type": "function"
    }
  ],
  "bytecode": "0x60806040523480156200001157600080fd5b5060405162001a8738038062001a87833981810160405260c08110156200003757600080fd5b81019080805160405193929190846401000000008211156200005857600080fd5b9083019060208201858111156200006e57600080fd5b82516401000000008111828201881017156200008957600080fd5b82525081516020918201929091019080838360005b83811015620000b85781810151838201526020016200009e565b50505050905090810190601f168015620000e65780820380516001836020036101000a031916815260200191505b50604052602001805160405193929190846401000000008211156200010a57600080fd5b9083019060208201858111156200012057600080fd5b82516401000000008111828201881017156200013b57600080fd5b82525081516020918201929091019080838360005b838110156200016a57818101518382015260200162000150565b50505050905090810190601f168015620001985780820380516001836020036101000a031916815260200191505b5060409081526020820151908201516060830151608090930151919450925085858585858180156200020f57326000818152602081815260408083208590556002859055805185815290517fddf252ad1be2c89b69c2b068fc378daa952ba7f163c4a11628f55a4df523b3ef929181900390910190a35b50845162000225906005906020880190620003eb565b5083516200023b906004906020870190620003eb565b506003805460ff90941660ff19909416939093179092555060068054911515600160a01b0260ff60a01b196001600160a01b0319909316329081179390931617905562000294925090506001600160e01b03620002a316565b60085550620004909350505050565b620002be816007620002f560201b620012cd1790919060201c565b6040516001600160a01b038216907f6ae172837ea30b801fbfcdd4108aa1d5bf8ff775444fd70256b44e6bf3dfc3f690600090a250565b6200030a82826001600160e01b036200038216565b156200035d576040805162461bcd60e51b815260206004820152601f60248201527f526f6c65733a206163636f756e7420616c72656164792068617320726f6c6500604482015290519081900360640190fd5b6001600160a01b0316600090815260209190915260409020805460ff19166001179055565b60006001600160a01b038216620003cb5760405162461bcd60e51b815260040180806020018281038252602281526020018062001a656022913960400191505060405180910390fd5b506001600160a01b03166000908152602091909152604090205460ff1690565b828054600181600116156101000203166002900490600052602060002090601f016020900481019282601f106200042e57805160ff19168380011785556200045e565b828001600101855582156200045e579182015b828111156200045e57825182559160200191906001019062000441565b506200046c92915062000470565b5090565b6200048d91905b808211156200046c576000815560010162000477565b90565b6115c580620004a06000396000f3fe608060405234801561001057600080fd5b506004361061014d5760003560e01c80635eb101c3116100c3578063986502751161007c57806398650275146104cc578063a07c7ce4146104d4578063a457c2d7146104dc578063a9059cbb14610508578063aa271e1a14610534578063dd62ed3e1461055a5761014d565b80635eb101c31461042057806370a082311461042857806379cc67901461044e578063893d20e81461047a57806395d89b411461049e578063983b2d56146104a65761014d565b8063355274ea11610115578063355274ea1461027d578063370158ea1461028557806339509351146103a157806340c10f19146103cd57806342966c68146103f95780634bf365df146104185761014d565b806306fdde0314610152578063095ea7b3146101cf57806318160ddd1461020f57806323b872dd14610229578063313ce5671461025f575b600080fd5b61015a610588565b6040805160208082528351818301528351919283929083019185019080838360005b8381101561019457818101518382015260200161017c565b50505050905090810190601f1680156101c15780820380516001836020036101000a031916815260200191505b509250505060405180910390f35b6101fb600480360360408110156101e557600080fd5b506001600160a01b038135169060200135610616565b604080519115158252519081900360200190f35b610217610633565b60408051918252519081900360200190f35b6101fb6004803603606081101561023f57600080fd5b506001600160a01b03813581169160208101359091169060400135610639565b6102676106c6565b6040805160ff9092168252519081900360200190f35b6102176106cf565b61028d6106d5565b6040805160ff881691810191909152606081018690526080810185905260a0810184905282151560c082015281151560e0820152610100808252895190820152885181906020808301916101208401918d019080838360005b838110156102fe5781810151838201526020016102e6565b50505050905090810190601f16801561032b5780820380516001836020036101000a031916815260200191505b5083810382528a5181528a516020918201918c019080838360005b8381101561035e578181015183820152602001610346565b50505050905090810190601f16801561038b5780820380516001836020036101000a031916815260200191505b509a505050505050505050505060405180910390f35b6101fb600480360360408110156103b757600080fd5b506001600160a01b038135169060200135610853565b6101fb600480360360408110156103e357600080fd5b506001600160a01b0381351690602001356108a7565b6104166004803603602081101561040f57600080fd5b50356108fe565b005b6101fb610964565b6101fb610969565b6102176004803603602081101561043e57600080fd5b50356001600160a01b0316610971565b6104166004803603604081101561046457600080fd5b506001600160a01b03813516906020013561098c565b6104826109ec565b604080516001600160a01b039092168252519081900360200190f35b61015a6109fb565b610416600480360360208110156104bc57600080fd5b50356001600160a01b0316610a56565b610416610aa5565b6101fb610ab7565b6101fb600480360360408110156104f257600080fd5b506001600160a01b038135169060200135610ac7565b6101fb6004803603604081101561051e57600080fd5b506001600160a01b038135169060200135610b35565b6101fb6004803603602081101561054a57600080fd5b50356001600160a01b0316610b49565b6102176004803603604081101561057057600080fd5b506001600160a01b0381358116916020013516610b62565b6005805460408051602060026001851615610100026000190190941693909304601f8101849004840282018401909252818152929183018282801561060e5780601f106105e35761010080835404028352916020019161060e565b820191906000526020600020905b8154815290600101906020018083116105f157829003601f168201915b505050505081565b600061062a610623610b8d565b8484610b91565b50600192915050565b60025490565b6000610646848484610c7d565b6106bc84610652610b8d565b6106b785604051806060016040528060288152602001611494602891396001600160a01b038a16600090815260016020526040812090610690610b8d565b6001600160a01b03168152602081019190915260400160002054919063ffffffff610dd916565b610b91565b5060019392505050565b60035460ff1681565b60085490565b60608060008060008060008060056004600360009054906101000a900460ff166106fd610633565b61070633610971565b61070e6106cf565b60065486546040805160206002610100600180871615919091026000190190951604601f8101829004820283018201909352828252600160a01b90940460ff169390918a918301828280156107a45780601f10610779576101008083540402835291602001916107a4565b820191906000526020600020905b81548152906001019060200180831161078757829003601f168201915b50508a5460408051602060026001851615610100026000190190941693909304601f8101849004840282018401909252818152959d508c9450925084019050828280156108325780601f1061080757610100808354040283529160200191610832565b820191906000526020600020905b81548152906001019060200180831161081557829003601f168201915b50505050509650975097509750975097509750975097509091929394959697565b600061062a610860610b8d565b846106b78560016000610871610b8d565b6001600160a01b03908116825260208083019390935260409182016000908120918c16815292529020549063ffffffff610e7016565b60006108b96108b4610b8d565b610b49565b6108f45760405162461bcd60e51b81526004018080602001828103825260308152602001806114436030913960400191505060405180910390fd5b61062a8383610ed1565b600654600160a01b900460ff16610950576040805162461bcd60e51b815260206004820152601160248201527045726332303a20556e4275726e61626c6560781b604482015290519081900360640190fd5b61096161095b610b8d565b82610f54565b50565b600190565b600854151590565b6001600160a01b031660009081526020819052604090205490565b600654600160a01b900460ff166109de576040805162461bcd60e51b815260206004820152601160248201527045726332303a20556e4275726e61626c6560781b604482015290519081900360640190fd5b6109e88282611050565b5050565b6006546001600160a01b031690565b6004805460408051602060026001851615610100026000190190941693909304601f8101849004840282018401909252818152929183018282801561060e5780601f106105e35761010080835404028352916020019161060e565b610a616108b4610b8d565b610a9c5760405162461bcd60e51b81526004018080602001828103825260308152602001806114436030913960400191505060405180910390fd5b610961816110a4565b610ab5610ab0610b8d565b6110ec565b565b600654600160a01b900460ff1681565b600061062a610ad4610b8d565b846106b78560405180606001604052806025815260200161156c6025913960016000610afe610b8d565b6001600160a01b03908116825260208083019390935260409182016000908120918d1681529252902054919063ffffffff610dd916565b600061062a610b42610b8d565b8484610c7d565b6000610b5c60078363ffffffff61113416565b92915050565b6001600160a01b03918216600090815260016020908152604080832093909416825291909152205490565b3390565b6001600160a01b038316610bd65760405162461bcd60e51b81526004018080602001828103825260248152602001806115486024913960400191505060405180910390fd5b6001600160a01b038216610c1b5760405162461bcd60e51b81526004018080602001828103825260228152602001806113fb6022913960400191505060405180910390fd5b6001600160a01b03808416600081815260016020908152604080832094871680845294825291829020859055815185815291517f8c5be1e5ebec7d5bd14f71427d1e84f3dd0314c0f7b2291e5b200ac8c7c3b9259281900390910190a3505050565b6001600160a01b038316610cc25760405162461bcd60e51b81526004018080602001828103825260258152602001806115236025913960400191505060405180910390fd5b6001600160a01b038216610d075760405162461bcd60e51b81526004018080602001828103825260238152602001806113b66023913960400191505060405180910390fd5b610d4a8160405180606001604052806026815260200161141d602691396001600160a01b038616600090815260208190526040902054919063ffffffff610dd916565b6001600160a01b038085166000908152602081905260408082209390935590841681522054610d7f908263ffffffff610e7016565b6001600160a01b038084166000818152602081815260409182902094909455805185815290519193928716927fddf252ad1be2c89b69c2b068fc378daa952ba7f163c4a11628f55a4df523b3ef92918290030190a3505050565b60008184841115610e685760405162461bcd60e51b81526004018080602001828103825283818151815260200191508051906020019080838360005b83811015610e2d578181015183820152602001610e15565b50505050905090810190601f168015610e5a5780820380516001836020036101000a031916815260200191505b509250505060405180910390fd5b505050900390565b600082820183811015610eca576040805162461bcd60e51b815260206004820152601b60248201527f536166654d6174683a206164646974696f6e206f766572666c6f770000000000604482015290519081900360640190fd5b9392505050565b6008541580610ef95750600854610ef682610eea610633565b9063ffffffff610e7016565b11155b610f4a576040805162461bcd60e51b815260206004820152601960248201527f45524332304361707065643a2063617020657863656564656400000000000000604482015290519081900360640190fd5b6109e8828261119b565b6001600160a01b038216610f995760405162461bcd60e51b81526004018080602001828103825260218152602001806115026021913960400191505060405180910390fd5b610fdc816040518060600160405280602281526020016113d9602291396001600160a01b038516600090815260208190526040902054919063ffffffff610dd916565b6001600160a01b038316600090815260208190526040902055600254611008908263ffffffff61128b16565b6002556040805182815290516000916001600160a01b038516917fddf252ad1be2c89b69c2b068fc378daa952ba7f163c4a11628f55a4df523b3ef9181900360200190a35050565b61105a8282610f54565b6109e882611066610b8d565b6106b7846040518060600160405280602481526020016114de602491396001600160a01b038816600090815260016020526040812090610690610b8d565b6110b560078263ffffffff6112cd16565b6040516001600160a01b038216907f6ae172837ea30b801fbfcdd4108aa1d5bf8ff775444fd70256b44e6bf3dfc3f690600090a250565b6110fd60078263ffffffff61134e16565b6040516001600160a01b038216907fe94479a9f7e1952cc78f2d6baab678adc1b772d936c6583def489e524cb6669290600090a250565b60006001600160a01b03821661117b5760405162461bcd60e51b81526004018080602001828103825260228152602001806114bc6022913960400191505060405180910390fd5b506001600160a01b03166000908152602091909152604090205460ff1690565b6001600160a01b0382166111f6576040805162461bcd60e51b815260206004820152601f60248201527f45524332303a206d696e7420746f20746865207a65726f206164647265737300604482015290519081900360640190fd5b600254611209908263ffffffff610e7016565b6002556001600160a01b038216600090815260208190526040902054611235908263ffffffff610e7016565b6001600160a01b0383166000818152602081815260408083209490945583518581529351929391927fddf252ad1be2c89b69c2b068fc378daa952ba7f163c4a11628f55a4df523b3ef9281900390910190a35050565b6000610eca83836040518060400160405280601e81526020017f536166654d6174683a207375627472616374696f6e206f766572666c6f770000815250610dd9565b6112d78282611134565b15611329576040805162461bcd60e51b815260206004820152601f60248201527f526f6c65733a206163636f756e7420616c72656164792068617320726f6c6500604482015290519081900360640190fd5b6001600160a01b0316600090815260209190915260409020805460ff19166001179055565b6113588282611134565b6113935760405162461bcd60e51b81526004018080602001828103825260218152602001806114736021913960400191505060405180910390fd5b6001600160a01b0316600090815260209190915260409020805460ff1916905556fe45524332303a207472616e7366657220746f20746865207a65726f206164647265737345524332303a206275726e20616d6f756e7420657863656564732062616c616e636545524332303a20617070726f766520746f20746865207a65726f206164647265737345524332303a207472616e7366657220616d6f756e7420657863656564732062616c616e63654d696e746572526f6c653a2063616c6c657220646f6573206e6f74206861766520746865204d696e74657220726f6c65526f6c65733a206163636f756e7420646f6573206e6f74206861766520726f6c6545524332303a207472616e7366657220616d6f756e74206578636565647320616c6c6f77616e6365526f6c65733a206163636f756e7420697320746865207a65726f206164647265737345524332303a206275726e20616d6f756e74206578636565647320616c6c6f77616e636545524332303a206275726e2066726f6d20746865207a65726f206164647265737345524332303a207472616e736665722066726f6d20746865207a65726f206164647265737345524332303a20617070726f76652066726f6d20746865207a65726f206164647265737345524332303a2064656372656173656420616c6c6f77616e63652062656c6f77207a65726fa265627a7a72315820e28d9ea1fda237935832cf405e7580c6a19b9bb2419e2ff03bebc9f9ba13892064736f6c63430005110032526f6c65733a206163636f756e7420697320746865207a65726f2061646472657373",
  "source": "pragma solidity ^0.5;\n\nimport \"./BEP20.sol\";\nimport \"./openzeppelin-contracts-v2.5/token/ERC20/ERC20Capped.sol\";\n\n\ncontract BEP20Mintable is BEP20, ERC20Mintable  {\n  uint256 private _cap;\n\n  constructor(string memory _name,string memory  _symbol, uint8 _decimals,uint256 _startingBalance,bool _burnable,uint256 cap)\n  BEP20(_name,_symbol,_decimals,_startingBalance,_burnable)\n  public {\n          _cap = cap;\n  }\n  \n  function info() public view returns(string memory,string memory,uint8,uint256,uint256,uint256,bool,bool){\n    return (name,symbol,decimals,totalSupply(),balanceOf(msg.sender),cap(),burnable,true);\n  }\n  function mintable() external view returns (bool){\n    return true;\n  }\n\n  /**\n   * @dev Returns the cap on the token's total supply.\n   */\n  function cap() public view returns (uint256) {\n    return _cap;\n  }\n\n  function capped() public view returns (bool){\n    return _cap!=0;\n  }\n  /**\n   * @dev See {ERC20Mintable-mint}.\n   *\n   * Requirements:\n   *\n   * - `value` must not cause the total supply to go over the cap.\n   */\n  function _mint(address account, uint256 value) internal {\n    require(_cap==0 || totalSupply().add(value) <= _cap, \"ERC20Capped: cap exceeded\");\n    super._mint(account, value);\n  }\n}\n",
  "sourcePath": "/Users/sudipbhattarai/Documents/erc20-tokensale-gen/solidity-contracts/BEP20Mintable.sol",
  "compiler": {
    "name": "solc",
    "version": "0.5.17+commit.d19bba13.Emscripten.clang"
  },
  "schemaVersion": "3.4.3",
  "updatedAt": "2022-02-06T18:13:26.059Z",
  "devdoc": {
    "methods": {
      "allowance(address,address)": {
        "details": "See {IERC20-allowance}."
      },
      "approve(address,uint256)": {
        "details": "See {IERC20-approve}.     * Requirements:     * - `spender` cannot be the zero address."
      },
      "balanceOf(address)": {
        "details": "See {IERC20-balanceOf}."
      },
      "burnFrom(address,uint256)": {
        "details": "See {ERC20-_burnFrom}."
      },
      "cap()": {
        "details": "Returns the cap on the token's total supply."
      },
      "decreaseAllowance(address,uint256)": {
        "details": "Atomically decreases the allowance granted to `spender` by the caller.     * This is an alternative to {approve} that can be used as a mitigation for problems described in {IERC20-approve}.     * Emits an {Approval} event indicating the updated allowance.     * Requirements:     * - `spender` cannot be the zero address. - `spender` must have allowance for the caller of at least `subtractedValue`."
      },
      "getOwner()": {
        "details": "Returns the bep token owner."
      },
      "increaseAllowance(address,uint256)": {
        "details": "Atomically increases the allowance granted to `spender` by the caller.     * This is an alternative to {approve} that can be used as a mitigation for problems described in {IERC20-approve}.     * Emits an {Approval} event indicating the updated allowance.     * Requirements:     * - `spender` cannot be the zero address."
      },
      "mint(address,uint256)": {
        "details": "See {ERC20-_mint}.     * Requirements:     * - the caller must have the {MinterRole}."
      },
      "transfer(address,uint256)": {
        "details": "See {IERC20-transfer}.     * Requirements:     * - `recipient` cannot be the zero address. - the caller must have a balance of at least `amount`."
      },
      "transferFrom(address,address,uint256)": {
        "details": "See {IERC20-transferFrom}.     * Emits an {Approval} event indicating the updated allowance. This is not required by the EIP. See the note at the beginning of {ERC20};     * Requirements: - `sender` and `recipient` cannot be the zero address. - `sender` must have a balance of at least `amount`. - the caller must have allowance for `sender`'s tokens of at least `amount`."
      }
    }
  },
  "userdoc": {
    "methods": {}
  }
}