{
  "contractName": "ConditionalEscrowMock",
  "abi": [
    {
      "anonymous": false,
      "inputs": [
        {
          "indexed": true,
          "internalType": "address",
          "name": "payee",
          "type": "address"
        },
        {
          "indexed": false,
          "internalType": "uint256",
          "name": "weiAmount",
          "type": "uint256"
        }
      ],
      "name": "Deposited",
      "type": "event"
    },
    {
      "anonymous": false,
      "inputs": [
        {
          "indexed": false,
          "internalType": "address",
          "name": "recipient",
          "type": "address"
        }
      ],
      "name": "PrimaryTransferred",
      "type": "event"
    },
    {
      "anonymous": false,
      "inputs": [
        {
          "indexed": true,
          "internalType": "address",
          "name": "payee",
          "type": "address"
        },
        {
          "indexed": false,
          "internalType": "uint256",
          "name": "weiAmount",
          "type": "uint256"
        }
      ],
      "name": "Withdrawn",
      "type": "event"
    },
    {
      "constant": false,
      "inputs": [
        {
          "internalType": "address",
          "name": "payee",
          "type": "address"
        }
      ],
      "name": "deposit",
      "outputs": [],
      "payable": true,
      "stateMutability": "payable",
      "type": "function"
    },
    {
      "constant": true,
      "inputs": [
        {
          "internalType": "address",
          "name": "payee",
          "type": "address"
        }
      ],
      "name": "depositsOf",
      "outputs": [
        {
          "internalType": "uint256",
          "name": "",
          "type": "uint256"
        }
      ],
      "payable": false,
      "stateMutability": "view",
      "type": "function"
    },
    {
      "constant": true,
      "inputs": [],
      "name": "primary",
      "outputs": [
        {
          "internalType": "address",
          "name": "",
          "type": "address"
        }
      ],
      "payable": false,
      "stateMutability": "view",
      "type": "function"
    },
    {
      "constant": false,
      "inputs": [
        {
          "internalType": "address",
          "name": "recipient",
          "type": "address"
        }
      ],
      "name": "transferPrimary",
      "outputs": [],
      "payable": false,
      "stateMutability": "nonpayable",
      "type": "function"
    },
    {
      "constant": false,
      "inputs": [
        {
          "internalType": "address payable",
          "name": "payee",
          "type": "address"
        }
      ],
      "name": "withdraw",
      "outputs": [],
      "payable": false,
      "stateMutability": "nonpayable",
      "type": "function"
    },
    {
      "constant": false,
      "inputs": [
        {
          "internalType": "address payable",
          "name": "payee",
          "type": "address"
        }
      ],
      "name": "withdrawWithGas",
      "outputs": [],
      "payable": false,
      "stateMutability": "nonpayable",
      "type": "function"
    },
    {
      "constant": false,
      "inputs": [
        {
          "internalType": "address",
          "name": "payee",
          "type": "address"
        },
        {
          "internalType": "bool",
          "name": "allowed",
          "type": "bool"
        }
      ],
      "name": "setAllowed",
      "outputs": [],
      "payable": false,
      "stateMutability": "nonpayable",
      "type": "function"
    },
    {
      "constant": true,
      "inputs": [
        {
          "internalType": "address",
          "name": "payee",
          "type": "address"
        }
      ],
      "name": "withdrawalAllowed",
      "outputs": [
        {
          "internalType": "bool",
          "name": "",
          "type": "bool"
        }
      ],
      "payable": false,
      "stateMutability": "view",
      "type": "function"
    }
  ],
  "bytecode": "0x608060405260006100176001600160e01b0361007216565b600080546001600160a01b0383166001600160a01b0319909116811790915560408051918252519192507f4101e71e974f68df5e9730cc223280b41654676bbb052cdcc735c3337e64d2d9919081900360200190a150610076565b3390565b6108c0806100856000396000f3fe60806040526004361061007b5760003560e01c8063685ca1941161004e578063685ca19414610156578063c6dbdf611461019d578063e3a9db1a146101ce578063f340fa01146102135761007b565b80632348238c146100805780634697f05d146100b557806351cff8d9146100f05780636809691a14610123575b600080fd5b34801561008c57600080fd5b506100b3600480360360208110156100a357600080fd5b50356001600160a01b0316610239565b005b3480156100c157600080fd5b506100b3600480360360408110156100d857600080fd5b506001600160a01b038135169060200135151561032b565b3480156100fc57600080fd5b506100b36004803603602081101561011357600080fd5b50356001600160a01b0316610356565b34801561012f57600080fd5b506100b36004803603602081101561014657600080fd5b50356001600160a01b03166103a6565b34801561016257600080fd5b506101896004803603602081101561017957600080fd5b50356001600160a01b0316610470565b604080519115158252519081900360200190f35b3480156101a957600080fd5b506101b261048e565b604080516001600160a01b039092168252519081900360200190f35b3480156101da57600080fd5b50610201600480360360208110156101f157600080fd5b50356001600160a01b031661049d565b60408051918252519081900360200190f35b6100b36004803603602081101561022957600080fd5b50356001600160a01b03166104b8565b6000546001600160a01b031661024d610592565b6001600160a01b0316146102925760405162461bcd60e51b815260040180806020018281038252602c815260200180610860602c913960400191505060405180910390fd5b6001600160a01b0381166102d75760405162461bcd60e51b815260040180806020018281038252602a815260200180610836602a913960400191505060405180910390fd5b600080546001600160a01b0383166001600160a01b0319909116811790915560408051918252517f4101e71e974f68df5e9730cc223280b41654676bbb052cdcc735c3337e64d2d99181900360200190a150565b6001600160a01b03919091166000908152600260205260409020805460ff1916911515919091179055565b61035f81610470565b61039a5760405162461bcd60e51b81526004018080602001828103825260338152602001806108036033913960400191505060405180910390fd5b6103a381610596565b50565b6000546001600160a01b03166103ba610592565b6001600160a01b0316146103ff5760405162461bcd60e51b815260040180806020018281038252602c815260200180610860602c913960400191505060405180910390fd5b6001600160a01b038116600081815260016020526040812080549190559061042d908263ffffffff61067d16565b6040805182815290516001600160a01b038416917f7084f5476618d8e60b11ef0d7d3f06914655adb8793e28ff7f018d4c76d505d5919081900360200190a25050565b6001600160a01b031660009081526002602052604090205460ff1690565b6000546001600160a01b031690565b6001600160a01b031660009081526001602052604090205490565b6000546001600160a01b03166104cc610592565b6001600160a01b0316146105115760405162461bcd60e51b815260040180806020018281038252602c815260200180610860602c913960400191505060405180910390fd5b6001600160a01b038116600090815260016020526040902054349061053c908263ffffffff61076716565b6001600160a01b038316600081815260016020908152604091829020939093558051848152905191927f2da466a7b24304f47e87fa2e1e5a81b9831ce54fec19055ce277ca2f39ba42c492918290030190a25050565b3390565b6000546001600160a01b03166105aa610592565b6001600160a01b0316146105ef5760405162461bcd60e51b815260040180806020018281038252602c815260200180610860602c913960400191505060405180910390fd5b6001600160a01b038116600081815260016020526040808220805490839055905190929183156108fc02918491818181858888f19350505050158015610639573d6000803e3d6000fd5b506040805182815290516001600160a01b038416917f7084f5476618d8e60b11ef0d7d3f06914655adb8793e28ff7f018d4c76d505d5919081900360200190a25050565b804710156106d2576040805162461bcd60e51b815260206004820152601d60248201527f416464726573733a20696e73756666696369656e742062616c616e6365000000604482015290519081900360640190fd5b6040516000906001600160a01b0384169083908381818185875af1925050503d806000811461071d576040519150601f19603f3d011682016040523d82523d6000602084013e610722565b606091505b50509050806107625760405162461bcd60e51b815260040180806020018281038252603a8152602001806107c9603a913960400191505060405180910390fd5b505050565b6000828201838110156107c1576040805162461bcd60e51b815260206004820152601b60248201527f536166654d6174683a206164646974696f6e206f766572666c6f770000000000604482015290519081900360640190fd5b939250505056fe416464726573733a20756e61626c6520746f2073656e642076616c75652c20726563697069656e74206d61792068617665207265766572746564436f6e646974696f6e616c457363726f773a207061796565206973206e6f7420616c6c6f77656420746f2077697468647261775365636f6e646172793a206e6577207072696d61727920697320746865207a65726f20616464726573735365636f6e646172793a2063616c6c6572206973206e6f7420746865207072696d617279206163636f756e74a265627a7a72315820c35dc578857c353577f7e336e990c85935280836aa125f6c9fb58360cfe117b264736f6c63430005110032",
  "source": "pragma solidity ^0.5.0;\n\nimport \"../payment/escrow/ConditionalEscrow.sol\";\n\n// mock class using ConditionalEscrow\ncontract ConditionalEscrowMock is ConditionalEscrow {\n    mapping(address => bool) private _allowed;\n\n    function setAllowed(address payee, bool allowed) public {\n        _allowed[payee] = allowed;\n    }\n\n    function withdrawalAllowed(address payee) public view returns (bool) {\n        return _allowed[payee];\n    }\n}\n",
  "sourcePath": "/Users/sudipbhattarai/Documents/erc20-tokensale-gen/solidity-contracts/openzeppelin-contracts-v2.5/mocks/ConditionalEscrowMock.sol",
  "compiler": {
    "name": "solc",
    "version": "0.5.17+commit.d19bba13.Emscripten.clang"
  },
  "schemaVersion": "3.4.3",
  "updatedAt": "2022-02-06T18:13:26.141Z",
  "devdoc": {
    "methods": {
      "deposit(address)": {
        "details": "Stores the sent amount as credit to be withdrawn.",
        "params": {
          "payee": "The destination address of the funds."
        }
      },
      "primary()": {
        "return": "the address of the primary."
      },
      "transferPrimary(address)": {
        "details": "Transfers contract to a new primary.",
        "params": {
          "recipient": "The address of new primary."
        }
      },
      "withdrawWithGas(address)": {
        "details": "Same as {withdraw}, but forwarding all gas to the recipient.     * WARNING: Forwarding all gas opens the door to reentrancy vulnerabilities. Make sure you trust the recipient, or are either following the checks-effects-interactions pattern or using {ReentrancyGuard}.     * _Available since v2.4.0._"
      }
    }
  },
  "userdoc": {
    "methods": {}
  }
}