{
  "contractName": "Create2Impl",
  "abi": [
    {
      "constant": false,
      "inputs": [
        {
          "internalType": "bytes32",
          "name": "salt",
          "type": "bytes32"
        },
        {
          "internalType": "bytes",
          "name": "code",
          "type": "bytes"
        }
      ],
      "name": "deploy",
      "outputs": [],
      "payable": false,
      "stateMutability": "nonpayable",
      "type": "function"
    },
    {
      "constant": false,
      "inputs": [
        {
          "internalType": "bytes32",
          "name": "salt",
          "type": "bytes32"
        }
      ],
      "name": "deployERC20",
      "outputs": [],
      "payable": false,
      "stateMutability": "nonpayable",
      "type": "function"
    },
    {
      "constant": true,
      "inputs": [
        {
          "internalType": "bytes32",
          "name": "salt",
          "type": "bytes32"
        },
        {
          "internalType": "bytes",
          "name": "code",
          "type": "bytes"
        },
        {
          "internalType": "address",
          "name": "deployer",
          "type": "address"
        }
      ],
      "name": "computeAddress",
      "outputs": [
        {
          "internalType": "address",
          "name": "",
          "type": "address"
        }
      ],
      "payable": false,
      "stateMutability": "pure",
      "type": "function"
    },
    {
      "constant": true,
      "inputs": [
        {
          "internalType": "bytes32",
          "name": "salt",
          "type": "bytes32"
        },
        {
          "internalType": "bytes",
          "name": "code",
          "type": "bytes"
        }
      ],
      "name": "computeAddress",
      "outputs": [
        {
          "internalType": "address",
          "name": "",
          "type": "address"
        }
      ],
      "payable": false,
      "stateMutability": "view",
      "type": "function"
    }
  ],
  "bytecode": "0x608060405234801561001057600080fd5b50610cf6806100206000396000f3fe608060405234801561001057600080fd5b506004361061004c5760003560e01c8063a318097814610051578063ca9ffe9414610125578063cdcb760a146101d2578063f48fdcd314610281575b600080fd5b6101096004803603606081101561006757600080fd5b8135919081019060408101602082013564010000000081111561008957600080fd5b82018360208201111561009b57600080fd5b803590602001918460018302840111640100000000831117156100bd57600080fd5b91908080601f016020809104026020016040519081016040528093929190818152602001838380828437600092019190915250929550505090356001600160a01b0316915061029e9050565b604080516001600160a01b039092168252519081900360200190f35b6101096004803603604081101561013b57600080fd5b8135919081019060408101602082013564010000000081111561015d57600080fd5b82018360208201111561016f57600080fd5b8035906020019184600183028401116401000000008311171561019157600080fd5b91908080601f0160208091040260200160405190810160405280939291908181526020018383808284376000920191909152509295506102b3945050505050565b61027f600480360360408110156101e857600080fd5b8135919081019060408101602082013564010000000081111561020a57600080fd5b82018360208201111561021c57600080fd5b8035906020019184600183028401116401000000008311171561023e57600080fd5b91908080601f0160208091040260200160405190810160405280939291908181526020018383808284376000920191909152509295506102c6945050505050565b005b61027f6004803603602081101561029757600080fd5b50356102d5565b60006102ab848484610305565b949350505050565b60006102bf838361036c565b9392505050565b6102d08282610379565b505050565b61030181604051806020016102e9906103e3565b601f1982820381018352601f90910116604052610379565b5050565b8151602092830120604080516001600160f81b03198186015260609390931b6bffffffffffffffffffffffff19166021840152603583019490945260558083019190915283518083039091018152607590910190925281519101206001600160a01b031690565b60006102bf838330610305565b600080838351602085016000f590506001600160a01b0381166102bf576040805162461bcd60e51b815260206004820152601960248201527f437265617465323a204661696c6564206f6e206465706c6f7900000000000000604482015290519081900360640190fd5b6108d1806103f18339019056fe608060405234801561001057600080fd5b506040516108d13803806108d18339818101604052602081101561003357600080fd5b5051801561008657326000818152602081815260408083208590556002859055805185815290517fddf252ad1be2c89b69c2b068fc378daa952ba7f163c4a11628f55a4df523b3ef929181900390910190a35b5061083b806100966000396000f3fe608060405234801561001057600080fd5b50600436106100885760003560e01c806370a082311161005b57806370a0823114610149578063a457c2d71461016f578063a9059cbb1461019b578063dd62ed3e146101c757610088565b8063095ea7b31461008d57806318160ddd146100cd57806323b872dd146100e7578063395093511461011d575b600080fd5b6100b9600480360360408110156100a357600080fd5b506001600160a01b0381351690602001356101f5565b604080519115158252519081900360200190f35b6100d5610212565b60408051918252519081900360200190f35b6100b9600480360360608110156100fd57600080fd5b506001600160a01b03813581169160208101359091169060400135610218565b6100b96004803603604081101561013357600080fd5b506001600160a01b0381351690602001356102a5565b6100d56004803603602081101561015f57600080fd5b50356001600160a01b03166102f9565b6100b96004803603604081101561018557600080fd5b506001600160a01b038135169060200135610314565b6100b9600480360360408110156101b157600080fd5b506001600160a01b038135169060200135610382565b6100d5600480360360408110156101dd57600080fd5b506001600160a01b0381358116916020013516610396565b60006102096102026103c1565b84846103c5565b50600192915050565b60025490565b60006102258484846104b1565b61029b846102316103c1565b61029685604051806060016040528060288152602001610771602891396001600160a01b038a1660009081526001602052604081209061026f6103c1565b6001600160a01b03168152602081019190915260400160002054919063ffffffff61060d16565b6103c5565b5060019392505050565b60006102096102b26103c1565b8461029685600160006102c36103c1565b6001600160a01b03908116825260208083019390935260409182016000908120918c16815292529020549063ffffffff6106a416565b6001600160a01b031660009081526020819052604090205490565b60006102096103216103c1565b84610296856040518060600160405280602581526020016107e2602591396001600061034b6103c1565b6001600160a01b03908116825260208083019390935260409182016000908120918d1681529252902054919063ffffffff61060d16565b600061020961038f6103c1565b84846104b1565b6001600160a01b03918216600090815260016020908152604080832093909416825291909152205490565b3390565b6001600160a01b03831661040a5760405162461bcd60e51b81526004018080602001828103825260248152602001806107be6024913960400191505060405180910390fd5b6001600160a01b03821661044f5760405162461bcd60e51b81526004018080602001828103825260228152602001806107296022913960400191505060405180910390fd5b6001600160a01b03808416600081815260016020908152604080832094871680845294825291829020859055815185815291517f8c5be1e5ebec7d5bd14f71427d1e84f3dd0314c0f7b2291e5b200ac8c7c3b9259281900390910190a3505050565b6001600160a01b0383166104f65760405162461bcd60e51b81526004018080602001828103825260258152602001806107996025913960400191505060405180910390fd5b6001600160a01b03821661053b5760405162461bcd60e51b81526004018080602001828103825260238152602001806107066023913960400191505060405180910390fd5b61057e8160405180606001604052806026815260200161074b602691396001600160a01b038616600090815260208190526040902054919063ffffffff61060d16565b6001600160a01b0380851660009081526020819052604080822093909355908416815220546105b3908263ffffffff6106a416565b6001600160a01b038084166000818152602081815260409182902094909455805185815290519193928716927fddf252ad1be2c89b69c2b068fc378daa952ba7f163c4a11628f55a4df523b3ef92918290030190a3505050565b6000818484111561069c5760405162461bcd60e51b81526004018080602001828103825283818151815260200191508051906020019080838360005b83811015610661578181015183820152602001610649565b50505050905090810190601f16801561068e5780820380516001836020036101000a031916815260200191505b509250505060405180910390fd5b505050900390565b6000828201838110156106fe576040805162461bcd60e51b815260206004820152601b60248201527f536166654d6174683a206164646974696f6e206f766572666c6f770000000000604482015290519081900360640190fd5b939250505056fe45524332303a207472616e7366657220746f20746865207a65726f206164647265737345524332303a20617070726f766520746f20746865207a65726f206164647265737345524332303a207472616e7366657220616d6f756e7420657863656564732062616c616e636545524332303a207472616e7366657220616d6f756e74206578636565647320616c6c6f77616e636545524332303a207472616e736665722066726f6d20746865207a65726f206164647265737345524332303a20617070726f76652066726f6d20746865207a65726f206164647265737345524332303a2064656372656173656420616c6c6f77616e63652062656c6f77207a65726fa265627a7a7231582096c41c173703db1fcc5282f9b6ac7b1a2e2cdafe92f299653f3eacf397995ff664736f6c63430005110032a265627a7a723158201943d38e75b6e66e5474b40890c989f09fbcbd7f3fa1194f3c779eaaa95be3f064736f6c63430005110032",
  "source": "pragma solidity ^0.5.0;\n\nimport \"../utils/Create2.sol\";\nimport \"../token/ERC20/ERC20.sol\";\n\ncontract Create2Impl {\n    function deploy(bytes32 salt, bytes memory code) public {\n        Create2.deploy(salt, code);\n    }\n\n    function deployERC20(bytes32 salt) public {\n        // solhint-disable-next-line indent\n        Create2.deploy(salt, type(ERC20).creationCode);\n    }\n\n    function computeAddress(bytes32 salt, bytes memory code) public view returns (address) {\n        return Create2.computeAddress(salt, code);\n    }\n\n    function computeAddress(bytes32 salt, bytes memory code, address deployer) public pure returns (address) {\n        return Create2.computeAddress(salt, code, deployer);\n    }\n}\n",
  "sourcePath": "/Users/sudipbhattarai/Documents/erc20-tokensale-gen/solidity-contracts/openzeppelin-contracts-v2.5/mocks/Create2Impl.sol",
  "compiler": {
    "name": "solc",
    "version": "0.5.17+commit.d19bba13.Emscripten.clang"
  },
  "schemaVersion": "3.4.3",
  "updatedAt": "2022-02-06T18:13:26.143Z",
  "devdoc": {
    "methods": {}
  },
  "userdoc": {
    "methods": {}
  }
}