{
  "contractName": "EnumerableSetMock",
  "abi": [
    {
      "anonymous": false,
      "inputs": [
        {
          "indexed": false,
          "internalType": "bool",
          "name": "result",
          "type": "bool"
        }
      ],
      "name": "TransactionResult",
      "type": "event"
    },
    {
      "constant": true,
      "inputs": [
        {
          "internalType": "address",
          "name": "value",
          "type": "address"
        }
      ],
      "name": "contains",
      "outputs": [
        {
          "internalType": "bool",
          "name": "",
          "type": "bool"
        }
      ],
      "payable": false,
      "stateMutability": "view",
      "type": "function"
    },
    {
      "constant": false,
      "inputs": [
        {
          "internalType": "address",
          "name": "value",
          "type": "address"
        }
      ],
      "name": "add",
      "outputs": [],
      "payable": false,
      "stateMutability": "nonpayable",
      "type": "function"
    },
    {
      "constant": false,
      "inputs": [
        {
          "internalType": "address",
          "name": "value",
          "type": "address"
        }
      ],
      "name": "remove",
      "outputs": [],
      "payable": false,
      "stateMutability": "nonpayable",
      "type": "function"
    },
    {
      "constant": true,
      "inputs": [],
      "name": "enumerate",
      "outputs": [
        {
          "internalType": "address[]",
          "name": "",
          "type": "address[]"
        }
      ],
      "payable": false,
      "stateMutability": "view",
      "type": "function"
    },
    {
      "constant": true,
      "inputs": [],
      "name": "length",
      "outputs": [
        {
          "internalType": "uint256",
          "name": "",
          "type": "uint256"
        }
      ],
      "payable": false,
      "stateMutability": "view",
      "type": "function"
    },
    {
      "constant": true,
      "inputs": [
        {
          "internalType": "uint256",
          "name": "index",
          "type": "uint256"
        }
      ],
      "name": "get",
      "outputs": [
        {
          "internalType": "address",
          "name": "",
          "type": "address"
        }
      ],
      "payable": false,
      "stateMutability": "view",
      "type": "function"
    }
  ],
  "bytecode": "0x608060405234801561001057600080fd5b506104db806100206000396000f3fe608060405234801561001057600080fd5b50600436106100625760003560e01c80630a3b0a4f146100675780631f7b6d321461008f57806329092d0e146100a95780635dbe47e8146100cf5780639507d39a14610109578063ff9f78b314610142575b600080fd5b61008d6004803603602081101561007d57600080fd5b50356001600160a01b031661019a565b005b6100976101e9565b60408051918252519081900360200190f35b61008d600480360360208110156100bf57600080fd5b50356001600160a01b03166101fa565b6100f5600480360360208110156100e557600080fd5b50356001600160a01b031661020c565b604080519115158252519081900360200190f35b6101266004803603602081101561011f57600080fd5b5035610224565b604080516001600160a01b039092168252519081900360200190f35b61014a610236565b60408051602080825283518183015283519192839290830191858101910280838360005b8381101561018657818101518382015260200161016e565b505050509050019250505060405180910390f35b60006101ac818363ffffffff61024216565b60408051821515815290519192507f5f2d66b608a7b4bfa43b7e9ba385022741152c97499b8a8abcd5c27258417b5a919081900360200190a15050565b60006101f560006102a3565b905090565b60006101ac818363ffffffff6102aa16565b600061021e818363ffffffff6103b516565b92915050565b600061021e818363ffffffff6103d316565b60606101f56000610400565b600061024e83836103b5565b61029a5750600182810180548083018083556000928352602080842090920180546001600160a01b0319166001600160a01b03871690811790915583529085905260409091205561021e565b50600092915050565b6001015490565b60006102b683836103b5565b1561029a576001600160a01b038216600090815260208490526040902054600184015460001991820191018082146103615760008560010182815481106102f957fe5b6000918252602090912001546001870180546001600160a01b03909216925082918590811061032457fe5b600091825260208083209190910180546001600160a01b0319166001600160a01b0394851617905592909116815290869052604090206001830190555b6001600160a01b0384166000908152602086905260408120556001850180548061038757fe5b600082815260209020810160001990810180546001600160a01b0319169055019055506001915061021e9050565b6001600160a01b031660009081526020919091526040902054151590565b60008260010182815481106103e457fe5b6000918252602090912001546001600160a01b03169392505050565b6060808260010180549050604051908082528060200260200182016040528015610434578160200160208202803883390190505b50905060005b600184015481101561049f5783600101818154811061045557fe5b9060005260206000200160009054906101000a90046001600160a01b031682828151811061047f57fe5b6001600160a01b039092166020928302919091019091015260010161043a565b509291505056fea265627a7a72315820f2d860fca57c5e93339790e85f5f7777c25b77015fd2f8badf46975abb4c47dc64736f6c63430005110032",
  "source": "pragma solidity ^0.5.0;\n\nimport \"../utils/EnumerableSet.sol\";\n\ncontract EnumerableSetMock{\n    using EnumerableSet for EnumerableSet.AddressSet;\n\n    event TransactionResult(bool result);\n\n    EnumerableSet.AddressSet private set;\n\n    function contains(address value) public view returns (bool) {\n        return set.contains(value);\n    }\n\n    function add(address value) public {\n        bool result = set.add(value);\n        emit TransactionResult(result);\n    }\n\n    function remove(address value) public {\n        bool result = set.remove(value);\n        emit TransactionResult(result);\n    }\n\n    function enumerate() public view returns (address[] memory) {\n        return set.enumerate();\n    }\n\n    function length() public view returns (uint256) {\n        return set.length();\n    }\n\n    function get(uint256 index) public view returns (address) {\n        return set.get(index);\n    }\n}\n",
  "sourcePath": "/Users/sudipbhattarai/Documents/erc20-tokensale-gen/solidity-contracts/openzeppelin-contracts-v2.5/mocks/EnumerableSetMock.sol",
  "compiler": {
    "name": "solc",
    "version": "0.5.17+commit.d19bba13.Emscripten.clang"
  },
  "schemaVersion": "3.4.3",
  "updatedAt": "2022-02-06T18:13:26.160Z",
  "devdoc": {
    "methods": {}
  },
  "userdoc": {
    "methods": {}
  }
}