{
  "contractName": "ERC777Mock",
  "abi": [
    {
      "inputs": [
        {
          "internalType": "address",
          "name": "initialHolder",
          "type": "address"
        },
        {
          "internalType": "uint256",
          "name": "initialBalance",
          "type": "uint256"
        },
        {
          "internalType": "string",
          "name": "name",
          "type": "string"
        },
        {
          "internalType": "string",
          "name": "symbol",
          "type": "string"
        },
        {
          "internalType": "address[]",
          "name": "defaultOperators",
          "type": "address[]"
        }
      ],
      "payable": false,
      "stateMutability": "nonpayable",
      "type": "constructor"
    },
    {
      "anonymous": false,
      "inputs": [
        {
          "indexed": true,
          "internalType": "address",
          "name": "owner",
          "type": "address"
        },
        {
          "indexed": true,
          "internalType": "address",
          "name": "spender",
          "type": "address"
        },
        {
          "indexed": false,
          "internalType": "uint256",
          "name": "value",
          "type": "uint256"
        }
      ],
      "name": "Approval",
      "type": "event"
    },
    {
      "anonymous": false,
      "inputs": [
        {
          "indexed": true,
          "internalType": "address",
          "name": "operator",
          "type": "address"
        },
        {
          "indexed": true,
          "internalType": "address",
          "name": "tokenHolder",
          "type": "address"
        }
      ],
      "name": "AuthorizedOperator",
      "type": "event"
    },
    {
      "anonymous": false,
      "inputs": [
        {
          "indexed": true,
          "internalType": "address",
          "name": "operator",
          "type": "address"
        },
        {
          "indexed": true,
          "internalType": "address",
          "name": "from",
          "type": "address"
        },
        {
          "indexed": false,
          "internalType": "uint256",
          "name": "amount",
          "type": "uint256"
        },
        {
          "indexed": false,
          "internalType": "bytes",
          "name": "data",
          "type": "bytes"
        },
        {
          "indexed": false,
          "internalType": "bytes",
          "name": "operatorData",
          "type": "bytes"
        }
      ],
      "name": "Burned",
      "type": "event"
    },
    {
      "anonymous": false,
      "inputs": [
        {
          "indexed": true,
          "internalType": "address",
          "name": "operator",
          "type": "address"
        },
        {
          "indexed": true,
          "internalType": "address",
          "name": "to",
          "type": "address"
        },
        {
          "indexed": false,
          "internalType": "uint256",
          "name": "amount",
          "type": "uint256"
        },
        {
          "indexed": false,
          "internalType": "bytes",
          "name": "data",
          "type": "bytes"
        },
        {
          "indexed": false,
          "internalType": "bytes",
          "name": "operatorData",
          "type": "bytes"
        }
      ],
      "name": "Minted",
      "type": "event"
    },
    {
      "anonymous": false,
      "inputs": [
        {
          "indexed": true,
          "internalType": "address",
          "name": "operator",
          "type": "address"
        },
        {
          "indexed": true,
          "internalType": "address",
          "name": "tokenHolder",
          "type": "address"
        }
      ],
      "name": "RevokedOperator",
      "type": "event"
    },
    {
      "anonymous": false,
      "inputs": [
        {
          "indexed": true,
          "internalType": "address",
          "name": "operator",
          "type": "address"
        },
        {
          "indexed": true,
          "internalType": "address",
          "name": "from",
          "type": "address"
        },
        {
          "indexed": true,
          "internalType": "address",
          "name": "to",
          "type": "address"
        },
        {
          "indexed": false,
          "internalType": "uint256",
          "name": "amount",
          "type": "uint256"
        },
        {
          "indexed": false,
          "internalType": "bytes",
          "name": "data",
          "type": "bytes"
        },
        {
          "indexed": false,
          "internalType": "bytes",
          "name": "operatorData",
          "type": "bytes"
        }
      ],
      "name": "Sent",
      "type": "event"
    },
    {
      "anonymous": false,
      "inputs": [
        {
          "indexed": true,
          "internalType": "address",
          "name": "from",
          "type": "address"
        },
        {
          "indexed": true,
          "internalType": "address",
          "name": "to",
          "type": "address"
        },
        {
          "indexed": false,
          "internalType": "uint256",
          "name": "value",
          "type": "uint256"
        }
      ],
      "name": "Transfer",
      "type": "event"
    },
    {
      "constant": true,
      "inputs": [
        {
          "internalType": "address",
          "name": "holder",
          "type": "address"
        },
        {
          "internalType": "address",
          "name": "spender",
          "type": "address"
        }
      ],
      "name": "allowance",
      "outputs": [
        {
          "internalType": "uint256",
          "name": "",
          "type": "uint256"
        }
      ],
      "payable": false,
      "stateMutability": "view",
      "type": "function"
    },
    {
      "constant": false,
      "inputs": [
        {
          "internalType": "address",
          "name": "spender",
          "type": "address"
        },
        {
          "internalType": "uint256",
          "name": "value",
          "type": "uint256"
        }
      ],
      "name": "approve",
      "outputs": [
        {
          "internalType": "bool",
          "name": "",
          "type": "bool"
        }
      ],
      "payable": false,
      "stateMutability": "nonpayable",
      "type": "function"
    },
    {
      "constant": false,
      "inputs": [
        {
          "internalType": "address",
          "name": "operator",
          "type": "address"
        }
      ],
      "name": "authorizeOperator",
      "outputs": [],
      "payable": false,
      "stateMutability": "nonpayable",
      "type": "function"
    },
    {
      "constant": true,
      "inputs": [
        {
          "internalType": "address",
          "name": "tokenHolder",
          "type": "address"
        }
      ],
      "name": "balanceOf",
      "outputs": [
        {
          "internalType": "uint256",
          "name": "",
          "type": "uint256"
        }
      ],
      "payable": false,
      "stateMutability": "view",
      "type": "function"
    },
    {
      "constant": false,
      "inputs": [
        {
          "internalType": "uint256",
          "name": "amount",
          "type": "uint256"
        },
        {
          "internalType": "bytes",
          "name": "data",
          "type": "bytes"
        }
      ],
      "name": "burn",
      "outputs": [],
      "payable": false,
      "stateMutability": "nonpayable",
      "type": "function"
    },
    {
      "constant": true,
      "inputs": [],
      "name": "decimals",
      "outputs": [
        {
          "internalType": "uint8",
          "name": "",
          "type": "uint8"
        }
      ],
      "payable": false,
      "stateMutability": "pure",
      "type": "function"
    },
    {
      "constant": true,
      "inputs": [],
      "name": "defaultOperators",
      "outputs": [
        {
          "internalType": "address[]",
          "name": "",
          "type": "address[]"
        }
      ],
      "payable": false,
      "stateMutability": "view",
      "type": "function"
    },
    {
      "constant": true,
      "inputs": [],
      "name": "granularity",
      "outputs": [
        {
          "internalType": "uint256",
          "name": "",
          "type": "uint256"
        }
      ],
      "payable": false,
      "stateMutability": "view",
      "type": "function"
    },
    {
      "constant": true,
      "inputs": [
        {
          "internalType": "address",
          "name": "operator",
          "type": "address"
        },
        {
          "internalType": "address",
          "name": "tokenHolder",
          "type": "address"
        }
      ],
      "name": "isOperatorFor",
      "outputs": [
        {
          "internalType": "bool",
          "name": "",
          "type": "bool"
        }
      ],
      "payable": false,
      "stateMutability": "view",
      "type": "function"
    },
    {
      "constant": true,
      "inputs": [],
      "name": "name",
      "outputs": [
        {
          "internalType": "string",
          "name": "",
          "type": "string"
        }
      ],
      "payable": false,
      "stateMutability": "view",
      "type": "function"
    },
    {
      "constant": false,
      "inputs": [
        {
          "internalType": "address",
          "name": "account",
          "type": "address"
        },
        {
          "internalType": "uint256",
          "name": "amount",
          "type": "uint256"
        },
        {
          "internalType": "bytes",
          "name": "data",
          "type": "bytes"
        },
        {
          "internalType": "bytes",
          "name": "operatorData",
          "type": "bytes"
        }
      ],
      "name": "operatorBurn",
      "outputs": [],
      "payable": false,
      "stateMutability": "nonpayable",
      "type": "function"
    },
    {
      "constant": false,
      "inputs": [
        {
          "internalType": "address",
          "name": "sender",
          "type": "address"
        },
        {
          "internalType": "address",
          "name": "recipient",
          "type": "address"
        },
        {
          "internalType": "uint256",
          "name": "amount",
          "type": "uint256"
        },
        {
          "internalType": "bytes",
          "name": "data",
          "type": "bytes"
        },
        {
          "internalType": "bytes",
          "name": "operatorData",
          "type": "bytes"
        }
      ],
      "name": "operatorSend",
      "outputs": [],
      "payable": false,
      "stateMutability": "nonpayable",
      "type": "function"
    },
    {
      "constant": false,
      "inputs": [
        {
          "internalType": "address",
          "name": "operator",
          "type": "address"
        }
      ],
      "name": "revokeOperator",
      "outputs": [],
      "payable": false,
      "stateMutability": "nonpayable",
      "type": "function"
    },
    {
      "constant": false,
      "inputs": [
        {
          "internalType": "address",
          "name": "recipient",
          "type": "address"
        },
        {
          "internalType": "uint256",
          "name": "amount",
          "type": "uint256"
        },
        {
          "internalType": "bytes",
          "name": "data",
          "type": "bytes"
        }
      ],
      "name": "send",
      "outputs": [],
      "payable": false,
      "stateMutability": "nonpayable",
      "type": "function"
    },
    {
      "constant": true,
      "inputs": [],
      "name": "symbol",
      "outputs": [
        {
          "internalType": "string",
          "name": "",
          "type": "string"
        }
      ],
      "payable": false,
      "stateMutability": "view",
      "type": "function"
    },
    {
      "constant": true,
      "inputs": [],
      "name": "totalSupply",
      "outputs": [
        {
          "internalType": "uint256",
          "name": "",
          "type": "uint256"
        }
      ],
      "payable": false,
      "stateMutability": "view",
      "type": "function"
    },
    {
      "constant": false,
      "inputs": [
        {
          "internalType": "address",
          "name": "recipient",
          "type": "address"
        },
        {
          "internalType": "uint256",
          "name": "amount",
          "type": "uint256"
        }
      ],
      "name": "transfer",
      "outputs": [
        {
          "internalType": "bool",
          "name": "",
          "type": "bool"
        }
      ],
      "payable": false,
      "stateMutability": "nonpayable",
      "type": "function"
    },
    {
      "constant": false,
      "inputs": [
        {
          "internalType": "address",
          "name": "holder",
          "type": "address"
        },
        {
          "internalType": "address",
          "name": "recipient",
          "type": "address"
        },
        {
          "internalType": "uint256",
          "name": "amount",
          "type": "uint256"
        }
      ],
      "name": "transferFrom",
      "outputs": [
        {
          "internalType": "bool",
          "name": "",
          "type": "bool"
        }
      ],
      "payable": false,
      "stateMutability": "nonpayable",
      "type": "function"
    },
    {
      "constant": false,
      "inputs": [
        {
          "internalType": "address",
          "name": "operator",
          "type": "address"
        },
        {
          "internalType": "address",
          "name": "to",
          "type": "address"
        },
        {
          "internalType": "uint256",
          "name": "amount",
          "type": "uint256"
        },
        {
          "internalType": "bytes",
          "name": "userData",
          "type": "bytes"
        },
        {
          "internalType": "bytes",
          "name": "operatorData",
          "type": "bytes"
        }
      ],
      "name": "mintInternal",
      "outputs": [],
      "payable": false,
      "stateMutability": "nonpayable",
      "type": "function"
    },
    {
      "constant": false,
      "inputs": [
        {
          "internalType": "address",
          "name": "holder",
          "type": "address"
        },
        {
          "internalType": "address",
          "name": "spender",
          "type": "address"
        },
        {
          "internalType": "uint256",
          "name": "value",
          "type": "uint256"
        }
      ],
      "name": "approveInternal",
      "outputs": [],
      "payable": false,
      "stateMutability": "nonpayable",
      "type": "function"
    }
  ],
  "bytecode": "0x60806040523480156200001157600080fd5b5060405162002e8b38038062002e8b833981810160405260a08110156200003757600080fd5b815160208301516040808501805191519395929483019291846401000000008211156200006357600080fd5b9083019060208201858111156200007957600080fd5b82516401000000008111828201881017156200009457600080fd5b82525081516020918201929091019080838360005b83811015620000c3578181015183820152602001620000a9565b50505050905090810190601f168015620000f15780820380516001836020036101000a031916815260200191505b50604052602001805160405193929190846401000000008211156200011557600080fd5b9083019060208201858111156200012b57600080fd5b82516401000000008111828201881017156200014657600080fd5b82525081516020918201929091019080838360005b83811015620001755781810151838201526020016200015b565b50505050905090810190601f168015620001a35780820380516001836020036101000a031916815260200191505b5060405260200180516040519392919084640100000000821115620001c757600080fd5b908301906020820185811115620001dd57600080fd5b8251866020820283011164010000000082111715620001fb57600080fd5b82525081516020918201928201910280838360005b838110156200022a57818101518382015260200162000210565b5050505090500160405250505082828282600290805190602001906200025292919062000a0a565b5081516200026890600390602085019062000a0a565b5080516200027e90600490602084019062000a8f565b5060005b600454811015620002de5760016005600060048481548110620002a157fe5b6000918252602080832091909101546001600160a01b031683528201929092526040019020805460ff191691151591909117905560010162000282565b50604080516a22a9219b9b9baa37b5b2b760a91b8152815190819003600b0181206329965a1d60e01b82523060048301819052602483019190915260448201529051731820a4b7618bde71dce8cdc73aab6c95905fad24916329965a1d91606480830192600092919082900301818387803b1580156200035d57600080fd5b505af115801562000372573d6000803e3d6000fd5b5050604080516922a92199182a37b5b2b760b11b8152815190819003600a0181206329965a1d60e01b82523060048301819052602483019190915260448201529051731820a4b7618bde71dce8cdc73aab6c95905fad2493506329965a1d9250606480830192600092919082900301818387803b158015620003f357600080fd5b505af115801562000408573d6000803e3d6000fd5b5050505050505062000451620004236200045c60201b60201c565b868660405180602001604052806000815250604051806020016040528060008152506200046160201b60201c565b505050505062000b39565b335b90565b6001600160a01b038416620004bd576040805162461bcd60e51b815260206004820181905260248201527f4552433737373a206d696e7420746f20746865207a65726f2061646472657373604482015290519081900360640190fd5b620004d983600154620006ae60201b62001fbd1790919060201c565b6001556001600160a01b038416600090815260208181526040909120546200050c91859062001fbd620006ae821b17901c565b6001600160a01b038516600090815260208190526040812091909155620005449086908686868660016001600160e01b036200071016565b836001600160a01b0316856001600160a01b03167f2fe5be0146f74c5bce36c0b80911af6c7d86ff27e89d5cfa61fc681327954e5d858585604051808481526020018060200180602001838103835285818151815260200191508051906020019080838360005b83811015620005c5578181015183820152602001620005ab565b50505050905090810190601f168015620005f35780820380516001836020036101000a031916815260200191505b50838103825284518152845160209182019186019080838360005b83811015620006285781810151838201526020016200060e565b50505050905090810190601f168015620006565780820380516001836020036101000a031916815260200191505b509550505050505060405180910390a36040805184815290516001600160a01b038616916000917fddf252ad1be2c89b69c2b068fc378daa952ba7f163c4a11628f55a4df523b3ef9181900360200190a35050505050565b60008282018381101562000709576040805162461bcd60e51b815260206004820152601b60248201527f536166654d6174683a206164646974696f6e206f766572666c6f770000000000604482015290519081900360640190fd5b9392505050565b6040805163555ddc6560e11b81526001600160a01b03871660048201527fb281fc8c12954d22544db45de3159a39272895b169a852b314f9cc762e44c53b60248201529051600091731820a4b7618bde71dce8cdc73aab6c95905fad249163aabbb8ca91604480820192602092909190829003018186803b1580156200079557600080fd5b505afa158015620007aa573d6000803e3d6000fd5b505050506040513d6020811015620007c157600080fd5b505190506001600160a01b038116156200095f57806001600160a01b03166223de298989898989896040518763ffffffff1660e01b815260040180876001600160a01b03166001600160a01b03168152602001866001600160a01b03166001600160a01b03168152602001856001600160a01b03166001600160a01b031681526020018481526020018060200180602001838103835285818151815260200191508051906020019080838360005b83811015620008895781810151838201526020016200086f565b50505050905090810190601f168015620008b75780820380516001836020036101000a031916815260200191505b50838103825284518152845160209182019186019080838360005b83811015620008ec578181015183820152602001620008d2565b50505050905090810190601f1680156200091a5780820380516001836020036101000a031916815260200191505b5098505050505050505050600060405180830381600087803b1580156200094057600080fd5b505af115801562000955573d6000803e3d6000fd5b50505050620009c3565b8115620009c35762000985866001600160a01b0316620009cd60201b620020171760201c565b15620009c35760405162461bcd60e51b815260040180806020018281038252604d81526020018062002e3e604d913960600191505060405180910390fd5b5050505050505050565b6000813f7fc5d2460186f7233c927e7db2dcc703c0e500b653ca82273b7bfad8045d85a47081811480159062000a0257508115155b949350505050565b828054600181600116156101000203166002900490600052602060002090601f016020900481019282601f1062000a4d57805160ff191683800117855562000a7d565b8280016001018555821562000a7d579182015b8281111562000a7d57825182559160200191906001019062000a60565b5062000a8b92915062000af5565b5090565b82805482825590600052602060002090810192821562000ae7579160200282015b8281111562000ae757825182546001600160a01b0319166001600160a01b0390911617825560209092019160019091019062000ab0565b5062000a8b92915062000b12565b6200045e91905b8082111562000a8b576000815560010162000afc565b6200045e91905b8082111562000a8b5780546001600160a01b031916815560010162000b19565b6122f58062000b496000396000f3fe608060405234801561001057600080fd5b506004361061012c5760003560e01c806370a08231116100ad578063d95b637111610071578063d95b6371146106bf578063dd62ed3e146106ed578063fad8b32a1461071b578063fc673c4f14610741578063fe9d93031461087f5761012c565b806370a0823114610586578063959b8c3f146105ac57806395d89b41146105d25780639bd9bbc6146105da578063a9059cbb146106935761012c565b8063313ce567116100f4578063313ce56714610296578063502f2b8b146102b4578063556f0dc7146103ff57806356189cb41461040757806362ad1b831461043d5761012c565b806306e485381461013157806306fdde0314610189578063095ea7b31461020657806318160ddd1461024657806323b872dd14610260575b600080fd5b61013961092a565b60408051602080825283518183015283519192839290830191858101910280838360005b8381101561017557818101518382015260200161015d565b505050509050019250505060405180910390f35b61019161098c565b6040805160208082528351818301528351919283929083019185019080838360005b838110156101cb5781810151838201526020016101b3565b50505050905090810190601f1680156101f85780820380516001836020036101000a031916815260200191505b509250505060405180910390f35b6102326004803603604081101561021c57600080fd5b506001600160a01b038135169060200135610a16565b604080519115158252519081900360200190f35b61024e610a38565b60408051918252519081900360200190f35b6102326004803603606081101561027657600080fd5b506001600160a01b03813581169160208101359091169060400135610a3e565b61029e610bc1565b6040805160ff9092168252519081900360200190f35b6103fd600480360360a08110156102ca57600080fd5b6001600160a01b03823581169260208101359091169160408201359190810190608081016060820135600160201b81111561030457600080fd5b82018360208201111561031657600080fd5b803590602001918460018302840111600160201b8311171561033757600080fd5b91908080601f0160208091040260200160405190810160405280939291908181526020018383808284376000920191909152509295949360208101935035915050600160201b81111561038957600080fd5b82018360208201111561039b57600080fd5b803590602001918460018302840111600160201b831117156103bc57600080fd5b91908080601f016020809104026020016040519081016040528093929190818152602001838380828437600092019190915250929550610bc6945050505050565b005b61024e610bda565b6103fd6004803603606081101561041d57600080fd5b506001600160a01b03813581169160208101359091169060400135610bdf565b6103fd600480360360a081101561045357600080fd5b6001600160a01b03823581169260208101359091169160408201359190810190608081016060820135600160201b81111561048d57600080fd5b82018360208201111561049f57600080fd5b803590602001918460018302840111600160201b831117156104c057600080fd5b91908080601f0160208091040260200160405190810160405280939291908181526020018383808284376000920191909152509295949360208101935035915050600160201b81111561051257600080fd5b82018360208201111561052457600080fd5b803590602001918460018302840111600160201b8311171561054557600080fd5b91908080601f016020809104026020016040519081016040528093929190818152602001838380828437600092019190915250929550610bef945050505050565b61024e6004803603602081101561059c57600080fd5b50356001600160a01b0316610c52565b6103fd600480360360208110156105c257600080fd5b50356001600160a01b0316610c6d565b610191610db9565b6103fd600480360360608110156105f057600080fd5b6001600160a01b0382351691602081013591810190606081016040820135600160201b81111561061f57600080fd5b82018360208201111561063157600080fd5b803590602001918460018302840111600160201b8311171561065257600080fd5b91908080601f016020809104026020016040519081016040528093929190818152602001838380828437600092019190915250929550610e1a945050505050565b610232600480360360408110156106a957600080fd5b506001600160a01b038135169060200135610e47565b610232600480360360408110156106d557600080fd5b506001600160a01b0381358116916020013516610f20565b61024e6004803603604081101561070357600080fd5b506001600160a01b0381358116916020013516610fc2565b6103fd6004803603602081101561073157600080fd5b50356001600160a01b0316610fed565b6103fd6004803603608081101561075757600080fd5b6001600160a01b0382351691602081013591810190606081016040820135600160201b81111561078657600080fd5b82018360208201111561079857600080fd5b803590602001918460018302840111600160201b831117156107b957600080fd5b91908080601f0160208091040260200160405190810160405280939291908181526020018383808284376000920191909152509295949360208101935035915050600160201b81111561080b57600080fd5b82018360208201111561081d57600080fd5b803590602001918460018302840111600160201b8311171561083e57600080fd5b91908080601f016020809104026020016040519081016040528093929190818152602001838380828437600092019190915250929550611139945050505050565b6103fd6004803603604081101561089557600080fd5b81359190810190604081016020820135600160201b8111156108b657600080fd5b8201836020820111156108c857600080fd5b803590602001918460018302840111600160201b831117156108e957600080fd5b91908080601f01602080910402602001604051908101604052809392919081815260200183838082843760009201919091525092955061119f945050505050565b6060600480548060200260200160405190810160405280929190818152602001828054801561098257602002820191906000526020600020905b81546001600160a01b03168152600190910190602001808311610964575b5050505050905090565b60028054604080516020601f60001961010060018716150201909416859004938401819004810282018101909252828152606093909290918301828280156109825780601f106109ea57610100808354040283529160200191610982565b820191906000526020600020905b8154815290600101906020018083116109f857509395945050505050565b600080610a216111cd565b9050610a2e8185856111d1565b5060019392505050565b60015490565b60006001600160a01b038316610a855760405162461bcd60e51b81526004018080602001828103825260248152602001806121dc6024913960400191505060405180910390fd5b6001600160a01b038416610aca5760405162461bcd60e51b81526004018080602001828103825260268152602001806122556026913960400191505060405180910390fd5b6000610ad46111cd565b9050610b028186868660405180602001604052806000815250604051806020016040528060008152506112bd565b610b2e818686866040518060200160405280600081525060405180602001604052806000815250611505565b610b888582610b838660405180606001604052806029815260200161222c602991396001600160a01b03808c166000908152600860209081526040808320938b1683529290522054919063ffffffff61171e16565b6111d1565b610bb681868686604051806020016040528060008152506040518060200160405280600081525060006117b5565b506001949350505050565b601290565b610bd38585858585611a55565b5050505050565b600190565b610bea8383836111d1565b505050565b610c00610bfa6111cd565b86610f20565b610c3b5760405162461bcd60e51b815260040180806020018281038252602c815260200180612200602c913960400191505060405180910390fd5b610bd3610c466111cd565b86868686866001611c80565b6001600160a01b031660009081526020819052604090205490565b806001600160a01b0316610c7f6111cd565b6001600160a01b03161415610cc55760405162461bcd60e51b81526004018080602001828103825260248152602001806121266024913960400191505060405180910390fd5b6001600160a01b03811660009081526005602052604090205460ff1615610d285760076000610cf26111cd565b6001600160a01b03908116825260208083019390935260409182016000908120918516815292529020805460ff19169055610d6f565b600160066000610d366111cd565b6001600160a01b03908116825260208083019390935260409182016000908120918616815292529020805460ff19169115159190911790555b610d776111cd565b6001600160a01b0316816001600160a01b03167ff4caeb2d6ca8932a215a353d0703c326ec2d81fc68170f320eb2ab49e9df61f960405160405180910390a350565b60038054604080516020601f60026000196101006001881615020190951694909404938401819004810282018101909252828152606093909290918301828280156109825780601f106109ea57610100808354040283529160200191610982565b610bea610e256111cd565b610e2d6111cd565b858585604051806020016040528060008152506001611c80565b60006001600160a01b038316610e8e5760405162461bcd60e51b81526004018080602001828103825260248152602001806121dc6024913960400191505060405180910390fd5b6000610e986111cd565b9050610ec68182868660405180602001604052806000815250604051806020016040528060008152506112bd565b610ef2818286866040518060200160405280600081525060405180602001604052806000815250611505565b610a2e81828686604051806020016040528060008152506040518060200160405280600081525060006117b5565b6000816001600160a01b0316836001600160a01b03161480610f8b57506001600160a01b03831660009081526005602052604090205460ff168015610f8b57506001600160a01b0380831660009081526007602090815260408083209387168352929052205460ff16155b80610fbb57506001600160a01b0380831660009081526006602090815260408083209387168352929052205460ff165b9392505050565b6001600160a01b03918216600090815260086020908152604080832093909416825291909152205490565b610ff56111cd565b6001600160a01b0316816001600160a01b031614156110455760405162461bcd60e51b815260040180806020018281038252602181526020018061214a6021913960400191505060405180910390fd5b6001600160a01b03811660009081526005602052604090205460ff16156110b1576001600760006110746111cd565b6001600160a01b03908116825260208083019390935260409182016000908120918616815292529020805460ff19169115159190911790556110ef565b600660006110bd6111cd565b6001600160a01b03908116825260208083019390935260409182016000908120918516815292529020805460ff191690555b6110f76111cd565b6001600160a01b0316816001600160a01b03167f50546e66e5f44d728365dc3908c63bc5cfeeab470722c1677e3073a6ac294aa160405160405180910390a350565b61114a6111446111cd565b85610f20565b6111855760405162461bcd60e51b815260040180806020018281038252602c815260200180612200602c913960400191505060405180910390fd5b6111996111906111cd565b85858585611d90565b50505050565b6111c96111aa6111cd565b6111b26111cd565b848460405180602001604052806000815250611d90565b5050565b3390565b6001600160a01b0383166112165760405162461bcd60e51b81526004018080602001828103825260258152602001806120966025913960400191505060405180910390fd5b6001600160a01b03821661125b5760405162461bcd60e51b815260040180806020018281038252602381526020018061229e6023913960400191505060405180910390fd5b6001600160a01b03808416600081815260086020908152604080832094871680845294825291829020859055815185815291517f8c5be1e5ebec7d5bd14f71427d1e84f3dd0314c0f7b2291e5b200ac8c7c3b9259281900390910190a3505050565b6040805163555ddc6560e11b81526001600160a01b03871660048201527f29ddb589b1fb5fc7cf394961c1adf5f8c6454761adf795e67fe149f658abe89560248201529051600091731820a4b7618bde71dce8cdc73aab6c95905fad249163aabbb8ca91604480820192602092909190829003018186803b15801561134157600080fd5b505afa158015611355573d6000803e3d6000fd5b505050506040513d602081101561136b57600080fd5b505190506001600160a01b038116156114fc57806001600160a01b03166375ab97828888888888886040518763ffffffff1660e01b815260040180876001600160a01b03166001600160a01b03168152602001866001600160a01b03166001600160a01b03168152602001856001600160a01b03166001600160a01b031681526020018481526020018060200180602001838103835285818151815260200191508051906020019080838360005b83811015611431578181015183820152602001611419565b50505050905090810190601f16801561145e5780820380516001836020036101000a031916815260200191505b50838103825284518152845160209182019186019080838360005b83811015611491578181015183820152602001611479565b50505050905090810190601f1680156114be5780820380516001836020036101000a031916815260200191505b5098505050505050505050600060405180830381600087803b1580156114e357600080fd5b505af11580156114f7573d6000803e3d6000fd5b505050505b50505050505050565b611548836040518060600160405280602781526020016120dd602791396001600160a01b038816600090815260208190526040902054919063ffffffff61171e16565b6001600160a01b03808716600090815260208190526040808220939093559086168152205461157d908463ffffffff611fbd16565b600080866001600160a01b03166001600160a01b0316815260200190815260200160002081905550836001600160a01b0316856001600160a01b0316876001600160a01b03167f06b541ddaa720db2b10a4d0cdac39b8d360425fc073085fac19bc82614677987868686604051808481526020018060200180602001838103835285818151815260200191508051906020019080838360005b8381101561162e578181015183820152602001611616565b50505050905090810190601f16801561165b5780820380516001836020036101000a031916815260200191505b50838103825284518152845160209182019186019080838360005b8381101561168e578181015183820152602001611676565b50505050905090810190601f1680156116bb5780820380516001836020036101000a031916815260200191505b509550505050505060405180910390a4836001600160a01b0316856001600160a01b03167fddf252ad1be2c89b69c2b068fc378daa952ba7f163c4a11628f55a4df523b3ef856040518082815260200191505060405180910390a3505050505050565b600081848411156117ad5760405162461bcd60e51b81526004018080602001828103825283818151815260200191508051906020019080838360005b8381101561177257818101518382015260200161175a565b50505050905090810190601f16801561179f5780820380516001836020036101000a031916815260200191505b509250505060405180910390fd5b505050900390565b6040805163555ddc6560e11b81526001600160a01b03871660048201527fb281fc8c12954d22544db45de3159a39272895b169a852b314f9cc762e44c53b60248201529051600091731820a4b7618bde71dce8cdc73aab6c95905fad249163aabbb8ca91604480820192602092909190829003018186803b15801561183957600080fd5b505afa15801561184d573d6000803e3d6000fd5b505050506040513d602081101561186357600080fd5b505190506001600160a01b038116156119f757806001600160a01b03166223de298989898989896040518763ffffffff1660e01b815260040180876001600160a01b03166001600160a01b03168152602001866001600160a01b03166001600160a01b03168152602001856001600160a01b03166001600160a01b031681526020018481526020018060200180602001838103835285818151815260200191508051906020019080838360005b83811015611928578181015183820152602001611910565b50505050905090810190601f1680156119555780820380516001836020036101000a031916815260200191505b50838103825284518152845160209182019186019080838360005b83811015611988578181015183820152602001611970565b50505050905090810190601f1680156119b55780820380516001836020036101000a031916815260200191505b5098505050505050505050600060405180830381600087803b1580156119da57600080fd5b505af11580156119ee573d6000803e3d6000fd5b50505050611a4b565b8115611a4b57611a0f866001600160a01b0316612017565b15611a4b5760405162461bcd60e51b815260040180806020018281038252604d81526020018061218f604d913960600191505060405180910390fd5b5050505050505050565b6001600160a01b038416611ab0576040805162461bcd60e51b815260206004820181905260248201527f4552433737373a206d696e7420746f20746865207a65726f2061646472657373604482015290519081900360640190fd5b600154611ac3908463ffffffff611fbd16565b6001556001600160a01b038416600090815260208190526040902054611aef908463ffffffff611fbd16565b6001600160a01b038516600090815260208190526040812091909155611b1c9086908686868660016117b5565b836001600160a01b0316856001600160a01b03167f2fe5be0146f74c5bce36c0b80911af6c7d86ff27e89d5cfa61fc681327954e5d858585604051808481526020018060200180602001838103835285818151815260200191508051906020019080838360005b83811015611b9b578181015183820152602001611b83565b50505050905090810190601f168015611bc85780820380516001836020036101000a031916815260200191505b50838103825284518152845160209182019186019080838360005b83811015611bfb578181015183820152602001611be3565b50505050905090810190601f168015611c285780820380516001836020036101000a031916815260200191505b509550505050505060405180910390a36040805184815290516001600160a01b038616916000917fddf252ad1be2c89b69c2b068fc378daa952ba7f163c4a11628f55a4df523b3ef9181900360200190a35050505050565b6001600160a01b038716611cc55760405162461bcd60e51b815260040180806020018281038252602481526020018061216b6024913960400191505060405180910390fd5b6001600160a01b038616611d0a5760405162461bcd60e51b81526004018080602001828103825260228152602001806120bb6022913960400191505060405180910390fd5b6001600160a01b038516611d65576040805162461bcd60e51b815260206004820181905260248201527f4552433737373a2073656e6420746f20746865207a65726f2061646472657373604482015290519081900360640190fd5b611d738787878787876112bd565b611d81878787878787611505565b6114fc878787878787876117b5565b6001600160a01b038416611dd55760405162461bcd60e51b81526004018080602001828103825260228152602001806121046022913960400191505060405180910390fd5b611de4858560008686866112bd565b611e278360405180606001604052806023815260200161227b602391396001600160a01b038716600090815260208190526040902054919063ffffffff61171e16565b6001600160a01b038516600090815260208190526040902055600154611e53908463ffffffff61205316565b600181905550836001600160a01b0316856001600160a01b03167fa78a9be3a7b862d26933ad85fb11d80ef66b8f972d7cbba06621d583943a4098858585604051808481526020018060200180602001838103835285818151815260200191508051906020019080838360005b83811015611ed8578181015183820152602001611ec0565b50505050905090810190601f168015611f055780820380516001836020036101000a031916815260200191505b50838103825284518152845160209182019186019080838360005b83811015611f38578181015183820152602001611f20565b50505050905090810190601f168015611f655780820380516001836020036101000a031916815260200191505b509550505050505060405180910390a36040805184815290516000916001600160a01b038716917fddf252ad1be2c89b69c2b068fc378daa952ba7f163c4a11628f55a4df523b3ef9181900360200190a35050505050565b600082820183811015610fbb576040805162461bcd60e51b815260206004820152601b60248201527f536166654d6174683a206164646974696f6e206f766572666c6f770000000000604482015290519081900360640190fd5b6000813f7fc5d2460186f7233c927e7db2dcc703c0e500b653ca82273b7bfad8045d85a47081811480159061204b57508115155b949350505050565b6000610fbb83836040518060400160405280601e81526020017f536166654d6174683a207375627472616374696f6e206f766572666c6f77000081525061171e56fe4552433737373a20617070726f76652066726f6d20746865207a65726f20616464726573734552433737373a2073656e642066726f6d20746865207a65726f20616464726573734552433737373a207472616e7366657220616d6f756e7420657863656564732062616c616e63654552433737373a206275726e2066726f6d20746865207a65726f20616464726573734552433737373a20617574686f72697a696e672073656c66206173206f70657261746f724552433737373a207265766f6b696e672073656c66206173206f70657261746f724552433737373a206f70657261746f7220697320746865207a65726f20616464726573734552433737373a20746f6b656e20726563697069656e7420636f6e747261637420686173206e6f20696d706c656d656e74657220666f7220455243373737546f6b656e73526563697069656e744552433737373a207472616e7366657220746f20746865207a65726f20616464726573734552433737373a2063616c6c6572206973206e6f7420616e206f70657261746f7220666f7220686f6c6465724552433737373a207472616e7366657220616d6f756e74206578636565647320616c6c6f77616e63654552433737373a207472616e736665722066726f6d20746865207a65726f20616464726573734552433737373a206275726e20616d6f756e7420657863656564732062616c616e63654552433737373a20617070726f766520746f20746865207a65726f2061646472657373a265627a7a723158209b44e0e617f7ccebcc858d6a7b90fd5e19ad7138393882636464e239f655ce4d64736f6c634300051100324552433737373a20746f6b656e20726563697069656e7420636f6e747261637420686173206e6f20696d706c656d656e74657220666f7220455243373737546f6b656e73526563697069656e74",
  "source": "pragma solidity ^0.5.0;\n\nimport \"../GSN/Context.sol\";\nimport \"../token/ERC777/ERC777.sol\";\n\ncontract ERC777Mock is Context, ERC777 {\n    constructor(\n        address initialHolder,\n        uint256 initialBalance,\n        string memory name,\n        string memory symbol,\n        address[] memory defaultOperators\n    ) public ERC777(name, symbol, defaultOperators) {\n        _mint(_msgSender(), initialHolder, initialBalance, \"\", \"\");\n    }\n\n    function mintInternal (\n        address operator,\n        address to,\n        uint256 amount,\n        bytes memory userData,\n        bytes memory operatorData\n    ) public {\n        _mint(operator, to, amount, userData, operatorData);\n    }\n\n    function approveInternal(address holder, address spender, uint256 value) public {\n        _approve(holder, spender, value);\n    }\n}\n",
  "sourcePath": "/Users/sudipbhattarai/Documents/erc20-tokensale-gen/solidity-contracts/openzeppelin-contracts-v2.5/mocks/ERC777Mock.sol",
  "compiler": {
    "name": "solc",
    "version": "0.5.17+commit.d19bba13.Emscripten.clang"
  },
  "schemaVersion": "3.4.3",
  "updatedAt": "2022-02-06T18:13:26.156Z",
  "devdoc": {
    "methods": {
      "allowance(address,address)": {
        "details": "See {IERC20-allowance}.     * Note that operator and allowance concepts are orthogonal: operators may not have allowance, and accounts with allowance may not be operators themselves."
      },
      "approve(address,uint256)": {
        "details": "See {IERC20-approve}.     * Note that accounts cannot have allowance issued by their operators."
      },
      "authorizeOperator(address)": {
        "details": "See {IERC777-authorizeOperator}."
      },
      "balanceOf(address)": {
        "details": "Returns the amount of tokens owned by an account (`tokenHolder`)."
      },
      "burn(uint256,bytes)": {
        "details": "See {IERC777-burn}.     * Also emits a {IERC20-Transfer} event for ERC20 compatibility."
      },
      "decimals()": {
        "details": "See {ERC20Detailed-decimals}.     * Always returns 18, as per the [ERC777 EIP](https://eips.ethereum.org/EIPS/eip-777#backward-compatibility)."
      },
      "defaultOperators()": {
        "details": "See {IERC777-defaultOperators}."
      },
      "granularity()": {
        "details": "See {IERC777-granularity}.     * This implementation always returns `1`."
      },
      "isOperatorFor(address,address)": {
        "details": "See {IERC777-isOperatorFor}."
      },
      "name()": {
        "details": "See {IERC777-name}."
      },
      "operatorBurn(address,uint256,bytes,bytes)": {
        "details": "See {IERC777-operatorBurn}.     * Emits {Burned} and {IERC20-Transfer} events."
      },
      "operatorSend(address,address,uint256,bytes,bytes)": {
        "details": "See {IERC777-operatorSend}.     * Emits {Sent} and {IERC20-Transfer} events."
      },
      "revokeOperator(address)": {
        "details": "See {IERC777-revokeOperator}."
      },
      "send(address,uint256,bytes)": {
        "details": "See {IERC777-send}.     * Also emits a {IERC20-Transfer} event for ERC20 compatibility."
      },
      "symbol()": {
        "details": "See {IERC777-symbol}."
      },
      "totalSupply()": {
        "details": "See {IERC777-totalSupply}."
      },
      "transfer(address,uint256)": {
        "details": "See {IERC20-transfer}.     * Unlike `send`, `recipient` is _not_ required to implement the {IERC777Recipient} interface if it is a contract.     * Also emits a {Sent} event."
      },
      "transferFrom(address,address,uint256)": {
        "details": "See {IERC20-transferFrom}.    * Note that operator and allowance concepts are orthogonal: operators cannot call `transferFrom` (unless they have allowance), and accounts with allowance cannot call `operatorSend` (unless they are operators).    * Emits {Sent}, {IERC20-Transfer} and {IERC20-Approval} events."
      }
    }
  },
  "userdoc": {
    "methods": {}
  }
}