{
  "contractName": "ERC721GSNRecipientMock",
  "abi": [
    {
      "inputs": [
        {
          "internalType": "address",
          "name": "trustedSigner",
          "type": "address"
        }
      ],
      "payable": false,
      "stateMutability": "nonpayable",
      "type": "constructor"
    },
    {
      "anonymous": false,
      "inputs": [
        {
          "indexed": true,
          "internalType": "address",
          "name": "owner",
          "type": "address"
        },
        {
          "indexed": true,
          "internalType": "address",
          "name": "approved",
          "type": "address"
        },
        {
          "indexed": true,
          "internalType": "uint256",
          "name": "tokenId",
          "type": "uint256"
        }
      ],
      "name": "Approval",
      "type": "event"
    },
    {
      "anonymous": false,
      "inputs": [
        {
          "indexed": true,
          "internalType": "address",
          "name": "owner",
          "type": "address"
        },
        {
          "indexed": true,
          "internalType": "address",
          "name": "operator",
          "type": "address"
        },
        {
          "indexed": false,
          "internalType": "bool",
          "name": "approved",
          "type": "bool"
        }
      ],
      "name": "ApprovalForAll",
      "type": "event"
    },
    {
      "anonymous": false,
      "inputs": [
        {
          "indexed": true,
          "internalType": "address",
          "name": "oldRelayHub",
          "type": "address"
        },
        {
          "indexed": true,
          "internalType": "address",
          "name": "newRelayHub",
          "type": "address"
        }
      ],
      "name": "RelayHubChanged",
      "type": "event"
    },
    {
      "anonymous": false,
      "inputs": [
        {
          "indexed": true,
          "internalType": "address",
          "name": "from",
          "type": "address"
        },
        {
          "indexed": true,
          "internalType": "address",
          "name": "to",
          "type": "address"
        },
        {
          "indexed": true,
          "internalType": "uint256",
          "name": "tokenId",
          "type": "uint256"
        }
      ],
      "name": "Transfer",
      "type": "event"
    },
    {
      "constant": true,
      "inputs": [
        {
          "internalType": "address",
          "name": "relay",
          "type": "address"
        },
        {
          "internalType": "address",
          "name": "from",
          "type": "address"
        },
        {
          "internalType": "bytes",
          "name": "encodedFunction",
          "type": "bytes"
        },
        {
          "internalType": "uint256",
          "name": "transactionFee",
          "type": "uint256"
        },
        {
          "internalType": "uint256",
          "name": "gasPrice",
          "type": "uint256"
        },
        {
          "internalType": "uint256",
          "name": "gasLimit",
          "type": "uint256"
        },
        {
          "internalType": "uint256",
          "name": "nonce",
          "type": "uint256"
        },
        {
          "internalType": "bytes",
          "name": "approvalData",
          "type": "bytes"
        },
        {
          "internalType": "uint256",
          "name": "",
          "type": "uint256"
        }
      ],
      "name": "acceptRelayedCall",
      "outputs": [
        {
          "internalType": "uint256",
          "name": "",
          "type": "uint256"
        },
        {
          "internalType": "bytes",
          "name": "",
          "type": "bytes"
        }
      ],
      "payable": false,
      "stateMutability": "view",
      "type": "function"
    },
    {
      "constant": false,
      "inputs": [
        {
          "internalType": "address",
          "name": "to",
          "type": "address"
        },
        {
          "internalType": "uint256",
          "name": "tokenId",
          "type": "uint256"
        }
      ],
      "name": "approve",
      "outputs": [],
      "payable": false,
      "stateMutability": "nonpayable",
      "type": "function"
    },
    {
      "constant": true,
      "inputs": [
        {
          "internalType": "address",
          "name": "owner",
          "type": "address"
        }
      ],
      "name": "balanceOf",
      "outputs": [
        {
          "internalType": "uint256",
          "name": "",
          "type": "uint256"
        }
      ],
      "payable": false,
      "stateMutability": "view",
      "type": "function"
    },
    {
      "constant": true,
      "inputs": [
        {
          "internalType": "uint256",
          "name": "tokenId",
          "type": "uint256"
        }
      ],
      "name": "getApproved",
      "outputs": [
        {
          "internalType": "address",
          "name": "",
          "type": "address"
        }
      ],
      "payable": false,
      "stateMutability": "view",
      "type": "function"
    },
    {
      "constant": true,
      "inputs": [],
      "name": "getHubAddr",
      "outputs": [
        {
          "internalType": "address",
          "name": "",
          "type": "address"
        }
      ],
      "payable": false,
      "stateMutability": "view",
      "type": "function"
    },
    {
      "constant": true,
      "inputs": [
        {
          "internalType": "address",
          "name": "owner",
          "type": "address"
        },
        {
          "internalType": "address",
          "name": "operator",
          "type": "address"
        }
      ],
      "name": "isApprovedForAll",
      "outputs": [
        {
          "internalType": "bool",
          "name": "",
          "type": "bool"
        }
      ],
      "payable": false,
      "stateMutability": "view",
      "type": "function"
    },
    {
      "constant": true,
      "inputs": [
        {
          "internalType": "uint256",
          "name": "tokenId",
          "type": "uint256"
        }
      ],
      "name": "ownerOf",
      "outputs": [
        {
          "internalType": "address",
          "name": "",
          "type": "address"
        }
      ],
      "payable": false,
      "stateMutability": "view",
      "type": "function"
    },
    {
      "constant": false,
      "inputs": [
        {
          "internalType": "bytes",
          "name": "context",
          "type": "bytes"
        },
        {
          "internalType": "bool",
          "name": "success",
          "type": "bool"
        },
        {
          "internalType": "uint256",
          "name": "actualCharge",
          "type": "uint256"
        },
        {
          "internalType": "bytes32",
          "name": "preRetVal",
          "type": "bytes32"
        }
      ],
      "name": "postRelayedCall",
      "outputs": [],
      "payable": false,
      "stateMutability": "nonpayable",
      "type": "function"
    },
    {
      "constant": false,
      "inputs": [
        {
          "internalType": "bytes",
          "name": "context",
          "type": "bytes"
        }
      ],
      "name": "preRelayedCall",
      "outputs": [
        {
          "internalType": "bytes32",
          "name": "",
          "type": "bytes32"
        }
      ],
      "payable": false,
      "stateMutability": "nonpayable",
      "type": "function"
    },
    {
      "constant": true,
      "inputs": [],
      "name": "relayHubVersion",
      "outputs": [
        {
          "internalType": "string",
          "name": "",
          "type": "string"
        }
      ],
      "payable": false,
      "stateMutability": "view",
      "type": "function"
    },
    {
      "constant": false,
      "inputs": [
        {
          "internalType": "address",
          "name": "from",
          "type": "address"
        },
        {
          "internalType": "address",
          "name": "to",
          "type": "address"
        },
        {
          "internalType": "uint256",
          "name": "tokenId",
          "type": "uint256"
        }
      ],
      "name": "safeTransferFrom",
      "outputs": [],
      "payable": false,
      "stateMutability": "nonpayable",
      "type": "function"
    },
    {
      "constant": false,
      "inputs": [
        {
          "internalType": "address",
          "name": "from",
          "type": "address"
        },
        {
          "internalType": "address",
          "name": "to",
          "type": "address"
        },
        {
          "internalType": "uint256",
          "name": "tokenId",
          "type": "uint256"
        },
        {
          "internalType": "bytes",
          "name": "_data",
          "type": "bytes"
        }
      ],
      "name": "safeTransferFrom",
      "outputs": [],
      "payable": false,
      "stateMutability": "nonpayable",
      "type": "function"
    },
    {
      "constant": false,
      "inputs": [
        {
          "internalType": "address",
          "name": "to",
          "type": "address"
        },
        {
          "internalType": "bool",
          "name": "approved",
          "type": "bool"
        }
      ],
      "name": "setApprovalForAll",
      "outputs": [],
      "payable": false,
      "stateMutability": "nonpayable",
      "type": "function"
    },
    {
      "constant": true,
      "inputs": [
        {
          "internalType": "bytes4",
          "name": "interfaceId",
          "type": "bytes4"
        }
      ],
      "name": "supportsInterface",
      "outputs": [
        {
          "internalType": "bool",
          "name": "",
          "type": "bool"
        }
      ],
      "payable": false,
      "stateMutability": "view",
      "type": "function"
    },
    {
      "constant": false,
      "inputs": [
        {
          "internalType": "address",
          "name": "from",
          "type": "address"
        },
        {
          "internalType": "address",
          "name": "to",
          "type": "address"
        },
        {
          "internalType": "uint256",
          "name": "tokenId",
          "type": "uint256"
        }
      ],
      "name": "transferFrom",
      "outputs": [],
      "payable": false,
      "stateMutability": "nonpayable",
      "type": "function"
    },
    {
      "constant": false,
      "inputs": [
        {
          "internalType": "uint256",
          "name": "tokenId",
          "type": "uint256"
        }
      ],
      "name": "mint",
      "outputs": [],
      "payable": false,
      "stateMutability": "nonpayable",
      "type": "function"
    }
  ],
  "bytecode": "0x6080604052600580546001600160a01b03191673d216153c06e857cd7f72665e0af1d7d82172f49417905534801561003657600080fd5b5060405162001acf38038062001acf8339818101604052602081101561005b57600080fd5b5051806100776301ffc9a760e01b6001600160e01b036100fc16565b6100906380ac58cd60e01b6001600160e01b036100fc16565b6001600160a01b0381166100d65760405162461bcd60e51b815260040180806020018281038252603981526020018062001a966039913960400191505060405180910390fd5b600680546001600160a01b0319166001600160a01b039290921691909117905550610180565b6001600160e01b0319808216141561015b576040805162461bcd60e51b815260206004820152601c60248201527f4552433136353a20696e76616c696420696e7465726661636520696400000000604482015290519081900360640190fd5b6001600160e01b0319166000908152602081905260409020805460ff19166001179055565b61190680620001906000396000f3fe608060405234801561001057600080fd5b50600436106101005760003560e01c806380274db711610097578063ad61ccd511610066578063ad61ccd514610496578063b88d4fde14610513578063e06e0e22146105d7578063e985e9c51461065357610100565b806380274db71461027057806383947ea0146102de578063a0712d681461044b578063a22cb4651461046857610100565b806342842e0e116100d357806342842e0e146101dd5780636352211e1461021357806370a082311461023057806374e861d61461026857610100565b806301ffc9a714610105578063081812fc14610140578063095ea7b31461017957806323b872dd146101a7575b600080fd5b61012c6004803603602081101561011b57600080fd5b50356001600160e01b031916610681565b604080519115158252519081900360200190f35b61015d6004803603602081101561015657600080fd5b50356106a0565b604080516001600160a01b039092168252519081900360200190f35b6101a56004803603604081101561018f57600080fd5b506001600160a01b038135169060200135610702565b005b6101a5600480360360608110156101bd57600080fd5b506001600160a01b0381358116916020810135909116906040013561082a565b6101a5600480360360608110156101f357600080fd5b506001600160a01b03813581169160208101359091169060400135610886565b61015d6004803603602081101561022957600080fd5b50356108a1565b6102566004803603602081101561024657600080fd5b50356001600160a01b03166108fb565b60408051918252519081900360200190f35b61015d610963565b6102566004803603602081101561028657600080fd5b810190602081018135600160201b8111156102a057600080fd5b8201836020820111156102b257600080fd5b803590602001918460018302840111600160201b831117156102d357600080fd5b509092509050610973565b6103cc60048036036101208110156102f557600080fd5b6001600160a01b038235811692602081013590911691810190606081016040820135600160201b81111561032857600080fd5b82018360208201111561033a57600080fd5b803590602001918460018302840111600160201b8311171561035b57600080fd5b9193909282359260208101359260408201359260608301359260a081019060800135600160201b81111561038e57600080fd5b8201836020820111156103a057600080fd5b803590602001918460018302840111600160201b831117156103c157600080fd5b919350915035610a12565b6040518083815260200180602001828103825283818151815260200191508051906020019080838360005b8381101561040f5781810151838201526020016103f7565b50505050905090810190601f16801561043c5780820380516001836020036101000a031916815260200191505b50935050505060405180910390f35b6101a56004803603602081101561046157600080fd5b5035610b61565b6101a56004803603604081101561047e57600080fd5b506001600160a01b0381351690602001351515610b75565b61049e610c7a565b6040805160208082528351818301528351919283929083019185019080838360005b838110156104d85781810151838201526020016104c0565b50505050905090810190601f1680156105055780820380516001836020036101000a031916815260200191505b509250505060405180910390f35b6101a56004803603608081101561052957600080fd5b6001600160a01b03823581169260208101359091169160408201359190810190608081016060820135600160201b81111561056357600080fd5b82018360208201111561057557600080fd5b803590602001918460018302840111600160201b8311171561059657600080fd5b91908080601f016020809104026020016040519081016040528093929190818152602001838380828437600092019190915250929550610c99945050505050565b6101a5600480360360808110156105ed57600080fd5b810190602081018135600160201b81111561060757600080fd5b82018360208201111561061957600080fd5b803590602001918460018302840111600160201b8311171561063a57600080fd5b9193509150803515159060208101359060400135610cf7565b61012c6004803603604081101561066957600080fd5b506001600160a01b0381358116916020013516610d99565b6001600160e01b03191660009081526020819052604090205460ff1690565b60006106ab82610dc7565b6106e65760405162461bcd60e51b815260040180806020018281038252602c815260200180611807602c913960400191505060405180910390fd5b506000908152600260205260409020546001600160a01b031690565b600061070d826108a1565b9050806001600160a01b0316836001600160a01b031614156107605760405162461bcd60e51b815260040180806020018281038252602181526020018061185c6021913960400191505060405180910390fd5b806001600160a01b0316610772610de4565b6001600160a01b0316148061079357506107938161078e610de4565b610d99565b6107ce5760405162461bcd60e51b815260040180806020018281038252603881526020018061177c6038913960400191505060405180910390fd5b60008281526002602052604080822080546001600160a01b0319166001600160a01b0387811691821790925591518593918516917f8c5be1e5ebec7d5bd14f71427d1e84f3dd0314c0f7b2291e5b200ac8c7c3b92591a4505050565b61083b610835610de4565b82610e0f565b6108765760405162461bcd60e51b81526004018080602001828103825260318152602001806118a16031913960400191505060405180910390fd5b610881838383610eb3565b505050565b61088183838360405180602001604052806000815250610c99565b6000818152600160205260408120546001600160a01b0316806108f55760405162461bcd60e51b81526004018080602001828103825260298152602001806117de6029913960400191505060405180910390fd5b92915050565b60006001600160a01b0382166109425760405162461bcd60e51b815260040180806020018281038252602a8152602001806117b4602a913960400191505060405180910390fd5b6001600160a01b03821660009081526003602052604090206108f590610ff7565b6005546001600160a01b03165b90565b600061097d610963565b6001600160a01b0316336001600160a01b0316146109cc5760405162461bcd60e51b815260040180806020018281038252602481526020018061187d6024913960400191505060405180910390fd5b610a0b83838080601f016020809104026020016040519081016040528093929190818152602001838380828437600092019190915250610ffb92505050565b9392505050565b60006060808d8d8d8d8d8d8d8d610a27610963565b30604051602001808b6001600160a01b03166001600160a01b031660601b81526014018a6001600160a01b03166001600160a01b031660601b81526014018989808284379190910197885250506020808701959095526040808701949094526060808701939093526bffffffffffffffffffffffff1991831b8216608087015290911b1660948401528051608881850301815260065460c8601f8f018590049094028501840190925260a884018d81529098506001600160a01b03919091169650610b26955093508b92508a918291018382808284376000920191909152505085516020870120610b1a92509050611001565b9063ffffffff61105216565b6001600160a01b03161415610b4757610b3d611140565b9250925050610b51565b610b3d6000611164565b9b509b9950505050505050505050565b610b72610b6c610de4565b8261117c565b50565b610b7d610de4565b6001600160a01b0316826001600160a01b03161415610be3576040805162461bcd60e51b815260206004820152601960248201527f4552433732313a20617070726f766520746f2063616c6c657200000000000000604482015290519081900360640190fd5b8060046000610bf0610de4565b6001600160a01b03908116825260208083019390935260409182016000908120918716808252919093529120805460ff191692151592909217909155610c34610de4565b60408051841515815290516001600160a01b0392909216917f17307eab39ab6107e8899845ad3d59bd9653f200f220920489ca2b5937696c319181900360200190a35050565b6040805180820190915260058152640312e302e360dc1b602082015290565b610caa610ca4610de4565b83610e0f565b610ce55760405162461bcd60e51b81526004018080602001828103825260318152602001806118a16031913960400191505060405180910390fd5b610cf1848484846112ad565b50505050565b610cff610963565b6001600160a01b0316336001600160a01b031614610d4e5760405162461bcd60e51b815260040180806020018281038252602481526020018061187d6024913960400191505060405180910390fd5b610d9285858080601f016020809104026020016040519081016040528093929190818152602001838380828437600092019190915250879250869150859050610cf1565b5050505050565b6001600160a01b03918216600090815260046020908152604080832093909416825291909152205460ff1690565b6000908152600160205260409020546001600160a01b0316151590565b6005546000906001600160a01b03163314610e00575033610970565b610e086112ff565b9050610970565b6000610e1a82610dc7565b610e555760405162461bcd60e51b815260040180806020018281038252602c815260200180611750602c913960400191505060405180910390fd5b6000610e60836108a1565b9050806001600160a01b0316846001600160a01b03161480610e9b5750836001600160a01b0316610e90846106a0565b6001600160a01b0316145b80610eab5750610eab8185610d99565b949350505050565b826001600160a01b0316610ec6826108a1565b6001600160a01b031614610f0b5760405162461bcd60e51b81526004018080602001828103825260298152602001806118336029913960400191505060405180910390fd5b6001600160a01b038216610f505760405162461bcd60e51b815260040180806020018281038252602481526020018061172c6024913960400191505060405180910390fd5b610f598161134c565b6001600160a01b0383166000908152600360205260409020610f7a90611387565b6001600160a01b0382166000908152600360205260409020610f9b9061139e565b60008181526001602052604080822080546001600160a01b0319166001600160a01b0386811691821790925591518493918716917fddf252ad1be2c89b69c2b068fc378daa952ba7f163c4a11628f55a4df523b3ef91a4505050565b5490565b50600090565b604080517f19457468657265756d205369676e6564204d6573736167653a0a333200000000602080830191909152603c8083019490945282518083039094018452605c909101909152815191012090565b60008151604114611065575060006108f5565b60208201516040830151606084015160001a7f7fffffffffffffffffffffffffffffff5d576e7357a4501ddfe92f46681b20a08211156110ab57600093505050506108f5565b8060ff16601b141580156110c357508060ff16601c14155b156110d457600093505050506108f5565b6040805160008152602080820180845289905260ff8416828401526060820186905260808201859052915160019260a0808401939192601f1981019281900390910190855afa15801561112b573d6000803e3d6000fd5b5050604051601f190151979650505050505050565b6000606061115c604051806020016040528060008152506113a7565b915091509091565b604080516020810190915260008152600b9190910191565b6001600160a01b0382166111d7576040805162461bcd60e51b815260206004820181905260248201527f4552433732313a206d696e7420746f20746865207a65726f2061646472657373604482015290519081900360640190fd5b6111e081610dc7565b15611232576040805162461bcd60e51b815260206004820152601c60248201527f4552433732313a20746f6b656e20616c7265616479206d696e74656400000000604482015290519081900360640190fd5b600081815260016020908152604080832080546001600160a01b0319166001600160a01b0387169081179091558352600390915290206112719061139e565b60405181906001600160a01b038416906000907fddf252ad1be2c89b69c2b068fc378daa952ba7f163c4a11628f55a4df523b3ef908290a45050565b6112b8848484610eb3565b6112c4848484846113ac565b610cf15760405162461bcd60e51b81526004018080602001828103825260328152602001806116fa6032913960400191505060405180910390fd5b600060606000368080601f0160208091040260200160405190810160405280939291908181526020018383808284376000920191909152505050503601516001600160a01b031692915050565b6000818152600260205260409020546001600160a01b031615610b7257600090815260026020526040902080546001600160a01b0319169055565b805461139a90600163ffffffff6115e716565b9055565b80546001019055565b600091565b60006113c0846001600160a01b0316611629565b6113cc57506001610eab565b600060606001600160a01b038616630a85bd0160e11b6113ea610de4565b89888860405160240180856001600160a01b03166001600160a01b03168152602001846001600160a01b03166001600160a01b0316815260200183815260200180602001828103825283818151815260200191508051906020019080838360005b8381101561146357818101518382015260200161144b565b50505050905090810190601f1680156114905780820380516001836020036101000a031916815260200191505b5060408051601f198184030181529181526020820180516001600160e01b03166001600160e01b0319909a16999099178952518151919890975087965094509250829150849050835b602083106114f85780518252601f1990920191602091820191016114d9565b6001836020036101000a0380198251168184511680821785525050505050509050019150506000604051808303816000865af19150503d806000811461155a576040519150601f19603f3d011682016040523d82523d6000602084013e61155f565b606091505b5091509150816115b0578051156115795780518082602001fd5b60405162461bcd60e51b81526004018080602001828103825260328152602001806116fa6032913960400191505060405180910390fd5b60008180602001905160208110156115c757600080fd5b50516001600160e01b031916630a85bd0160e11b149350610eab92505050565b6000610a0b83836040518060400160405280601e81526020017f536166654d6174683a207375627472616374696f6e206f766572666c6f770000815250611662565b6000813f7fc5d2460186f7233c927e7db2dcc703c0e500b653ca82273b7bfad8045d85a470818114801590610eab575050151592915050565b600081848411156116f15760405162461bcd60e51b81526004018080602001828103825283818151815260200191508051906020019080838360005b838110156116b657818101518382015260200161169e565b50505050905090810190601f1680156116e35780820380516001836020036101000a031916815260200191505b509250505060405180910390fd5b50505090039056fe4552433732313a207472616e7366657220746f206e6f6e20455243373231526563656976657220696d706c656d656e7465724552433732313a207472616e7366657220746f20746865207a65726f20616464726573734552433732313a206f70657261746f7220717565727920666f72206e6f6e6578697374656e7420746f6b656e4552433732313a20617070726f76652063616c6c6572206973206e6f74206f776e6572206e6f7220617070726f76656420666f7220616c6c4552433732313a2062616c616e636520717565727920666f7220746865207a65726f20616464726573734552433732313a206f776e657220717565727920666f72206e6f6e6578697374656e7420746f6b656e4552433732313a20617070726f76656420717565727920666f72206e6f6e6578697374656e7420746f6b656e4552433732313a207472616e73666572206f6620746f6b656e2074686174206973206e6f74206f776e4552433732313a20617070726f76616c20746f2063757272656e74206f776e657247534e526563697069656e743a2063616c6c6572206973206e6f742052656c61794875624552433732313a207472616e736665722063616c6c6572206973206e6f74206f776e6572206e6f7220617070726f766564a265627a7a7231582008cc8c71a9869183073070f4cac1e8bbed212d6bf55cace8dd58793ec2f9848b64736f6c6343000511003247534e526563697069656e745369676e61747572653a2074727573746564207369676e657220697320746865207a65726f2061646472657373",
  "source": "pragma solidity ^0.5.0;\n\nimport \"../token/ERC721/ERC721.sol\";\nimport \"../GSN/GSNRecipient.sol\";\nimport \"../GSN/GSNRecipientSignature.sol\";\n\n/**\n * @title ERC721GSNRecipientMock\n * A simple ERC721 mock that has GSN support enabled\n */\ncontract ERC721GSNRecipientMock is ERC721, GSNRecipient, GSNRecipientSignature {\n    constructor(address trustedSigner) public GSNRecipientSignature(trustedSigner) { }\n    // solhint-disable-previous-line no-empty-blocks\n\n    function mint(uint256 tokenId) public {\n        _mint(_msgSender(), tokenId);\n    }\n}\n",
  "sourcePath": "/Users/sudipbhattarai/Documents/erc20-tokensale-gen/solidity-contracts/openzeppelin-contracts-v2.5/mocks/ERC721GSNRecipientMock.sol",
  "compiler": {
    "name": "solc",
    "version": "0.5.17+commit.d19bba13.Emscripten.clang"
  },
  "schemaVersion": "3.4.3",
  "updatedAt": "2022-02-06T18:13:26.153Z",
  "devdoc": {
    "methods": {
      "acceptRelayedCall(address,address,bytes,uint256,uint256,uint256,uint256,bytes,uint256)": {
        "details": "Ensures that only transactions with a trusted signature can be relayed through the GSN."
      },
      "approve(address,uint256)": {
        "details": "Approves another address to transfer the given token ID The zero address indicates there is no approved address. There can only be one approved address per token at a given time. Can only be called by the token owner or an approved operator.",
        "params": {
          "to": "address to be approved for the given token ID",
          "tokenId": "uint256 ID of the token to be approved"
        }
      },
      "balanceOf(address)": {
        "details": "Gets the balance of the specified address.",
        "params": {
          "owner": "address to query the balance of"
        },
        "return": "uint256 representing the amount owned by the passed address"
      },
      "getApproved(uint256)": {
        "details": "Gets the approved address for a token ID, or zero if no address set Reverts if the token ID does not exist.",
        "params": {
          "tokenId": "uint256 ID of the token to query the approval of"
        },
        "return": "address currently approved for the given token ID"
      },
      "getHubAddr()": {
        "details": "Returns the address of the {IRelayHub} contract for this recipient."
      },
      "isApprovedForAll(address,address)": {
        "details": "Tells whether an operator is approved by a given owner.",
        "params": {
          "operator": "operator address which you want to query the approval of",
          "owner": "owner address which you want to query the approval of"
        },
        "return": "bool whether the given operator is approved by the given owner"
      },
      "ownerOf(uint256)": {
        "details": "Gets the owner of the specified token ID.",
        "params": {
          "tokenId": "uint256 ID of the token to query the owner of"
        },
        "return": "address currently marked as the owner of the given token ID"
      },
      "postRelayedCall(bytes,bool,uint256,bytes32)": {
        "details": "See `IRelayRecipient.postRelayedCall`.     * This function should not be overriden directly, use `_postRelayedCall` instead.     * * Requirements:     * - the caller must be the `RelayHub` contract."
      },
      "preRelayedCall(bytes)": {
        "details": "See `IRelayRecipient.preRelayedCall`.     * This function should not be overriden directly, use `_preRelayedCall` instead.     * * Requirements:     * - the caller must be the `RelayHub` contract."
      },
      "relayHubVersion()": {
        "details": "Returns the version string of the {IRelayHub} for which this recipient implementation was built. If {_upgradeRelayHub} is used, the new {IRelayHub} instance should be compatible with this version."
      },
      "safeTransferFrom(address,address,uint256)": {
        "details": "Safely transfers the ownership of a given token ID to another address If the target address is a contract, it must implement {IERC721Receiver-onERC721Received}, which is called upon a safe transfer, and return the magic value `bytes4(keccak256(\"onERC721Received(address,address,uint256,bytes)\"))`; otherwise, the transfer is reverted. Requires the msg.sender to be the owner, approved, or operator",
        "params": {
          "from": "current owner of the token",
          "to": "address to receive the ownership of the given token ID",
          "tokenId": "uint256 ID of the token to be transferred"
        }
      },
      "safeTransferFrom(address,address,uint256,bytes)": {
        "details": "Safely transfers the ownership of a given token ID to another address If the target address is a contract, it must implement {IERC721Receiver-onERC721Received}, which is called upon a safe transfer, and return the magic value `bytes4(keccak256(\"onERC721Received(address,address,uint256,bytes)\"))`; otherwise, the transfer is reverted. Requires the _msgSender() to be the owner, approved, or operator",
        "params": {
          "_data": "bytes data to send along with a safe transfer check",
          "from": "current owner of the token",
          "to": "address to receive the ownership of the given token ID",
          "tokenId": "uint256 ID of the token to be transferred"
        }
      },
      "setApprovalForAll(address,bool)": {
        "details": "Sets or unsets the approval of a given operator An operator is allowed to transfer all tokens of the sender on their behalf.",
        "params": {
          "approved": "representing the status of the approval to be set",
          "to": "operator address to set the approval"
        }
      },
      "supportsInterface(bytes4)": {
        "details": "See {IERC165-supportsInterface}.     * Time complexity O(1), guaranteed to always use less than 30 000 gas."
      },
      "transferFrom(address,address,uint256)": {
        "details": "Transfers the ownership of a given token ID to another address. Usage of this method is discouraged, use {safeTransferFrom} whenever possible. Requires the msg.sender to be the owner, approved, or operator.",
        "params": {
          "from": "current owner of the token",
          "to": "address to receive the ownership of the given token ID",
          "tokenId": "uint256 ID of the token to be transferred"
        }
      }
    },
    "title": "ERC721GSNRecipientMock A simple ERC721 mock that has GSN support enabled"
  },
  "userdoc": {
    "methods": {}
  }
}