{
  "contractName": "ERC721MintableBurnableImpl",
  "abi": [
    {
      "inputs": [],
      "payable": false,
      "stateMutability": "nonpayable",
      "type": "constructor"
    },
    {
      "anonymous": false,
      "inputs": [
        {
          "indexed": true,
          "internalType": "address",
          "name": "owner",
          "type": "address"
        },
        {
          "indexed": true,
          "internalType": "address",
          "name": "approved",
          "type": "address"
        },
        {
          "indexed": true,
          "internalType": "uint256",
          "name": "tokenId",
          "type": "uint256"
        }
      ],
      "name": "Approval",
      "type": "event"
    },
    {
      "anonymous": false,
      "inputs": [
        {
          "indexed": true,
          "internalType": "address",
          "name": "owner",
          "type": "address"
        },
        {
          "indexed": true,
          "internalType": "address",
          "name": "operator",
          "type": "address"
        },
        {
          "indexed": false,
          "internalType": "bool",
          "name": "approved",
          "type": "bool"
        }
      ],
      "name": "ApprovalForAll",
      "type": "event"
    },
    {
      "anonymous": false,
      "inputs": [
        {
          "indexed": true,
          "internalType": "address",
          "name": "account",
          "type": "address"
        }
      ],
      "name": "MinterAdded",
      "type": "event"
    },
    {
      "anonymous": false,
      "inputs": [
        {
          "indexed": true,
          "internalType": "address",
          "name": "account",
          "type": "address"
        }
      ],
      "name": "MinterRemoved",
      "type": "event"
    },
    {
      "anonymous": false,
      "inputs": [
        {
          "indexed": true,
          "internalType": "address",
          "name": "from",
          "type": "address"
        },
        {
          "indexed": true,
          "internalType": "address",
          "name": "to",
          "type": "address"
        },
        {
          "indexed": true,
          "internalType": "uint256",
          "name": "tokenId",
          "type": "uint256"
        }
      ],
      "name": "Transfer",
      "type": "event"
    },
    {
      "constant": false,
      "inputs": [
        {
          "internalType": "address",
          "name": "account",
          "type": "address"
        }
      ],
      "name": "addMinter",
      "outputs": [],
      "payable": false,
      "stateMutability": "nonpayable",
      "type": "function"
    },
    {
      "constant": false,
      "inputs": [
        {
          "internalType": "address",
          "name": "to",
          "type": "address"
        },
        {
          "internalType": "uint256",
          "name": "tokenId",
          "type": "uint256"
        }
      ],
      "name": "approve",
      "outputs": [],
      "payable": false,
      "stateMutability": "nonpayable",
      "type": "function"
    },
    {
      "constant": true,
      "inputs": [
        {
          "internalType": "address",
          "name": "owner",
          "type": "address"
        }
      ],
      "name": "balanceOf",
      "outputs": [
        {
          "internalType": "uint256",
          "name": "",
          "type": "uint256"
        }
      ],
      "payable": false,
      "stateMutability": "view",
      "type": "function"
    },
    {
      "constant": true,
      "inputs": [],
      "name": "baseURI",
      "outputs": [
        {
          "internalType": "string",
          "name": "",
          "type": "string"
        }
      ],
      "payable": false,
      "stateMutability": "view",
      "type": "function"
    },
    {
      "constant": false,
      "inputs": [
        {
          "internalType": "uint256",
          "name": "tokenId",
          "type": "uint256"
        }
      ],
      "name": "burn",
      "outputs": [],
      "payable": false,
      "stateMutability": "nonpayable",
      "type": "function"
    },
    {
      "constant": true,
      "inputs": [
        {
          "internalType": "uint256",
          "name": "tokenId",
          "type": "uint256"
        }
      ],
      "name": "getApproved",
      "outputs": [
        {
          "internalType": "address",
          "name": "",
          "type": "address"
        }
      ],
      "payable": false,
      "stateMutability": "view",
      "type": "function"
    },
    {
      "constant": true,
      "inputs": [
        {
          "internalType": "address",
          "name": "owner",
          "type": "address"
        },
        {
          "internalType": "address",
          "name": "operator",
          "type": "address"
        }
      ],
      "name": "isApprovedForAll",
      "outputs": [
        {
          "internalType": "bool",
          "name": "",
          "type": "bool"
        }
      ],
      "payable": false,
      "stateMutability": "view",
      "type": "function"
    },
    {
      "constant": true,
      "inputs": [
        {
          "internalType": "address",
          "name": "account",
          "type": "address"
        }
      ],
      "name": "isMinter",
      "outputs": [
        {
          "internalType": "bool",
          "name": "",
          "type": "bool"
        }
      ],
      "payable": false,
      "stateMutability": "view",
      "type": "function"
    },
    {
      "constant": false,
      "inputs": [
        {
          "internalType": "address",
          "name": "to",
          "type": "address"
        },
        {
          "internalType": "uint256",
          "name": "tokenId",
          "type": "uint256"
        }
      ],
      "name": "mint",
      "outputs": [
        {
          "internalType": "bool",
          "name": "",
          "type": "bool"
        }
      ],
      "payable": false,
      "stateMutability": "nonpayable",
      "type": "function"
    },
    {
      "constant": false,
      "inputs": [
        {
          "internalType": "address",
          "name": "to",
          "type": "address"
        },
        {
          "internalType": "uint256",
          "name": "tokenId",
          "type": "uint256"
        },
        {
          "internalType": "string",
          "name": "tokenURI",
          "type": "string"
        }
      ],
      "name": "mintWithTokenURI",
      "outputs": [
        {
          "internalType": "bool",
          "name": "",
          "type": "bool"
        }
      ],
      "payable": false,
      "stateMutability": "nonpayable",
      "type": "function"
    },
    {
      "constant": true,
      "inputs": [],
      "name": "name",
      "outputs": [
        {
          "internalType": "string",
          "name": "",
          "type": "string"
        }
      ],
      "payable": false,
      "stateMutability": "view",
      "type": "function"
    },
    {
      "constant": true,
      "inputs": [
        {
          "internalType": "uint256",
          "name": "tokenId",
          "type": "uint256"
        }
      ],
      "name": "ownerOf",
      "outputs": [
        {
          "internalType": "address",
          "name": "",
          "type": "address"
        }
      ],
      "payable": false,
      "stateMutability": "view",
      "type": "function"
    },
    {
      "constant": false,
      "inputs": [],
      "name": "renounceMinter",
      "outputs": [],
      "payable": false,
      "stateMutability": "nonpayable",
      "type": "function"
    },
    {
      "constant": false,
      "inputs": [
        {
          "internalType": "address",
          "name": "to",
          "type": "address"
        },
        {
          "internalType": "uint256",
          "name": "tokenId",
          "type": "uint256"
        },
        {
          "internalType": "bytes",
          "name": "_data",
          "type": "bytes"
        }
      ],
      "name": "safeMint",
      "outputs": [
        {
          "internalType": "bool",
          "name": "",
          "type": "bool"
        }
      ],
      "payable": false,
      "stateMutability": "nonpayable",
      "type": "function"
    },
    {
      "constant": false,
      "inputs": [
        {
          "internalType": "address",
          "name": "to",
          "type": "address"
        },
        {
          "internalType": "uint256",
          "name": "tokenId",
          "type": "uint256"
        }
      ],
      "name": "safeMint",
      "outputs": [
        {
          "internalType": "bool",
          "name": "",
          "type": "bool"
        }
      ],
      "payable": false,
      "stateMutability": "nonpayable",
      "type": "function"
    },
    {
      "constant": false,
      "inputs": [
        {
          "internalType": "address",
          "name": "from",
          "type": "address"
        },
        {
          "internalType": "address",
          "name": "to",
          "type": "address"
        },
        {
          "internalType": "uint256",
          "name": "tokenId",
          "type": "uint256"
        }
      ],
      "name": "safeTransferFrom",
      "outputs": [],
      "payable": false,
      "stateMutability": "nonpayable",
      "type": "function"
    },
    {
      "constant": false,
      "inputs": [
        {
          "internalType": "address",
          "name": "from",
          "type": "address"
        },
        {
          "internalType": "address",
          "name": "to",
          "type": "address"
        },
        {
          "internalType": "uint256",
          "name": "tokenId",
          "type": "uint256"
        },
        {
          "internalType": "bytes",
          "name": "_data",
          "type": "bytes"
        }
      ],
      "name": "safeTransferFrom",
      "outputs": [],
      "payable": false,
      "stateMutability": "nonpayable",
      "type": "function"
    },
    {
      "constant": false,
      "inputs": [
        {
          "internalType": "address",
          "name": "to",
          "type": "address"
        },
        {
          "internalType": "bool",
          "name": "approved",
          "type": "bool"
        }
      ],
      "name": "setApprovalForAll",
      "outputs": [],
      "payable": false,
      "stateMutability": "nonpayable",
      "type": "function"
    },
    {
      "constant": true,
      "inputs": [
        {
          "internalType": "bytes4",
          "name": "interfaceId",
          "type": "bytes4"
        }
      ],
      "name": "supportsInterface",
      "outputs": [
        {
          "internalType": "bool",
          "name": "",
          "type": "bool"
        }
      ],
      "payable": false,
      "stateMutability": "view",
      "type": "function"
    },
    {
      "constant": true,
      "inputs": [],
      "name": "symbol",
      "outputs": [
        {
          "internalType": "string",
          "name": "",
          "type": "string"
        }
      ],
      "payable": false,
      "stateMutability": "view",
      "type": "function"
    },
    {
      "constant": true,
      "inputs": [
        {
          "internalType": "uint256",
          "name": "index",
          "type": "uint256"
        }
      ],
      "name": "tokenByIndex",
      "outputs": [
        {
          "internalType": "uint256",
          "name": "",
          "type": "uint256"
        }
      ],
      "payable": false,
      "stateMutability": "view",
      "type": "function"
    },
    {
      "constant": true,
      "inputs": [
        {
          "internalType": "address",
          "name": "owner",
          "type": "address"
        },
        {
          "internalType": "uint256",
          "name": "index",
          "type": "uint256"
        }
      ],
      "name": "tokenOfOwnerByIndex",
      "outputs": [
        {
          "internalType": "uint256",
          "name": "",
          "type": "uint256"
        }
      ],
      "payable": false,
      "stateMutability": "view",
      "type": "function"
    },
    {
      "constant": true,
      "inputs": [
        {
          "internalType": "uint256",
          "name": "tokenId",
          "type": "uint256"
        }
      ],
      "name": "tokenURI",
      "outputs": [
        {
          "internalType": "string",
          "name": "",
          "type": "string"
        }
      ],
      "payable": false,
      "stateMutability": "view",
      "type": "function"
    },
    {
      "constant": true,
      "inputs": [],
      "name": "totalSupply",
      "outputs": [
        {
          "internalType": "uint256",
          "name": "",
          "type": "uint256"
        }
      ],
      "payable": false,
      "stateMutability": "view",
      "type": "function"
    },
    {
      "constant": false,
      "inputs": [
        {
          "internalType": "address",
          "name": "from",
          "type": "address"
        },
        {
          "internalType": "address",
          "name": "to",
          "type": "address"
        },
        {
          "internalType": "uint256",
          "name": "tokenId",
          "type": "uint256"
        }
      ],
      "name": "transferFrom",
      "outputs": [],
      "payable": false,
      "stateMutability": "nonpayable",
      "type": "function"
    }
  ],
  "bytecode": "0x60806040523480156200001157600080fd5b506040518060400160405280600481526020016315195cdd60e21b81525060405180604001604052806004815260200163151154d560e21b8152508181620000666301ffc9a760e01b620000fe60201b60201c565b620000816380ac58cd60e01b6001600160e01b03620000fe16565b6200009c63780e9d6360e01b6001600160e01b03620000fe16565b8151620000b1906009906020850190620002cb565b508051620000c790600a906020840190620002cb565b50620000e3635b5e139f60e01b6001600160e01b03620000fe16565b50505050620000f8326200018360201b60201c565b62000370565b6001600160e01b031980821614156200015e576040805162461bcd60e51b815260206004820152601c60248201527f4552433136353a20696e76616c696420696e7465726661636520696400000000604482015290519081900360640190fd5b6001600160e01b0319166000908152602081905260409020805460ff19166001179055565b6200019e81600d620001d560201b62001b911790919060201c565b6040516001600160a01b038216907f6ae172837ea30b801fbfcdd4108aa1d5bf8ff775444fd70256b44e6bf3dfc3f690600090a250565b620001ea82826001600160e01b036200026216565b156200023d576040805162461bcd60e51b815260206004820152601f60248201527f526f6c65733a206163636f756e7420616c72656164792068617320726f6c6500604482015290519081900360640190fd5b6001600160a01b0316600090815260209190915260409020805460ff19166001179055565b60006001600160a01b038216620002ab5760405162461bcd60e51b81526004018080602001828103825260228152602001806200276b6022913960400191505060405180910390fd5b506001600160a01b03166000908152602091909152604090205460ff1690565b828054600181600116156101000203166002900490600052602060002090601f016020900481019282601f106200030e57805160ff19168380011785556200033e565b828001600101855582156200033e579182015b828111156200033e57825182559160200191906001019062000321565b506200034c92915062000350565b5090565b6200036d91905b808211156200034c576000815560010162000357565b90565b6123eb80620003806000396000f3fe608060405234801561001057600080fd5b50600436106101735760003560e01c80636352211e116100de5780639865027511610097578063aa271e1a11610071578063aa271e1a14610600578063b88d4fde14610626578063c87b56dd146106ec578063e985e9c51461070957610173565b8063986502751461059e578063a1448194146105a6578063a22cb465146105d257610173565b80636352211e1461046a5780636c0360eb1461048757806370a082311461048f5780638832e6e3146104b557806395d89b4114610570578063983b2d561461057857610173565b80632f745c59116101305780632f745c59146102e757806340c10f191461031357806342842e0e1461033f57806342966c68146103755780634f6ccce71461039257806350bb4e7f146103af57610173565b806301ffc9a71461017857806306fdde03146101b3578063081812fc14610230578063095ea7b31461026957806318160ddd1461029757806323b872dd146102b1575b600080fd5b61019f6004803603602081101561018e57600080fd5b50356001600160e01b031916610737565b604080519115158252519081900360200190f35b6101bb61075a565b6040805160208082528351818301528351919283929083019185019080838360005b838110156101f55781810151838201526020016101dd565b50505050905090810190601f1680156102225780820380516001836020036101000a031916815260200191505b509250505060405180910390f35b61024d6004803603602081101561024657600080fd5b50356107f1565b604080516001600160a01b039092168252519081900360200190f35b6102956004803603604081101561027f57600080fd5b506001600160a01b038135169060200135610853565b005b61029f61097b565b60408051918252519081900360200190f35b610295600480360360608110156102c757600080fd5b506001600160a01b03813581169160208101359091169060400135610981565b61029f600480360360408110156102fd57600080fd5b506001600160a01b0381351690602001356109dd565b61019f6004803603604081101561032957600080fd5b506001600160a01b038135169060200135610a5c565b6102956004803603606081101561035557600080fd5b506001600160a01b03813581169160208101359091169060400135610abc565b6102956004803603602081101561038b57600080fd5b5035610ad7565b61029f600480360360208110156103a857600080fd5b5035610b29565b61019f600480360360608110156103c557600080fd5b6001600160a01b03823516916020810135918101906060810160408201356401000000008111156103f557600080fd5b82018360208201111561040757600080fd5b8035906020019184600183028401116401000000008311171561042957600080fd5b91908080601f016020809104026020016040519081016040528093929190818152602001838380828437600092019190915250929550610b8f945050505050565b61024d6004803603602081101561048057600080fd5b5035610bf5565b6101bb610c4f565b61029f600480360360208110156104a557600080fd5b50356001600160a01b0316610cb0565b61019f600480360360608110156104cb57600080fd5b6001600160a01b03823516916020810135918101906060810160408201356401000000008111156104fb57600080fd5b82018360208201111561050d57600080fd5b8035906020019184600183028401116401000000008311171561052f57600080fd5b91908080601f016020809104026020016040519081016040528093929190818152602001838380828437600092019190915250929550610d18945050505050565b6101bb610d6b565b6102956004803603602081101561058e57600080fd5b50356001600160a01b0316610dcc565b610295610e1b565b61019f600480360360408110156105bc57600080fd5b506001600160a01b038135169060200135610e2d565b610295600480360360408110156105e857600080fd5b506001600160a01b0381351690602001351515610e7f565b61019f6004803603602081101561061657600080fd5b50356001600160a01b0316610f84565b6102956004803603608081101561063c57600080fd5b6001600160a01b0382358116926020810135909116916040820135919081019060808101606082013564010000000081111561067757600080fd5b82018360208201111561068957600080fd5b803590602001918460018302840111640100000000831117156106ab57600080fd5b91908080601f016020809104026020016040519081016040528093929190818152602001838380828437600092019190915250929550610f97945050505050565b6101bb6004803603602081101561070257600080fd5b5035610ff5565b61019f6004803603604081101561071f57600080fd5b506001600160a01b03813581169160200135166111c1565b6001600160e01b0319811660009081526020819052604090205460ff165b919050565b60098054604080516020601f60026000196101006001881615020190951694909404938401819004810282018101909252828152606093909290918301828280156107e65780601f106107bb576101008083540402835291602001916107e6565b820191906000526020600020905b8154815290600101906020018083116107c957829003601f168201915b505050505090505b90565b60006107fc826111ef565b6108375760405162461bcd60e51b815260040180806020018281038252602c815260200180612212602c913960400191505060405180910390fd5b506000908152600260205260409020546001600160a01b031690565b600061085e82610bf5565b9050806001600160a01b0316836001600160a01b031614156108b15760405162461bcd60e51b81526004018080602001828103825260218152602001806122e46021913960400191505060405180910390fd5b806001600160a01b03166108c361120c565b6001600160a01b031614806108e457506108e4816108df61120c565b6111c1565b61091f5760405162461bcd60e51b81526004018080602001828103825260388152602001806121366038913960400191505060405180910390fd5b60008281526002602052604080822080546001600160a01b0319166001600160a01b0387811691821790925591518593918516917f8c5be1e5ebec7d5bd14f71427d1e84f3dd0314c0f7b2291e5b200ac8c7c3b92591a4505050565b60075490565b61099261098c61120c565b82611210565b6109cd5760405162461bcd60e51b81526004018080602001828103825260318152602001806123056031913960400191505060405180910390fd5b6109d88383836112b4565b505050565b60006109e883610cb0565b8210610a255760405162461bcd60e51b815260040180806020018281038252602b815260200180612089602b913960400191505060405180910390fd5b6001600160a01b0383166000908152600560205260409020805483908110610a4957fe5b9060005260206000200154905092915050565b6000610a6e610a6961120c565b610f84565b610aa95760405162461bcd60e51b81526004018080602001828103825260308152602001806121c16030913960400191505060405180910390fd5b610ab383836112d3565b50600192915050565b6109d883838360405180602001604052806000815250610f97565b610ae261098c61120c565b610b1d5760405162461bcd60e51b81526004018080602001828103825260308152602001806123876030913960400191505060405180910390fd5b610b26816112f4565b50565b6000610b3361097b565b8210610b705760405162461bcd60e51b815260040180806020018281038252602c815260200180612336602c913960400191505060405180910390fd5b60078281548110610b7d57fe5b90600052602060002001549050919050565b6000610b9c610a6961120c565b610bd75760405162461bcd60e51b81526004018080602001828103825260308152602001806121c16030913960400191505060405180910390fd5b610be184846112d3565b610beb8383611306565b5060019392505050565b6000818152600160205260408120546001600160a01b031680610c495760405162461bcd60e51b81526004018080602001828103825260298152602001806121986029913960400191505060405180910390fd5b92915050565b600b8054604080516020601f60026000196101006001881615020190951694909404938401819004810282018101909252828152606093909290918301828280156107e65780601f106107bb576101008083540402835291602001916107e6565b60006001600160a01b038216610cf75760405162461bcd60e51b815260040180806020018281038252602a81526020018061216e602a913960400191505060405180910390fd5b6001600160a01b0382166000908152600360205260409020610c4990611369565b6000610d25610a6961120c565b610d605760405162461bcd60e51b81526004018080602001828103825260308152602001806121c16030913960400191505060405180910390fd5b610beb84848461136d565b600a8054604080516020601f60026000196101006001881615020190951694909404938401819004810282018101909252828152606093909290918301828280156107e65780601f106107bb576101008083540402835291602001916107e6565b610dd7610a6961120c565b610e125760405162461bcd60e51b81526004018080602001828103825260308152602001806121c16030913960400191505060405180910390fd5b610b26816113bf565b610e2b610e2661120c565b611407565b565b6000610e3a610a6961120c565b610e755760405162461bcd60e51b81526004018080602001828103825260308152602001806121c16030913960400191505060405180910390fd5b610ab3838361144f565b610e8761120c565b6001600160a01b0316826001600160a01b03161415610eed576040805162461bcd60e51b815260206004820152601960248201527f4552433732313a20617070726f766520746f2063616c6c657200000000000000604482015290519081900360640190fd5b8060046000610efa61120c565b6001600160a01b03908116825260208083019390935260409182016000908120918716808252919093529120805460ff191692151592909217909155610f3e61120c565b60408051841515815290516001600160a01b0392909216917f17307eab39ab6107e8899845ad3d59bd9653f200f220920489ca2b5937696c319181900360200190a35050565b6000610c49600d8363ffffffff61146916565b610fa8610fa261120c565b83611210565b610fe35760405162461bcd60e51b81526004018080602001828103825260318152602001806123056031913960400191505060405180910390fd5b610fef848484846114d0565b50505050565b6060611000826111ef565b61103b5760405162461bcd60e51b815260040180806020018281038252602f8152602001806122b5602f913960400191505060405180910390fd5b6000828152600c602090815260409182902080548351601f60026000196101006001861615020190931692909204918201849004840281018401909452808452606093928301828280156110d05780601f106110a5576101008083540402835291602001916110d0565b820191906000526020600020905b8154815290600101906020018083116110b357829003601f168201915b505050505090508051600014156110f7575050604080516020810190915260008152610755565b600b8160405160200180838054600181600116156101000203166002900480156111585780601f10611136576101008083540402835291820191611158565b820191906000526020600020905b815481529060010190602001808311611144575b5050825160208401908083835b602083106111845780518252601f199092019160209182019101611165565b6001836020036101000a03801982511681845116808217855250505050505090500192505050604051602081830303815290604052915050610755565b6001600160a01b03918216600090815260046020908152604080832093909416825291909152205460ff1690565b6000908152600160205260409020546001600160a01b0316151590565b3390565b600061121b826111ef565b6112565760405162461bcd60e51b815260040180806020018281038252602c81526020018061210a602c913960400191505060405180910390fd5b600061126183610bf5565b9050806001600160a01b0316846001600160a01b0316148061129c5750836001600160a01b0316611291846107f1565b6001600160a01b0316145b806112ac57506112ac81856111c1565b949350505050565b6112bf838383611522565b6112c98382611666565b6109d8828261175b565b6112dd8282611799565b6112e7828261175b565b6112f0816118ca565b5050565b610b2661130082610bf5565b8261190e565b61130f826111ef565b61134a5760405162461bcd60e51b815260040180806020018281038252602c81526020018061223e602c913960400191505060405180910390fd5b6000828152600c6020908152604090912082516109d892840190611f8c565b5490565b61137783836112d3565b6113846000848484611956565b6109d85760405162461bcd60e51b81526004018080602001828103825260328152602001806120b46032913960400191505060405180910390fd5b6113d0600d8263ffffffff611b9116565b6040516001600160a01b038216907f6ae172837ea30b801fbfcdd4108aa1d5bf8ff775444fd70256b44e6bf3dfc3f690600090a250565b611418600d8263ffffffff611c1216565b6040516001600160a01b038216907fe94479a9f7e1952cc78f2d6baab678adc1b772d936c6583def489e524cb6669290600090a250565b6112f082826040518060200160405280600081525061136d565b60006001600160a01b0382166114b05760405162461bcd60e51b815260040180806020018281038252602281526020018061226a6022913960400191505060405180910390fd5b506001600160a01b03166000908152602091909152604090205460ff1690565b6114db8484846112b4565b6114e784848484611956565b610fef5760405162461bcd60e51b81526004018080602001828103825260328152602001806120b46032913960400191505060405180910390fd5b826001600160a01b031661153582610bf5565b6001600160a01b03161461157a5760405162461bcd60e51b815260040180806020018281038252602981526020018061228c6029913960400191505060405180910390fd5b6001600160a01b0382166115bf5760405162461bcd60e51b81526004018080602001828103825260248152602001806120e66024913960400191505060405180910390fd5b6115c881611c79565b6001600160a01b03831660009081526003602052604090206115e990611cb4565b6001600160a01b038216600090815260036020526040902061160a90611ccb565b60008181526001602052604080822080546001600160a01b0319166001600160a01b0386811691821790925591518493918716917fddf252ad1be2c89b69c2b068fc378daa952ba7f163c4a11628f55a4df523b3ef91a4505050565b6001600160a01b03821660009081526005602052604081205461169090600163ffffffff611cd416565b60008381526006602052604090205490915080821461172b576001600160a01b03841660009081526005602052604081208054849081106116cd57fe5b906000526020600020015490508060056000876001600160a01b03166001600160a01b03168152602001908152602001600020838154811061170b57fe5b600091825260208083209091019290925591825260069052604090208190555b6001600160a01b038416600090815260056020526040902080549061175490600019830161200a565b5050505050565b6001600160a01b0390911660009081526005602081815260408084208054868652600684529185208290559282526001810183559183529091200155565b6001600160a01b0382166117f4576040805162461bcd60e51b815260206004820181905260248201527f4552433732313a206d696e7420746f20746865207a65726f2061646472657373604482015290519081900360640190fd5b6117fd816111ef565b1561184f576040805162461bcd60e51b815260206004820152601c60248201527f4552433732313a20746f6b656e20616c7265616479206d696e74656400000000604482015290519081900360640190fd5b600081815260016020908152604080832080546001600160a01b0319166001600160a01b03871690811790915583526003909152902061188e90611ccb565b60405181906001600160a01b038416906000907fddf252ad1be2c89b69c2b068fc378daa952ba7f163c4a11628f55a4df523b3ef908290a45050565b600780546000838152600860205260408120829055600182018355919091527fa66cc928b5edb82af9bd49922954155ab7b0942694bea4ce44661d9a8736c6880155565b6119188282611d1d565b6000818152600c602052604090205460026000196101006001841615020190911604156112f0576000818152600c602052604081206112f09161202e565b600061196a846001600160a01b0316611d49565b611976575060016112ac565b600060606001600160a01b038616630a85bd0160e11b61199461120c565b89888860405160240180856001600160a01b03166001600160a01b03168152602001846001600160a01b03166001600160a01b0316815260200183815260200180602001828103825283818151815260200191508051906020019080838360005b83811015611a0d5781810151838201526020016119f5565b50505050905090810190601f168015611a3a5780820380516001836020036101000a031916815260200191505b5060408051601f198184030181529181526020820180516001600160e01b03166001600160e01b0319909a16999099178952518151919890975087965094509250829150849050835b60208310611aa25780518252601f199092019160209182019101611a83565b6001836020036101000a0380198251168184511680821785525050505050509050019150506000604051808303816000865af19150503d8060008114611b04576040519150601f19603f3d011682016040523d82523d6000602084013e611b09565b606091505b509150915081611b5a57805115611b235780518082602001fd5b60405162461bcd60e51b81526004018080602001828103825260328152602001806120b46032913960400191505060405180910390fd5b6000818060200190516020811015611b7157600080fd5b50516001600160e01b031916630a85bd0160e11b1493506112ac92505050565b611b9b8282611469565b15611bed576040805162461bcd60e51b815260206004820152601f60248201527f526f6c65733a206163636f756e7420616c72656164792068617320726f6c6500604482015290519081900360640190fd5b6001600160a01b0316600090815260209190915260409020805460ff19166001179055565b611c1c8282611469565b611c575760405162461bcd60e51b81526004018080602001828103825260218152602001806121f16021913960400191505060405180910390fd5b6001600160a01b0316600090815260209190915260409020805460ff19169055565b6000818152600260205260409020546001600160a01b031615610b2657600090815260026020526040902080546001600160a01b0319169055565b8054611cc790600163ffffffff611cd416565b9055565b80546001019055565b6000611d1683836040518060400160405280601e81526020017f536166654d6174683a207375627472616374696f6e206f766572666c6f770000815250611d82565b9392505050565b611d278282611e19565b611d318282611666565b6000818152600660205260408120556112f081611ef0565b6000813f7fc5d2460186f7233c927e7db2dcc703c0e500b653ca82273b7bfad8045d85a4708181148015906112ac575050151592915050565b60008184841115611e115760405162461bcd60e51b81526004018080602001828103825283818151815260200191508051906020019080838360005b83811015611dd6578181015183820152602001611dbe565b50505050905090810190601f168015611e035780820380516001836020036101000a031916815260200191505b509250505060405180910390fd5b505050900390565b816001600160a01b0316611e2c82610bf5565b6001600160a01b031614611e715760405162461bcd60e51b81526004018080602001828103825260258152602001806123626025913960400191505060405180910390fd5b611e7a81611c79565b6001600160a01b0382166000908152600360205260409020611e9b90611cb4565b60008181526001602052604080822080546001600160a01b0319169055518291906001600160a01b038516907fddf252ad1be2c89b69c2b068fc378daa952ba7f163c4a11628f55a4df523b3ef908390a45050565b600754600090611f0790600163ffffffff611cd416565b60008381526008602052604081205460078054939450909284908110611f2957fe5b906000526020600020015490508060078381548110611f4457fe5b60009182526020808320909101929092558281526008909152604090208290556007805490611f7790600019830161200a565b50505060009182525060086020526040812055565b828054600181600116156101000203166002900490600052602060002090601f016020900481019282601f10611fcd57805160ff1916838001178555611ffa565b82800160010185558215611ffa579182015b82811115611ffa578251825591602001919060010190611fdf565b5061200692915061206e565b5090565b8154818355818111156109d8576000838152602090206109d891810190830161206e565b50805460018160011615610100020316600290046000825580601f106120545750610b26565b601f016020900490600052602060002090810190610b2691905b6107ee91905b80821115612006576000815560010161207456fe455243373231456e756d657261626c653a206f776e657220696e646578206f7574206f6620626f756e64734552433732313a207472616e7366657220746f206e6f6e20455243373231526563656976657220696d706c656d656e7465724552433732313a207472616e7366657220746f20746865207a65726f20616464726573734552433732313a206f70657261746f7220717565727920666f72206e6f6e6578697374656e7420746f6b656e4552433732313a20617070726f76652063616c6c6572206973206e6f74206f776e6572206e6f7220617070726f76656420666f7220616c6c4552433732313a2062616c616e636520717565727920666f7220746865207a65726f20616464726573734552433732313a206f776e657220717565727920666f72206e6f6e6578697374656e7420746f6b656e4d696e746572526f6c653a2063616c6c657220646f6573206e6f74206861766520746865204d696e74657220726f6c65526f6c65733a206163636f756e7420646f6573206e6f74206861766520726f6c654552433732313a20617070726f76656420717565727920666f72206e6f6e6578697374656e7420746f6b656e4552433732314d657461646174613a2055524920736574206f66206e6f6e6578697374656e7420746f6b656e526f6c65733a206163636f756e7420697320746865207a65726f20616464726573734552433732313a207472616e73666572206f6620746f6b656e2074686174206973206e6f74206f776e4552433732314d657461646174613a2055524920717565727920666f72206e6f6e6578697374656e7420746f6b656e4552433732313a20617070726f76616c20746f2063757272656e74206f776e65724552433732313a207472616e736665722063616c6c6572206973206e6f74206f776e6572206e6f7220617070726f766564455243373231456e756d657261626c653a20676c6f62616c20696e646578206f7574206f6620626f756e64734552433732313a206275726e206f6620746f6b656e2074686174206973206e6f74206f776e4552433732314275726e61626c653a2063616c6c6572206973206e6f74206f776e6572206e6f7220617070726f766564a265627a7a723158209cf4e708cb4c9f31447ab250b7558ea5dac26e15867e5397383d5db8ab22a21364736f6c63430005110032526f6c65733a206163636f756e7420697320746865207a65726f2061646472657373",
  "source": "pragma solidity ^0.5.0;\n\nimport \"../token/ERC721/ERC721Full.sol\";\nimport \"../token/ERC721/ERC721Mintable.sol\";\nimport \"../token/ERC721/ERC721MetadataMintable.sol\";\nimport \"../token/ERC721/ERC721Burnable.sol\";\n\n/**\n * @title ERC721MintableBurnableImpl\n */\ncontract ERC721MintableBurnableImpl is ERC721Full, ERC721Mintable, ERC721MetadataMintable, ERC721Burnable {\n    constructor () public ERC721Mintable() ERC721Full(\"Test\", \"TEST\") {\n        // solhint-disable-previous-line no-empty-blocks\n    }\n}\n",
  "sourcePath": "/Users/sudipbhattarai/Documents/erc20-tokensale-gen/solidity-contracts/openzeppelin-contracts-v2.5/mocks/ERC721MintableBurnableImpl.sol",
  "compiler": {
    "name": "solc",
    "version": "0.5.17+commit.d19bba13.Emscripten.clang"
  },
  "schemaVersion": "3.4.3",
  "updatedAt": "2022-02-06T18:13:26.153Z",
  "devdoc": {
    "methods": {
      "approve(address,uint256)": {
        "details": "Approves another address to transfer the given token ID The zero address indicates there is no approved address. There can only be one approved address per token at a given time. Can only be called by the token owner or an approved operator.",
        "params": {
          "to": "address to be approved for the given token ID",
          "tokenId": "uint256 ID of the token to be approved"
        }
      },
      "balanceOf(address)": {
        "details": "Gets the balance of the specified address.",
        "params": {
          "owner": "address to query the balance of"
        },
        "return": "uint256 representing the amount owned by the passed address"
      },
      "baseURI()": {
        "details": "Returns the base URI set via {_setBaseURI}. This will be automatically added as a preffix in {tokenURI} to each token's URI, when they are non-empty.    * _Available since v2.5.0._"
      },
      "burn(uint256)": {
        "details": "Burns a specific ERC721 token.",
        "params": {
          "tokenId": "uint256 id of the ERC721 token to be burned."
        }
      },
      "getApproved(uint256)": {
        "details": "Gets the approved address for a token ID, or zero if no address set Reverts if the token ID does not exist.",
        "params": {
          "tokenId": "uint256 ID of the token to query the approval of"
        },
        "return": "address currently approved for the given token ID"
      },
      "isApprovedForAll(address,address)": {
        "details": "Tells whether an operator is approved by a given owner.",
        "params": {
          "operator": "operator address which you want to query the approval of",
          "owner": "owner address which you want to query the approval of"
        },
        "return": "bool whether the given operator is approved by the given owner"
      },
      "mint(address,uint256)": {
        "details": "Function to mint tokens.",
        "params": {
          "to": "The address that will receive the minted token.",
          "tokenId": "The token id to mint."
        },
        "return": "A boolean that indicates if the operation was successful."
      },
      "mintWithTokenURI(address,uint256,string)": {
        "details": "Function to mint tokens.",
        "params": {
          "to": "The address that will receive the minted tokens.",
          "tokenId": "The token id to mint.",
          "tokenURI": "The token URI of the minted token."
        },
        "return": "A boolean that indicates if the operation was successful."
      },
      "name()": {
        "details": "Gets the token name.",
        "return": "string representing the token name"
      },
      "ownerOf(uint256)": {
        "details": "Gets the owner of the specified token ID.",
        "params": {
          "tokenId": "uint256 ID of the token to query the owner of"
        },
        "return": "address currently marked as the owner of the given token ID"
      },
      "safeMint(address,uint256)": {
        "details": "Function to safely mint tokens.",
        "params": {
          "to": "The address that will receive the minted token.",
          "tokenId": "The token id to mint."
        },
        "return": "A boolean that indicates if the operation was successful."
      },
      "safeMint(address,uint256,bytes)": {
        "details": "Function to safely mint tokens.",
        "params": {
          "_data": "bytes data to send along with a safe transfer check.",
          "to": "The address that will receive the minted token.",
          "tokenId": "The token id to mint."
        },
        "return": "A boolean that indicates if the operation was successful."
      },
      "safeTransferFrom(address,address,uint256)": {
        "details": "Safely transfers the ownership of a given token ID to another address If the target address is a contract, it must implement {IERC721Receiver-onERC721Received}, which is called upon a safe transfer, and return the magic value `bytes4(keccak256(\"onERC721Received(address,address,uint256,bytes)\"))`; otherwise, the transfer is reverted. Requires the msg.sender to be the owner, approved, or operator",
        "params": {
          "from": "current owner of the token",
          "to": "address to receive the ownership of the given token ID",
          "tokenId": "uint256 ID of the token to be transferred"
        }
      },
      "safeTransferFrom(address,address,uint256,bytes)": {
        "details": "Safely transfers the ownership of a given token ID to another address If the target address is a contract, it must implement {IERC721Receiver-onERC721Received}, which is called upon a safe transfer, and return the magic value `bytes4(keccak256(\"onERC721Received(address,address,uint256,bytes)\"))`; otherwise, the transfer is reverted. Requires the _msgSender() to be the owner, approved, or operator",
        "params": {
          "_data": "bytes data to send along with a safe transfer check",
          "from": "current owner of the token",
          "to": "address to receive the ownership of the given token ID",
          "tokenId": "uint256 ID of the token to be transferred"
        }
      },
      "setApprovalForAll(address,bool)": {
        "details": "Sets or unsets the approval of a given operator An operator is allowed to transfer all tokens of the sender on their behalf.",
        "params": {
          "approved": "representing the status of the approval to be set",
          "to": "operator address to set the approval"
        }
      },
      "supportsInterface(bytes4)": {
        "details": "See {IERC165-supportsInterface}.     * Time complexity O(1), guaranteed to always use less than 30 000 gas."
      },
      "symbol()": {
        "details": "Gets the token symbol.",
        "return": "string representing the token symbol"
      },
      "tokenByIndex(uint256)": {
        "details": "Gets the token ID at a given index of all the tokens in this contract Reverts if the index is greater or equal to the total number of tokens.",
        "params": {
          "index": "uint256 representing the index to be accessed of the tokens list"
        },
        "return": "uint256 token ID at the given index of the tokens list"
      },
      "tokenOfOwnerByIndex(address,uint256)": {
        "details": "Gets the token ID at a given index of the tokens list of the requested owner.",
        "params": {
          "index": "uint256 representing the index to be accessed of the requested tokens list",
          "owner": "address owning the tokens list to be accessed"
        },
        "return": "uint256 token ID at the given index of the tokens list owned by the requested address"
      },
      "tokenURI(uint256)": {
        "details": "Returns the URI for a given token ID. May return an empty string.     * If the token's URI is non-empty and a base URI was set (via {_setBaseURI}), it will be added to the token ID's URI as a prefix.     * Reverts if the token ID does not exist."
      },
      "totalSupply()": {
        "details": "Gets the total amount of tokens stored by the contract.",
        "return": "uint256 representing the total amount of tokens"
      },
      "transferFrom(address,address,uint256)": {
        "details": "Transfers the ownership of a given token ID to another address. Usage of this method is discouraged, use {safeTransferFrom} whenever possible. Requires the msg.sender to be the owner, approved, or operator.",
        "params": {
          "from": "current owner of the token",
          "to": "address to receive the ownership of the given token ID",
          "tokenId": "uint256 ID of the token to be transferred"
        }
      }
    },
    "title": "ERC721MintableBurnableImpl"
  },
  "userdoc": {
    "methods": {}
  }
}