{
  "contractName": "ERC721FullMock",
  "abi": [
    {
      "inputs": [
        {
          "internalType": "string",
          "name": "name",
          "type": "string"
        },
        {
          "internalType": "string",
          "name": "symbol",
          "type": "string"
        }
      ],
      "payable": false,
      "stateMutability": "nonpayable",
      "type": "constructor"
    },
    {
      "anonymous": false,
      "inputs": [
        {
          "indexed": true,
          "internalType": "address",
          "name": "owner",
          "type": "address"
        },
        {
          "indexed": true,
          "internalType": "address",
          "name": "approved",
          "type": "address"
        },
        {
          "indexed": true,
          "internalType": "uint256",
          "name": "tokenId",
          "type": "uint256"
        }
      ],
      "name": "Approval",
      "type": "event"
    },
    {
      "anonymous": false,
      "inputs": [
        {
          "indexed": true,
          "internalType": "address",
          "name": "owner",
          "type": "address"
        },
        {
          "indexed": true,
          "internalType": "address",
          "name": "operator",
          "type": "address"
        },
        {
          "indexed": false,
          "internalType": "bool",
          "name": "approved",
          "type": "bool"
        }
      ],
      "name": "ApprovalForAll",
      "type": "event"
    },
    {
      "anonymous": false,
      "inputs": [
        {
          "indexed": true,
          "internalType": "address",
          "name": "account",
          "type": "address"
        }
      ],
      "name": "MinterAdded",
      "type": "event"
    },
    {
      "anonymous": false,
      "inputs": [
        {
          "indexed": true,
          "internalType": "address",
          "name": "account",
          "type": "address"
        }
      ],
      "name": "MinterRemoved",
      "type": "event"
    },
    {
      "anonymous": false,
      "inputs": [
        {
          "indexed": true,
          "internalType": "address",
          "name": "from",
          "type": "address"
        },
        {
          "indexed": true,
          "internalType": "address",
          "name": "to",
          "type": "address"
        },
        {
          "indexed": true,
          "internalType": "uint256",
          "name": "tokenId",
          "type": "uint256"
        }
      ],
      "name": "Transfer",
      "type": "event"
    },
    {
      "constant": false,
      "inputs": [
        {
          "internalType": "address",
          "name": "account",
          "type": "address"
        }
      ],
      "name": "addMinter",
      "outputs": [],
      "payable": false,
      "stateMutability": "nonpayable",
      "type": "function"
    },
    {
      "constant": false,
      "inputs": [
        {
          "internalType": "address",
          "name": "to",
          "type": "address"
        },
        {
          "internalType": "uint256",
          "name": "tokenId",
          "type": "uint256"
        }
      ],
      "name": "approve",
      "outputs": [],
      "payable": false,
      "stateMutability": "nonpayable",
      "type": "function"
    },
    {
      "constant": true,
      "inputs": [
        {
          "internalType": "address",
          "name": "owner",
          "type": "address"
        }
      ],
      "name": "balanceOf",
      "outputs": [
        {
          "internalType": "uint256",
          "name": "",
          "type": "uint256"
        }
      ],
      "payable": false,
      "stateMutability": "view",
      "type": "function"
    },
    {
      "constant": true,
      "inputs": [],
      "name": "baseURI",
      "outputs": [
        {
          "internalType": "string",
          "name": "",
          "type": "string"
        }
      ],
      "payable": false,
      "stateMutability": "view",
      "type": "function"
    },
    {
      "constant": false,
      "inputs": [
        {
          "internalType": "uint256",
          "name": "tokenId",
          "type": "uint256"
        }
      ],
      "name": "burn",
      "outputs": [],
      "payable": false,
      "stateMutability": "nonpayable",
      "type": "function"
    },
    {
      "constant": true,
      "inputs": [
        {
          "internalType": "uint256",
          "name": "tokenId",
          "type": "uint256"
        }
      ],
      "name": "getApproved",
      "outputs": [
        {
          "internalType": "address",
          "name": "",
          "type": "address"
        }
      ],
      "payable": false,
      "stateMutability": "view",
      "type": "function"
    },
    {
      "constant": true,
      "inputs": [
        {
          "internalType": "address",
          "name": "owner",
          "type": "address"
        },
        {
          "internalType": "address",
          "name": "operator",
          "type": "address"
        }
      ],
      "name": "isApprovedForAll",
      "outputs": [
        {
          "internalType": "bool",
          "name": "",
          "type": "bool"
        }
      ],
      "payable": false,
      "stateMutability": "view",
      "type": "function"
    },
    {
      "constant": true,
      "inputs": [
        {
          "internalType": "address",
          "name": "account",
          "type": "address"
        }
      ],
      "name": "isMinter",
      "outputs": [
        {
          "internalType": "bool",
          "name": "",
          "type": "bool"
        }
      ],
      "payable": false,
      "stateMutability": "view",
      "type": "function"
    },
    {
      "constant": false,
      "inputs": [
        {
          "internalType": "address",
          "name": "to",
          "type": "address"
        },
        {
          "internalType": "uint256",
          "name": "tokenId",
          "type": "uint256"
        }
      ],
      "name": "mint",
      "outputs": [
        {
          "internalType": "bool",
          "name": "",
          "type": "bool"
        }
      ],
      "payable": false,
      "stateMutability": "nonpayable",
      "type": "function"
    },
    {
      "constant": false,
      "inputs": [
        {
          "internalType": "address",
          "name": "to",
          "type": "address"
        },
        {
          "internalType": "uint256",
          "name": "tokenId",
          "type": "uint256"
        },
        {
          "internalType": "string",
          "name": "tokenURI",
          "type": "string"
        }
      ],
      "name": "mintWithTokenURI",
      "outputs": [
        {
          "internalType": "bool",
          "name": "",
          "type": "bool"
        }
      ],
      "payable": false,
      "stateMutability": "nonpayable",
      "type": "function"
    },
    {
      "constant": true,
      "inputs": [],
      "name": "name",
      "outputs": [
        {
          "internalType": "string",
          "name": "",
          "type": "string"
        }
      ],
      "payable": false,
      "stateMutability": "view",
      "type": "function"
    },
    {
      "constant": true,
      "inputs": [
        {
          "internalType": "uint256",
          "name": "tokenId",
          "type": "uint256"
        }
      ],
      "name": "ownerOf",
      "outputs": [
        {
          "internalType": "address",
          "name": "",
          "type": "address"
        }
      ],
      "payable": false,
      "stateMutability": "view",
      "type": "function"
    },
    {
      "constant": false,
      "inputs": [],
      "name": "renounceMinter",
      "outputs": [],
      "payable": false,
      "stateMutability": "nonpayable",
      "type": "function"
    },
    {
      "constant": false,
      "inputs": [
        {
          "internalType": "address",
          "name": "to",
          "type": "address"
        },
        {
          "internalType": "uint256",
          "name": "tokenId",
          "type": "uint256"
        },
        {
          "internalType": "bytes",
          "name": "_data",
          "type": "bytes"
        }
      ],
      "name": "safeMint",
      "outputs": [
        {
          "internalType": "bool",
          "name": "",
          "type": "bool"
        }
      ],
      "payable": false,
      "stateMutability": "nonpayable",
      "type": "function"
    },
    {
      "constant": false,
      "inputs": [
        {
          "internalType": "address",
          "name": "to",
          "type": "address"
        },
        {
          "internalType": "uint256",
          "name": "tokenId",
          "type": "uint256"
        }
      ],
      "name": "safeMint",
      "outputs": [
        {
          "internalType": "bool",
          "name": "",
          "type": "bool"
        }
      ],
      "payable": false,
      "stateMutability": "nonpayable",
      "type": "function"
    },
    {
      "constant": false,
      "inputs": [
        {
          "internalType": "address",
          "name": "from",
          "type": "address"
        },
        {
          "internalType": "address",
          "name": "to",
          "type": "address"
        },
        {
          "internalType": "uint256",
          "name": "tokenId",
          "type": "uint256"
        }
      ],
      "name": "safeTransferFrom",
      "outputs": [],
      "payable": false,
      "stateMutability": "nonpayable",
      "type": "function"
    },
    {
      "constant": false,
      "inputs": [
        {
          "internalType": "address",
          "name": "from",
          "type": "address"
        },
        {
          "internalType": "address",
          "name": "to",
          "type": "address"
        },
        {
          "internalType": "uint256",
          "name": "tokenId",
          "type": "uint256"
        },
        {
          "internalType": "bytes",
          "name": "_data",
          "type": "bytes"
        }
      ],
      "name": "safeTransferFrom",
      "outputs": [],
      "payable": false,
      "stateMutability": "nonpayable",
      "type": "function"
    },
    {
      "constant": false,
      "inputs": [
        {
          "internalType": "address",
          "name": "to",
          "type": "address"
        },
        {
          "internalType": "bool",
          "name": "approved",
          "type": "bool"
        }
      ],
      "name": "setApprovalForAll",
      "outputs": [],
      "payable": false,
      "stateMutability": "nonpayable",
      "type": "function"
    },
    {
      "constant": true,
      "inputs": [
        {
          "internalType": "bytes4",
          "name": "interfaceId",
          "type": "bytes4"
        }
      ],
      "name": "supportsInterface",
      "outputs": [
        {
          "internalType": "bool",
          "name": "",
          "type": "bool"
        }
      ],
      "payable": false,
      "stateMutability": "view",
      "type": "function"
    },
    {
      "constant": true,
      "inputs": [],
      "name": "symbol",
      "outputs": [
        {
          "internalType": "string",
          "name": "",
          "type": "string"
        }
      ],
      "payable": false,
      "stateMutability": "view",
      "type": "function"
    },
    {
      "constant": true,
      "inputs": [
        {
          "internalType": "uint256",
          "name": "index",
          "type": "uint256"
        }
      ],
      "name": "tokenByIndex",
      "outputs": [
        {
          "internalType": "uint256",
          "name": "",
          "type": "uint256"
        }
      ],
      "payable": false,
      "stateMutability": "view",
      "type": "function"
    },
    {
      "constant": true,
      "inputs": [
        {
          "internalType": "address",
          "name": "owner",
          "type": "address"
        },
        {
          "internalType": "uint256",
          "name": "index",
          "type": "uint256"
        }
      ],
      "name": "tokenOfOwnerByIndex",
      "outputs": [
        {
          "internalType": "uint256",
          "name": "",
          "type": "uint256"
        }
      ],
      "payable": false,
      "stateMutability": "view",
      "type": "function"
    },
    {
      "constant": true,
      "inputs": [
        {
          "internalType": "uint256",
          "name": "tokenId",
          "type": "uint256"
        }
      ],
      "name": "tokenURI",
      "outputs": [
        {
          "internalType": "string",
          "name": "",
          "type": "string"
        }
      ],
      "payable": false,
      "stateMutability": "view",
      "type": "function"
    },
    {
      "constant": true,
      "inputs": [],
      "name": "totalSupply",
      "outputs": [
        {
          "internalType": "uint256",
          "name": "",
          "type": "uint256"
        }
      ],
      "payable": false,
      "stateMutability": "view",
      "type": "function"
    },
    {
      "constant": false,
      "inputs": [
        {
          "internalType": "address",
          "name": "from",
          "type": "address"
        },
        {
          "internalType": "address",
          "name": "to",
          "type": "address"
        },
        {
          "internalType": "uint256",
          "name": "tokenId",
          "type": "uint256"
        }
      ],
      "name": "transferFrom",
      "outputs": [],
      "payable": false,
      "stateMutability": "nonpayable",
      "type": "function"
    },
    {
      "constant": true,
      "inputs": [
        {
          "internalType": "uint256",
          "name": "tokenId",
          "type": "uint256"
        }
      ],
      "name": "exists",
      "outputs": [
        {
          "internalType": "bool",
          "name": "",
          "type": "bool"
        }
      ],
      "payable": false,
      "stateMutability": "view",
      "type": "function"
    },
    {
      "constant": true,
      "inputs": [
        {
          "internalType": "address",
          "name": "owner",
          "type": "address"
        }
      ],
      "name": "tokensOfOwner",
      "outputs": [
        {
          "internalType": "uint256[]",
          "name": "",
          "type": "uint256[]"
        }
      ],
      "payable": false,
      "stateMutability": "view",
      "type": "function"
    },
    {
      "constant": false,
      "inputs": [
        {
          "internalType": "uint256",
          "name": "tokenId",
          "type": "uint256"
        },
        {
          "internalType": "string",
          "name": "uri",
          "type": "string"
        }
      ],
      "name": "setTokenURI",
      "outputs": [],
      "payable": false,
      "stateMutability": "nonpayable",
      "type": "function"
    },
    {
      "constant": false,
      "inputs": [
        {
          "internalType": "string",
          "name": "baseURI",
          "type": "string"
        }
      ],
      "name": "setBaseURI",
      "outputs": [],
      "payable": false,
      "stateMutability": "nonpayable",
      "type": "function"
    }
  ],
  "bytecode": "0x60806040523480156200001157600080fd5b5060405162002bcd38038062002bcd833981810160405260408110156200003757600080fd5b81019080805160405193929190846401000000008211156200005857600080fd5b9083019060208201858111156200006e57600080fd5b82516401000000008111828201881017156200008957600080fd5b82525081516020918201929091019080838360005b83811015620000b85781810151838201526020016200009e565b50505050905090810190601f168015620000e65780820380516001836020036101000a031916815260200191505b50604052602001805160405193929190846401000000008211156200010a57600080fd5b9083019060208201858111156200012057600080fd5b82516401000000008111828201881017156200013b57600080fd5b82525081516020918201929091019080838360005b838110156200016a57818101518382015260200162000150565b50505050905090810190601f168015620001985780820380516001836020036101000a031916815260200191505b50604052508391508290508181620001c06301ffc9a760e01b6001600160e01b036200025a16565b620001db6380ac58cd60e01b6001600160e01b036200025a16565b620001f663780e9d6360e01b6001600160e01b036200025a16565b81516200020b90600990602085019062000427565b5080516200022190600a90602084019062000427565b506200023d635b5e139f60e01b6001600160e01b036200025a16565b505050506200025232620002df60201b60201c565b5050620004cc565b6001600160e01b03198082161415620002ba576040805162461bcd60e51b815260206004820152601c60248201527f4552433136353a20696e76616c696420696e7465726661636520696400000000604482015290519081900360640190fd5b6001600160e01b0319166000908152602081905260409020805460ff19166001179055565b620002fa81600d6200033160201b62001e751790919060201c565b6040516001600160a01b038216907f6ae172837ea30b801fbfcdd4108aa1d5bf8ff775444fd70256b44e6bf3dfc3f690600090a250565b6200034682826001600160e01b03620003be16565b1562000399576040805162461bcd60e51b815260206004820152601f60248201527f526f6c65733a206163636f756e7420616c72656164792068617320726f6c6500604482015290519081900360640190fd5b6001600160a01b0316600090815260209190915260409020805460ff19166001179055565b60006001600160a01b038216620004075760405162461bcd60e51b815260040180806020018281038252602281526020018062002bab6022913960400191505060405180910390fd5b506001600160a01b03166000908152602091909152604090205460ff1690565b828054600181600116156101000203166002900490600052602060002090601f016020900481019282601f106200046a57805160ff19168380011785556200049a565b828001600101855582156200049a579182015b828111156200049a5782518255916020019190600101906200047d565b50620004a8929150620004ac565b5090565b620004c991905b80821115620004a85760008155600101620004b3565b90565b6126cf80620004dc6000396000f3fe608060405234801561001057600080fd5b50600436106101cf5760003560e01c806355f804b311610104578063983b2d56116100a2578063aa271e1a11610071578063aa271e1a1461083a578063b88d4fde14610860578063c87b56dd14610924578063e985e9c514610941576101cf565b8063983b2d56146107b257806398650275146107d8578063a1448194146107e0578063a22cb4651461080c576101cf565b806370a08231116100de57806370a08231146106555780638462151c1461067b5780638832e6e3146106f157806395d89b41146107aa576101cf565b806355f804b31461058c5780636352211e146106305780636c0360eb1461064d576101cf565b80632f745c591161017157806342966c681161014b57806342966c681461047c5780634f558e79146104995780634f6ccce7146104b657806350bb4e7f146104d3576101cf565b80632f745c59146103ee57806340c10f191461041a57806342842e0e14610446576101cf565b8063095ea7b3116101ad578063095ea7b3146102c5578063162094c4146102f357806318160ddd1461039e57806323b872dd146103b8576101cf565b806301ffc9a7146101d457806306fdde031461020f578063081812fc1461028c575b600080fd5b6101fb600480360360208110156101ea57600080fd5b50356001600160e01b03191661096f565b604080519115158252519081900360200190f35b610217610992565b6040805160208082528351818301528351919283929083019185019080838360005b83811015610251578181015183820152602001610239565b50505050905090810190601f16801561027e5780820380516001836020036101000a031916815260200191505b509250505060405180910390f35b6102a9600480360360208110156102a257600080fd5b5035610a29565b604080516001600160a01b039092168252519081900360200190f35b6102f1600480360360408110156102db57600080fd5b506001600160a01b038135169060200135610a8b565b005b6102f16004803603604081101561030957600080fd5b81359190810190604081016020820135600160201b81111561032a57600080fd5b82018360208201111561033c57600080fd5b803590602001918460018302840111600160201b8311171561035d57600080fd5b91908080601f016020809104026020016040519081016040528093929190818152602001838380828437600092019190915250929550610bb3945050505050565b6103a6610bc1565b60408051918252519081900360200190f35b6102f1600480360360608110156103ce57600080fd5b506001600160a01b03813581169160208101359091169060400135610bc7565b6103a66004803603604081101561040457600080fd5b506001600160a01b038135169060200135610c23565b6101fb6004803603604081101561043057600080fd5b506001600160a01b038135169060200135610ca2565b6102f16004803603606081101561045c57600080fd5b506001600160a01b03813581169160208101359091169060400135610d02565b6102f16004803603602081101561049257600080fd5b5035610d1d565b6101fb600480360360208110156104af57600080fd5b5035610d6f565b6103a6600480360360208110156104cc57600080fd5b5035610d80565b6101fb600480360360608110156104e957600080fd5b6001600160a01b0382351691602081013591810190606081016040820135600160201b81111561051857600080fd5b82018360208201111561052a57600080fd5b803590602001918460018302840111600160201b8311171561054b57600080fd5b91908080601f016020809104026020016040519081016040528093929190818152602001838380828437600092019190915250929550610de6945050505050565b6102f1600480360360208110156105a257600080fd5b810190602081018135600160201b8111156105bc57600080fd5b8201836020820111156105ce57600080fd5b803590602001918460018302840111600160201b831117156105ef57600080fd5b91908080601f016020809104026020016040519081016040528093929190818152602001838380828437600092019190915250929550610e4c945050505050565b6102a96004803603602081101561064657600080fd5b5035610e55565b610217610ea9565b6103a66004803603602081101561066b57600080fd5b50356001600160a01b0316610f0a565b6106a16004803603602081101561069157600080fd5b50356001600160a01b0316610f72565b60408051602080825283518183015283519192839290830191858101910280838360005b838110156106dd5781810151838201526020016106c5565b505050509050019250505060405180910390f35b6101fb6004803603606081101561070757600080fd5b6001600160a01b0382351691602081013591810190606081016040820135600160201b81111561073657600080fd5b82018360208201111561074857600080fd5b803590602001918460018302840111600160201b8311171561076957600080fd5b91908080601f016020809104026020016040519081016040528093929190818152602001838380828437600092019190915250929550610fd3945050505050565b610217611026565b6102f1600480360360208110156107c857600080fd5b50356001600160a01b0316611087565b6102f16110d6565b6101fb600480360360408110156107f657600080fd5b506001600160a01b0381351690602001356110e8565b6102f16004803603604081101561082257600080fd5b506001600160a01b038135169060200135151561113a565b6101fb6004803603602081101561085057600080fd5b50356001600160a01b031661123f565b6102f16004803603608081101561087657600080fd5b6001600160a01b03823581169260208101359091169160408201359190810190608081016060820135600160201b8111156108b057600080fd5b8201836020820111156108c257600080fd5b803590602001918460018302840111600160201b831117156108e357600080fd5b91908080601f016020809104026020016040519081016040528093929190818152602001838380828437600092019190915250929550611252945050505050565b6102176004803603602081101561093a57600080fd5b50356112b0565b6101fb6004803603604081101561095757600080fd5b506001600160a01b038135811691602001351661147c565b6001600160e01b0319811660009081526020819052604090205460ff165b919050565b60098054604080516020601f6002600019610100600188161502019095169490940493840181900481028201810190925282815260609390929091830182828015610a1e5780601f106109f357610100808354040283529160200191610a1e565b820191906000526020600020905b815481529060010190602001808311610a0157829003601f168201915b505050505090505b90565b6000610a34826114aa565b610a6f5760405162461bcd60e51b815260040180806020018281038252602c8152602001806124f6602c913960400191505060405180910390fd5b506000908152600260205260409020546001600160a01b031690565b6000610a9682610e55565b9050806001600160a01b0316836001600160a01b03161415610ae95760405162461bcd60e51b81526004018080602001828103825260218152602001806125c86021913960400191505060405180910390fd5b806001600160a01b0316610afb6114c7565b6001600160a01b03161480610b1c5750610b1c81610b176114c7565b61147c565b610b575760405162461bcd60e51b815260040180806020018281038252603881526020018061241a6038913960400191505060405180910390fd5b60008281526002602052604080822080546001600160a01b0319166001600160a01b0387811691821790925591518593918516917f8c5be1e5ebec7d5bd14f71427d1e84f3dd0314c0f7b2291e5b200ac8c7c3b92591a4505050565b610bbd82826114cb565b5050565b60075490565b610bd8610bd26114c7565b8261152e565b610c135760405162461bcd60e51b81526004018080602001828103825260318152602001806125e96031913960400191505060405180910390fd5b610c1e8383836115d2565b505050565b6000610c2e83610f0a565b8210610c6b5760405162461bcd60e51b815260040180806020018281038252602b81526020018061236d602b913960400191505060405180910390fd5b6001600160a01b0383166000908152600560205260409020805483908110610c8f57fe5b9060005260206000200154905092915050565b6000610cb4610caf6114c7565b61123f565b610cef5760405162461bcd60e51b81526004018080602001828103825260308152602001806124a56030913960400191505060405180910390fd5b610cf983836115f1565b50600192915050565b610c1e83838360405180602001604052806000815250611252565b610d28610bd26114c7565b610d635760405162461bcd60e51b815260040180806020018281038252603081526020018061266b6030913960400191505060405180910390fd5b610d6c8161160e565b50565b6000610d7a826114aa565b92915050565b6000610d8a610bc1565b8210610dc75760405162461bcd60e51b815260040180806020018281038252602c81526020018061261a602c913960400191505060405180910390fd5b60078281548110610dd457fe5b90600052602060002001549050919050565b6000610df3610caf6114c7565b610e2e5760405162461bcd60e51b81526004018080602001828103825260308152602001806124a56030913960400191505060405180910390fd5b610e3884846115f1565b610e4283836114cb565b5060019392505050565b610d6c81611620565b6000818152600160205260408120546001600160a01b031680610d7a5760405162461bcd60e51b815260040180806020018281038252602981526020018061247c6029913960400191505060405180910390fd5b600b8054604080516020601f6002600019610100600188161502019095169490940493840181900481028201810190925282815260609390929091830182828015610a1e5780601f106109f357610100808354040283529160200191610a1e565b60006001600160a01b038216610f515760405162461bcd60e51b815260040180806020018281038252602a815260200180612452602a913960400191505060405180910390fd5b6001600160a01b0382166000908152600360205260409020610d7a90611633565b6060610f7d82611637565b805480602002602001604051908101604052809291908181526020018280548015610fc757602002820191906000526020600020905b815481526020019060010190808311610fb3575b50505050509050919050565b6000610fe0610caf6114c7565b61101b5760405162461bcd60e51b81526004018080602001828103825260308152602001806124a56030913960400191505060405180910390fd5b610e42848484611651565b600a8054604080516020601f6002600019610100600188161502019095169490940493840181900481028201810190925282815260609390929091830182828015610a1e5780601f106109f357610100808354040283529160200191610a1e565b611092610caf6114c7565b6110cd5760405162461bcd60e51b81526004018080602001828103825260308152602001806124a56030913960400191505060405180910390fd5b610d6c816116a3565b6110e66110e16114c7565b6116eb565b565b60006110f5610caf6114c7565b6111305760405162461bcd60e51b81526004018080602001828103825260308152602001806124a56030913960400191505060405180910390fd5b610cf98383611733565b6111426114c7565b6001600160a01b0316826001600160a01b031614156111a8576040805162461bcd60e51b815260206004820152601960248201527f4552433732313a20617070726f766520746f2063616c6c657200000000000000604482015290519081900360640190fd5b80600460006111b56114c7565b6001600160a01b03908116825260208083019390935260409182016000908120918716808252919093529120805460ff1916921515929092179091556111f96114c7565b60408051841515815290516001600160a01b0392909216917f17307eab39ab6107e8899845ad3d59bd9653f200f220920489ca2b5937696c319181900360200190a35050565b6000610d7a600d8363ffffffff61174d16565b61126361125d6114c7565b8361152e565b61129e5760405162461bcd60e51b81526004018080602001828103825260318152602001806125e96031913960400191505060405180910390fd5b6112aa848484846117b4565b50505050565b60606112bb826114aa565b6112f65760405162461bcd60e51b815260040180806020018281038252602f815260200180612599602f913960400191505060405180910390fd5b6000828152600c602090815260409182902080548351601f600260001961010060018616150201909316929092049182018490048402810184019094528084526060939283018282801561138b5780601f106113605761010080835404028352916020019161138b565b820191906000526020600020905b81548152906001019060200180831161136e57829003601f168201915b505050505090508051600014156113b257505060408051602081019091526000815261098d565b600b8160405160200180838054600181600116156101000203166002900480156114135780601f106113f1576101008083540402835291820191611413565b820191906000526020600020905b8154815290600101906020018083116113ff575b5050825160208401908083835b6020831061143f5780518252601f199092019160209182019101611420565b6001836020036101000a0380198251168184511680821785525050505050509050019250505060405160208183030381529060405291505061098d565b6001600160a01b03918216600090815260046020908152604080832093909416825291909152205460ff1690565b6000908152600160205260409020546001600160a01b0316151590565b3390565b6114d4826114aa565b61150f5760405162461bcd60e51b815260040180806020018281038252602c815260200180612522602c913960400191505060405180910390fd5b6000828152600c602090815260409091208251610c1e92840190612270565b6000611539826114aa565b6115745760405162461bcd60e51b815260040180806020018281038252602c8152602001806123ee602c913960400191505060405180910390fd5b600061157f83610e55565b9050806001600160a01b0316846001600160a01b031614806115ba5750836001600160a01b03166115af84610a29565b6001600160a01b0316145b806115ca57506115ca818561147c565b949350505050565b6115dd838383611806565b6115e7838261194a565b610c1e8282611a3f565b6115fb8282611a7d565b6116058282611a3f565b610bbd81611bae565b610d6c61161a82610e55565b82611bf2565b8051610bbd90600b906020840190612270565b5490565b6001600160a01b0316600090815260056020526040902090565b61165b83836115f1565b6116686000848484611c3a565b610c1e5760405162461bcd60e51b81526004018080602001828103825260328152602001806123986032913960400191505060405180910390fd5b6116b4600d8263ffffffff611e7516565b6040516001600160a01b038216907f6ae172837ea30b801fbfcdd4108aa1d5bf8ff775444fd70256b44e6bf3dfc3f690600090a250565b6116fc600d8263ffffffff611ef616565b6040516001600160a01b038216907fe94479a9f7e1952cc78f2d6baab678adc1b772d936c6583def489e524cb6669290600090a250565b610bbd828260405180602001604052806000815250611651565b60006001600160a01b0382166117945760405162461bcd60e51b815260040180806020018281038252602281526020018061254e6022913960400191505060405180910390fd5b506001600160a01b03166000908152602091909152604090205460ff1690565b6117bf8484846115d2565b6117cb84848484611c3a565b6112aa5760405162461bcd60e51b81526004018080602001828103825260328152602001806123986032913960400191505060405180910390fd5b826001600160a01b031661181982610e55565b6001600160a01b03161461185e5760405162461bcd60e51b81526004018080602001828103825260298152602001806125706029913960400191505060405180910390fd5b6001600160a01b0382166118a35760405162461bcd60e51b81526004018080602001828103825260248152602001806123ca6024913960400191505060405180910390fd5b6118ac81611f5d565b6001600160a01b03831660009081526003602052604090206118cd90611f98565b6001600160a01b03821660009081526003602052604090206118ee90611faf565b60008181526001602052604080822080546001600160a01b0319166001600160a01b0386811691821790925591518493918716917fddf252ad1be2c89b69c2b068fc378daa952ba7f163c4a11628f55a4df523b3ef91a4505050565b6001600160a01b03821660009081526005602052604081205461197490600163ffffffff611fb816565b600083815260066020526040902054909150808214611a0f576001600160a01b03841660009081526005602052604081208054849081106119b157fe5b906000526020600020015490508060056000876001600160a01b03166001600160a01b0316815260200190815260200160002083815481106119ef57fe5b600091825260208083209091019290925591825260069052604090208190555b6001600160a01b0384166000908152600560205260409020805490611a389060001983016122ee565b5050505050565b6001600160a01b0390911660009081526005602081815260408084208054868652600684529185208290559282526001810183559183529091200155565b6001600160a01b038216611ad8576040805162461bcd60e51b815260206004820181905260248201527f4552433732313a206d696e7420746f20746865207a65726f2061646472657373604482015290519081900360640190fd5b611ae1816114aa565b15611b33576040805162461bcd60e51b815260206004820152601c60248201527f4552433732313a20746f6b656e20616c7265616479206d696e74656400000000604482015290519081900360640190fd5b600081815260016020908152604080832080546001600160a01b0319166001600160a01b038716908117909155835260039091529020611b7290611faf565b60405181906001600160a01b038416906000907fddf252ad1be2c89b69c2b068fc378daa952ba7f163c4a11628f55a4df523b3ef908290a45050565b600780546000838152600860205260408120829055600182018355919091527fa66cc928b5edb82af9bd49922954155ab7b0942694bea4ce44661d9a8736c6880155565b611bfc8282612001565b6000818152600c60205260409020546002600019610100600184161502019091160415610bbd576000818152600c60205260408120610bbd91612312565b6000611c4e846001600160a01b031661202d565b611c5a575060016115ca565b600060606001600160a01b038616630a85bd0160e11b611c786114c7565b89888860405160240180856001600160a01b03166001600160a01b03168152602001846001600160a01b03166001600160a01b0316815260200183815260200180602001828103825283818151815260200191508051906020019080838360005b83811015611cf1578181015183820152602001611cd9565b50505050905090810190601f168015611d1e5780820380516001836020036101000a031916815260200191505b5060408051601f198184030181529181526020820180516001600160e01b03166001600160e01b0319909a16999099178952518151919890975087965094509250829150849050835b60208310611d865780518252601f199092019160209182019101611d67565b6001836020036101000a0380198251168184511680821785525050505050509050019150506000604051808303816000865af19150503d8060008114611de8576040519150601f19603f3d011682016040523d82523d6000602084013e611ded565b606091505b509150915081611e3e57805115611e075780518082602001fd5b60405162461bcd60e51b81526004018080602001828103825260328152602001806123986032913960400191505060405180910390fd5b6000818060200190516020811015611e5557600080fd5b50516001600160e01b031916630a85bd0160e11b1493506115ca92505050565b611e7f828261174d565b15611ed1576040805162461bcd60e51b815260206004820152601f60248201527f526f6c65733a206163636f756e7420616c72656164792068617320726f6c6500604482015290519081900360640190fd5b6001600160a01b0316600090815260209190915260409020805460ff19166001179055565b611f00828261174d565b611f3b5760405162461bcd60e51b81526004018080602001828103825260218152602001806124d56021913960400191505060405180910390fd5b6001600160a01b0316600090815260209190915260409020805460ff19169055565b6000818152600260205260409020546001600160a01b031615610d6c57600090815260026020526040902080546001600160a01b0319169055565b8054611fab90600163ffffffff611fb816565b9055565b80546001019055565b6000611ffa83836040518060400160405280601e81526020017f536166654d6174683a207375627472616374696f6e206f766572666c6f770000815250612066565b9392505050565b61200b82826120fd565b612015828261194a565b600081815260066020526040812055610bbd816121d4565b6000813f7fc5d2460186f7233c927e7db2dcc703c0e500b653ca82273b7bfad8045d85a4708181148015906115ca575050151592915050565b600081848411156120f55760405162461bcd60e51b81526004018080602001828103825283818151815260200191508051906020019080838360005b838110156120ba5781810151838201526020016120a2565b50505050905090810190601f1680156120e75780820380516001836020036101000a031916815260200191505b509250505060405180910390fd5b505050900390565b816001600160a01b031661211082610e55565b6001600160a01b0316146121555760405162461bcd60e51b81526004018080602001828103825260258152602001806126466025913960400191505060405180910390fd5b61215e81611f5d565b6001600160a01b038216600090815260036020526040902061217f90611f98565b60008181526001602052604080822080546001600160a01b0319169055518291906001600160a01b038516907fddf252ad1be2c89b69c2b068fc378daa952ba7f163c4a11628f55a4df523b3ef908390a45050565b6007546000906121eb90600163ffffffff611fb816565b6000838152600860205260408120546007805493945090928490811061220d57fe5b90600052602060002001549050806007838154811061222857fe5b6000918252602080832090910192909255828152600890915260409020829055600780549061225b9060001983016122ee565b50505060009182525060086020526040812055565b828054600181600116156101000203166002900490600052602060002090601f016020900481019282601f106122b157805160ff19168380011785556122de565b828001600101855582156122de579182015b828111156122de5782518255916020019190600101906122c3565b506122ea929150612352565b5090565b815481835581811115610c1e57600083815260209020610c1e918101908301612352565b50805460018160011615610100020316600290046000825580601f106123385750610d6c565b601f016020900490600052602060002090810190610d6c91905b610a2691905b808211156122ea576000815560010161235856fe455243373231456e756d657261626c653a206f776e657220696e646578206f7574206f6620626f756e64734552433732313a207472616e7366657220746f206e6f6e20455243373231526563656976657220696d706c656d656e7465724552433732313a207472616e7366657220746f20746865207a65726f20616464726573734552433732313a206f70657261746f7220717565727920666f72206e6f6e6578697374656e7420746f6b656e4552433732313a20617070726f76652063616c6c6572206973206e6f74206f776e6572206e6f7220617070726f76656420666f7220616c6c4552433732313a2062616c616e636520717565727920666f7220746865207a65726f20616464726573734552433732313a206f776e657220717565727920666f72206e6f6e6578697374656e7420746f6b656e4d696e746572526f6c653a2063616c6c657220646f6573206e6f74206861766520746865204d696e74657220726f6c65526f6c65733a206163636f756e7420646f6573206e6f74206861766520726f6c654552433732313a20617070726f76656420717565727920666f72206e6f6e6578697374656e7420746f6b656e4552433732314d657461646174613a2055524920736574206f66206e6f6e6578697374656e7420746f6b656e526f6c65733a206163636f756e7420697320746865207a65726f20616464726573734552433732313a207472616e73666572206f6620746f6b656e2074686174206973206e6f74206f776e4552433732314d657461646174613a2055524920717565727920666f72206e6f6e6578697374656e7420746f6b656e4552433732313a20617070726f76616c20746f2063757272656e74206f776e65724552433732313a207472616e736665722063616c6c6572206973206e6f74206f776e6572206e6f7220617070726f766564455243373231456e756d657261626c653a20676c6f62616c20696e646578206f7574206f6620626f756e64734552433732313a206275726e206f6620746f6b656e2074686174206973206e6f74206f776e4552433732314275726e61626c653a2063616c6c6572206973206e6f74206f776e6572206e6f7220617070726f766564a265627a7a72315820a66344f7b396d09b88a049d50fc335e7e047a1b350422b46ed649b8eac45fe4264736f6c63430005110032526f6c65733a206163636f756e7420697320746865207a65726f2061646472657373",
  "source": "pragma solidity ^0.5.0;\n\nimport \"../token/ERC721/ERC721Full.sol\";\nimport \"../token/ERC721/ERC721Mintable.sol\";\nimport \"../token/ERC721/ERC721MetadataMintable.sol\";\nimport \"../token/ERC721/ERC721Burnable.sol\";\n\n/**\n * @title ERC721FullMock\n * This mock just provides public functions for setting metadata URI, getting all tokens of an owner,\n * checking token existence, removal of a token from an address\n */\ncontract ERC721FullMock is ERC721Full, ERC721Mintable, ERC721MetadataMintable, ERC721Burnable {\n    constructor (string memory name, string memory symbol) public ERC721Mintable() ERC721Full(name, symbol) {\n        // solhint-disable-previous-line no-empty-blocks\n    }\n\n    function exists(uint256 tokenId) public view returns (bool) {\n        return _exists(tokenId);\n    }\n\n    function tokensOfOwner(address owner) public view returns (uint256[] memory) {\n        return _tokensOfOwner(owner);\n    }\n\n    function setTokenURI(uint256 tokenId, string memory uri) public {\n        _setTokenURI(tokenId, uri);\n    }\n\n    function setBaseURI(string memory baseURI) public {\n        _setBaseURI(baseURI);\n    }\n}\n",
  "sourcePath": "/Users/sudipbhattarai/Documents/erc20-tokensale-gen/solidity-contracts/openzeppelin-contracts-v2.5/mocks/ERC721FullMock.sol",
  "compiler": {
    "name": "solc",
    "version": "0.5.17+commit.d19bba13.Emscripten.clang"
  },
  "schemaVersion": "3.4.3",
  "updatedAt": "2022-02-06T18:13:26.151Z",
  "devdoc": {
    "methods": {
      "approve(address,uint256)": {
        "details": "Approves another address to transfer the given token ID The zero address indicates there is no approved address. There can only be one approved address per token at a given time. Can only be called by the token owner or an approved operator.",
        "params": {
          "to": "address to be approved for the given token ID",
          "tokenId": "uint256 ID of the token to be approved"
        }
      },
      "balanceOf(address)": {
        "details": "Gets the balance of the specified address.",
        "params": {
          "owner": "address to query the balance of"
        },
        "return": "uint256 representing the amount owned by the passed address"
      },
      "baseURI()": {
        "details": "Returns the base URI set via {_setBaseURI}. This will be automatically added as a preffix in {tokenURI} to each token's URI, when they are non-empty.    * _Available since v2.5.0._"
      },
      "burn(uint256)": {
        "details": "Burns a specific ERC721 token.",
        "params": {
          "tokenId": "uint256 id of the ERC721 token to be burned."
        }
      },
      "getApproved(uint256)": {
        "details": "Gets the approved address for a token ID, or zero if no address set Reverts if the token ID does not exist.",
        "params": {
          "tokenId": "uint256 ID of the token to query the approval of"
        },
        "return": "address currently approved for the given token ID"
      },
      "isApprovedForAll(address,address)": {
        "details": "Tells whether an operator is approved by a given owner.",
        "params": {
          "operator": "operator address which you want to query the approval of",
          "owner": "owner address which you want to query the approval of"
        },
        "return": "bool whether the given operator is approved by the given owner"
      },
      "mint(address,uint256)": {
        "details": "Function to mint tokens.",
        "params": {
          "to": "The address that will receive the minted token.",
          "tokenId": "The token id to mint."
        },
        "return": "A boolean that indicates if the operation was successful."
      },
      "mintWithTokenURI(address,uint256,string)": {
        "details": "Function to mint tokens.",
        "params": {
          "to": "The address that will receive the minted tokens.",
          "tokenId": "The token id to mint.",
          "tokenURI": "The token URI of the minted token."
        },
        "return": "A boolean that indicates if the operation was successful."
      },
      "name()": {
        "details": "Gets the token name.",
        "return": "string representing the token name"
      },
      "ownerOf(uint256)": {
        "details": "Gets the owner of the specified token ID.",
        "params": {
          "tokenId": "uint256 ID of the token to query the owner of"
        },
        "return": "address currently marked as the owner of the given token ID"
      },
      "safeMint(address,uint256)": {
        "details": "Function to safely mint tokens.",
        "params": {
          "to": "The address that will receive the minted token.",
          "tokenId": "The token id to mint."
        },
        "return": "A boolean that indicates if the operation was successful."
      },
      "safeMint(address,uint256,bytes)": {
        "details": "Function to safely mint tokens.",
        "params": {
          "_data": "bytes data to send along with a safe transfer check.",
          "to": "The address that will receive the minted token.",
          "tokenId": "The token id to mint."
        },
        "return": "A boolean that indicates if the operation was successful."
      },
      "safeTransferFrom(address,address,uint256)": {
        "details": "Safely transfers the ownership of a given token ID to another address If the target address is a contract, it must implement {IERC721Receiver-onERC721Received}, which is called upon a safe transfer, and return the magic value `bytes4(keccak256(\"onERC721Received(address,address,uint256,bytes)\"))`; otherwise, the transfer is reverted. Requires the msg.sender to be the owner, approved, or operator",
        "params": {
          "from": "current owner of the token",
          "to": "address to receive the ownership of the given token ID",
          "tokenId": "uint256 ID of the token to be transferred"
        }
      },
      "safeTransferFrom(address,address,uint256,bytes)": {
        "details": "Safely transfers the ownership of a given token ID to another address If the target address is a contract, it must implement {IERC721Receiver-onERC721Received}, which is called upon a safe transfer, and return the magic value `bytes4(keccak256(\"onERC721Received(address,address,uint256,bytes)\"))`; otherwise, the transfer is reverted. Requires the _msgSender() to be the owner, approved, or operator",
        "params": {
          "_data": "bytes data to send along with a safe transfer check",
          "from": "current owner of the token",
          "to": "address to receive the ownership of the given token ID",
          "tokenId": "uint256 ID of the token to be transferred"
        }
      },
      "setApprovalForAll(address,bool)": {
        "details": "Sets or unsets the approval of a given operator An operator is allowed to transfer all tokens of the sender on their behalf.",
        "params": {
          "approved": "representing the status of the approval to be set",
          "to": "operator address to set the approval"
        }
      },
      "supportsInterface(bytes4)": {
        "details": "See {IERC165-supportsInterface}.     * Time complexity O(1), guaranteed to always use less than 30 000 gas."
      },
      "symbol()": {
        "details": "Gets the token symbol.",
        "return": "string representing the token symbol"
      },
      "tokenByIndex(uint256)": {
        "details": "Gets the token ID at a given index of all the tokens in this contract Reverts if the index is greater or equal to the total number of tokens.",
        "params": {
          "index": "uint256 representing the index to be accessed of the tokens list"
        },
        "return": "uint256 token ID at the given index of the tokens list"
      },
      "tokenOfOwnerByIndex(address,uint256)": {
        "details": "Gets the token ID at a given index of the tokens list of the requested owner.",
        "params": {
          "index": "uint256 representing the index to be accessed of the requested tokens list",
          "owner": "address owning the tokens list to be accessed"
        },
        "return": "uint256 token ID at the given index of the tokens list owned by the requested address"
      },
      "tokenURI(uint256)": {
        "details": "Returns the URI for a given token ID. May return an empty string.     * If the token's URI is non-empty and a base URI was set (via {_setBaseURI}), it will be added to the token ID's URI as a prefix.     * Reverts if the token ID does not exist."
      },
      "totalSupply()": {
        "details": "Gets the total amount of tokens stored by the contract.",
        "return": "uint256 representing the total amount of tokens"
      },
      "transferFrom(address,address,uint256)": {
        "details": "Transfers the ownership of a given token ID to another address. Usage of this method is discouraged, use {safeTransferFrom} whenever possible. Requires the msg.sender to be the owner, approved, or operator.",
        "params": {
          "from": "current owner of the token",
          "to": "address to receive the ownership of the given token ID",
          "tokenId": "uint256 ID of the token to be transferred"
        }
      }
    },
    "title": "ERC721FullMock This mock just provides public functions for setting metadata URI, getting all tokens of an owner, checking token existence, removal of a token from an address"
  },
  "userdoc": {
    "methods": {}
  }
}