{
  "contractName": "ERC777SenderRecipientMock",
  "abi": [
    {
      "anonymous": false,
      "inputs": [
        {
          "indexed": false,
          "internalType": "address",
          "name": "operator",
          "type": "address"
        },
        {
          "indexed": false,
          "internalType": "address",
          "name": "from",
          "type": "address"
        },
        {
          "indexed": false,
          "internalType": "address",
          "name": "to",
          "type": "address"
        },
        {
          "indexed": false,
          "internalType": "uint256",
          "name": "amount",
          "type": "uint256"
        },
        {
          "indexed": false,
          "internalType": "bytes",
          "name": "data",
          "type": "bytes"
        },
        {
          "indexed": false,
          "internalType": "bytes",
          "name": "operatorData",
          "type": "bytes"
        },
        {
          "indexed": false,
          "internalType": "address",
          "name": "token",
          "type": "address"
        },
        {
          "indexed": false,
          "internalType": "uint256",
          "name": "fromBalance",
          "type": "uint256"
        },
        {
          "indexed": false,
          "internalType": "uint256",
          "name": "toBalance",
          "type": "uint256"
        }
      ],
      "name": "TokensReceivedCalled",
      "type": "event"
    },
    {
      "anonymous": false,
      "inputs": [
        {
          "indexed": false,
          "internalType": "address",
          "name": "operator",
          "type": "address"
        },
        {
          "indexed": false,
          "internalType": "address",
          "name": "from",
          "type": "address"
        },
        {
          "indexed": false,
          "internalType": "address",
          "name": "to",
          "type": "address"
        },
        {
          "indexed": false,
          "internalType": "uint256",
          "name": "amount",
          "type": "uint256"
        },
        {
          "indexed": false,
          "internalType": "bytes",
          "name": "data",
          "type": "bytes"
        },
        {
          "indexed": false,
          "internalType": "bytes",
          "name": "operatorData",
          "type": "bytes"
        },
        {
          "indexed": false,
          "internalType": "address",
          "name": "token",
          "type": "address"
        },
        {
          "indexed": false,
          "internalType": "uint256",
          "name": "fromBalance",
          "type": "uint256"
        },
        {
          "indexed": false,
          "internalType": "uint256",
          "name": "toBalance",
          "type": "uint256"
        }
      ],
      "name": "TokensToSendCalled",
      "type": "event"
    },
    {
      "constant": true,
      "inputs": [
        {
          "internalType": "bytes32",
          "name": "interfaceHash",
          "type": "bytes32"
        },
        {
          "internalType": "address",
          "name": "account",
          "type": "address"
        }
      ],
      "name": "canImplementInterfaceForAddress",
      "outputs": [
        {
          "internalType": "bytes32",
          "name": "",
          "type": "bytes32"
        }
      ],
      "payable": false,
      "stateMutability": "view",
      "type": "function"
    },
    {
      "constant": false,
      "inputs": [
        {
          "internalType": "address",
          "name": "operator",
          "type": "address"
        },
        {
          "internalType": "address",
          "name": "from",
          "type": "address"
        },
        {
          "internalType": "address",
          "name": "to",
          "type": "address"
        },
        {
          "internalType": "uint256",
          "name": "amount",
          "type": "uint256"
        },
        {
          "internalType": "bytes",
          "name": "userData",
          "type": "bytes"
        },
        {
          "internalType": "bytes",
          "name": "operatorData",
          "type": "bytes"
        }
      ],
      "name": "tokensToSend",
      "outputs": [],
      "payable": false,
      "stateMutability": "nonpayable",
      "type": "function"
    },
    {
      "constant": false,
      "inputs": [
        {
          "internalType": "address",
          "name": "operator",
          "type": "address"
        },
        {
          "internalType": "address",
          "name": "from",
          "type": "address"
        },
        {
          "internalType": "address",
          "name": "to",
          "type": "address"
        },
        {
          "internalType": "uint256",
          "name": "amount",
          "type": "uint256"
        },
        {
          "internalType": "bytes",
          "name": "userData",
          "type": "bytes"
        },
        {
          "internalType": "bytes",
          "name": "operatorData",
          "type": "bytes"
        }
      ],
      "name": "tokensReceived",
      "outputs": [],
      "payable": false,
      "stateMutability": "nonpayable",
      "type": "function"
    },
    {
      "constant": false,
      "inputs": [
        {
          "internalType": "address",
          "name": "account",
          "type": "address"
        }
      ],
      "name": "senderFor",
      "outputs": [],
      "payable": false,
      "stateMutability": "nonpayable",
      "type": "function"
    },
    {
      "constant": false,
      "inputs": [
        {
          "internalType": "address",
          "name": "sender",
          "type": "address"
        }
      ],
      "name": "registerSender",
      "outputs": [],
      "payable": false,
      "stateMutability": "nonpayable",
      "type": "function"
    },
    {
      "constant": false,
      "inputs": [
        {
          "internalType": "address",
          "name": "account",
          "type": "address"
        }
      ],
      "name": "recipientFor",
      "outputs": [],
      "payable": false,
      "stateMutability": "nonpayable",
      "type": "function"
    },
    {
      "constant": false,
      "inputs": [
        {
          "internalType": "address",
          "name": "recipient",
          "type": "address"
        }
      ],
      "name": "registerRecipient",
      "outputs": [],
      "payable": false,
      "stateMutability": "nonpayable",
      "type": "function"
    },
    {
      "constant": false,
      "inputs": [
        {
          "internalType": "bool",
          "name": "shouldRevert",
          "type": "bool"
        }
      ],
      "name": "setShouldRevertSend",
      "outputs": [],
      "payable": false,
      "stateMutability": "nonpayable",
      "type": "function"
    },
    {
      "constant": false,
      "inputs": [
        {
          "internalType": "bool",
          "name": "shouldRevert",
          "type": "bool"
        }
      ],
      "name": "setShouldRevertReceive",
      "outputs": [],
      "payable": false,
      "stateMutability": "nonpayable",
      "type": "function"
    },
    {
      "constant": false,
      "inputs": [
        {
          "internalType": "contract IERC777",
          "name": "token",
          "type": "address"
        },
        {
          "internalType": "address",
          "name": "to",
          "type": "address"
        },
        {
          "internalType": "uint256",
          "name": "amount",
          "type": "uint256"
        },
        {
          "internalType": "bytes",
          "name": "data",
          "type": "bytes"
        }
      ],
      "name": "send",
      "outputs": [],
      "payable": false,
      "stateMutability": "nonpayable",
      "type": "function"
    },
    {
      "constant": false,
      "inputs": [
        {
          "internalType": "contract IERC777",
          "name": "token",
          "type": "address"
        },
        {
          "internalType": "uint256",
          "name": "amount",
          "type": "uint256"
        },
        {
          "internalType": "bytes",
          "name": "data",
          "type": "bytes"
        }
      ],
      "name": "burn",
      "outputs": [],
      "payable": false,
      "stateMutability": "nonpayable",
      "type": "function"
    }
  ],
  "bytecode": "0x60806040526001805462010000600160b01b031916751820a4b7618bde71dce8cdc73aab6c95905fad240000179055610dbb8061003d6000396000f3fe608060405234801561001057600080fd5b50600436106100a85760003560e01c806375ab97821161007157806375ab97821461036f578063a8badaa514610455578063c97e18fc1461047b578063d2de64741461049a578063e0eb2180146104c0578063e1ecbd30146104e6576100a8565b806223de29146100ad578063249cb3fa146101955780633836ef89146101d357806344d17187146102975780634e4ae5a514610350575b600080fd5b610193600480360360c08110156100c357600080fd5b6001600160a01b03823581169260208101358216926040820135909216916060820135919081019060a081016080820135600160201b81111561010557600080fd5b82018360208201111561011757600080fd5b803590602001918460018302840111600160201b8311171561013857600080fd5b919390929091602081019035600160201b81111561015557600080fd5b82018360208201111561016757600080fd5b803590602001918460018302840111600160201b8311171561018857600080fd5b50909250905061050c565b005b6101c1600480360360408110156101ab57600080fd5b50803590602001356001600160a01b0316610724565b60408051918252519081900360200190f35b610193600480360360808110156101e957600080fd5b6001600160a01b03823581169260208101359091169160408201359190810190608081016060820135600160201b81111561022357600080fd5b82018360208201111561023557600080fd5b803590602001918460018302840111600160201b8311171561025657600080fd5b91908080601f016020809104026020016040519081016040528093929190818152602001838380828437600092019190915250929550610799945050505050565b610193600480360360608110156102ad57600080fd5b6001600160a01b0382351691602081013591810190606081016040820135600160201b8111156102dc57600080fd5b8201836020820111156102ee57600080fd5b803590602001918460018302840111600160201b8311171561030f57600080fd5b91908080601f016020809104026020016040519081016040528093929190818152602001838380828437600092019190915250929550610881945050505050565b6101936004803603602081101561036657600080fd5b5035151561094f565b610193600480360360c081101561038557600080fd5b6001600160a01b03823581169260208101358216926040820135909216916060820135919081019060a081016080820135600160201b8111156103c757600080fd5b8201836020820111156103d957600080fd5b803590602001918460018302840111600160201b831117156103fa57600080fd5b919390929091602081019035600160201b81111561041757600080fd5b82018360208201111561042957600080fd5b803590602001918460018302840111600160201b8311171561044a57600080fd5b509092509050610962565b6101936004803603602081101561046b57600080fd5b50356001600160a01b0316610b75565b6101936004803603602081101561049157600080fd5b50351515610c17565b610193600480360360208110156104b057600080fd5b50356001600160a01b0316610c31565b610193600480360360208110156104d657600080fd5b50356001600160a01b0316610c81565b610193600480360360208110156104fc57600080fd5b50356001600160a01b0316610cd0565b600154610100900460ff161561052157600080fd5b600061052b610d54565b90506000816001600160a01b03166370a082318a6040518263ffffffff1660e01b815260040180826001600160a01b03166001600160a01b0316815260200191505060206040518083038186803b15801561058557600080fd5b505afa158015610599573d6000803e3d6000fd5b505050506040513d60208110156105af57600080fd5b5051604080516370a0823160e01b81526001600160a01b038b811660048301529151929350600092918516916370a0823191602480820192602092909190829003018186803b15801561060157600080fd5b505afa158015610615573d6000803e3d6000fd5b505050506040513d602081101561062b57600080fd5b5051604080516001600160a01b03808f168252808e166020830152808d1692820192909252606081018b905290851660c082015260e081018490526101008101829052610120608082018181529082018990529192507f47e915878c47f3ec4d7ff646a2becb229f64fd2abe4d2b5e2bb4275b0cf50d4e918d918d918d918d918d918d918d918d918d918d918d919060a0820161014083018a8a80828437600083820152601f01601f191690910184810383528881526020019050888880828437600083820152604051601f909101601f19169092018290039f50909d5050505050505050505050505050a15050505050505050505050565b6000828152602081815260408083206001600160a01b038516845290915281205460ff16610753576000610792565b604051602001808073455243313832305f4143434550545f4d4147494360601b8152506014019050604051602081830303815290604052805190602001205b9392505050565b836001600160a01b0316639bd9bbc68484846040518463ffffffff1660e01b815260040180846001600160a01b03166001600160a01b0316815260200183815260200180602001828103825283818151815260200191508051906020019080838360005b838110156108155781810151838201526020016107fd565b50505050905090810190601f1680156108425780820380516001836020036101000a031916815260200191505b50945050505050600060405180830381600087803b15801561086357600080fd5b505af1158015610877573d6000803e3d6000fd5b5050505050505050565b6040805163fe9d930360e01b815260048101848152602482019283528351604483015283516001600160a01b0387169363fe9d9303938793879390929160640190602085019080838360005b838110156108e55781810151838201526020016108cd565b50505050905090810190601f1680156109125780820380516001836020036101000a031916815260200191505b509350505050600060405180830381600087803b15801561093257600080fd5b505af1158015610946573d6000803e3d6000fd5b50505050505050565b6001805460ff1916911515919091179055565b60015460ff161561097257600080fd5b600061097c610d54565b90506000816001600160a01b03166370a082318a6040518263ffffffff1660e01b815260040180826001600160a01b03166001600160a01b0316815260200191505060206040518083038186803b1580156109d657600080fd5b505afa1580156109ea573d6000803e3d6000fd5b505050506040513d6020811015610a0057600080fd5b5051604080516370a0823160e01b81526001600160a01b038b811660048301529151929350600092918516916370a0823191602480820192602092909190829003018186803b158015610a5257600080fd5b505afa158015610a66573d6000803e3d6000fd5b505050506040513d6020811015610a7c57600080fd5b5051604080516001600160a01b03808f168252808e166020830152808d1692820192909252606081018b905290851660c082015260e081018490526101008101829052610120608082018181529082018990529192507faa3e88aca472e90221daf7d3d601abafb62b120319089d7a2c2f63588da85529918d918d918d918d918d918d918d918d918d918d918d919060a0820161014083018a8a80828437600083820152601f01601f191690910184810383528881526020019050888880828437600083820152604051601f909101601f19169092018290039f50909d5050505050505050505050505050a15050505050505050505050565b6001546040805174115490cdcdcdd51bdad95b9cd49958da5c1a595b9d605a1b815281519081900360150181206329965a1d60e01b825230600483015260248201526001600160a01b03848116604483015291516201000090930491909116916329965a1d9160648082019260009290919082900301818387803b158015610bfc57600080fd5b505af1158015610c10573d6000803e3d6000fd5b5050505050565b600180549115156101000261ff0019909216919091179055565b604080517122a9219b9b9baa37b5b2b739a9b2b73232b960711b81529051908190036012019020610c629082610d58565b306001600160a01b038216811415610c7d57610c7d81610cd0565b5050565b6040805174115490cdcdcdd51bdad95b9cd49958da5c1a595b9d605a1b81529051908190036015019020610cb59082610d58565b306001600160a01b038216811415610c7d57610c7d81610b75565b600154604080517122a9219b9b9baa37b5b2b739a9b2b73232b960711b815281519081900360120181206329965a1d60e01b825230600483015260248201526001600160a01b03848116604483015291516201000090930491909116916329965a1d9160648082019260009290919082900301818387803b158015610bfc57600080fd5b3390565b6000918252602082815260408084206001600160a01b0390931684529190529020805460ff1916600117905556fea265627a7a72315820112f6d79fefa227acb3cc29f46c889af38f461a9573ec11a908b4055f1d3e13664736f6c63430005110032",
  "source": "pragma solidity ^0.5.0;\n\nimport \"../GSN/Context.sol\";\nimport \"../token/ERC777/IERC777.sol\";\nimport \"../token/ERC777/IERC777Sender.sol\";\nimport \"../token/ERC777/IERC777Recipient.sol\";\nimport \"../introspection/IERC1820Registry.sol\";\nimport \"../introspection/ERC1820Implementer.sol\";\n\ncontract ERC777SenderRecipientMock is Context, IERC777Sender, IERC777Recipient, ERC1820Implementer {\n    event TokensToSendCalled(\n        address operator,\n        address from,\n        address to,\n        uint256 amount,\n        bytes data,\n        bytes operatorData,\n        address token,\n        uint256 fromBalance,\n        uint256 toBalance\n    );\n\n    event TokensReceivedCalled(\n        address operator,\n        address from,\n        address to,\n        uint256 amount,\n        bytes data,\n        bytes operatorData,\n        address token,\n        uint256 fromBalance,\n        uint256 toBalance\n    );\n\n    bool private _shouldRevertSend;\n    bool private _shouldRevertReceive;\n\n    IERC1820Registry private _erc1820 = IERC1820Registry(0x1820a4B7618BdE71Dce8cdc73aAB6C95905faD24);\n\n    bytes32 constant private TOKENS_SENDER_INTERFACE_HASH = keccak256(\"ERC777TokensSender\");\n    bytes32 constant private TOKENS_RECIPIENT_INTERFACE_HASH = keccak256(\"ERC777TokensRecipient\");\n\n    function tokensToSend(\n        address operator,\n        address from,\n        address to,\n        uint256 amount,\n        bytes calldata userData,\n        bytes calldata operatorData\n    ) external {\n        if (_shouldRevertSend) {\n            revert();\n        }\n\n        IERC777 token = IERC777(_msgSender());\n\n        uint256 fromBalance = token.balanceOf(from);\n        // when called due to burn, to will be the zero address, which will have a balance of 0\n        uint256 toBalance = token.balanceOf(to);\n\n        emit TokensToSendCalled(\n            operator,\n            from,\n            to,\n            amount,\n            userData,\n            operatorData,\n            address(token),\n            fromBalance,\n            toBalance\n        );\n    }\n\n    function tokensReceived(\n        address operator,\n        address from,\n        address to,\n        uint256 amount,\n        bytes calldata userData,\n        bytes calldata operatorData\n    ) external{\n        if (_shouldRevertReceive) {\n            revert();\n        }\n\n        IERC777 token = IERC777(_msgSender());\n\n        uint256 fromBalance = token.balanceOf(from);\n        // when called due to burn, to will be the zero address, which will have a balance of 0\n        uint256 toBalance = token.balanceOf(to);\n\n        emit TokensReceivedCalled(\n            operator,\n            from,\n            to,\n            amount,\n            userData,\n            operatorData,\n            address(token),\n            fromBalance,\n            toBalance\n        );\n    }\n\n    function senderFor(address account) public {\n        _registerInterfaceForAddress(TOKENS_SENDER_INTERFACE_HASH, account);\n\n        address self = address(this);\n        if (account == self) {\n            registerSender(self);\n        }\n    }\n\n    function registerSender(address sender) public {\n        _erc1820.setInterfaceImplementer(address(this), TOKENS_SENDER_INTERFACE_HASH, sender);\n    }\n\n    function recipientFor(address account) public {\n        _registerInterfaceForAddress(TOKENS_RECIPIENT_INTERFACE_HASH, account);\n\n        address self = address(this);\n        if (account == self) {\n            registerRecipient(self);\n        }\n    }\n\n    function registerRecipient(address recipient) public {\n        _erc1820.setInterfaceImplementer(address(this), TOKENS_RECIPIENT_INTERFACE_HASH, recipient);\n    }\n\n    function setShouldRevertSend(bool shouldRevert) public {\n        _shouldRevertSend = shouldRevert;\n    }\n\n    function setShouldRevertReceive(bool shouldRevert) public {\n        _shouldRevertReceive = shouldRevert;\n    }\n\n    function send(IERC777 token, address to, uint256 amount, bytes memory data) public {\n        // This is 777's send function, not the Solidity send function\n        token.send(to, amount, data); // solhint-disable-line check-send-result\n    }\n\n    function burn(IERC777 token, uint256 amount, bytes memory data) public {\n        token.burn(amount, data);\n    }\n}\n\n",
  "sourcePath": "/Users/sudipbhattarai/Documents/erc20-tokensale-gen/solidity-contracts/openzeppelin-contracts-v2.5/mocks/ERC777SenderRecipientMock.sol",
  "compiler": {
    "name": "solc",
    "version": "0.5.17+commit.d19bba13.Emscripten.clang"
  },
  "schemaVersion": "3.4.3",
  "updatedAt": "2022-02-06T18:13:26.157Z",
  "devdoc": {
    "methods": {}
  },
  "userdoc": {
    "methods": {
      "canImplementInterfaceForAddress(bytes32,address)": {
        "notice": "See {IERC1820Implementer-canImplementInterfaceForAddress}."
      }
    }
  }
}