{
  "contractName": "FinalizableCrowdsaleImpl",
  "abi": [
    {
      "inputs": [
        {
          "internalType": "uint256",
          "name": "openingTime",
          "type": "uint256"
        },
        {
          "internalType": "uint256",
          "name": "closingTime",
          "type": "uint256"
        },
        {
          "internalType": "uint256",
          "name": "rate",
          "type": "uint256"
        },
        {
          "internalType": "address payable",
          "name": "wallet",
          "type": "address"
        },
        {
          "internalType": "contract IERC20",
          "name": "token",
          "type": "address"
        }
      ],
      "payable": false,
      "stateMutability": "nonpayable",
      "type": "constructor"
    },
    {
      "anonymous": false,
      "inputs": [],
      "name": "CrowdsaleFinalized",
      "type": "event"
    },
    {
      "anonymous": false,
      "inputs": [
        {
          "indexed": false,
          "internalType": "uint256",
          "name": "prevClosingTime",
          "type": "uint256"
        },
        {
          "indexed": false,
          "internalType": "uint256",
          "name": "newClosingTime",
          "type": "uint256"
        }
      ],
      "name": "TimedCrowdsaleExtended",
      "type": "event"
    },
    {
      "anonymous": false,
      "inputs": [
        {
          "indexed": true,
          "internalType": "address",
          "name": "purchaser",
          "type": "address"
        },
        {
          "indexed": true,
          "internalType": "address",
          "name": "beneficiary",
          "type": "address"
        },
        {
          "indexed": false,
          "internalType": "uint256",
          "name": "value",
          "type": "uint256"
        },
        {
          "indexed": false,
          "internalType": "uint256",
          "name": "amount",
          "type": "uint256"
        }
      ],
      "name": "TokensPurchased",
      "type": "event"
    },
    {
      "payable": true,
      "stateMutability": "payable",
      "type": "fallback"
    },
    {
      "constant": false,
      "inputs": [
        {
          "internalType": "address",
          "name": "beneficiary",
          "type": "address"
        }
      ],
      "name": "buyTokens",
      "outputs": [],
      "payable": true,
      "stateMutability": "payable",
      "type": "function"
    },
    {
      "constant": true,
      "inputs": [],
      "name": "closingTime",
      "outputs": [
        {
          "internalType": "uint256",
          "name": "",
          "type": "uint256"
        }
      ],
      "payable": false,
      "stateMutability": "view",
      "type": "function"
    },
    {
      "constant": false,
      "inputs": [],
      "name": "finalize",
      "outputs": [],
      "payable": false,
      "stateMutability": "nonpayable",
      "type": "function"
    },
    {
      "constant": true,
      "inputs": [],
      "name": "finalized",
      "outputs": [
        {
          "internalType": "bool",
          "name": "",
          "type": "bool"
        }
      ],
      "payable": false,
      "stateMutability": "view",
      "type": "function"
    },
    {
      "constant": true,
      "inputs": [],
      "name": "hasClosed",
      "outputs": [
        {
          "internalType": "bool",
          "name": "",
          "type": "bool"
        }
      ],
      "payable": false,
      "stateMutability": "view",
      "type": "function"
    },
    {
      "constant": true,
      "inputs": [],
      "name": "isOpen",
      "outputs": [
        {
          "internalType": "bool",
          "name": "",
          "type": "bool"
        }
      ],
      "payable": false,
      "stateMutability": "view",
      "type": "function"
    },
    {
      "constant": true,
      "inputs": [],
      "name": "openingTime",
      "outputs": [
        {
          "internalType": "uint256",
          "name": "",
          "type": "uint256"
        }
      ],
      "payable": false,
      "stateMutability": "view",
      "type": "function"
    },
    {
      "constant": true,
      "inputs": [],
      "name": "rate",
      "outputs": [
        {
          "internalType": "uint256",
          "name": "",
          "type": "uint256"
        }
      ],
      "payable": false,
      "stateMutability": "view",
      "type": "function"
    },
    {
      "constant": true,
      "inputs": [],
      "name": "token",
      "outputs": [
        {
          "internalType": "contract IERC20",
          "name": "",
          "type": "address"
        }
      ],
      "payable": false,
      "stateMutability": "view",
      "type": "function"
    },
    {
      "constant": true,
      "inputs": [],
      "name": "wallet",
      "outputs": [
        {
          "internalType": "address payable",
          "name": "",
          "type": "address"
        }
      ],
      "payable": false,
      "stateMutability": "view",
      "type": "function"
    },
    {
      "constant": true,
      "inputs": [],
      "name": "weiRaised",
      "outputs": [
        {
          "internalType": "uint256",
          "name": "",
          "type": "uint256"
        }
      ],
      "payable": false,
      "stateMutability": "view",
      "type": "function"
    }
  ],
  "bytecode": "0x608060405234801561001057600080fd5b50604051610c7d380380610c7d833981810160405260a081101561003357600080fd5b5080516020820151604083015160608401516080909401516000805460ff19166001179055929391929091908484848484826100b6576040805162461bcd60e51b815260206004820152601460248201527f43726f776473616c653a20726174652069732030000000000000000000000000604482015290519081900360640190fd5b6001600160a01b0382166100fb5760405162461bcd60e51b8152600401808060200182810382526025815260200180610c586025913960400191505060405180910390fd5b6001600160a01b0381166101405760405162461bcd60e51b8152600401808060200182810382526024815260200180610c346024913960400191505060405180910390fd5b600292909255600180546001600160a01b039283166001600160a01b0319909116179055600080549190921661010002610100600160a81b0319909116179055428210156101bf5760405162461bcd60e51b8152600401808060200182810382526033815260200180610bca6033913960400191505060405180910390fd5b8181116101fd5760405162461bcd60e51b8152600401808060200182810382526037815260200180610bfd6037913960400191505060405180910390fd5b60049190915560055550506006805460ff191690555050506109a6806102246000396000f3fe60806040526004361061009c5760003560e01c80634bb278f3116100645780634bb278f31461013d578063521eb27314610152578063b3f05b9714610183578063b7a8807c14610198578063ec8ac4d8146101ad578063fc0c546a146101d35761009c565b80631515bc2b146100ae5780632c4e722e146100d75780634042b66f146100fe57806347535d7b146101135780634b6753bc14610128575b6100ac6100a76101e8565b6101ec565b005b3480156100ba57600080fd5b506100c361030e565b604080519115158252519081900360200190f35b3480156100e357600080fd5b506100ec610316565b60408051918252519081900360200190f35b34801561010a57600080fd5b506100ec61031c565b34801561011f57600080fd5b506100c3610322565b34801561013457600080fd5b506100ec61033d565b34801561014957600080fd5b506100ac610343565b34801561015e57600080fd5b5061016761041e565b604080516001600160a01b039092168252519081900360200190f35b34801561018f57600080fd5b506100c361042d565b3480156101a457600080fd5b506100ec610436565b6100ac600480360360208110156101c357600080fd5b50356001600160a01b03166101ec565b3480156101df57600080fd5b5061016761043c565b3390565b60005460ff16610243576040805162461bcd60e51b815260206004820152601f60248201527f5265656e7472616e637947756172643a207265656e7472616e742063616c6c00604482015290519081900360640190fd5b6000805460ff19169055346102588282610450565b6000610263826104b7565b600354909150610279908363ffffffff6104d416565b6003556102868382610535565b826001600160a01b03166102986101e8565b6001600160a01b03167f6faf93231a456e552dbc9961f58d9713ee4f2e69d15f1975b050ef0911053a7b8484604051808381526020018281526020019250505060405180910390a36102ea83836104b3565b6102f261053f565b6102fc83836104b3565b50506000805460ff1916600117905550565b600554421190565b60025490565b60035490565b6000600454421015801561033857506005544211155b905090565b60055490565b60065460ff16156103855760405162461bcd60e51b81526004018080602001828103825260278152602001806108f76027913960400191505060405180910390fd5b61038d61030e565b6103de576040805162461bcd60e51b815260206004820181905260248201527f46696e616c697a61626c6543726f776473616c653a206e6f7420636c6f736564604482015290519081900360640190fd5b6006805460ff191660011790556103f361057b565b6040517f9270cc390c096600a1c17c44345a1ba689fafd99d97487b10cfccf86cf73183690600090a1565b6001546001600160a01b031690565b60065460ff1690565b60045490565b60005461010090046001600160a01b031690565b610458610322565b6104a9576040805162461bcd60e51b815260206004820152601860248201527f54696d656443726f776473616c653a206e6f74206f70656e0000000000000000604482015290519081900360640190fd5b6104b3828261057d565b5050565b60006104ce6002548361061490919063ffffffff16565b92915050565b60008282018381101561052e576040805162461bcd60e51b815260206004820152601b60248201527f536166654d6174683a206164646974696f6e206f766572666c6f770000000000604482015290519081900360640190fd5b9392505050565b6104b3828261066d565b6001546040516001600160a01b03909116903480156108fc02916000818181858888f19350505050158015610578573d6000803e3d6000fd5b50565b565b6001600160a01b0382166105c25760405162461bcd60e51b815260040180806020018281038252602a81526020018061091e602a913960400191505060405180910390fd5b806104b3576040805162461bcd60e51b815260206004820152601960248201527f43726f776473616c653a20776569416d6f756e74206973203000000000000000604482015290519081900360640190fd5b600082610623575060006104ce565b8282028284828161063057fe5b041461052e5760405162461bcd60e51b81526004018080602001828103825260218152602001806108d66021913960400191505060405180910390fd5b6000546104b39061010090046001600160a01b03168383604080516001600160a01b038416602482015260448082018490528251808303909101815260649091019091526020810180516001600160e01b031663a9059cbb60e01b1790526106d69084906106db565b505050565b6106ed826001600160a01b0316610899565b61073e576040805162461bcd60e51b815260206004820152601f60248201527f5361666545524332303a2063616c6c20746f206e6f6e2d636f6e747261637400604482015290519081900360640190fd5b60006060836001600160a01b0316836040518082805190602001908083835b6020831061077c5780518252601f19909201916020918201910161075d565b6001836020036101000a0380198251168184511680821785525050505050509050019150506000604051808303816000865af19150503d80600081146107de576040519150601f19603f3d011682016040523d82523d6000602084013e6107e3565b606091505b50915091508161083a576040805162461bcd60e51b815260206004820181905260248201527f5361666545524332303a206c6f772d6c6576656c2063616c6c206661696c6564604482015290519081900360640190fd5b8051156108935780806020019051602081101561085657600080fd5b50516108935760405162461bcd60e51b815260040180806020018281038252602a815260200180610948602a913960400191505060405180910390fd5b50505050565b6000813f7fc5d2460186f7233c927e7db2dcc703c0e500b653ca82273b7bfad8045d85a4708181148015906108cd57508115155b94935050505056fe536166654d6174683a206d756c7469706c69636174696f6e206f766572666c6f7746696e616c697a61626c6543726f776473616c653a20616c72656164792066696e616c697a656443726f776473616c653a2062656e656669636961727920697320746865207a65726f20616464726573735361666545524332303a204552433230206f7065726174696f6e20646964206e6f742073756363656564a265627a7a723158203f8c6855a337b7980510ff280253a7ffb3ca2764e805cd670a329d965469a13a64736f6c6343000511003254696d656443726f776473616c653a206f70656e696e672074696d65206973206265666f72652063757272656e742074696d6554696d656443726f776473616c653a206f70656e696e672074696d65206973206e6f74206265666f726520636c6f73696e672074696d6543726f776473616c653a20746f6b656e20697320746865207a65726f206164647265737343726f776473616c653a2077616c6c657420697320746865207a65726f2061646472657373",
  "source": "pragma solidity ^0.5.0;\n\nimport \"../token/ERC20/IERC20.sol\";\nimport \"../crowdsale/distribution/FinalizableCrowdsale.sol\";\n\ncontract FinalizableCrowdsaleImpl is FinalizableCrowdsale {\n    constructor (uint256 openingTime, uint256 closingTime, uint256 rate, address payable wallet, IERC20 token)\n        public\n        Crowdsale(rate, wallet, token)\n        TimedCrowdsale(openingTime, closingTime)\n    {\n        // solhint-disable-previous-line no-empty-blocks\n    }\n}\n",
  "sourcePath": "/Users/sudipbhattarai/Documents/erc20-tokensale-gen/solidity-contracts/openzeppelin-contracts-v2.5/mocks/FinalizableCrowdsaleImpl.sol",
  "compiler": {
    "name": "solc",
    "version": "0.5.17+commit.d19bba13.Emscripten.clang"
  },
  "schemaVersion": "3.4.3",
  "updatedAt": "2022-02-06T18:13:26.161Z",
  "devdoc": {
    "methods": {
      "buyTokens(address)": {
        "details": "low level token purchase ***DO NOT OVERRIDE*** This function has a non-reentrancy guard, so it shouldn't be called by another `nonReentrant` function.",
        "params": {
          "beneficiary": "Recipient of the token purchase"
        }
      },
      "closingTime()": {
        "return": "the crowdsale closing time."
      },
      "finalize()": {
        "details": "Must be called after crowdsale ends, to do some extra finalization work. Calls the contract's finalization function."
      },
      "finalized()": {
        "return": "true if the crowdsale is finalized, false otherwise."
      },
      "hasClosed()": {
        "details": "Checks whether the period in which the crowdsale is open has already elapsed.",
        "return": "Whether crowdsale period has elapsed"
      },
      "isOpen()": {
        "return": "true if the crowdsale is open, false otherwise."
      },
      "openingTime()": {
        "return": "the crowdsale opening time."
      },
      "rate()": {
        "return": "the number of token units a buyer gets per wei."
      },
      "token()": {
        "return": "the token being sold."
      },
      "wallet()": {
        "return": "the address where funds are collected."
      },
      "weiRaised()": {
        "return": "the amount of wei raised."
      }
    }
  },
  "userdoc": {
    "methods": {}
  }
}