{
  "contractName": "GSNRecipientMock",
  "abi": [
    {
      "anonymous": false,
      "inputs": [
        {
          "indexed": false,
          "internalType": "bytes",
          "name": "data",
          "type": "bytes"
        },
        {
          "indexed": false,
          "internalType": "uint256",
          "name": "integerValue",
          "type": "uint256"
        },
        {
          "indexed": false,
          "internalType": "string",
          "name": "stringValue",
          "type": "string"
        }
      ],
      "name": "Data",
      "type": "event"
    },
    {
      "anonymous": false,
      "inputs": [
        {
          "indexed": true,
          "internalType": "address",
          "name": "oldRelayHub",
          "type": "address"
        },
        {
          "indexed": true,
          "internalType": "address",
          "name": "newRelayHub",
          "type": "address"
        }
      ],
      "name": "RelayHubChanged",
      "type": "event"
    },
    {
      "anonymous": false,
      "inputs": [
        {
          "indexed": false,
          "internalType": "address",
          "name": "sender",
          "type": "address"
        }
      ],
      "name": "Sender",
      "type": "event"
    },
    {
      "constant": true,
      "inputs": [],
      "name": "getHubAddr",
      "outputs": [
        {
          "internalType": "address",
          "name": "",
          "type": "address"
        }
      ],
      "payable": false,
      "stateMutability": "view",
      "type": "function"
    },
    {
      "constant": false,
      "inputs": [
        {
          "internalType": "uint256",
          "name": "integerValue",
          "type": "uint256"
        },
        {
          "internalType": "string",
          "name": "stringValue",
          "type": "string"
        }
      ],
      "name": "msgData",
      "outputs": [],
      "payable": false,
      "stateMutability": "nonpayable",
      "type": "function"
    },
    {
      "constant": false,
      "inputs": [],
      "name": "msgSender",
      "outputs": [],
      "payable": false,
      "stateMutability": "nonpayable",
      "type": "function"
    },
    {
      "constant": false,
      "inputs": [
        {
          "internalType": "bytes",
          "name": "context",
          "type": "bytes"
        },
        {
          "internalType": "bool",
          "name": "success",
          "type": "bool"
        },
        {
          "internalType": "uint256",
          "name": "actualCharge",
          "type": "uint256"
        },
        {
          "internalType": "bytes32",
          "name": "preRetVal",
          "type": "bytes32"
        }
      ],
      "name": "postRelayedCall",
      "outputs": [],
      "payable": false,
      "stateMutability": "nonpayable",
      "type": "function"
    },
    {
      "constant": false,
      "inputs": [
        {
          "internalType": "bytes",
          "name": "context",
          "type": "bytes"
        }
      ],
      "name": "preRelayedCall",
      "outputs": [
        {
          "internalType": "bytes32",
          "name": "",
          "type": "bytes32"
        }
      ],
      "payable": false,
      "stateMutability": "nonpayable",
      "type": "function"
    },
    {
      "constant": true,
      "inputs": [],
      "name": "relayHubVersion",
      "outputs": [
        {
          "internalType": "string",
          "name": "",
          "type": "string"
        }
      ],
      "payable": false,
      "stateMutability": "view",
      "type": "function"
    },
    {
      "constant": false,
      "inputs": [
        {
          "internalType": "uint256",
          "name": "amount",
          "type": "uint256"
        },
        {
          "internalType": "address payable",
          "name": "payee",
          "type": "address"
        }
      ],
      "name": "withdrawDeposits",
      "outputs": [],
      "payable": false,
      "stateMutability": "nonpayable",
      "type": "function"
    },
    {
      "constant": true,
      "inputs": [
        {
          "internalType": "address",
          "name": "",
          "type": "address"
        },
        {
          "internalType": "address",
          "name": "",
          "type": "address"
        },
        {
          "internalType": "bytes",
          "name": "",
          "type": "bytes"
        },
        {
          "internalType": "uint256",
          "name": "",
          "type": "uint256"
        },
        {
          "internalType": "uint256",
          "name": "",
          "type": "uint256"
        },
        {
          "internalType": "uint256",
          "name": "",
          "type": "uint256"
        },
        {
          "internalType": "uint256",
          "name": "",
          "type": "uint256"
        },
        {
          "internalType": "bytes",
          "name": "",
          "type": "bytes"
        },
        {
          "internalType": "uint256",
          "name": "",
          "type": "uint256"
        }
      ],
      "name": "acceptRelayedCall",
      "outputs": [
        {
          "internalType": "uint256",
          "name": "",
          "type": "uint256"
        },
        {
          "internalType": "bytes",
          "name": "",
          "type": "bytes"
        }
      ],
      "payable": false,
      "stateMutability": "view",
      "type": "function"
    },
    {
      "constant": false,
      "inputs": [
        {
          "internalType": "address",
          "name": "newRelayHub",
          "type": "address"
        }
      ],
      "name": "upgradeRelayHub",
      "outputs": [],
      "payable": false,
      "stateMutability": "nonpayable",
      "type": "function"
    }
  ],
  "bytecode": "0x6080604052600080546001600160a01b03191673d216153c06e857cd7f72665e0af1d7d82172f494179055610b3e806100396000396000f3fe608060405234801561001057600080fd5b50600436106100935760003560e01c80639e30a590116100665780639e30a59014610356578063ad61ccd51461037c578063c2db1abe146103f9578063d737d0c714610425578063e06e0e221461042d57610093565b8063376bf2621461009857806374e861d61461014557806380274db71461016957806383947ea0146101e9575b600080fd5b610143600480360360408110156100ae57600080fd5b81359190810190604081016020820135600160201b8111156100cf57600080fd5b8201836020820111156100e157600080fd5b803590602001918460018302840111600160201b8311171561010257600080fd5b91908080601f0160208091040260200160405190810160405280939291908181526020018383808284376000920191909152509295506104a9945050505050565b005b61014d6105bc565b604080516001600160a01b039092168252519081900360200190f35b6101d76004803603602081101561017f57600080fd5b810190602081018135600160201b81111561019957600080fd5b8201836020820111156101ab57600080fd5b803590602001918460018302840111600160201b831117156101cc57600080fd5b5090925090506105cc565b60408051918252519081900360200190f35b6102d7600480360361012081101561020057600080fd5b6001600160a01b038235811692602081013590911691810190606081016040820135600160201b81111561023357600080fd5b82018360208201111561024557600080fd5b803590602001918460018302840111600160201b8311171561026657600080fd5b9193909282359260208101359260408201359260608301359260a081019060800135600160201b81111561029957600080fd5b8201836020820111156102ab57600080fd5b803590602001918460018302840111600160201b831117156102cc57600080fd5b91935091503561066b565b6040518083815260200180602001828103825283818151815260200191508051906020019080838360005b8381101561031a578181015183820152602001610302565b50505050905090810190601f1680156103475780820380516001836020036101000a031916815260200191505b50935050505060405180910390f35b6101436004803603602081101561036c57600080fd5b50356001600160a01b031661068c565b610384610698565b6040805160208082528351818301528351919283929083019185019080838360005b838110156103be5781810151838201526020016103a6565b50505050905090810190601f1680156103eb5780820380516001836020036101000a031916815260200191505b509250505060405180910390f35b6101436004803603604081101561040f57600080fd5b50803590602001356001600160a01b03166106b7565b6101436106c5565b6101436004803603608081101561044357600080fd5b810190602081018135600160201b81111561045d57600080fd5b82018360208201111561046f57600080fd5b803590602001918460018302840111600160201b8311171561049057600080fd5b919350915080351515906020810135906040013561070b565b7faf235354a0a47c91ee171961326335cb2d1a8e55b8a89859b0e61eb049e50ea06104d26107ad565b8383604051808060200184815260200180602001838103835286818151815260200191508051906020019080838360005b8381101561051b578181015183820152602001610503565b50505050905090810190601f1680156105485780820380516001836020036101000a031916815260200191505b50838103825284518152845160209182019186019080838360005b8381101561057b578181015183820152602001610563565b50505050905090810190601f1680156105a85780820380516001836020036101000a031916815260200191505b509550505050505060405180910390a15050565b6000546001600160a01b03165b90565b60006105d66105bc565b6001600160a01b0316336001600160a01b0316146106255760405162461bcd60e51b8152600401808060200182810382526024815260200180610ae66024913960400191505060405180910390fd5b61066483838080601f01602080910402602001604051908101604052809392919081815260200183838082843760009201919091525061081192505050565b9392505050565b60408051602081019091526000808252909b509b9950505050505050505050565b61069581610817565b50565b6040805180820190915260058152640312e302e360dc1b602082015290565b6106c18282610917565b5050565b7fd6558c3ed910d959271054471fd1c326679d9fece99c5091b00ed89627cf2bfc6106ee610983565b604080516001600160a01b039092168252519081900360200190a1565b6107136105bc565b6001600160a01b0316336001600160a01b0316146107625760405162461bcd60e51b8152600401808060200182810382526024815260200180610ae66024913960400191505060405180910390fd5b6107a685858080601f0160208091040260200160405190810160405280939291908181526020018383808284376000920191909152508792508691508590506109a5565b5050505050565b6000546060906001600160a01b03163314610802576000368080601f0160208091040260200160405190810160405280939291908181526020018383808284376000920191909152509293506105c992505050565b61080a6109ab565b90506105c9565b50600090565b6000546001600160a01b039081169082166108635760405162461bcd60e51b815260040180806020018281038252602e815260200180610a8b602e913960400191505060405180910390fd5b806001600160a01b0316826001600160a01b031614156108b45760405162461bcd60e51b815260040180806020018281038252602d815260200180610ab9602d913960400191505060405180910390fd5b816001600160a01b0316816001600160a01b03167fb9f84b8e65164b14439ae3620df0a4d8786d896996c0282b683f9d8c08f046e860405160405180910390a350600080546001600160a01b0319166001600160a01b0392909216919091179055565b6000805460408051627b8a6760e11b8152600481018690526001600160a01b0385811660248301529151919092169262f714ce926044808201939182900301818387803b15801561096757600080fd5b505af115801561097b573d6000803e3d6000fd5b505050505050565b600080546001600160a01b0316331461099d5750336105c9565b61080a610a3d565b50505050565b60606000601460003690500390506060816040519080825280601f01601f1916602001820160405280156109e6576020820181803883390190505b50905060005b82811015610a365760003682818110610a0157fe5b9050013560f81c60f81b828281518110610a1757fe5b60200101906001600160f81b031916908160001a9053506001016109ec565b5091505090565b600060606000368080601f0160208091040260200160405190810160405280939291908181526020018383808284376000920191909152505050503601516001600160a01b03169291505056fe47534e526563697069656e743a206e65772052656c617948756220697320746865207a65726f206164647265737347534e526563697069656e743a206e65772052656c6179487562206973207468652063757272656e74206f6e6547534e526563697069656e743a2063616c6c6572206973206e6f742052656c6179487562a265627a7a7231582089b961f2f96fb1aa41b975224ca19adba88092f0c88435174b8ad70dac83108a64736f6c63430005110032",
  "source": "pragma solidity ^0.5.0;\n\nimport \"./ContextMock.sol\";\nimport \"../GSN/GSNRecipient.sol\";\n\n// By inheriting from GSNRecipient, Context's internal functions are overridden automatically\ncontract GSNRecipientMock is ContextMock, GSNRecipient {\n    function withdrawDeposits(uint256 amount, address payable payee) public {\n        _withdrawDeposits(amount, payee);\n    }\n\n    function acceptRelayedCall(address, address, bytes calldata, uint256, uint256, uint256, uint256, bytes calldata, uint256)\n        external\n        view\n        returns (uint256, bytes memory)\n    {\n        return (0, \"\");\n    }\n\n    function _preRelayedCall(bytes memory) internal returns (bytes32) {\n        // solhint-disable-previous-line no-empty-blocks\n    }\n\n    function _postRelayedCall(bytes memory, bool, uint256, bytes32) internal {\n        // solhint-disable-previous-line no-empty-blocks\n    }\n\n    function upgradeRelayHub(address newRelayHub) public {\n        return _upgradeRelayHub(newRelayHub);\n    }\n}\n",
  "sourcePath": "/Users/sudipbhattarai/Documents/erc20-tokensale-gen/solidity-contracts/openzeppelin-contracts-v2.5/mocks/GSNRecipientMock.sol",
  "compiler": {
    "name": "solc",
    "version": "0.5.17+commit.d19bba13.Emscripten.clang"
  },
  "schemaVersion": "3.4.3",
  "updatedAt": "2022-02-06T18:13:26.162Z",
  "devdoc": {
    "methods": {
      "getHubAddr()": {
        "details": "Returns the address of the {IRelayHub} contract for this recipient."
      },
      "postRelayedCall(bytes,bool,uint256,bytes32)": {
        "details": "See `IRelayRecipient.postRelayedCall`.     * This function should not be overriden directly, use `_postRelayedCall` instead.     * * Requirements:     * - the caller must be the `RelayHub` contract."
      },
      "preRelayedCall(bytes)": {
        "details": "See `IRelayRecipient.preRelayedCall`.     * This function should not be overriden directly, use `_preRelayedCall` instead.     * * Requirements:     * - the caller must be the `RelayHub` contract."
      },
      "relayHubVersion()": {
        "details": "Returns the version string of the {IRelayHub} for which this recipient implementation was built. If {_upgradeRelayHub} is used, the new {IRelayHub} instance should be compatible with this version."
      }
    }
  },
  "userdoc": {
    "methods": {}
  }
}