{
  "contractName": "GSNRecipientSignatureMock",
  "abi": [
    {
      "inputs": [
        {
          "internalType": "address",
          "name": "trustedSigner",
          "type": "address"
        }
      ],
      "payable": false,
      "stateMutability": "nonpayable",
      "type": "constructor"
    },
    {
      "anonymous": false,
      "inputs": [],
      "name": "MockFunctionCalled",
      "type": "event"
    },
    {
      "anonymous": false,
      "inputs": [
        {
          "indexed": true,
          "internalType": "address",
          "name": "oldRelayHub",
          "type": "address"
        },
        {
          "indexed": true,
          "internalType": "address",
          "name": "newRelayHub",
          "type": "address"
        }
      ],
      "name": "RelayHubChanged",
      "type": "event"
    },
    {
      "constant": true,
      "inputs": [
        {
          "internalType": "address",
          "name": "relay",
          "type": "address"
        },
        {
          "internalType": "address",
          "name": "from",
          "type": "address"
        },
        {
          "internalType": "bytes",
          "name": "encodedFunction",
          "type": "bytes"
        },
        {
          "internalType": "uint256",
          "name": "transactionFee",
          "type": "uint256"
        },
        {
          "internalType": "uint256",
          "name": "gasPrice",
          "type": "uint256"
        },
        {
          "internalType": "uint256",
          "name": "gasLimit",
          "type": "uint256"
        },
        {
          "internalType": "uint256",
          "name": "nonce",
          "type": "uint256"
        },
        {
          "internalType": "bytes",
          "name": "approvalData",
          "type": "bytes"
        },
        {
          "internalType": "uint256",
          "name": "",
          "type": "uint256"
        }
      ],
      "name": "acceptRelayedCall",
      "outputs": [
        {
          "internalType": "uint256",
          "name": "",
          "type": "uint256"
        },
        {
          "internalType": "bytes",
          "name": "",
          "type": "bytes"
        }
      ],
      "payable": false,
      "stateMutability": "view",
      "type": "function"
    },
    {
      "constant": true,
      "inputs": [],
      "name": "getHubAddr",
      "outputs": [
        {
          "internalType": "address",
          "name": "",
          "type": "address"
        }
      ],
      "payable": false,
      "stateMutability": "view",
      "type": "function"
    },
    {
      "constant": false,
      "inputs": [
        {
          "internalType": "bytes",
          "name": "context",
          "type": "bytes"
        },
        {
          "internalType": "bool",
          "name": "success",
          "type": "bool"
        },
        {
          "internalType": "uint256",
          "name": "actualCharge",
          "type": "uint256"
        },
        {
          "internalType": "bytes32",
          "name": "preRetVal",
          "type": "bytes32"
        }
      ],
      "name": "postRelayedCall",
      "outputs": [],
      "payable": false,
      "stateMutability": "nonpayable",
      "type": "function"
    },
    {
      "constant": false,
      "inputs": [
        {
          "internalType": "bytes",
          "name": "context",
          "type": "bytes"
        }
      ],
      "name": "preRelayedCall",
      "outputs": [
        {
          "internalType": "bytes32",
          "name": "",
          "type": "bytes32"
        }
      ],
      "payable": false,
      "stateMutability": "nonpayable",
      "type": "function"
    },
    {
      "constant": true,
      "inputs": [],
      "name": "relayHubVersion",
      "outputs": [
        {
          "internalType": "string",
          "name": "",
          "type": "string"
        }
      ],
      "payable": false,
      "stateMutability": "view",
      "type": "function"
    },
    {
      "constant": false,
      "inputs": [],
      "name": "mockFunction",
      "outputs": [],
      "payable": false,
      "stateMutability": "nonpayable",
      "type": "function"
    }
  ],
  "bytecode": "0x6080604052600080546001600160a01b03191673d216153c06e857cd7f72665e0af1d7d82172f49417905534801561003657600080fd5b506040516109553803806109558339818101604052602081101561005957600080fd5b5051806001600160a01b0381166100a15760405162461bcd60e51b815260040180806020018281038252603981526020018061091c6039913960400191505060405180910390fd5b600180546001600160a01b0319166001600160a01b03929092169190911790555061084b806100d16000396000f3fe608060405234801561001057600080fd5b50600436106100625760003560e01c80633e6fec041461006757806374e861d61461007157806380274db71461009557806383947ea014610115578063ad61ccd514610282578063e06e0e22146102ff575b600080fd5b61006f61037b565b005b6100796103a6565b604080516001600160a01b039092168252519081900360200190f35b610103600480360360208110156100ab57600080fd5b810190602081018135600160201b8111156100c557600080fd5b8201836020820111156100d757600080fd5b803590602001918460018302840111600160201b831117156100f857600080fd5b5090925090506103b5565b60408051918252519081900360200190f35b610203600480360361012081101561012c57600080fd5b6001600160a01b038235811692602081013590911691810190606081016040820135600160201b81111561015f57600080fd5b82018360208201111561017157600080fd5b803590602001918460018302840111600160201b8311171561019257600080fd5b9193909282359260208101359260408201359260608301359260a081019060800135600160201b8111156101c557600080fd5b8201836020820111156101d757600080fd5b803590602001918460018302840111600160201b831117156101f857600080fd5b919350915035610456565b6040518083815260200180602001828103825283818151815260200191508051906020019080838360005b8381101561024657818101518382015260200161022e565b50505050905090810190601f1680156102735780820380516001836020036101000a031916815260200191505b50935050505060405180910390f35b61028a6105a5565b6040805160208082528351818301528351919283929083019185019080838360005b838110156102c45781810151838201526020016102ac565b50505050905090810190601f1680156102f15780820380516001836020036101000a031916815260200191505b509250505060405180910390f35b61006f6004803603608081101561031557600080fd5b810190602081018135600160201b81111561032f57600080fd5b82018360208201111561034157600080fd5b803590602001918460018302840111600160201b8311171561036257600080fd5b91935091508035151590602081013590604001356105c4565b6040517f52c66ed6ec9ca819cba26fe2b2650059270d8981b295af300187a964f54a8c2390600090a1565b6000546001600160a01b031690565b60006103bf6103a6565b6001600160a01b0316336001600160a01b03161461040e5760405162461bcd60e51b81526004018080602001828103825260248152602001806107f36024913960400191505060405180910390fd5b61044d83838080601f01602080910402602001604051908101604052809392919081815260200183838082843760009201919091525061066692505050565b90505b92915050565b60006060808d8d8d8d8d8d8d8d61046b6103a6565b30604051602001808b6001600160a01b03166001600160a01b031660601b81526014018a6001600160a01b03166001600160a01b031660601b81526014018989808284379190910197885250506020808701959095526040808701949094526060808701939093526bffffffffffffffffffffffff1991831b8216608087015290911b1660948401528051608881850301815260015460c8601f8f018590049094028501840190925260a884018d81529098506001600160a01b0391909116965061056a955093508b92508a91829101838280828437600092019190915250508551602087012061055e9250905061066c565b9063ffffffff6106bd16565b6001600160a01b0316141561058b576105816107ab565b9250925050610595565b61058160006107cf565b9b509b9950505050505050505050565b6040805180820190915260058152640312e302e360dc1b602082015290565b6105cc6103a6565b6001600160a01b0316336001600160a01b03161461061b5760405162461bcd60e51b81526004018080602001828103825260248152602001806107f36024913960400191505060405180910390fd5b61065f85858080601f0160208091040260200160405190810160405280939291908181526020018383808284376000920191909152508792508691508590506107e7565b5050505050565b50600090565b604080517f19457468657265756d205369676e6564204d6573736167653a0a333200000000602080830191909152603c8083019490945282518083039094018452605c909101909152815191012090565b600081516041146106d057506000610450565b60208201516040830151606084015160001a7f7fffffffffffffffffffffffffffffff5d576e7357a4501ddfe92f46681b20a08211156107165760009350505050610450565b8060ff16601b1415801561072e57508060ff16601c14155b1561073f5760009350505050610450565b6040805160008152602080820180845289905260ff8416828401526060820186905260808201859052915160019260a0808401939192601f1981019281900390910190855afa158015610796573d6000803e3d6000fd5b5050604051601f190151979650505050505050565b600060606107c7604051806020016040528060008152506107ed565b915091509091565b604080516020810190915260008152600b9190910191565b50505050565b60009156fe47534e526563697069656e743a2063616c6c6572206973206e6f742052656c6179487562a265627a7a723158200e67f8521698fa0055ba4f096972c4ddbbcc850feca8d26351f51a7d124894b664736f6c6343000511003247534e526563697069656e745369676e61747572653a2074727573746564207369676e657220697320746865207a65726f2061646472657373",
  "source": "pragma solidity ^0.5.0;\n\nimport \"../GSN/GSNRecipient.sol\";\nimport \"../GSN/GSNRecipientSignature.sol\";\n\ncontract GSNRecipientSignatureMock is GSNRecipient, GSNRecipientSignature {\n    constructor(address trustedSigner) public GSNRecipientSignature(trustedSigner) {\n        // solhint-disable-previous-line no-empty-blocks\n    }\n\n    event MockFunctionCalled();\n\n    function mockFunction() public {\n        emit MockFunctionCalled();\n    }\n}\n",
  "sourcePath": "/Users/sudipbhattarai/Documents/erc20-tokensale-gen/solidity-contracts/openzeppelin-contracts-v2.5/mocks/GSNRecipientSignatureMock.sol",
  "compiler": {
    "name": "solc",
    "version": "0.5.17+commit.d19bba13.Emscripten.clang"
  },
  "schemaVersion": "3.4.3",
  "updatedAt": "2022-02-06T18:13:26.163Z",
  "devdoc": {
    "methods": {
      "acceptRelayedCall(address,address,bytes,uint256,uint256,uint256,uint256,bytes,uint256)": {
        "details": "Ensures that only transactions with a trusted signature can be relayed through the GSN."
      },
      "getHubAddr()": {
        "details": "Returns the address of the {IRelayHub} contract for this recipient."
      },
      "postRelayedCall(bytes,bool,uint256,bytes32)": {
        "details": "See `IRelayRecipient.postRelayedCall`.     * This function should not be overriden directly, use `_postRelayedCall` instead.     * * Requirements:     * - the caller must be the `RelayHub` contract."
      },
      "preRelayedCall(bytes)": {
        "details": "See `IRelayRecipient.preRelayedCall`.     * This function should not be overriden directly, use `_preRelayedCall` instead.     * * Requirements:     * - the caller must be the `RelayHub` contract."
      },
      "relayHubVersion()": {
        "details": "Returns the version string of the {IRelayHub} for which this recipient implementation was built. If {_upgradeRelayHub} is used, the new {IRelayHub} instance should be compatible with this version."
      }
    }
  },
  "userdoc": {
    "methods": {}
  }
}