{
  "contractName": "IncreasingPriceCrowdsaleImpl",
  "abi": [
    {
      "inputs": [
        {
          "internalType": "uint256",
          "name": "openingTime",
          "type": "uint256"
        },
        {
          "internalType": "uint256",
          "name": "closingTime",
          "type": "uint256"
        },
        {
          "internalType": "address payable",
          "name": "wallet",
          "type": "address"
        },
        {
          "internalType": "contract IERC20",
          "name": "token",
          "type": "address"
        },
        {
          "internalType": "uint256",
          "name": "initialRate",
          "type": "uint256"
        },
        {
          "internalType": "uint256",
          "name": "finalRate",
          "type": "uint256"
        }
      ],
      "payable": false,
      "stateMutability": "nonpayable",
      "type": "constructor"
    },
    {
      "anonymous": false,
      "inputs": [
        {
          "indexed": false,
          "internalType": "uint256",
          "name": "prevClosingTime",
          "type": "uint256"
        },
        {
          "indexed": false,
          "internalType": "uint256",
          "name": "newClosingTime",
          "type": "uint256"
        }
      ],
      "name": "TimedCrowdsaleExtended",
      "type": "event"
    },
    {
      "anonymous": false,
      "inputs": [
        {
          "indexed": true,
          "internalType": "address",
          "name": "purchaser",
          "type": "address"
        },
        {
          "indexed": true,
          "internalType": "address",
          "name": "beneficiary",
          "type": "address"
        },
        {
          "indexed": false,
          "internalType": "uint256",
          "name": "value",
          "type": "uint256"
        },
        {
          "indexed": false,
          "internalType": "uint256",
          "name": "amount",
          "type": "uint256"
        }
      ],
      "name": "TokensPurchased",
      "type": "event"
    },
    {
      "payable": true,
      "stateMutability": "payable",
      "type": "fallback"
    },
    {
      "constant": false,
      "inputs": [
        {
          "internalType": "address",
          "name": "beneficiary",
          "type": "address"
        }
      ],
      "name": "buyTokens",
      "outputs": [],
      "payable": true,
      "stateMutability": "payable",
      "type": "function"
    },
    {
      "constant": true,
      "inputs": [],
      "name": "closingTime",
      "outputs": [
        {
          "internalType": "uint256",
          "name": "",
          "type": "uint256"
        }
      ],
      "payable": false,
      "stateMutability": "view",
      "type": "function"
    },
    {
      "constant": true,
      "inputs": [],
      "name": "finalRate",
      "outputs": [
        {
          "internalType": "uint256",
          "name": "",
          "type": "uint256"
        }
      ],
      "payable": false,
      "stateMutability": "view",
      "type": "function"
    },
    {
      "constant": true,
      "inputs": [],
      "name": "getCurrentRate",
      "outputs": [
        {
          "internalType": "uint256",
          "name": "",
          "type": "uint256"
        }
      ],
      "payable": false,
      "stateMutability": "view",
      "type": "function"
    },
    {
      "constant": true,
      "inputs": [],
      "name": "hasClosed",
      "outputs": [
        {
          "internalType": "bool",
          "name": "",
          "type": "bool"
        }
      ],
      "payable": false,
      "stateMutability": "view",
      "type": "function"
    },
    {
      "constant": true,
      "inputs": [],
      "name": "initialRate",
      "outputs": [
        {
          "internalType": "uint256",
          "name": "",
          "type": "uint256"
        }
      ],
      "payable": false,
      "stateMutability": "view",
      "type": "function"
    },
    {
      "constant": true,
      "inputs": [],
      "name": "isOpen",
      "outputs": [
        {
          "internalType": "bool",
          "name": "",
          "type": "bool"
        }
      ],
      "payable": false,
      "stateMutability": "view",
      "type": "function"
    },
    {
      "constant": true,
      "inputs": [],
      "name": "openingTime",
      "outputs": [
        {
          "internalType": "uint256",
          "name": "",
          "type": "uint256"
        }
      ],
      "payable": false,
      "stateMutability": "view",
      "type": "function"
    },
    {
      "constant": true,
      "inputs": [],
      "name": "rate",
      "outputs": [
        {
          "internalType": "uint256",
          "name": "",
          "type": "uint256"
        }
      ],
      "payable": false,
      "stateMutability": "view",
      "type": "function"
    },
    {
      "constant": true,
      "inputs": [],
      "name": "token",
      "outputs": [
        {
          "internalType": "contract IERC20",
          "name": "",
          "type": "address"
        }
      ],
      "payable": false,
      "stateMutability": "view",
      "type": "function"
    },
    {
      "constant": true,
      "inputs": [],
      "name": "wallet",
      "outputs": [
        {
          "internalType": "address payable",
          "name": "",
          "type": "address"
        }
      ],
      "payable": false,
      "stateMutability": "view",
      "type": "function"
    },
    {
      "constant": true,
      "inputs": [],
      "name": "weiRaised",
      "outputs": [
        {
          "internalType": "uint256",
          "name": "",
          "type": "uint256"
        }
      ],
      "payable": false,
      "stateMutability": "view",
      "type": "function"
    }
  ],
  "bytecode": "0x608060405234801561001057600080fd5b50604051610f1f380380610f1f833981810160405260c081101561003357600080fd5b508051602082015160408301516060840151608085015160a0909501516000805460ff19166001179055939492939192909181818787838888826100be576040805162461bcd60e51b815260206004820152601460248201527f43726f776473616c653a20726174652069732030000000000000000000000000604482015290519081900360640190fd5b6001600160a01b0382166101035760405162461bcd60e51b8152600401808060200182810382526025815260200180610efa6025913960400191505060405180910390fd5b6001600160a01b0381166101485760405162461bcd60e51b8152600401808060200182810382526024815260200180610ed66024913960400191505060405180910390fd5b600292909255600180546001600160a01b039283166001600160a01b0319909116179055600080549190921661010002610100600160a81b0319909116179055428210156101c75760405162461bcd60e51b8152600401808060200182810382526033815260200180610dfe6033913960400191505060405180910390fd5b8181116102055760405162461bcd60e51b8152600401808060200182810382526037815260200180610e766037913960400191505060405180910390fd5b6004919091556005558061024a5760405162461bcd60e51b8152600401808060200182810382526029815260200180610ead6029913960400191505060405180910390fd5b8082116102885760405162461bcd60e51b8152600401808060200182810382526045815260200180610e316045913960600191505060405180910390fd5b600691909155600755505050505050610b58806102a66000396000f3fe6080604052600436106100a75760003560e01c8063521eb27311610064578063521eb2731461015d5780639e51051f1461018e578063b7a8807c146101a3578063ec8ac4d8146101b8578063f7fb07b0146101de578063fc0c546a146101f3576100a7565b80631515bc2b146100b957806321106109146100e25780632c4e722e146101095780634042b66f1461011e57806347535d7b146101335780634b6753bc14610148575b6100b76100b2610208565b61020d565b005b3480156100c557600080fd5b506100ce61032f565b604080519115158252519081900360200190f35b3480156100ee57600080fd5b506100f7610337565b60408051918252519081900360200190f35b34801561011557600080fd5b506100f761033d565b34801561012a57600080fd5b506100f7610376565b34801561013f57600080fd5b506100ce61037c565b34801561015457600080fd5b506100f7610397565b34801561016957600080fd5b5061017261039d565b604080516001600160a01b039092168252519081900360200190f35b34801561019a57600080fd5b506100f76103ac565b3480156101af57600080fd5b506100f76103b2565b6100b7600480360360208110156101ce57600080fd5b50356001600160a01b031661020d565b3480156101ea57600080fd5b506100f76103b8565b3480156101ff57600080fd5b50610172610462565b335b90565b60005460ff16610264576040805162461bcd60e51b815260206004820152601f60248201527f5265656e7472616e637947756172643a207265656e7472616e742063616c6c00604482015290519081900360640190fd5b6000805460ff19169055346102798282610476565b6000610284826104dd565b60035490915061029a908363ffffffff61050116565b6003556102a78382610564565b826001600160a01b03166102b9610208565b6001600160a01b03167f6faf93231a456e552dbc9961f58d9713ee4f2e69d15f1975b050ef0911053a7b8484604051808381526020018281526020019250505060405180910390a361030b83836104d9565b61031361056e565b61031d83836104d9565b50506000805460ff1916600117905550565b600554421190565b60075490565b600060405162461bcd60e51b8152600401808060200182810382526027815260200180610a886027913960400191505060405180910390fd5b60035490565b6000600454421015801561039257506005544211155b905090565b60055490565b6001546001600160a01b031690565b60065490565b60045490565b60006103c261037c565b6103ce5750600061020a565b60006103e86103db6103b2565b429063ffffffff6105aa16565b9050600061040b6103f76103b2565b6103ff610397565b9063ffffffff6105aa16565b905060006104266007546006546105aa90919063ffffffff16565b905061045a61044b8361043f868563ffffffff6105ec16565b9063ffffffff61064516565b6006549063ffffffff6105aa16565b935050505090565b60005461010090046001600160a01b031690565b61047e61037c565b6104cf576040805162461bcd60e51b815260206004820152601860248201527f54696d656443726f776473616c653a206e6f74206f70656e0000000000000000604482015290519081900360640190fd5b6104d98282610687565b5050565b6000806104e86103b8565b90506104fa818463ffffffff6105ec16565b9392505050565b60008282018381101561055b576040805162461bcd60e51b815260206004820152601b60248201527f536166654d6174683a206164646974696f6e206f766572666c6f770000000000604482015290519081900360640190fd5b90505b92915050565b6104d9828261071e565b6001546040516001600160a01b03909116903480156108fc02916000818181858888f193505050501580156105a7573d6000803e3d6000fd5b50565b600061055b83836040518060400160405280601e81526020017f536166654d6174683a207375627472616374696f6e206f766572666c6f77000081525061073a565b6000826105fb5750600061055e565b8282028284828161060857fe5b041461055b5760405162461bcd60e51b8152600401808060200182810382526021815260200180610aaf6021913960400191505060405180910390fd5b600061055b83836040518060400160405280601a81526020017f536166654d6174683a206469766973696f6e206279207a65726f0000000000008152506107d1565b6001600160a01b0382166106cc5760405162461bcd60e51b815260040180806020018281038252602a815260200180610ad0602a913960400191505060405180910390fd5b806104d9576040805162461bcd60e51b815260206004820152601960248201527f43726f776473616c653a20776569416d6f756e74206973203000000000000000604482015290519081900360640190fd5b6000546104d99061010090046001600160a01b03168383610836565b600081848411156107c95760405162461bcd60e51b81526004018080602001828103825283818151815260200191508051906020019080838360005b8381101561078e578181015183820152602001610776565b50505050905090810190601f1680156107bb5780820380516001836020036101000a031916815260200191505b509250505060405180910390fd5b505050900390565b600081836108205760405162461bcd60e51b815260206004820181815283516024840152835190928392604490910191908501908083836000831561078e578181015183820152602001610776565b50600083858161082c57fe5b0495945050505050565b604080516001600160a01b038416602482015260448082018490528251808303909101815260649091019091526020810180516001600160e01b031663a9059cbb60e01b17905261088890849061088d565b505050565b61089f826001600160a01b0316610a4b565b6108f0576040805162461bcd60e51b815260206004820152601f60248201527f5361666545524332303a2063616c6c20746f206e6f6e2d636f6e747261637400604482015290519081900360640190fd5b60006060836001600160a01b0316836040518082805190602001908083835b6020831061092e5780518252601f19909201916020918201910161090f565b6001836020036101000a0380198251168184511680821785525050505050509050019150506000604051808303816000865af19150503d8060008114610990576040519150601f19603f3d011682016040523d82523d6000602084013e610995565b606091505b5091509150816109ec576040805162461bcd60e51b815260206004820181905260248201527f5361666545524332303a206c6f772d6c6576656c2063616c6c206661696c6564604482015290519081900360640190fd5b805115610a4557808060200190516020811015610a0857600080fd5b5051610a455760405162461bcd60e51b815260040180806020018281038252602a815260200180610afa602a913960400191505060405180910390fd5b50505050565b6000813f7fc5d2460186f7233c927e7db2dcc703c0e500b653ca82273b7bfad8045d85a470818114801590610a7f57508115155b94935050505056fe496e6372656173696e67507269636543726f776473616c653a207261746528292063616c6c6564536166654d6174683a206d756c7469706c69636174696f6e206f766572666c6f7743726f776473616c653a2062656e656669636961727920697320746865207a65726f20616464726573735361666545524332303a204552433230206f7065726174696f6e20646964206e6f742073756363656564a265627a7a72315820602a97a0a6ce65ef9f8105c46b891c32320f6e43e475b865ed2d0b58cae4fd1a64736f6c6343000511003254696d656443726f776473616c653a206f70656e696e672074696d65206973206265666f72652063757272656e742074696d65496e6372656173696e67507269636543726f776473616c653a20696e697469616c2072617465206973206e6f742067726561746572207468616e2066696e616c207261746554696d656443726f776473616c653a206f70656e696e672074696d65206973206e6f74206265666f726520636c6f73696e672074696d65496e6372656173696e67507269636543726f776473616c653a2066696e616c2072617465206973203043726f776473616c653a20746f6b656e20697320746865207a65726f206164647265737343726f776473616c653a2077616c6c657420697320746865207a65726f2061646472657373",
  "source": "pragma solidity ^0.5.0;\n\nimport \"../crowdsale/price/IncreasingPriceCrowdsale.sol\";\nimport \"../math/SafeMath.sol\";\n\ncontract IncreasingPriceCrowdsaleImpl is IncreasingPriceCrowdsale {\n    constructor (\n        uint256 openingTime,\n        uint256 closingTime,\n        address payable wallet,\n        IERC20 token,\n        uint256 initialRate,\n        uint256 finalRate\n    )\n        public\n        Crowdsale(initialRate, wallet, token)\n        TimedCrowdsale(openingTime, closingTime)\n        IncreasingPriceCrowdsale(initialRate, finalRate)\n    {\n        // solhint-disable-previous-line no-empty-blocks\n    }\n}\n",
  "sourcePath": "/Users/sudipbhattarai/Documents/erc20-tokensale-gen/solidity-contracts/openzeppelin-contracts-v2.5/mocks/IncreasingPriceCrowdsaleImpl.sol",
  "compiler": {
    "name": "solc",
    "version": "0.5.17+commit.d19bba13.Emscripten.clang"
  },
  "schemaVersion": "3.4.3",
  "updatedAt": "2022-02-06T18:13:26.164Z",
  "devdoc": {
    "methods": {
      "buyTokens(address)": {
        "details": "low level token purchase ***DO NOT OVERRIDE*** This function has a non-reentrancy guard, so it shouldn't be called by another `nonReentrant` function.",
        "params": {
          "beneficiary": "Recipient of the token purchase"
        }
      },
      "closingTime()": {
        "return": "the crowdsale closing time."
      },
      "finalRate()": {
        "return": "the final rate of the crowdsale."
      },
      "getCurrentRate()": {
        "details": "Returns the rate of tokens per wei at the present time. Note that, as price _increases_ with time, the rate _decreases_.",
        "return": "The number of tokens a buyer gets per wei at a given time"
      },
      "hasClosed()": {
        "details": "Checks whether the period in which the crowdsale is open has already elapsed.",
        "return": "Whether crowdsale period has elapsed"
      },
      "initialRate()": {
        "return": "the initial rate of the crowdsale."
      },
      "isOpen()": {
        "return": "true if the crowdsale is open, false otherwise."
      },
      "openingTime()": {
        "return": "the crowdsale opening time."
      },
      "token()": {
        "return": "the token being sold."
      },
      "wallet()": {
        "return": "the address where funds are collected."
      },
      "weiRaised()": {
        "return": "the amount of wei raised."
      }
    }
  },
  "userdoc": {
    "methods": {
      "rate()": {
        "notice": "The base rate function is overridden to revert, since this crowdsale doesn't use it, and all calls to it are a mistake."
      }
    }
  }
}