{
  "contractName": "IndividuallyCappedCrowdsaleImpl",
  "abi": [
    {
      "inputs": [
        {
          "internalType": "uint256",
          "name": "rate",
          "type": "uint256"
        },
        {
          "internalType": "address payable",
          "name": "wallet",
          "type": "address"
        },
        {
          "internalType": "contract IERC20",
          "name": "token",
          "type": "address"
        }
      ],
      "payable": false,
      "stateMutability": "nonpayable",
      "type": "constructor"
    },
    {
      "anonymous": false,
      "inputs": [
        {
          "indexed": true,
          "internalType": "address",
          "name": "account",
          "type": "address"
        }
      ],
      "name": "CapperAdded",
      "type": "event"
    },
    {
      "anonymous": false,
      "inputs": [
        {
          "indexed": true,
          "internalType": "address",
          "name": "account",
          "type": "address"
        }
      ],
      "name": "CapperRemoved",
      "type": "event"
    },
    {
      "anonymous": false,
      "inputs": [
        {
          "indexed": true,
          "internalType": "address",
          "name": "purchaser",
          "type": "address"
        },
        {
          "indexed": true,
          "internalType": "address",
          "name": "beneficiary",
          "type": "address"
        },
        {
          "indexed": false,
          "internalType": "uint256",
          "name": "value",
          "type": "uint256"
        },
        {
          "indexed": false,
          "internalType": "uint256",
          "name": "amount",
          "type": "uint256"
        }
      ],
      "name": "TokensPurchased",
      "type": "event"
    },
    {
      "payable": true,
      "stateMutability": "payable",
      "type": "fallback"
    },
    {
      "constant": false,
      "inputs": [
        {
          "internalType": "address",
          "name": "account",
          "type": "address"
        }
      ],
      "name": "addCapper",
      "outputs": [],
      "payable": false,
      "stateMutability": "nonpayable",
      "type": "function"
    },
    {
      "constant": false,
      "inputs": [
        {
          "internalType": "address",
          "name": "beneficiary",
          "type": "address"
        }
      ],
      "name": "buyTokens",
      "outputs": [],
      "payable": true,
      "stateMutability": "payable",
      "type": "function"
    },
    {
      "constant": true,
      "inputs": [
        {
          "internalType": "address",
          "name": "beneficiary",
          "type": "address"
        }
      ],
      "name": "getCap",
      "outputs": [
        {
          "internalType": "uint256",
          "name": "",
          "type": "uint256"
        }
      ],
      "payable": false,
      "stateMutability": "view",
      "type": "function"
    },
    {
      "constant": true,
      "inputs": [
        {
          "internalType": "address",
          "name": "beneficiary",
          "type": "address"
        }
      ],
      "name": "getContribution",
      "outputs": [
        {
          "internalType": "uint256",
          "name": "",
          "type": "uint256"
        }
      ],
      "payable": false,
      "stateMutability": "view",
      "type": "function"
    },
    {
      "constant": true,
      "inputs": [
        {
          "internalType": "address",
          "name": "account",
          "type": "address"
        }
      ],
      "name": "isCapper",
      "outputs": [
        {
          "internalType": "bool",
          "name": "",
          "type": "bool"
        }
      ],
      "payable": false,
      "stateMutability": "view",
      "type": "function"
    },
    {
      "constant": true,
      "inputs": [],
      "name": "onlyCapperMock",
      "outputs": [],
      "payable": false,
      "stateMutability": "view",
      "type": "function"
    },
    {
      "constant": true,
      "inputs": [],
      "name": "rate",
      "outputs": [
        {
          "internalType": "uint256",
          "name": "",
          "type": "uint256"
        }
      ],
      "payable": false,
      "stateMutability": "view",
      "type": "function"
    },
    {
      "constant": false,
      "inputs": [
        {
          "internalType": "address",
          "name": "account",
          "type": "address"
        }
      ],
      "name": "removeCapper",
      "outputs": [],
      "payable": false,
      "stateMutability": "nonpayable",
      "type": "function"
    },
    {
      "constant": false,
      "inputs": [],
      "name": "renounceCapper",
      "outputs": [],
      "payable": false,
      "stateMutability": "nonpayable",
      "type": "function"
    },
    {
      "constant": false,
      "inputs": [
        {
          "internalType": "address",
          "name": "beneficiary",
          "type": "address"
        },
        {
          "internalType": "uint256",
          "name": "cap",
          "type": "uint256"
        }
      ],
      "name": "setCap",
      "outputs": [],
      "payable": false,
      "stateMutability": "nonpayable",
      "type": "function"
    },
    {
      "constant": true,
      "inputs": [],
      "name": "token",
      "outputs": [
        {
          "internalType": "contract IERC20",
          "name": "",
          "type": "address"
        }
      ],
      "payable": false,
      "stateMutability": "view",
      "type": "function"
    },
    {
      "constant": true,
      "inputs": [],
      "name": "wallet",
      "outputs": [
        {
          "internalType": "address payable",
          "name": "",
          "type": "address"
        }
      ],
      "payable": false,
      "stateMutability": "view",
      "type": "function"
    },
    {
      "constant": true,
      "inputs": [],
      "name": "weiRaised",
      "outputs": [
        {
          "internalType": "uint256",
          "name": "",
          "type": "uint256"
        }
      ],
      "payable": false,
      "stateMutability": "view",
      "type": "function"
    }
  ],
  "bytecode": "0x60806040523480156200001157600080fd5b506040516200113d3803806200113d833981810160405260608110156200003757600080fd5b50805160208201516040909201516000805460ff1916600117905590919082828282620000ab576040805162461bcd60e51b815260206004820152601460248201527f43726f776473616c653a20726174652069732030000000000000000000000000604482015290519081900360640190fd5b6001600160a01b038216620000f25760405162461bcd60e51b8152600401808060200182810382526025815260200180620011186025913960400191505060405180910390fd5b6001600160a01b038116620001395760405162461bcd60e51b8152600401808060200182810382526024815260200180620010d26024913960400191505060405180910390fd5b600292909255600180546001600160a01b039283166001600160a01b0319909116179055600080549190921661010002610100600160a81b031990911617905562000196620001876200019f565b6001600160e01b03620001a316565b505050620002eb565b3390565b620001be816004620001f560201b6200094a1790919060201c565b6040516001600160a01b038216907fa7555c95b69d4f5cc847881feb4ab2883a1921319e34fa2043747b793d65b36e90600090a250565b6200020a82826001600160e01b036200028216565b156200025d576040805162461bcd60e51b815260206004820152601f60248201527f526f6c65733a206163636f756e7420616c72656164792068617320726f6c6500604482015290519081900360640190fd5b6001600160a01b0316600090815260209190915260409020805460ff19166001179055565b60006001600160a01b038216620002cb5760405162461bcd60e51b8152600401808060200182810382526022815260200180620010f66022913960400191505060405180910390fd5b506001600160a01b03166000908152602091909152604090205460ff1690565b610dd780620002fb6000396000f3fe6080604052600436106100c25760003560e01c80635d5576f81161007f578063b3aefb7511610059578063b3aefb751461026f578063d1e07bcb146102a2578063ec8ac4d8146102b7578063fc0c546a146102dd576100c2565b80635d5576f8146101ee57806380ad2cf3146102035780638dfbcf361461023c576100c2565b806321eff7fc146100d45780632c4e722e14610119578063395645611461012e5780633f4a6484146101755780634042b66f146101a8578063521eb273146101bd575b6100d26100cd6102f2565b6102f6565b005b3480156100e057600080fd5b50610107600480360360208110156100f757600080fd5b50356001600160a01b0316610418565b60408051918252519081900360200190f35b34801561012557600080fd5b50610107610433565b34801561013a57600080fd5b506101616004803603602081101561015157600080fd5b50356001600160a01b0316610439565b604080519115158252519081900360200190f35b34801561018157600080fd5b506100d26004803603602081101561019857600080fd5b50356001600160a01b0316610452565b3480156101b457600080fd5b5061010761045e565b3480156101c957600080fd5b506101d2610464565b604080516001600160a01b039092168252519081900360200190f35b3480156101fa57600080fd5b506100d2610473565b34801561020f57600080fd5b506100d26004803603604081101561022657600080fd5b506001600160a01b038135169060200135610485565b34801561024857600080fd5b506100d26004803603602081101561025f57600080fd5b50356001600160a01b03166104ec565b34801561027b57600080fd5b506101076004803603602081101561029257600080fd5b50356001600160a01b031661053b565b3480156102ae57600080fd5b506100d2610556565b6100d2600480360360208110156102cd57600080fd5b50356001600160a01b03166102f6565b3480156102e957600080fd5b506101d261059c565b3390565b60005460ff1661034d576040805162461bcd60e51b815260206004820152601f60248201527f5265656e7472616e637947756172643a207265656e7472616e742063616c6c00604482015290519081900360640190fd5b6000805460ff191690553461036282826105b0565b600061036d82610630565b600354909150610383908363ffffffff61064716565b60035561039083826106a8565b826001600160a01b03166103a26102f2565b6001600160a01b03167f6faf93231a456e552dbc9961f58d9713ee4f2e69d15f1975b050ef0911053a7b8484604051808381526020018281526020019250505060405180910390a36103f483836106b2565b6103fc610705565b610406838361062c565b50506000805460ff1916600117905550565b6001600160a01b031660009081526005602052604090205490565b60025490565b600061044c60048363ffffffff61073e16565b92915050565b61045b816107a5565b50565b60035490565b6001546001600160a01b031690565b61048361047e6102f2565b6107a5565b565b6104956104906102f2565b610439565b6104d05760405162461bcd60e51b8152600401808060200182810382526030815260200180610d736030913960400191505060405180910390fd5b6001600160a01b03909116600090815260066020526040902055565b6104f76104906102f2565b6105325760405162461bcd60e51b8152600401808060200182810382526030815260200180610d736030913960400191505060405180910390fd5b61045b816107ae565b6001600160a01b031660009081526006602052604090205490565b6105616104906102f2565b6104835760405162461bcd60e51b8152600401808060200182810382526030815260200180610d736030913960400191505060405180910390fd5b60005461010090046001600160a01b031690565b6105ba82826107f6565b6001600160a01b0382166000908152600660209081526040808320546005909252909120546105ef908363ffffffff61064716565b111561062c5760405162461bcd60e51b8152600401808060200182810382526037815260200180610d126037913960400191505060405180910390fd5b5050565b600061044c6002548361088d90919063ffffffff16565b6000828201838110156106a1576040805162461bcd60e51b815260206004820152601b60248201527f536166654d6174683a206164646974696f6e206f766572666c6f770000000000604482015290519081900360640190fd5b9392505050565b61062c82826108e6565b6106bc828261062c565b6001600160a01b0382166000908152600560205260409020546106e5908263ffffffff61064716565b6001600160a01b0390921660009081526005602052604090209190915550565b6001546040516001600160a01b03909116903480156108fc02916000818181858888f1935050505015801561045b573d6000803e3d6000fd5b60006001600160a01b0382166107855760405162461bcd60e51b8152600401808060200182810382526022815260200180610cc66022913960400191505060405180910390fd5b506001600160a01b03166000908152602091909152604090205460ff1690565b61045b81610902565b6107bf60048263ffffffff61094a16565b6040516001600160a01b038216907fa7555c95b69d4f5cc847881feb4ab2883a1921319e34fa2043747b793d65b36e90600090a250565b6001600160a01b03821661083b5760405162461bcd60e51b815260040180806020018281038252602a815260200180610ce8602a913960400191505060405180910390fd5b8061062c576040805162461bcd60e51b815260206004820152601960248201527f43726f776473616c653a20776569416d6f756e74206973203000000000000000604482015290519081900360640190fd5b60008261089c5750600061044c565b828202828482816108a957fe5b04146106a15760405162461bcd60e51b8152600401808060200182810382526021815260200180610ca56021913960400191505060405180910390fd5b60005461062c9061010090046001600160a01b031683836109cb565b61091360048263ffffffff610a2216565b6040516001600160a01b038216907f427400d279c506df610224b22ecce89b693fc1865864113f21c8d19c1f0c2a3b90600090a250565b610954828261073e565b156109a6576040805162461bcd60e51b815260206004820152601f60248201527f526f6c65733a206163636f756e7420616c72656164792068617320726f6c6500604482015290519081900360640190fd5b6001600160a01b0316600090815260209190915260409020805460ff19166001179055565b604080516001600160a01b038416602482015260448082018490528251808303909101815260649091019091526020810180516001600160e01b031663a9059cbb60e01b179052610a1d908490610a89565b505050565b610a2c828261073e565b610a675760405162461bcd60e51b8152600401808060200182810382526021815260200180610c846021913960400191505060405180910390fd5b6001600160a01b0316600090815260209190915260409020805460ff19169055565b610a9b826001600160a01b0316610c47565b610aec576040805162461bcd60e51b815260206004820152601f60248201527f5361666545524332303a2063616c6c20746f206e6f6e2d636f6e747261637400604482015290519081900360640190fd5b60006060836001600160a01b0316836040518082805190602001908083835b60208310610b2a5780518252601f199092019160209182019101610b0b565b6001836020036101000a0380198251168184511680821785525050505050509050019150506000604051808303816000865af19150503d8060008114610b8c576040519150601f19603f3d011682016040523d82523d6000602084013e610b91565b606091505b509150915081610be8576040805162461bcd60e51b815260206004820181905260248201527f5361666545524332303a206c6f772d6c6576656c2063616c6c206661696c6564604482015290519081900360640190fd5b805115610c4157808060200190516020811015610c0457600080fd5b5051610c415760405162461bcd60e51b815260040180806020018281038252602a815260200180610d49602a913960400191505060405180910390fd5b50505050565b6000813f7fc5d2460186f7233c927e7db2dcc703c0e500b653ca82273b7bfad8045d85a470818114801590610c7b57508115155b94935050505056fe526f6c65733a206163636f756e7420646f6573206e6f74206861766520726f6c65536166654d6174683a206d756c7469706c69636174696f6e206f766572666c6f77526f6c65733a206163636f756e7420697320746865207a65726f206164647265737343726f776473616c653a2062656e656669636961727920697320746865207a65726f2061646472657373496e646976696475616c6c7943617070656443726f776473616c653a2062656e65666963696172792773206361702065786365656465645361666545524332303a204552433230206f7065726174696f6e20646964206e6f742073756363656564436170706572526f6c653a2063616c6c657220646f6573206e6f742068617665207468652043617070657220726f6c65a265627a7a72315820f0c1cbfb3a17608781a3e112a92d58c4f0c1fe112661ba5b8afbe06a2d15b61c64736f6c6343000511003243726f776473616c653a20746f6b656e20697320746865207a65726f2061646472657373526f6c65733a206163636f756e7420697320746865207a65726f206164647265737343726f776473616c653a2077616c6c657420697320746865207a65726f2061646472657373",
  "source": "pragma solidity ^0.5.0;\n\nimport \"../token/ERC20/IERC20.sol\";\nimport \"../crowdsale/validation/IndividuallyCappedCrowdsale.sol\";\nimport \"./CapperRoleMock.sol\";\n\ncontract IndividuallyCappedCrowdsaleImpl is IndividuallyCappedCrowdsale, CapperRoleMock {\n    constructor (uint256 rate, address payable wallet, IERC20 token) public Crowdsale(rate, wallet, token) {\n        // solhint-disable-previous-line no-empty-blocks\n    }\n}\n",
  "sourcePath": "/Users/sudipbhattarai/Documents/erc20-tokensale-gen/solidity-contracts/openzeppelin-contracts-v2.5/mocks/IndividuallyCappedCrowdsaleImpl.sol",
  "compiler": {
    "name": "solc",
    "version": "0.5.17+commit.d19bba13.Emscripten.clang"
  },
  "schemaVersion": "3.4.3",
  "updatedAt": "2022-02-06T18:13:26.165Z",
  "devdoc": {
    "methods": {
      "buyTokens(address)": {
        "details": "low level token purchase ***DO NOT OVERRIDE*** This function has a non-reentrancy guard, so it shouldn't be called by another `nonReentrant` function.",
        "params": {
          "beneficiary": "Recipient of the token purchase"
        }
      },
      "getCap(address)": {
        "details": "Returns the cap of a specific beneficiary.",
        "params": {
          "beneficiary": "Address whose cap is to be checked"
        },
        "return": "Current cap for individual beneficiary"
      },
      "getContribution(address)": {
        "details": "Returns the amount contributed so far by a specific beneficiary.",
        "params": {
          "beneficiary": "Address of contributor"
        },
        "return": "Beneficiary contribution so far"
      },
      "rate()": {
        "return": "the number of token units a buyer gets per wei."
      },
      "setCap(address,uint256)": {
        "details": "Sets a specific beneficiary's maximum contribution.",
        "params": {
          "beneficiary": "Address to be capped",
          "cap": "Wei limit for individual contribution"
        }
      },
      "token()": {
        "return": "the token being sold."
      },
      "wallet()": {
        "return": "the address where funds are collected."
      },
      "weiRaised()": {
        "return": "the amount of wei raised."
      }
    }
  },
  "userdoc": {
    "methods": {}
  }
}