{
  "contractName": "LiquidityBackedTokenSale",
  "abi": [
    {
      "inputs": [
        {
          "internalType": "uint256",
          "name": "rate",
          "type": "uint256"
        },
        {
          "internalType": "contract IERC20",
          "name": "token",
          "type": "address"
        },
        {
          "internalType": "address payable",
          "name": "wallet",
          "type": "address"
        },
        {
          "internalType": "uint256",
          "name": "softCap",
          "type": "uint256"
        },
        {
          "internalType": "uint256",
          "name": "hardCap",
          "type": "uint256"
        },
        {
          "internalType": "uint256",
          "name": "_liquidityTokens",
          "type": "uint256"
        },
        {
          "internalType": "uint256",
          "name": "_liquidityEth",
          "type": "uint256"
        },
        {
          "internalType": "uint256",
          "name": "_openingTime",
          "type": "uint256"
        },
        {
          "internalType": "uint256",
          "name": "closingTime",
          "type": "uint256"
        },
        {
          "internalType": "contract IPancakeRouter02",
          "name": "pancakeRouter",
          "type": "address"
        },
        {
          "internalType": "bool",
          "name": "_shouldBurn",
          "type": "bool"
        }
      ],
      "payable": false,
      "stateMutability": "nonpayable",
      "type": "constructor"
    },
    {
      "anonymous": false,
      "inputs": [],
      "name": "CrowdsaleFinalized",
      "type": "event"
    },
    {
      "anonymous": false,
      "inputs": [
        {
          "indexed": false,
          "internalType": "uint256",
          "name": "prevClosingTime",
          "type": "uint256"
        },
        {
          "indexed": false,
          "internalType": "uint256",
          "name": "newClosingTime",
          "type": "uint256"
        }
      ],
      "name": "TimedCrowdsaleExtended",
      "type": "event"
    },
    {
      "anonymous": false,
      "inputs": [
        {
          "indexed": true,
          "internalType": "address",
          "name": "purchaser",
          "type": "address"
        },
        {
          "indexed": true,
          "internalType": "address",
          "name": "beneficiary",
          "type": "address"
        },
        {
          "indexed": false,
          "internalType": "uint256",
          "name": "value",
          "type": "uint256"
        },
        {
          "indexed": false,
          "internalType": "uint256",
          "name": "amount",
          "type": "uint256"
        }
      ],
      "name": "TokensPurchased",
      "type": "event"
    },
    {
      "payable": true,
      "stateMutability": "payable",
      "type": "fallback"
    },
    {
      "constant": true,
      "inputs": [
        {
          "internalType": "address",
          "name": "account",
          "type": "address"
        }
      ],
      "name": "balanceOf",
      "outputs": [
        {
          "internalType": "uint256",
          "name": "",
          "type": "uint256"
        }
      ],
      "payable": false,
      "stateMutability": "view",
      "type": "function"
    },
    {
      "constant": false,
      "inputs": [
        {
          "internalType": "address",
          "name": "beneficiary",
          "type": "address"
        }
      ],
      "name": "buyTokens",
      "outputs": [],
      "payable": true,
      "stateMutability": "payable",
      "type": "function"
    },
    {
      "constant": true,
      "inputs": [],
      "name": "cap",
      "outputs": [
        {
          "internalType": "uint256",
          "name": "",
          "type": "uint256"
        }
      ],
      "payable": false,
      "stateMutability": "view",
      "type": "function"
    },
    {
      "constant": true,
      "inputs": [],
      "name": "capReached",
      "outputs": [
        {
          "internalType": "bool",
          "name": "",
          "type": "bool"
        }
      ],
      "payable": false,
      "stateMutability": "view",
      "type": "function"
    },
    {
      "constant": false,
      "inputs": [],
      "name": "claimRefund",
      "outputs": [],
      "payable": false,
      "stateMutability": "nonpayable",
      "type": "function"
    },
    {
      "constant": true,
      "inputs": [],
      "name": "closingTime",
      "outputs": [
        {
          "internalType": "uint256",
          "name": "",
          "type": "uint256"
        }
      ],
      "payable": false,
      "stateMutability": "view",
      "type": "function"
    },
    {
      "constant": false,
      "inputs": [],
      "name": "finalize",
      "outputs": [],
      "payable": false,
      "stateMutability": "nonpayable",
      "type": "function"
    },
    {
      "constant": true,
      "inputs": [],
      "name": "finalized",
      "outputs": [
        {
          "internalType": "bool",
          "name": "",
          "type": "bool"
        }
      ],
      "payable": false,
      "stateMutability": "view",
      "type": "function"
    },
    {
      "constant": true,
      "inputs": [],
      "name": "goal",
      "outputs": [
        {
          "internalType": "uint256",
          "name": "",
          "type": "uint256"
        }
      ],
      "payable": false,
      "stateMutability": "view",
      "type": "function"
    },
    {
      "constant": true,
      "inputs": [],
      "name": "goalReached",
      "outputs": [
        {
          "internalType": "bool",
          "name": "",
          "type": "bool"
        }
      ],
      "payable": false,
      "stateMutability": "view",
      "type": "function"
    },
    {
      "constant": true,
      "inputs": [],
      "name": "hasClosed",
      "outputs": [
        {
          "internalType": "bool",
          "name": "",
          "type": "bool"
        }
      ],
      "payable": false,
      "stateMutability": "view",
      "type": "function"
    },
    {
      "constant": true,
      "inputs": [],
      "name": "isOpen",
      "outputs": [
        {
          "internalType": "bool",
          "name": "",
          "type": "bool"
        }
      ],
      "payable": false,
      "stateMutability": "view",
      "type": "function"
    },
    {
      "constant": true,
      "inputs": [
        {
          "internalType": "address",
          "name": "",
          "type": "address"
        }
      ],
      "name": "lockedEthers",
      "outputs": [
        {
          "internalType": "uint256",
          "name": "",
          "type": "uint256"
        }
      ],
      "payable": false,
      "stateMutability": "view",
      "type": "function"
    },
    {
      "constant": true,
      "inputs": [],
      "name": "openingTime",
      "outputs": [
        {
          "internalType": "uint256",
          "name": "",
          "type": "uint256"
        }
      ],
      "payable": false,
      "stateMutability": "view",
      "type": "function"
    },
    {
      "constant": true,
      "inputs": [],
      "name": "rate",
      "outputs": [
        {
          "internalType": "uint256",
          "name": "",
          "type": "uint256"
        }
      ],
      "payable": false,
      "stateMutability": "view",
      "type": "function"
    },
    {
      "constant": true,
      "inputs": [],
      "name": "router",
      "outputs": [
        {
          "internalType": "contract IPancakeRouter02",
          "name": "",
          "type": "address"
        }
      ],
      "payable": false,
      "stateMutability": "view",
      "type": "function"
    },
    {
      "constant": false,
      "inputs": [],
      "name": "simpleFinalize",
      "outputs": [],
      "payable": false,
      "stateMutability": "nonpayable",
      "type": "function"
    },
    {
      "constant": true,
      "inputs": [],
      "name": "simpleStats",
      "outputs": [
        {
          "internalType": "uint256",
          "name": "",
          "type": "uint256"
        },
        {
          "internalType": "uint256",
          "name": "",
          "type": "uint256"
        },
        {
          "internalType": "uint256",
          "name": "",
          "type": "uint256"
        },
        {
          "internalType": "uint256",
          "name": "",
          "type": "uint256"
        },
        {
          "internalType": "uint256",
          "name": "",
          "type": "uint256"
        },
        {
          "internalType": "uint256",
          "name": "",
          "type": "uint256"
        },
        {
          "internalType": "uint256",
          "name": "",
          "type": "uint256"
        },
        {
          "internalType": "uint256",
          "name": "",
          "type": "uint256"
        },
        {
          "internalType": "address",
          "name": "",
          "type": "address"
        },
        {
          "internalType": "address",
          "name": "",
          "type": "address"
        },
        {
          "internalType": "bool",
          "name": "",
          "type": "bool"
        },
        {
          "internalType": "bool",
          "name": "",
          "type": "bool"
        },
        {
          "internalType": "bool",
          "name": "",
          "type": "bool"
        }
      ],
      "payable": false,
      "stateMutability": "view",
      "type": "function"
    },
    {
      "constant": false,
      "inputs": [],
      "name": "superFinalize",
      "outputs": [],
      "payable": false,
      "stateMutability": "nonpayable",
      "type": "function"
    },
    {
      "constant": true,
      "inputs": [],
      "name": "token",
      "outputs": [
        {
          "internalType": "contract IERC20",
          "name": "",
          "type": "address"
        }
      ],
      "payable": false,
      "stateMutability": "view",
      "type": "function"
    },
    {
      "constant": true,
      "inputs": [],
      "name": "tokenInfo",
      "outputs": [
        {
          "internalType": "string",
          "name": "",
          "type": "string"
        },
        {
          "internalType": "string",
          "name": "",
          "type": "string"
        },
        {
          "internalType": "uint8",
          "name": "",
          "type": "uint8"
        },
        {
          "internalType": "uint256",
          "name": "",
          "type": "uint256"
        },
        {
          "internalType": "uint256",
          "name": "",
          "type": "uint256"
        },
        {
          "internalType": "uint256",
          "name": "",
          "type": "uint256"
        },
        {
          "internalType": "bool",
          "name": "",
          "type": "bool"
        },
        {
          "internalType": "bool",
          "name": "",
          "type": "bool"
        }
      ],
      "payable": false,
      "stateMutability": "view",
      "type": "function"
    },
    {
      "constant": true,
      "inputs": [],
      "name": "wallet",
      "outputs": [
        {
          "internalType": "address payable",
          "name": "",
          "type": "address"
        }
      ],
      "payable": false,
      "stateMutability": "view",
      "type": "function"
    },
    {
      "constant": true,
      "inputs": [],
      "name": "weiRaised",
      "outputs": [
        {
          "internalType": "uint256",
          "name": "",
          "type": "uint256"
        }
      ],
      "payable": false,
      "stateMutability": "view",
      "type": "function"
    },
    {
      "constant": false,
      "inputs": [
        {
          "internalType": "address",
          "name": "beneficiary",
          "type": "address"
        }
      ],
      "name": "withdrawTokens",
      "outputs": [],
      "payable": false,
      "stateMutability": "nonpayable",
      "type": "function"
    },
    {
      "constant": true,
      "inputs": [],
      "name": "info",
      "outputs": [
        {
          "internalType": "uint256",
          "name": "",
          "type": "uint256"
        },
        {
          "internalType": "uint256",
          "name": "",
          "type": "uint256"
        },
        {
          "internalType": "uint256",
          "name": "",
          "type": "uint256"
        },
        {
          "internalType": "uint256",
          "name": "",
          "type": "uint256"
        },
        {
          "internalType": "uint256",
          "name": "",
          "type": "uint256"
        },
        {
          "internalType": "uint256",
          "name": "",
          "type": "uint256"
        },
        {
          "internalType": "uint256",
          "name": "",
          "type": "uint256"
        },
        {
          "internalType": "address",
          "name": "",
          "type": "address"
        },
        {
          "internalType": "address",
          "name": "",
          "type": "address"
        }
      ],
      "payable": false,
      "stateMutability": "view",
      "type": "function"
    },
    {
      "constant": true,
      "inputs": [],
      "name": "status",
      "outputs": [
        {
          "internalType": "uint256",
          "name": "",
          "type": "uint256"
        },
        {
          "internalType": "uint256",
          "name": "",
          "type": "uint256"
        },
        {
          "internalType": "uint256",
          "name": "",
          "type": "uint256"
        },
        {
          "internalType": "uint256",
          "name": "",
          "type": "uint256"
        },
        {
          "internalType": "bool",
          "name": "",
          "type": "bool"
        },
        {
          "internalType": "bool",
          "name": "",
          "type": "bool"
        },
        {
          "internalType": "bool",
          "name": "",
          "type": "bool"
        }
      ],
      "payable": false,
      "stateMutability": "view",
      "type": "function"
    },
    {
      "constant": false,
      "inputs": [],
      "name": "approve",
      "outputs": [],
      "payable": false,
      "stateMutability": "nonpayable",
      "type": "function"
    },
    {
      "constant": false,
      "inputs": [],
      "name": "addLiquidity",
      "outputs": [],
      "payable": false,
      "stateMutability": "nonpayable",
      "type": "function"
    }
  ],
  "bytecode": "0x60806040523480156200001157600080fd5b506040516200268e3803806200268e83398181016040526101608110156200003857600080fd5b508051602082015160408301516060840151608085015160a086015160c087015160e08801516101008901516101208a0151610140909a01516000805460ff19166001179055989997989697959694959394929391929091908a8a8a8a8a888887848383868b8a8c82620000f3576040805162461bcd60e51b815260206004820152601460248201527f43726f776473616c653a20726174652069732030000000000000000000000000604482015290519081900360640190fd5b6001600160a01b0382166200013a5760405162461bcd60e51b8152600401808060200182810382526025815260200180620026696025913960400191505060405180910390fd5b6001600160a01b038116620001815760405162461bcd60e51b8152600401808060200182810382526024815260200180620026456024913960400191505060405180910390fd5b600292909255600180546001600160a01b039283166001600160a01b0319909116179055600080549190921661010002610100600160a81b03199091161790558062000214576040805162461bcd60e51b815260206004820152601960248201527f43617070656443726f776473616c653a20636170206973203000000000000000604482015290519081900360640190fd5b60045542821015620002585760405162461bcd60e51b8152600401808060200182810382526033815260200180620025db6033913960400191505060405180910390fd5b818111620002985760405162461bcd60e51b81526004018080602001828103825260378152602001806200260e6037913960400191505060405180910390fd5b6005919091556006556007805460ff1916905580620002fe576040805162461bcd60e51b815260206004820152601e60248201527f526566756e6461626c6543726f776473616c653a20676f616c20697320300000604482015290519081900360640190fd5b6009556040516200030f90620003a1565b604051809103906000f0801580156200032c573d6000803e3d6000fd5b50600b80546001600160a01b03199081166001600160a01b0393841617909155600c8054339083161760ff60a01b1916600160a01b9415159490940293909317909255600d80549092169a1699909917909855505050600e98909855505050600f9390935550620003af975050505050505050565b6103c7806200221483390190565b611e5580620003bf6000396000f3fe6080604052600436106101b75760003560e01c806351182386116100ec578063b3f05b971161008a578063e8078d9411610064578063e8078d9414610679578063ec8ac4d81461068e578063f887ea40146106b4578063fc0c546a146106c9576101b7565b8063b3f05b971461063a578063b5545a3c1461064f578063b7a8807c14610664576101b7565b80636addb663116100c65780636addb663146104b45780636b2f64d6146105dd57806370a08231146105f25780637d3d652214610625576101b7565b806351182386146103e2578063521eb273146103f75780635777fbea14610428576101b7565b8063401938831161015957806349df728c1161013357806349df728c146103705780634b6753bc146103a35780634bb278f3146103b85780634f935945146103cd576101b7565b806340193883146103315780634042b66f1461034657806347535d7b1461035b576101b7565b80632c4e722e116101955780632c4e722e1461025a578063355274ea1461028157806336668f3414610296578063370158ea146102c9576101b7565b806312424e3f146101c95780631515bc2b146101de578063200d2ed214610207575b6101c76101c26106de565b6106e2565b005b3480156101d557600080fd5b506101c7610804565b3480156101ea57600080fd5b506101f3610894565b604080519115158252519081900360200190f35b34801561021357600080fd5b5061021c61089c565b60408051978852602088019690965286860194909452606086019290925215156080850152151560a0840152151560c0830152519081900360e00190f35b34801561026657600080fd5b5061026f61097f565b60408051918252519081900360200190f35b34801561028d57600080fd5b5061026f610985565b3480156102a257600080fd5b5061026f600480360360208110156102b957600080fd5b50356001600160a01b031661098b565b3480156102d557600080fd5b506102de61099d565b60408051998a5260208a0198909852888801969096526060880194909452608087019290925260a086015260c08501526001600160a01b0390811660e08501521661010083015251908190036101200190f35b34801561033d57600080fd5b5061026f610a09565b34801561035257600080fd5b5061026f610a0f565b34801561036757600080fd5b506101f3610a15565b34801561037c57600080fd5b506101c76004803603602081101561039357600080fd5b50356001600160a01b0316610a30565b3480156103af57600080fd5b5061026f610ac2565b3480156103c457600080fd5b506101c7610ac8565b3480156103d957600080fd5b506101f3610ba3565b3480156103ee57600080fd5b506101c7610bb7565b34801561040357600080fd5b5061040c610d7c565b604080516001600160a01b039092168252519081900360200190f35b34801561043457600080fd5b5061043d610d8b565b604080519d8e5260208e019c909c528c8c019a909a5260608c019890985260808b019690965260a08a019490945260c089019290925260e08801526001600160a01b039081166101008801521661012086015215156101408501521515610160840152151561018083015251908190036101a00190f35b3480156104c057600080fd5b506104c9610e3c565b6040805160ff881691810191909152606081018690526080810185905260a0810184905282151560c082015281151560e0820152610100808252895190820152885181906020808301916101208401918d019080838360005b8381101561053a578181015183820152602001610522565b50505050905090810190601f1680156105675780820380516001836020036101000a031916815260200191505b5083810382528a5181528a516020918201918c019080838360005b8381101561059a578181015183820152602001610582565b50505050905090810190601f1680156105c75780820380516001836020036101000a031916815260200191505b509a505050505050505050505060405180910390f35b3480156105e957600080fd5b506101c7611081565b3480156105fe57600080fd5b5061026f6004803603602081101561061557600080fd5b50356001600160a01b031661108b565b34801561063157600080fd5b506101f36110a6565b34801561064657600080fd5b506101f36110b3565b34801561065b57600080fd5b506101c76110bc565b34801561067057600080fd5b5061026f6111a3565b34801561068557600080fd5b506101c76111a9565b6101c7600480360360208110156106a457600080fd5b50356001600160a01b03166106e2565b3480156106c057600080fd5b5061040c611283565b3480156106d557600080fd5b5061040c611292565b3390565b60005460ff16610739576040805162461bcd60e51b815260206004820152601f60248201527f5265656e7472616e637947756172643a207265656e7472616e742063616c6c00604482015290519081900360640190fd5b6000805460ff191690553461074e82826112a6565b600061075982611309565b60035490915061076f908363ffffffff61134816565b60035561077c83826113a9565b826001600160a01b031661078e6106de565b6001600160a01b03167f6faf93231a456e552dbc9961f58d9713ee4f2e69d15f1975b050ef0911053a7b8484604051808381526020018281526020019250505060405180910390a36107e08383610890565b6107e86113fd565b6107f28383610890565b50506000805460ff1916600117905550565b61080c611292565b600d54600e546040805163095ea7b360e01b81526001600160a01b039384166004820152602481019290925251929091169163095ea7b3916044808201926020929091908290030181600087803b15801561086657600080fd5b505af115801561087a573d6000803e3d6000fd5b505050506040513d602081101561089057600080fd5b5050565b600654421190565b60008060008060008060006108af610a0f565b6108b7611292565b6001600160a01b03166370a08231306040518263ffffffff1660e01b815260040180826001600160a01b03166001600160a01b0316815260200191505060206040518083038186803b15801561090c57600080fd5b505afa158015610920573d6000803e3d6000fd5b505050506040513d602081101561093657600080fd5b50516109413361108b565b33600090815260086020526040902054610959610a15565b610961610894565b6109696110b3565b959d949c50929a50909850965094509092509050565b60025490565b60045490565b60086020526000908152604090205481565b60008060008060008060008060006109b361097f565b6109bb610a09565b6109c3610985565b600e54600f546109d16111a3565b6109d9610ac2565b6109e1611292565b6109e9610d7c565b809050985098509850985098509850985098509850909192939495969798565b60095490565b60035490565b60006005544210158015610a2b57506006544211155b905090565b610a386110b3565b610a735760405162461bcd60e51b815260040180806020018281038252602e815260200180611c90602e913960400191505060405180910390fd5b610a7b6110a6565b610ab65760405162461bcd60e51b8152600401808060200182810382526031815260200180611d046031913960400191505060405180910390fd5b610abf81611414565b50565b60065490565b60075460ff1615610b0a5760405162461bcd60e51b8152600401808060200182810382526027815260200180611d8e6027913960400191505060405180910390fd5b610b12610894565b610b63576040805162461bcd60e51b815260206004820181905260248201527f46696e616c697a61626c6543726f776473616c653a206e6f7420636c6f736564604482015290519081900360640190fd5b6007805460ff19166001179055610b78611548565b6040517f9270cc390c096600a1c17c44345a1ba689fafd99d97487b10cfccf86cf73183690600090a1565b6000600454610bb0610a0f565b1015905090565b6000610bc1611292565b6001600160a01b03166370a08231306040518263ffffffff1660e01b815260040180826001600160a01b03166001600160a01b0316815260200191505060206040518083038186803b158015610c1657600080fd5b505afa158015610c2a573d6000803e3d6000fd5b505050506040513d6020811015610c4057600080fd5b505190508015610d6757600c54600160a01b900460ff1615610ccc576000610c66611292565b9050806001600160a01b03166342966c68836040518263ffffffff1660e01b815260040180828152602001915050600060405180830381600087803b158015610cae57600080fd5b505af1158015610cc2573d6000803e3d6000fd5b5050505050610d67565b610cd4611292565b6001600160a01b031663a9059cbb610cea610d7c565b836040518363ffffffff1660e01b815260040180836001600160a01b03166001600160a01b0316815260200182815260200192505050602060405180830381600087803b158015610d3a57600080fd5b505af1158015610d4e573d6000803e3d6000fd5b505050506040513d6020811015610d6457600080fd5b50505b610d6f610ba3565b15610abf57610abf6116c9565b6001546001600160a01b031690565b6000806000806000806000806000806000806000610da761097f565b610daf610a09565b610db7610985565b610dbf610a0f565b610dc76111a3565b610dcf610ac2565b610dd83361108b565b33600090815260086020526040902054610df0611292565b610df8610d7c565b610e00610a15565b610e08610894565b610e106110b3565b8393509c509c509c509c509c509c509c509c509c509c509c509c509c50909192939495969798999a9b9c565b6060806000806000806000806000610e52611292565b9050806001600160a01b031663370158ea6040518163ffffffff1660e01b815260040160006040518083038186803b158015610e8d57600080fd5b505afa158015610ea1573d6000803e3d6000fd5b505050506040513d6000823e601f3d908101601f19168201604052610100811015610ecb57600080fd5b8101908080516040519392919084640100000000821115610eeb57600080fd5b908301906020820185811115610f0057600080fd5b8251640100000000811182820188101715610f1a57600080fd5b82525081516020918201929091019080838360005b83811015610f47578181015183820152602001610f2f565b50505050905090810190601f168015610f745780820380516001836020036101000a031916815260200191505b5060405260200180516040519392919084640100000000821115610f9757600080fd5b908301906020820185811115610fac57600080fd5b8251640100000000811182820188101715610fc657600080fd5b82525081516020918201929091019080838360005b83811015610ff3578181015183820152602001610fdb565b50505050905090810190601f1680156110205780820380516001836020036101000a031916815260200191505b5060405260200180519060200190929190805190602001909291908051906020019092919080519060200190929190805190602001909291908051906020019092919050505098509850985098509850985098509850509091929394959697565b61108961170d565b565b6001600160a01b03166000908152600a602052604090205490565b6000600954610bb0610a0f565b60075460ff1690565b6110c4610894565b611115576040805162461bcd60e51b815260206004820152601f60248201527f526566756e6461626c6543726f776473616c653a206e6f7420636c6f73656400604482015290519081900360640190fd5b61111d6110a6565b156111595760405162461bcd60e51b8152600401808060200182810382526021815260200180611db56021913960400191505060405180910390fd5b3360008181526008602052604080822054905181156108fc0292818181858888f19350505050158015611190573d6000803e3d6000fd5b5033600090815260086020526040812055565b60055490565b600d54600f546001600160a01b039091169063f305d719906111c9611292565b600e546111dd81601463ffffffff61179d16565b600f546111f190601463ffffffff61179d16565b604080516001600160e01b031960e089901b1681526001600160a01b0390951660048601526024850193909352604484019190915260648301523060848301524260a48301525160c480830192606092919082900301818588803b15801561125857600080fd5b505af115801561126c573d6000803e3d6000fd5b50505050506040513d606081101561089057600080fd5b600d546001600160a01b031681565b60005461010090046001600160a01b031690565b6112ae610a15565b6112ff576040805162461bcd60e51b815260206004820152601860248201527f54696d656443726f776473616c653a206e6f74206f70656e0000000000000000604482015290519081900360640190fd5b61089082826117df565b60006113426ec097ce7bc90715b34b9f100000000061133661132961097f565b859063ffffffff61185716565b9063ffffffff61179d16565b92915050565b6000828201838110156113a2576040805162461bcd60e51b815260206004820152601b60248201527f536166654d6174683a206164646974696f6e206f766572666c6f770000000000604482015290519081900360640190fd5b9392505050565b6001600160a01b0382166000908152600a60205260409020546113d2908263ffffffff61134816565b6001600160a01b038084166000908152600a6020526040902091909155600b546108909116826118b0565b336000908152600860205260409020805434019055565b61141c610894565b6114575760405162461bcd60e51b8152600401808060200182810382526021815260200180611e006021913960400191505060405180910390fd5b6001600160a01b0381166000908152600a6020526040902054806114ac5760405162461bcd60e51b8152600401808060200182810382526038815260200180611d356038913960400191505060405180910390fd5b6001600160a01b038083166000908152600a6020526040812055600b541663beabacc86114d7611292565b604080516001600160e01b031960e085901b1681526001600160a01b03928316600482015291861660248301526044820185905251606480830192600092919082900301818387803b15801561152c57600080fd5b505af1158015611540573d6000803e3d6000fd5b505050505050565b611550611292565b600d54600e546040805163095ea7b360e01b81526001600160a01b039384166004820152602481019290925251929091169163095ea7b3916044808201926020929091908290030181600087803b1580156115aa57600080fd5b505af11580156115be573d6000803e3d6000fd5b505050506040513d60208110156115d457600080fd5b506115df9050610ba3565b156116c157600d54600f546001600160a01b039091169063f305d71990611604611292565b600e5461161881601463ffffffff61179d16565b600f5461162c90601463ffffffff61179d16565b604080516001600160e01b031960e089901b1681526001600160a01b0390951660048601526024850193909352604484019190915260648301523060848301524260a48301525160c480830192606092919082900301818588803b15801561169357600080fd5b505af11580156116a7573d6000803e3d6000fd5b50505050506040513d60608110156116be57600080fd5b50505b61108961197e565b600c546001600160a01b03166108fc6116e56064611336610a0f565b6040518115909202916000818181858888f19350505050158015610abf573d6000803e3d6000fd5b6117156110a6565b6117505760405162461bcd60e51b8152600401808060200182810382526025815260200180611cbe6025913960400191505060405180910390fd5b611758610d7c565b6001600160a01b03166108fc61176c611b52565b6040518115909202916000818181858888f19350505050158015611794573d6000803e3d6000fd5b50611089611089565b60006113a283836040518060400160405280601a81526020017f536166654d6174683a206469766973696f6e206279207a65726f000000000000815250611b56565b6117e98282611bf8565b600454611804826117f8610a0f565b9063ffffffff61134816565b1115610890576040805162461bcd60e51b815260206004820152601d60248201527f43617070656443726f776473616c653a20636170206578636565646564000000604482015290519081900360640190fd5b60008261186657506000611342565b8282028284828161187357fe5b04146113a25760405162461bcd60e51b8152600401808060200182810382526021815260200180611d6d6021913960400191505060405180910390fd5b6118b8611292565b6001600160a01b031663a9059cbb83836040518363ffffffff1660e01b815260040180836001600160a01b03166001600160a01b0316815260200182815260200192505050602060405180830381600087803b15801561191757600080fd5b505af115801561192b573d6000803e3d6000fd5b505050506040513d602081101561194157600080fd5b50516108905760405162461bcd60e51b8152600401808060200182810382526021815260200180611ce36021913960400191505060405180910390fd5b6000611988611292565b6001600160a01b03166370a08231306040518263ffffffff1660e01b815260040180826001600160a01b03166001600160a01b0316815260200191505060206040518083038186803b1580156119dd57600080fd5b505afa1580156119f1573d6000803e3d6000fd5b505050506040513d6020811015611a0757600080fd5b5051600c54909150600160a01b900460ff168015611a255750600081115b15611a9a576000611a34611292565b9050806001600160a01b03166342966c68836040518263ffffffff1660e01b815260040180828152602001915050600060405180830381600087803b158015611a7c57600080fd5b505af1158015611a90573d6000803e3d6000fd5b5050505050611b35565b611aa2611292565b6001600160a01b031663a9059cbb611ab8610d7c565b836040518363ffffffff1660e01b815260040180836001600160a01b03166001600160a01b0316815260200182815260200192505050602060405180830381600087803b158015611b0857600080fd5b505af1158015611b1c573d6000803e3d6000fd5b505050506040513d6020811015611b3257600080fd5b50505b611b3d610ba3565b15610abf57611b4a6116c9565b610abf61170d565b4790565b60008183611be25760405162461bcd60e51b81526004018080602001828103825283818151815260200191508051906020019080838360005b83811015611ba7578181015183820152602001611b8f565b50505050905090810190601f168015611bd45780820380516001836020036101000a031916815260200191505b509250505060405180910390fd5b506000838581611bee57fe5b0495945050505050565b6001600160a01b038216611c3d5760405162461bcd60e51b815260040180806020018281038252602a815260200180611dd6602a913960400191505060405180910390fd5b80610890576040805162461bcd60e51b815260206004820152601960248201527f43726f776473616c653a20776569416d6f756e74206973203000000000000000604482015290519081900360640190fdfe526566756e6461626c65506f737444656c697665727943726f776473616c653a206e6f742066696e616c697a6564526566756e6461626c6543726f776473616c653a20676f616c206e6f742072656163686564546f6b656e5472616e736665722063616c6c2072657475726e65642066616c7365526566756e6461626c65506f737444656c697665727943726f776473616c653a20676f616c206e6f742072656163686564506f737444656c697665727943726f776473616c653a2062656e6566696369617279206973206e6f742064756520616e7920746f6b656e73536166654d6174683a206d756c7469706c69636174696f6e206f766572666c6f7746696e616c697a61626c6543726f776473616c653a20616c72656164792066696e616c697a6564526566756e6461626c6543726f776473616c653a20676f616c207265616368656443726f776473616c653a2062656e656669636961727920697320746865207a65726f2061646472657373506f737444656c697665727943726f776473616c653a206e6f7420636c6f736564a265627a7a72315820ee63fc5b192af34b2715e422c29acf85dfc7e20b0500d829d1463c7bdc3b684e64736f6c63430005110032608060405260006100176001600160e01b0361007216565b600080546001600160a01b0383166001600160a01b0319909116811790915560408051918252519192507f4101e71e974f68df5e9730cc223280b41654676bbb052cdcc735c3337e64d2d9919081900360200190a150610076565b3390565b610342806100856000396000f3fe608060405234801561001057600080fd5b50600436106100415760003560e01c80632348238c14610046578063beabacc81461006e578063c6dbdf61146100a4575b600080fd5b61006c6004803603602081101561005c57600080fd5b50356001600160a01b03166100c8565b005b61006c6004803603606081101561008457600080fd5b506001600160a01b038135811691602081013590911690604001356101ba565b6100ac6102a4565b604080516001600160a01b039092168252519081900360200190f35b6000546001600160a01b03166100dc6102b3565b6001600160a01b0316146101215760405162461bcd60e51b815260040180806020018281038252602c8152602001806102e2602c913960400191505060405180910390fd5b6001600160a01b0381166101665760405162461bcd60e51b815260040180806020018281038252602a8152602001806102b8602a913960400191505060405180910390fd5b600080546001600160a01b0383166001600160a01b0319909116811790915560408051918252517f4101e71e974f68df5e9730cc223280b41654676bbb052cdcc735c3337e64d2d99181900360200190a150565b6000546001600160a01b03166101ce6102b3565b6001600160a01b0316146102135760405162461bcd60e51b815260040180806020018281038252602c8152602001806102e2602c913960400191505060405180910390fd5b826001600160a01b031663a9059cbb83836040518363ffffffff1660e01b815260040180836001600160a01b03166001600160a01b0316815260200182815260200192505050602060405180830381600087803b15801561027357600080fd5b505af1158015610287573d6000803e3d6000fd5b505050506040513d602081101561029d57600080fd5b5050505050565b6000546001600160a01b031690565b339056fe5365636f6e646172793a206e6577207072696d61727920697320746865207a65726f20616464726573735365636f6e646172793a2063616c6c6572206973206e6f7420746865207072696d617279206163636f756e74a265627a7a72315820e48104ff1248b93128cd469c88121ef952c96363ddcea86379d0abcb79e06f3864736f6c6343000511003254696d656443726f776473616c653a206f70656e696e672074696d65206973206265666f72652063757272656e742074696d6554696d656443726f776473616c653a206f70656e696e672074696d65206973206e6f74206265666f726520636c6f73696e672074696d6543726f776473616c653a20746f6b656e20697320746865207a65726f206164647265737343726f776473616c653a2077616c6c657420697320746865207a65726f2061646472657373",
  "source": "pragma solidity ^0.5;\n\nimport \"./SimpleTokenSale.sol\";\nimport \"./IPancakeRouter.sol\";\n\n\n// @TODO: Inherit the crowdsale contracts\ncontract LiquidityBackedTokenSale is SimpleTokenSale {\n  using SafeMath for uint256;\n  IPancakeRouter02  public router;\n  uint256 liquidityTokens;\n  uint256 liquidityEth;\n  uint256 shouldBurn;\n  constructor(\n    uint rate, // rate in TKNbits\n    IERC20 token, // token\n    address payable wallet, // company's fundraising wallet that holds ETH sent from users\n    uint256 softCap, // goal of the crowdsale\n    uint256 hardCap,\n    uint256 _liquidityTokens,\n    uint256 _liquidityEth,\n    uint256 _openingTime, // testing: uint fakenow\n    uint256 closingTime, // testing: closingTime = fakenow + 2 minutes\n    IPancakeRouter02 pancakeRouter,\n    bool _shouldBurn\n  ) public SimpleTokenSale(rate, token, wallet, softCap, hardCap, _openingTime, closingTime,_shouldBurn)\n  {\n    router = pancakeRouter;\n    liquidityTokens=_liquidityTokens;\n    liquidityEth=_liquidityEth;\n\n  }\n\n  function info() public view returns(uint256,uint256,uint256,uint256,uint256,uint256,uint256,address,address){\n    return (rate(),goal(),cap(),liquidityTokens,liquidityEth,openingTime(),closingTime(),address(token()),wallet());\n  }\n  function status()public view returns (uint256,uint256,uint256,uint256,bool,bool,bool){\n      return (weiRaised(),token().balanceOf(address(this)),balanceOf(msg.sender),lockedEthers[msg.sender],isOpen(),hasClosed(),finalized());\n  }\n\n  function approve()public{\n    token().approve(address(router), liquidityTokens);\n  }\n  function addLiquidity() public{\n    router.addLiquidityETH.value(liquidityEth)(\n      address(token()), // tokenAddress\n      liquidityTokens, // token to add in liquidityPool\n      liquidityTokens.div(20), // tokenAmount min\n      liquidityEth.div(20), // etheramount min\n      address(this), // liquidity beneficiary\n      block.timestamp         // deadline is right on this block.\n    );\n\n  }\n\n  function _finalization() internal {\n    token().approve(address(router), liquidityTokens);\n    if(capReached()){\n      router.addLiquidityETH.value(liquidityEth)(\n        address(token()), // tokenAddress\n        liquidityTokens, // token to add in liquidityPool\n        liquidityTokens.div(20), // tokenAmount min\n        liquidityEth.div(20), // etheramount min\n        address(this), // liquidity beneficiary\n        block.timestamp         // deadline is right on this block.\n      );\n    }\n    super._finalization();\n  }\n\n}\n",
  "sourcePath": "/Users/sudipbhattarai/Documents/erc20-tokensale-gen/solidity-contracts/LiquidityBackedTokenSale.sol",
  "compiler": {
    "name": "solc",
    "version": "0.5.17+commit.d19bba13.Emscripten.clang"
  },
  "schemaVersion": "3.4.3",
  "updatedAt": "2022-02-06T18:13:26.064Z",
  "devdoc": {
    "methods": {
      "balanceOf(address)": {
        "return": "the balance of an account."
      },
      "buyTokens(address)": {
        "details": "low level token purchase ***DO NOT OVERRIDE*** This function has a non-reentrancy guard, so it shouldn't be called by another `nonReentrant` function.",
        "params": {
          "beneficiary": "Recipient of the token purchase"
        }
      },
      "cap()": {
        "return": "the cap of the crowdsale."
      },
      "capReached()": {
        "details": "Checks whether the cap has been reached.",
        "return": "Whether the cap was reached"
      },
      "claimRefund()": {
        "details": "Investors can claim refunds here if crowdsale is unsuccessful."
      },
      "closingTime()": {
        "return": "the crowdsale closing time."
      },
      "finalize()": {
        "details": "Must be called after crowdsale ends, to do some extra finalization work. Calls the contract's finalization function."
      },
      "finalized()": {
        "return": "true if the crowdsale is finalized, false otherwise."
      },
      "goal()": {
        "return": "minimum amount of funds to be raised in wei."
      },
      "goalReached()": {
        "details": "Checks whether funding goal was reached.",
        "return": "Whether funding goal was reached"
      },
      "hasClosed()": {
        "details": "Checks whether the period in which the crowdsale is open has already elapsed.",
        "return": "Whether crowdsale period has elapsed"
      },
      "isOpen()": {
        "return": "true if the crowdsale is open, false otherwise."
      },
      "openingTime()": {
        "return": "the crowdsale opening time."
      },
      "rate()": {
        "return": "the number of token units a buyer gets per wei."
      },
      "token()": {
        "return": "the token being sold."
      },
      "wallet()": {
        "return": "the address where funds are collected."
      },
      "weiRaised()": {
        "return": "the amount of wei raised."
      }
    }
  },
  "userdoc": {
    "methods": {}
  }
}