{
  "contractName": "MinterRoleMock",
  "abi": [
    {
      "anonymous": false,
      "inputs": [
        {
          "indexed": true,
          "internalType": "address",
          "name": "account",
          "type": "address"
        }
      ],
      "name": "MinterAdded",
      "type": "event"
    },
    {
      "anonymous": false,
      "inputs": [
        {
          "indexed": true,
          "internalType": "address",
          "name": "account",
          "type": "address"
        }
      ],
      "name": "MinterRemoved",
      "type": "event"
    },
    {
      "constant": false,
      "inputs": [
        {
          "internalType": "address",
          "name": "account",
          "type": "address"
        }
      ],
      "name": "addMinter",
      "outputs": [],
      "payable": false,
      "stateMutability": "nonpayable",
      "type": "function"
    },
    {
      "constant": true,
      "inputs": [
        {
          "internalType": "address",
          "name": "account",
          "type": "address"
        }
      ],
      "name": "isMinter",
      "outputs": [
        {
          "internalType": "bool",
          "name": "",
          "type": "bool"
        }
      ],
      "payable": false,
      "stateMutability": "view",
      "type": "function"
    },
    {
      "constant": false,
      "inputs": [],
      "name": "renounceMinter",
      "outputs": [],
      "payable": false,
      "stateMutability": "nonpayable",
      "type": "function"
    },
    {
      "constant": false,
      "inputs": [
        {
          "internalType": "address",
          "name": "account",
          "type": "address"
        }
      ],
      "name": "removeMinter",
      "outputs": [],
      "payable": false,
      "stateMutability": "nonpayable",
      "type": "function"
    },
    {
      "constant": true,
      "inputs": [],
      "name": "onlyMinterMock",
      "outputs": [],
      "payable": false,
      "stateMutability": "view",
      "type": "function"
    }
  ],
  "bytecode": "0x6080604052610016326001600160e01b0361001b16565b61015b565b61003381600061006a60201b6102c81790919060201c565b6040516001600160a01b038216907f6ae172837ea30b801fbfcdd4108aa1d5bf8ff775444fd70256b44e6bf3dfc3f690600090a250565b61007d82826001600160e01b036100f416565b156100cf576040805162461bcd60e51b815260206004820152601f60248201527f526f6c65733a206163636f756e7420616c72656164792068617320726f6c6500604482015290519081900360640190fd5b6001600160a01b0316600090815260209190915260409020805460ff19166001179055565b60006001600160a01b03821661013b5760405162461bcd60e51b81526004018080602001828103825260228152602001806105c26022913960400191505060405180910390fd5b506001600160a01b03166000908152602091909152604090205460ff1690565b6104588061016a6000396000f3fe608060405234801561001057600080fd5b50600436106100575760003560e01c80633092afd51461005c578063983b2d561461008457806398650275146100aa578063aa271e1a146100b2578063b5dba35b146100ec575b600080fd5b6100826004803603602081101561007257600080fd5b50356001600160a01b03166100f4565b005b6100826004803603602081101561009a57600080fd5b50356001600160a01b0316610100565b610082610154565b6100d8600480360360208110156100c857600080fd5b50356001600160a01b0316610166565b604080519115158252519081900360200190f35b61008261017e565b6100fd816101c4565b50565b61011061010b6101cd565b610166565b61014b5760405162461bcd60e51b81526004018080602001828103825260308152602001806103b16030913960400191505060405180910390fd5b6100fd816101d1565b61016461015f6101cd565b6101c4565b565b6000610178818363ffffffff61021916565b92915050565b61018961010b6101cd565b6101645760405162461bcd60e51b81526004018080602001828103825260308152602001806103b16030913960400191505060405180910390fd5b6100fd81610280565b3390565b6101e260008263ffffffff6102c816565b6040516001600160a01b038216907f6ae172837ea30b801fbfcdd4108aa1d5bf8ff775444fd70256b44e6bf3dfc3f690600090a250565b60006001600160a01b0382166102605760405162461bcd60e51b81526004018080602001828103825260228152602001806104026022913960400191505060405180910390fd5b506001600160a01b03166000908152602091909152604090205460ff1690565b61029160008263ffffffff61034916565b6040516001600160a01b038216907fe94479a9f7e1952cc78f2d6baab678adc1b772d936c6583def489e524cb6669290600090a250565b6102d28282610219565b15610324576040805162461bcd60e51b815260206004820152601f60248201527f526f6c65733a206163636f756e7420616c72656164792068617320726f6c6500604482015290519081900360640190fd5b6001600160a01b0316600090815260209190915260409020805460ff19166001179055565b6103538282610219565b61038e5760405162461bcd60e51b81526004018080602001828103825260218152602001806103e16021913960400191505060405180910390fd5b6001600160a01b0316600090815260209190915260409020805460ff1916905556fe4d696e746572526f6c653a2063616c6c657220646f6573206e6f74206861766520746865204d696e74657220726f6c65526f6c65733a206163636f756e7420646f6573206e6f74206861766520726f6c65526f6c65733a206163636f756e7420697320746865207a65726f2061646472657373a265627a7a72315820d3957c4236f6bf53b8651953853e5bfa556b5f23bbb5706114da39c53c9934b464736f6c63430005110032526f6c65733a206163636f756e7420697320746865207a65726f2061646472657373",
  "source": "pragma solidity ^0.5.0;\n\nimport \"../access/roles/MinterRole.sol\";\n\ncontract MinterRoleMock is MinterRole {\n    function removeMinter(address account) public {\n        _removeMinter(account);\n    }\n\n    function onlyMinterMock() public view onlyMinter {\n        // solhint-disable-previous-line no-empty-blocks\n    }\n\n    // Causes a compilation error if super._removeMinter is not internal\n    function _removeMinter(address account) internal {\n        super._removeMinter(account);\n    }\n}\n",
  "sourcePath": "/Users/sudipbhattarai/Documents/erc20-tokensale-gen/solidity-contracts/openzeppelin-contracts-v2.5/mocks/MinterRoleMock.sol",
  "compiler": {
    "name": "solc",
    "version": "0.5.17+commit.d19bba13.Emscripten.clang"
  },
  "schemaVersion": "3.4.3",
  "updatedAt": "2022-02-06T18:13:26.167Z",
  "devdoc": {
    "methods": {}
  },
  "userdoc": {
    "methods": {}
  }
}