{
  "contractName": "PausableCrowdsaleImpl",
  "abi": [
    {
      "inputs": [
        {
          "internalType": "uint256",
          "name": "_rate",
          "type": "uint256"
        },
        {
          "internalType": "address payable",
          "name": "_wallet",
          "type": "address"
        },
        {
          "internalType": "contract ERC20",
          "name": "_token",
          "type": "address"
        }
      ],
      "payable": false,
      "stateMutability": "nonpayable",
      "type": "constructor"
    },
    {
      "anonymous": false,
      "inputs": [
        {
          "indexed": false,
          "internalType": "address",
          "name": "account",
          "type": "address"
        }
      ],
      "name": "Paused",
      "type": "event"
    },
    {
      "anonymous": false,
      "inputs": [
        {
          "indexed": true,
          "internalType": "address",
          "name": "account",
          "type": "address"
        }
      ],
      "name": "PauserAdded",
      "type": "event"
    },
    {
      "anonymous": false,
      "inputs": [
        {
          "indexed": true,
          "internalType": "address",
          "name": "account",
          "type": "address"
        }
      ],
      "name": "PauserRemoved",
      "type": "event"
    },
    {
      "anonymous": false,
      "inputs": [
        {
          "indexed": true,
          "internalType": "address",
          "name": "purchaser",
          "type": "address"
        },
        {
          "indexed": true,
          "internalType": "address",
          "name": "beneficiary",
          "type": "address"
        },
        {
          "indexed": false,
          "internalType": "uint256",
          "name": "value",
          "type": "uint256"
        },
        {
          "indexed": false,
          "internalType": "uint256",
          "name": "amount",
          "type": "uint256"
        }
      ],
      "name": "TokensPurchased",
      "type": "event"
    },
    {
      "anonymous": false,
      "inputs": [
        {
          "indexed": false,
          "internalType": "address",
          "name": "account",
          "type": "address"
        }
      ],
      "name": "Unpaused",
      "type": "event"
    },
    {
      "payable": true,
      "stateMutability": "payable",
      "type": "fallback"
    },
    {
      "constant": false,
      "inputs": [
        {
          "internalType": "address",
          "name": "account",
          "type": "address"
        }
      ],
      "name": "addPauser",
      "outputs": [],
      "payable": false,
      "stateMutability": "nonpayable",
      "type": "function"
    },
    {
      "constant": false,
      "inputs": [
        {
          "internalType": "address",
          "name": "beneficiary",
          "type": "address"
        }
      ],
      "name": "buyTokens",
      "outputs": [],
      "payable": true,
      "stateMutability": "payable",
      "type": "function"
    },
    {
      "constant": true,
      "inputs": [
        {
          "internalType": "address",
          "name": "account",
          "type": "address"
        }
      ],
      "name": "isPauser",
      "outputs": [
        {
          "internalType": "bool",
          "name": "",
          "type": "bool"
        }
      ],
      "payable": false,
      "stateMutability": "view",
      "type": "function"
    },
    {
      "constant": false,
      "inputs": [],
      "name": "pause",
      "outputs": [],
      "payable": false,
      "stateMutability": "nonpayable",
      "type": "function"
    },
    {
      "constant": true,
      "inputs": [],
      "name": "paused",
      "outputs": [
        {
          "internalType": "bool",
          "name": "",
          "type": "bool"
        }
      ],
      "payable": false,
      "stateMutability": "view",
      "type": "function"
    },
    {
      "constant": true,
      "inputs": [],
      "name": "rate",
      "outputs": [
        {
          "internalType": "uint256",
          "name": "",
          "type": "uint256"
        }
      ],
      "payable": false,
      "stateMutability": "view",
      "type": "function"
    },
    {
      "constant": false,
      "inputs": [],
      "name": "renouncePauser",
      "outputs": [],
      "payable": false,
      "stateMutability": "nonpayable",
      "type": "function"
    },
    {
      "constant": true,
      "inputs": [],
      "name": "token",
      "outputs": [
        {
          "internalType": "contract IERC20",
          "name": "",
          "type": "address"
        }
      ],
      "payable": false,
      "stateMutability": "view",
      "type": "function"
    },
    {
      "constant": false,
      "inputs": [],
      "name": "unpause",
      "outputs": [],
      "payable": false,
      "stateMutability": "nonpayable",
      "type": "function"
    },
    {
      "constant": true,
      "inputs": [],
      "name": "wallet",
      "outputs": [
        {
          "internalType": "address payable",
          "name": "",
          "type": "address"
        }
      ],
      "payable": false,
      "stateMutability": "view",
      "type": "function"
    },
    {
      "constant": true,
      "inputs": [],
      "name": "weiRaised",
      "outputs": [
        {
          "internalType": "uint256",
          "name": "",
          "type": "uint256"
        }
      ],
      "payable": false,
      "stateMutability": "view",
      "type": "function"
    }
  ],
  "bytecode": "0x608060405234801561001057600080fd5b506040516200107b3803806200107b8339818101604052606081101561003557600080fd5b50805160208201516040909201516000805460ff19166001179055909190828282826100a8576040805162461bcd60e51b815260206004820152601460248201527f43726f776473616c653a20726174652069732030000000000000000000000000604482015290519081900360640190fd5b6001600160a01b0382166100ee5760405162461bcd60e51b8152600401808060200182810382526025815260200180620010566025913960400191505060405180910390fd5b6001600160a01b0381166101345760405162461bcd60e51b8152600401808060200182810382526024815260200180620010106024913960400191505060405180910390fd5b600292909255600180546001600160a01b039283166001600160a01b0319909116179055600080549190921661010002610100600160a81b031990911617905561018d61017f61019f565b6001600160e01b036101a316565b50506005805460ff19169055506102e4565b3390565b6101bb8160046101f260201b61092d1790919060201c565b6040516001600160a01b038216907f6719d08c1888103bea251a4ed56406bd0c3e69723c8a1686e017e7bbe159b6f890600090a250565b61020582826001600160e01b0361027c16565b15610257576040805162461bcd60e51b815260206004820152601f60248201527f526f6c65733a206163636f756e7420616c72656164792068617320726f6c6500604482015290519081900360640190fd5b6001600160a01b0316600090815260209190915260409020805460ff19166001179055565b60006001600160a01b0382166102c45760405162461bcd60e51b8152600401808060200182810382526022815260200180620010346022913960400191505060405180910390fd5b506001600160a01b03166000908152602091909152604090205460ff1690565b610d1c80620002f46000396000f3fe60806040526004361061009c5760003560e01c80635c975abb116100645780635c975abb146101775780636ef8d66d1461018c57806382dc1ec4146101a15780638456cb59146101d4578063ec8ac4d8146101e9578063fc0c546a1461020f5761009c565b80632c4e722e146100ae5780633f4ba83a146100d55780634042b66f146100ea57806346fbf68e146100ff578063521eb27314610146575b6100ac6100a7610224565b610228565b005b3480156100ba57600080fd5b506100c361034a565b60408051918252519081900360200190f35b3480156100e157600080fd5b506100ac610350565b3480156100f657600080fd5b506100c3610439565b34801561010b57600080fd5b506101326004803603602081101561012257600080fd5b50356001600160a01b031661043f565b604080519115158252519081900360200190f35b34801561015257600080fd5b5061015b610458565b604080516001600160a01b039092168252519081900360200190f35b34801561018357600080fd5b50610132610467565b34801561019857600080fd5b506100ac610470565b3480156101ad57600080fd5b506100ac600480360360208110156101c457600080fd5b50356001600160a01b0316610482565b3480156101e057600080fd5b506100ac6104d4565b6100ac600480360360208110156101ff57600080fd5b50356001600160a01b0316610228565b34801561021b57600080fd5b5061015b61059b565b3390565b60005460ff1661027f576040805162461bcd60e51b815260206004820152601f60248201527f5265656e7472616e637947756172643a207265656e7472616e742063616c6c00604482015290519081900360640190fd5b6000805460ff191690553461029482826105af565b600061029f82610608565b6003549091506102b5908363ffffffff61061f16565b6003556102c28382610680565b826001600160a01b03166102d4610224565b6001600160a01b03167f6faf93231a456e552dbc9961f58d9713ee4f2e69d15f1975b050ef0911053a7b8484604051808381526020018281526020019250505060405180910390a36103268383610604565b61032e61068a565b6103388383610604565b50506000805460ff1916600117905550565b60025490565b61036061035b610224565b61043f565b61039b5760405162461bcd60e51b8152600401808060200182810382526030815260200180610c006030913960400191505060405180910390fd5b60055460ff166103e9576040805162461bcd60e51b815260206004820152601460248201527314185d5cd8589b194e881b9bdd081c185d5cd95960621b604482015290519081900360640190fd5b6005805460ff191690557f5db9ee0a495bf2e6ff9c91a7834c1ba4fdd244a5e8aa4e537bd38aeae4b073aa61041c610224565b604080516001600160a01b039092168252519081900360200190a1565b60035490565b600061045260048363ffffffff6106c316565b92915050565b6001546001600160a01b031690565b60055460ff1690565b61048061047b610224565b61072a565b565b61048d61035b610224565b6104c85760405162461bcd60e51b8152600401808060200182810382526030815260200180610c006030913960400191505060405180910390fd5b6104d181610772565b50565b6104df61035b610224565b61051a5760405162461bcd60e51b8152600401808060200182810382526030815260200180610c006030913960400191505060405180910390fd5b60055460ff1615610565576040805162461bcd60e51b815260206004820152601060248201526f14185d5cd8589b194e881c185d5cd95960821b604482015290519081900360640190fd5b6005805460ff191660011790557f62e78cea01bee320cd4e420270b5ea74000d11b0c9f74754ebdbfc544b05a25861041c610224565b60005461010090046001600160a01b031690565b60055460ff16156105fa576040805162461bcd60e51b815260206004820152601060248201526f14185d5cd8589b194e881c185d5cd95960821b604482015290519081900360640190fd5b61060482826107ba565b5050565b60006104526002548361085190919063ffffffff16565b600082820183811015610679576040805162461bcd60e51b815260206004820152601b60248201527f536166654d6174683a206164646974696f6e206f766572666c6f770000000000604482015290519081900360640190fd5b9392505050565b61060482826108aa565b6001546040516001600160a01b03909116903480156108fc02916000818181858888f193505050501580156104d1573d6000803e3d6000fd5b60006001600160a01b03821661070a5760405162461bcd60e51b8152600401808060200182810382526022815260200180610c726022913960400191505060405180910390fd5b506001600160a01b03166000908152602091909152604090205460ff1690565b61073b60048263ffffffff6108c616565b6040516001600160a01b038216907fcd265ebaf09df2871cc7bd4133404a235ba12eff2041bb89d9c714a2621c7c7e90600090a250565b61078360048263ffffffff61092d16565b6040516001600160a01b038216907f6719d08c1888103bea251a4ed56406bd0c3e69723c8a1686e017e7bbe159b6f890600090a250565b6001600160a01b0382166107ff5760405162461bcd60e51b815260040180806020018281038252602a815260200180610c94602a913960400191505060405180910390fd5b80610604576040805162461bcd60e51b815260206004820152601960248201527f43726f776473616c653a20776569416d6f756e74206973203000000000000000604482015290519081900360640190fd5b60008261086057506000610452565b8282028284828161086d57fe5b04146106795760405162461bcd60e51b8152600401808060200182810382526021815260200180610c516021913960400191505060405180910390fd5b6000546106049061010090046001600160a01b031683836109ae565b6108d082826106c3565b61090b5760405162461bcd60e51b8152600401808060200182810382526021815260200180610c306021913960400191505060405180910390fd5b6001600160a01b0316600090815260209190915260409020805460ff19169055565b61093782826106c3565b15610989576040805162461bcd60e51b815260206004820152601f60248201527f526f6c65733a206163636f756e7420616c72656164792068617320726f6c6500604482015290519081900360640190fd5b6001600160a01b0316600090815260209190915260409020805460ff19166001179055565b604080516001600160a01b038416602482015260448082018490528251808303909101815260649091019091526020810180516001600160e01b031663a9059cbb60e01b179052610a00908490610a05565b505050565b610a17826001600160a01b0316610bc3565b610a68576040805162461bcd60e51b815260206004820152601f60248201527f5361666545524332303a2063616c6c20746f206e6f6e2d636f6e747261637400604482015290519081900360640190fd5b60006060836001600160a01b0316836040518082805190602001908083835b60208310610aa65780518252601f199092019160209182019101610a87565b6001836020036101000a0380198251168184511680821785525050505050509050019150506000604051808303816000865af19150503d8060008114610b08576040519150601f19603f3d011682016040523d82523d6000602084013e610b0d565b606091505b509150915081610b64576040805162461bcd60e51b815260206004820181905260248201527f5361666545524332303a206c6f772d6c6576656c2063616c6c206661696c6564604482015290519081900360640190fd5b805115610bbd57808060200190516020811015610b8057600080fd5b5051610bbd5760405162461bcd60e51b815260040180806020018281038252602a815260200180610cbe602a913960400191505060405180910390fd5b50505050565b6000813f7fc5d2460186f7233c927e7db2dcc703c0e500b653ca82273b7bfad8045d85a470818114801590610bf757508115155b94935050505056fe506175736572526f6c653a2063616c6c657220646f6573206e6f742068617665207468652050617573657220726f6c65526f6c65733a206163636f756e7420646f6573206e6f74206861766520726f6c65536166654d6174683a206d756c7469706c69636174696f6e206f766572666c6f77526f6c65733a206163636f756e7420697320746865207a65726f206164647265737343726f776473616c653a2062656e656669636961727920697320746865207a65726f20616464726573735361666545524332303a204552433230206f7065726174696f6e20646964206e6f742073756363656564a265627a7a723158209c932903cdbe9fe48e71d8574a146966223d0bd2c47098ad174e06be8f0c073a64736f6c6343000511003243726f776473616c653a20746f6b656e20697320746865207a65726f2061646472657373526f6c65733a206163636f756e7420697320746865207a65726f206164647265737343726f776473616c653a2077616c6c657420697320746865207a65726f2061646472657373",
  "source": "pragma solidity ^0.5.0;\n\nimport \"../token/ERC20/ERC20.sol\";\nimport \"../crowdsale/validation/PausableCrowdsale.sol\";\n\ncontract PausableCrowdsaleImpl is PausableCrowdsale {\n    constructor (uint256 _rate, address payable _wallet, ERC20 _token) public Crowdsale(_rate, _wallet, _token) {\n        // solhint-disable-previous-line no-empty-blocks\n    }\n}\n",
  "sourcePath": "/Users/sudipbhattarai/Documents/erc20-tokensale-gen/solidity-contracts/openzeppelin-contracts-v2.5/mocks/PausableCrowdsaleImpl.sol",
  "compiler": {
    "name": "solc",
    "version": "0.5.17+commit.d19bba13.Emscripten.clang"
  },
  "schemaVersion": "3.4.3",
  "updatedAt": "2022-02-06T18:13:26.168Z",
  "devdoc": {
    "methods": {
      "buyTokens(address)": {
        "details": "low level token purchase ***DO NOT OVERRIDE*** This function has a non-reentrancy guard, so it shouldn't be called by another `nonReentrant` function.",
        "params": {
          "beneficiary": "Recipient of the token purchase"
        }
      },
      "pause()": {
        "details": "Called by a pauser to pause, triggers stopped state."
      },
      "paused()": {
        "details": "Returns true if the contract is paused, and false otherwise."
      },
      "rate()": {
        "return": "the number of token units a buyer gets per wei."
      },
      "token()": {
        "return": "the token being sold."
      },
      "unpause()": {
        "details": "Called by a pauser to unpause, returns to normal state."
      },
      "wallet()": {
        "return": "the address where funds are collected."
      },
      "weiRaised()": {
        "return": "the amount of wei raised."
      }
    }
  },
  "userdoc": {
    "methods": {}
  }
}