{
  "contractName": "PauserRoleMock",
  "abi": [
    {
      "anonymous": false,
      "inputs": [
        {
          "indexed": true,
          "internalType": "address",
          "name": "account",
          "type": "address"
        }
      ],
      "name": "PauserAdded",
      "type": "event"
    },
    {
      "anonymous": false,
      "inputs": [
        {
          "indexed": true,
          "internalType": "address",
          "name": "account",
          "type": "address"
        }
      ],
      "name": "PauserRemoved",
      "type": "event"
    },
    {
      "constant": false,
      "inputs": [
        {
          "internalType": "address",
          "name": "account",
          "type": "address"
        }
      ],
      "name": "addPauser",
      "outputs": [],
      "payable": false,
      "stateMutability": "nonpayable",
      "type": "function"
    },
    {
      "constant": true,
      "inputs": [
        {
          "internalType": "address",
          "name": "account",
          "type": "address"
        }
      ],
      "name": "isPauser",
      "outputs": [
        {
          "internalType": "bool",
          "name": "",
          "type": "bool"
        }
      ],
      "payable": false,
      "stateMutability": "view",
      "type": "function"
    },
    {
      "constant": false,
      "inputs": [],
      "name": "renouncePauser",
      "outputs": [],
      "payable": false,
      "stateMutability": "nonpayable",
      "type": "function"
    },
    {
      "constant": false,
      "inputs": [
        {
          "internalType": "address",
          "name": "account",
          "type": "address"
        }
      ],
      "name": "removePauser",
      "outputs": [],
      "payable": false,
      "stateMutability": "nonpayable",
      "type": "function"
    },
    {
      "constant": true,
      "inputs": [],
      "name": "onlyPauserMock",
      "outputs": [],
      "payable": false,
      "stateMutability": "view",
      "type": "function"
    }
  ],
  "bytecode": "0x60806040526100266100186001600160e01b0361002b16565b6001600160e01b0361002f16565b61016f565b3390565b61004781600061007e60201b6102c81790919060201c565b6040516001600160a01b038216907f6719d08c1888103bea251a4ed56406bd0c3e69723c8a1686e017e7bbe159b6f890600090a250565b61009182826001600160e01b0361010816565b156100e3576040805162461bcd60e51b815260206004820152601f60248201527f526f6c65733a206163636f756e7420616c72656164792068617320726f6c6500604482015290519081900360640190fd5b6001600160a01b0316600090815260209190915260409020805460ff19166001179055565b60006001600160a01b03821661014f5760405162461bcd60e51b81526004018080602001828103825260228152602001806105d66022913960400191505060405180910390fd5b506001600160a01b03166000908152602091909152604090205460ff1690565b6104588061017e6000396000f3fe608060405234801561001057600080fd5b50600436106100575760003560e01c8063329daf901461005c57806346fbf68e146100665780636b2c0f55146100a05780636ef8d66d146100c657806382dc1ec4146100ce575b600080fd5b6100646100f4565b005b61008c6004803603602081101561007c57600080fd5b50356001600160a01b0316610141565b604080519115158252519081900360200190f35b610064600480360360208110156100b657600080fd5b50356001600160a01b0316610159565b610064610165565b610064600480360360208110156100e457600080fd5b50356001600160a01b0316610175565b6101046100ff6101c4565b610141565b61013f5760405162461bcd60e51b81526004018080602001828103825260308152602001806103b16030913960400191505060405180910390fd5b565b6000610153818363ffffffff6101c816565b92915050565b6101628161022f565b50565b61013f6101706101c4565b61022f565b6101806100ff6101c4565b6101bb5760405162461bcd60e51b81526004018080602001828103825260308152602001806103b16030913960400191505060405180910390fd5b61016281610238565b3390565b60006001600160a01b03821661020f5760405162461bcd60e51b81526004018080602001828103825260228152602001806104026022913960400191505060405180910390fd5b506001600160a01b03166000908152602091909152604090205460ff1690565b61016281610280565b61024960008263ffffffff6102c816565b6040516001600160a01b038216907f6719d08c1888103bea251a4ed56406bd0c3e69723c8a1686e017e7bbe159b6f890600090a250565b61029160008263ffffffff61034916565b6040516001600160a01b038216907fcd265ebaf09df2871cc7bd4133404a235ba12eff2041bb89d9c714a2621c7c7e90600090a250565b6102d282826101c8565b15610324576040805162461bcd60e51b815260206004820152601f60248201527f526f6c65733a206163636f756e7420616c72656164792068617320726f6c6500604482015290519081900360640190fd5b6001600160a01b0316600090815260209190915260409020805460ff19166001179055565b61035382826101c8565b61038e5760405162461bcd60e51b81526004018080602001828103825260218152602001806103e16021913960400191505060405180910390fd5b6001600160a01b0316600090815260209190915260409020805460ff1916905556fe506175736572526f6c653a2063616c6c657220646f6573206e6f742068617665207468652050617573657220726f6c65526f6c65733a206163636f756e7420646f6573206e6f74206861766520726f6c65526f6c65733a206163636f756e7420697320746865207a65726f2061646472657373a265627a7a72315820092ffc16b42c017bbc87d90627fbd82a09358430ace6ef3ac5bb780955dd6d6f64736f6c63430005110032526f6c65733a206163636f756e7420697320746865207a65726f2061646472657373",
  "source": "pragma solidity ^0.5.0;\n\nimport \"../access/roles/PauserRole.sol\";\n\ncontract PauserRoleMock is PauserRole {\n    function removePauser(address account) public {\n        _removePauser(account);\n    }\n\n    function onlyPauserMock() public view onlyPauser {\n        // solhint-disable-previous-line no-empty-blocks\n    }\n\n    // Causes a compilation error if super._removePauser is not internal\n    function _removePauser(address account) internal {\n        super._removePauser(account);\n    }\n}\n",
  "sourcePath": "/Users/sudipbhattarai/Documents/erc20-tokensale-gen/solidity-contracts/openzeppelin-contracts-v2.5/mocks/PauserRoleMock.sol",
  "compiler": {
    "name": "solc",
    "version": "0.5.17+commit.d19bba13.Emscripten.clang"
  },
  "schemaVersion": "3.4.3",
  "updatedAt": "2022-02-06T18:13:26.169Z",
  "devdoc": {
    "methods": {}
  },
  "userdoc": {
    "methods": {}
  }
}