{
  "contractName": "PullPaymentMock",
  "abi": [
    {
      "inputs": [],
      "payable": true,
      "stateMutability": "payable",
      "type": "constructor"
    },
    {
      "constant": true,
      "inputs": [
        {
          "internalType": "address",
          "name": "dest",
          "type": "address"
        }
      ],
      "name": "payments",
      "outputs": [
        {
          "internalType": "uint256",
          "name": "",
          "type": "uint256"
        }
      ],
      "payable": false,
      "stateMutability": "view",
      "type": "function"
    },
    {
      "constant": false,
      "inputs": [
        {
          "internalType": "address payable",
          "name": "payee",
          "type": "address"
        }
      ],
      "name": "withdrawPayments",
      "outputs": [],
      "payable": false,
      "stateMutability": "nonpayable",
      "type": "function"
    },
    {
      "constant": false,
      "inputs": [
        {
          "internalType": "address payable",
          "name": "payee",
          "type": "address"
        }
      ],
      "name": "withdrawPaymentsWithGas",
      "outputs": [],
      "payable": false,
      "stateMutability": "nonpayable",
      "type": "function"
    },
    {
      "constant": false,
      "inputs": [
        {
          "internalType": "address",
          "name": "dest",
          "type": "address"
        },
        {
          "internalType": "uint256",
          "name": "amount",
          "type": "uint256"
        }
      ],
      "name": "callTransfer",
      "outputs": [],
      "payable": false,
      "stateMutability": "nonpayable",
      "type": "function"
    }
  ],
  "bytecode": "0x608060405260405161001090610052565b604051809103906000f08015801561002c573d6000803e3d6000fd5b50600080546001600160a01b0319166001600160a01b039290921691909117905561005f565b6107d18061034f83390190565b6102e18061006e6000396000f3fe608060405234801561001057600080fd5b506004361061004c5760003560e01c806331b3eb9414610051578063653cfa5914610079578063d44409911461009f578063e2982c21146100cb575b600080fd5b6100776004803603602081101561006757600080fd5b50356001600160a01b0316610103565b005b6100776004803603602081101561008f57600080fd5b50356001600160a01b0316610169565b610077600480360360408110156100b557600080fd5b506001600160a01b0381351690602001356101b4565b6100f1600480360360208110156100e157600080fd5b50356001600160a01b03166101c2565b60408051918252519081900360200190f35b60008054604080516351cff8d960e01b81526001600160a01b038581166004830152915191909216926351cff8d9926024808201939182900301818387803b15801561014e57600080fd5b505af1158015610162573d6000803e3d6000fd5b5050505050565b6000805460408051633404b48d60e11b81526001600160a01b03858116600483015291519190921692636809691a926024808201939182900301818387803b15801561014e57600080fd5b6101be8282610242565b5050565b60008054604080516371d4ed8d60e11b81526001600160a01b0385811660048301529151919092169163e3a9db1a916024808301926020929190829003018186803b15801561021057600080fd5b505afa158015610224573d6000803e3d6000fd5b505050506040513d602081101561023a57600080fd5b505192915050565b600080546040805163f340fa0160e01b81526001600160a01b0386811660048301529151919092169263f340fa019285926024808301939282900301818588803b15801561028f57600080fd5b505af11580156102a3573d6000803e3d6000fd5b5050505050505056fea265627a7a7231582039242370f011994961e458a169a244149ad1aca7218b9b6df6f6cf90cf630ee864736f6c63430005110032608060405260006100176001600160e01b0361007216565b600080546001600160a01b0383166001600160a01b0319909116811790915560408051918252519192507f4101e71e974f68df5e9730cc223280b41654676bbb052cdcc735c3337e64d2d9919081900360200190a150610076565b3390565b61074c806100856000396000f3fe6080604052600436106100555760003560e01c80632348238c1461005a57806351cff8d91461008f5780636809691a146100c2578063c6dbdf61146100f5578063e3a9db1a14610126578063f340fa011461016b575b600080fd5b34801561006657600080fd5b5061008d6004803603602081101561007d57600080fd5b50356001600160a01b0316610191565b005b34801561009b57600080fd5b5061008d600480360360208110156100b257600080fd5b50356001600160a01b0316610283565b3480156100ce57600080fd5b5061008d600480360360208110156100e557600080fd5b50356001600160a01b031661036a565b34801561010157600080fd5b5061010a610434565b604080516001600160a01b039092168252519081900360200190f35b34801561013257600080fd5b506101596004803603602081101561014957600080fd5b50356001600160a01b0316610443565b60408051918252519081900360200190f35b61008d6004803603602081101561018157600080fd5b50356001600160a01b031661045e565b6000546001600160a01b03166101a5610538565b6001600160a01b0316146101ea5760405162461bcd60e51b815260040180806020018281038252602c8152602001806106ec602c913960400191505060405180910390fd5b6001600160a01b03811661022f5760405162461bcd60e51b815260040180806020018281038252602a8152602001806106c2602a913960400191505060405180910390fd5b600080546001600160a01b0383166001600160a01b0319909116811790915560408051918252517f4101e71e974f68df5e9730cc223280b41654676bbb052cdcc735c3337e64d2d99181900360200190a150565b6000546001600160a01b0316610297610538565b6001600160a01b0316146102dc5760405162461bcd60e51b815260040180806020018281038252602c8152602001806106ec602c913960400191505060405180910390fd5b6001600160a01b038116600081815260016020526040808220805490839055905190929183156108fc02918491818181858888f19350505050158015610326573d6000803e3d6000fd5b506040805182815290516001600160a01b038416917f7084f5476618d8e60b11ef0d7d3f06914655adb8793e28ff7f018d4c76d505d5919081900360200190a25050565b6000546001600160a01b031661037e610538565b6001600160a01b0316146103c35760405162461bcd60e51b815260040180806020018281038252602c8152602001806106ec602c913960400191505060405180910390fd5b6001600160a01b03811660008181526001602052604081208054919055906103f1908263ffffffff61053c16565b6040805182815290516001600160a01b038416917f7084f5476618d8e60b11ef0d7d3f06914655adb8793e28ff7f018d4c76d505d5919081900360200190a25050565b6000546001600160a01b031690565b6001600160a01b031660009081526001602052604090205490565b6000546001600160a01b0316610472610538565b6001600160a01b0316146104b75760405162461bcd60e51b815260040180806020018281038252602c8152602001806106ec602c913960400191505060405180910390fd5b6001600160a01b03811660009081526001602052604090205434906104e2908263ffffffff61062616565b6001600160a01b038316600081815260016020908152604091829020939093558051848152905191927f2da466a7b24304f47e87fa2e1e5a81b9831ce54fec19055ce277ca2f39ba42c492918290030190a25050565b3390565b80471015610591576040805162461bcd60e51b815260206004820152601d60248201527f416464726573733a20696e73756666696369656e742062616c616e6365000000604482015290519081900360640190fd5b6040516000906001600160a01b0384169083908381818185875af1925050503d80600081146105dc576040519150601f19603f3d011682016040523d82523d6000602084013e6105e1565b606091505b50509050806106215760405162461bcd60e51b815260040180806020018281038252603a815260200180610688603a913960400191505060405180910390fd5b505050565b600082820183811015610680576040805162461bcd60e51b815260206004820152601b60248201527f536166654d6174683a206164646974696f6e206f766572666c6f770000000000604482015290519081900360640190fd5b939250505056fe416464726573733a20756e61626c6520746f2073656e642076616c75652c20726563697069656e74206d617920686176652072657665727465645365636f6e646172793a206e6577207072696d61727920697320746865207a65726f20616464726573735365636f6e646172793a2063616c6c6572206973206e6f7420746865207072696d617279206163636f756e74a265627a7a723158202c175ac295c8600209d1f9f58499110e594795b709b2b1d6ef2e682efaee333364736f6c63430005110032",
  "source": "pragma solidity ^0.5.0;\n\nimport \"../payment/PullPayment.sol\";\n\n// mock class using PullPayment\ncontract PullPaymentMock is PullPayment {\n    constructor () public payable {\n        // solhint-disable-previous-line no-empty-blocks\n    }\n\n    // test helper function to call asyncTransfer\n    function callTransfer(address dest, uint256 amount) public {\n        _asyncTransfer(dest, amount);\n    }\n}\n",
  "sourcePath": "/Users/sudipbhattarai/Documents/erc20-tokensale-gen/solidity-contracts/openzeppelin-contracts-v2.5/mocks/PullPaymentMock.sol",
  "compiler": {
    "name": "solc",
    "version": "0.5.17+commit.d19bba13.Emscripten.clang"
  },
  "schemaVersion": "3.4.3",
  "updatedAt": "2022-02-06T18:13:26.169Z",
  "devdoc": {
    "methods": {
      "payments(address)": {
        "details": "Returns the payments owed to an address.",
        "params": {
          "dest": "The creditor's address."
        }
      },
      "withdrawPayments(address)": {
        "details": "Withdraw accumulated payments.     * Note that _any_ account can call this function, not just the `payee`. This means that contracts unaware of the `PullPayment` protocol can still receive funds this way, by having a separate account call {withdrawPayments}.     * NOTE: This function has been deprecated, use {withdrawPaymentsWithGas} instead. Calling contracts with fixed gas limits is an anti-pattern and may break contract interactions in network upgrades (hardforks). https://diligence.consensys.net/blog/2019/09/stop-using-soliditys-transfer-now/[Learn more.]",
        "params": {
          "payee": "Whose payments will be withdrawn."
        }
      },
      "withdrawPaymentsWithGas(address)": {
        "details": "Same as {withdrawPayments}, but forwarding all gas to the recipient.     * WARNING: Forwarding all gas opens the door to reentrancy vulnerabilities. Make sure you trust the recipient, or are either following the checks-effects-interactions pattern or using {ReentrancyGuard}.     * _Available since v2.4.0._"
      }
    }
  },
  "userdoc": {
    "methods": {}
  }
}