{
  "contractName": "RefundablePostDeliveryCrowdsaleImpl",
  "abi": [
    {
      "inputs": [
        {
          "internalType": "uint256",
          "name": "openingTime",
          "type": "uint256"
        },
        {
          "internalType": "uint256",
          "name": "closingTime",
          "type": "uint256"
        },
        {
          "internalType": "uint256",
          "name": "rate",
          "type": "uint256"
        },
        {
          "internalType": "address payable",
          "name": "wallet",
          "type": "address"
        },
        {
          "internalType": "contract IERC20",
          "name": "token",
          "type": "address"
        },
        {
          "internalType": "uint256",
          "name": "goal",
          "type": "uint256"
        }
      ],
      "payable": false,
      "stateMutability": "nonpayable",
      "type": "constructor"
    },
    {
      "anonymous": false,
      "inputs": [],
      "name": "CrowdsaleFinalized",
      "type": "event"
    },
    {
      "anonymous": false,
      "inputs": [
        {
          "indexed": false,
          "internalType": "uint256",
          "name": "prevClosingTime",
          "type": "uint256"
        },
        {
          "indexed": false,
          "internalType": "uint256",
          "name": "newClosingTime",
          "type": "uint256"
        }
      ],
      "name": "TimedCrowdsaleExtended",
      "type": "event"
    },
    {
      "anonymous": false,
      "inputs": [
        {
          "indexed": true,
          "internalType": "address",
          "name": "purchaser",
          "type": "address"
        },
        {
          "indexed": true,
          "internalType": "address",
          "name": "beneficiary",
          "type": "address"
        },
        {
          "indexed": false,
          "internalType": "uint256",
          "name": "value",
          "type": "uint256"
        },
        {
          "indexed": false,
          "internalType": "uint256",
          "name": "amount",
          "type": "uint256"
        }
      ],
      "name": "TokensPurchased",
      "type": "event"
    },
    {
      "payable": true,
      "stateMutability": "payable",
      "type": "fallback"
    },
    {
      "constant": true,
      "inputs": [
        {
          "internalType": "address",
          "name": "account",
          "type": "address"
        }
      ],
      "name": "balanceOf",
      "outputs": [
        {
          "internalType": "uint256",
          "name": "",
          "type": "uint256"
        }
      ],
      "payable": false,
      "stateMutability": "view",
      "type": "function"
    },
    {
      "constant": false,
      "inputs": [
        {
          "internalType": "address",
          "name": "beneficiary",
          "type": "address"
        }
      ],
      "name": "buyTokens",
      "outputs": [],
      "payable": true,
      "stateMutability": "payable",
      "type": "function"
    },
    {
      "constant": false,
      "inputs": [],
      "name": "claimRefund",
      "outputs": [],
      "payable": false,
      "stateMutability": "nonpayable",
      "type": "function"
    },
    {
      "constant": true,
      "inputs": [],
      "name": "closingTime",
      "outputs": [
        {
          "internalType": "uint256",
          "name": "",
          "type": "uint256"
        }
      ],
      "payable": false,
      "stateMutability": "view",
      "type": "function"
    },
    {
      "constant": false,
      "inputs": [],
      "name": "finalize",
      "outputs": [],
      "payable": false,
      "stateMutability": "nonpayable",
      "type": "function"
    },
    {
      "constant": true,
      "inputs": [],
      "name": "finalized",
      "outputs": [
        {
          "internalType": "bool",
          "name": "",
          "type": "bool"
        }
      ],
      "payable": false,
      "stateMutability": "view",
      "type": "function"
    },
    {
      "constant": true,
      "inputs": [],
      "name": "goal",
      "outputs": [
        {
          "internalType": "uint256",
          "name": "",
          "type": "uint256"
        }
      ],
      "payable": false,
      "stateMutability": "view",
      "type": "function"
    },
    {
      "constant": true,
      "inputs": [],
      "name": "goalReached",
      "outputs": [
        {
          "internalType": "bool",
          "name": "",
          "type": "bool"
        }
      ],
      "payable": false,
      "stateMutability": "view",
      "type": "function"
    },
    {
      "constant": true,
      "inputs": [],
      "name": "hasClosed",
      "outputs": [
        {
          "internalType": "bool",
          "name": "",
          "type": "bool"
        }
      ],
      "payable": false,
      "stateMutability": "view",
      "type": "function"
    },
    {
      "constant": true,
      "inputs": [],
      "name": "isOpen",
      "outputs": [
        {
          "internalType": "bool",
          "name": "",
          "type": "bool"
        }
      ],
      "payable": false,
      "stateMutability": "view",
      "type": "function"
    },
    {
      "constant": true,
      "inputs": [
        {
          "internalType": "address",
          "name": "",
          "type": "address"
        }
      ],
      "name": "lockedEthers",
      "outputs": [
        {
          "internalType": "uint256",
          "name": "",
          "type": "uint256"
        }
      ],
      "payable": false,
      "stateMutability": "view",
      "type": "function"
    },
    {
      "constant": true,
      "inputs": [],
      "name": "openingTime",
      "outputs": [
        {
          "internalType": "uint256",
          "name": "",
          "type": "uint256"
        }
      ],
      "payable": false,
      "stateMutability": "view",
      "type": "function"
    },
    {
      "constant": true,
      "inputs": [],
      "name": "rate",
      "outputs": [
        {
          "internalType": "uint256",
          "name": "",
          "type": "uint256"
        }
      ],
      "payable": false,
      "stateMutability": "view",
      "type": "function"
    },
    {
      "constant": true,
      "inputs": [],
      "name": "token",
      "outputs": [
        {
          "internalType": "contract IERC20",
          "name": "",
          "type": "address"
        }
      ],
      "payable": false,
      "stateMutability": "view",
      "type": "function"
    },
    {
      "constant": true,
      "inputs": [],
      "name": "wallet",
      "outputs": [
        {
          "internalType": "address payable",
          "name": "",
          "type": "address"
        }
      ],
      "payable": false,
      "stateMutability": "view",
      "type": "function"
    },
    {
      "constant": true,
      "inputs": [],
      "name": "weiRaised",
      "outputs": [
        {
          "internalType": "uint256",
          "name": "",
          "type": "uint256"
        }
      ],
      "payable": false,
      "stateMutability": "view",
      "type": "function"
    },
    {
      "constant": false,
      "inputs": [
        {
          "internalType": "address",
          "name": "beneficiary",
          "type": "address"
        }
      ],
      "name": "withdrawTokens",
      "outputs": [],
      "payable": false,
      "stateMutability": "nonpayable",
      "type": "function"
    }
  ],
  "bytecode": "0x608060405234801561001057600080fd5b50604051620016eb380380620016eb833981810160405260c081101561003557600080fd5b508051602082015160408301516060840151608085015160a0909501516000805460ff191660011790559394929391929091808686868686826100bf576040805162461bcd60e51b815260206004820152601460248201527f43726f776473616c653a20726174652069732030000000000000000000000000604482015290519081900360640190fd5b6001600160a01b0382166101055760405162461bcd60e51b8152600401808060200182810382526025815260200180620016c66025913960400191505060405180910390fd5b6001600160a01b03811661014b5760405162461bcd60e51b8152600401808060200182810382526024815260200180620016a26024913960400191505060405180910390fd5b600292909255600180546001600160a01b039283166001600160a01b0319909116179055600080549190921661010002610100600160a81b0319909116179055428210156101cb5760405162461bcd60e51b8152600401808060200182810382526033815260200180620016386033913960400191505060405180910390fd5b81811161020a5760405162461bcd60e51b81526004018080602001828103825260378152602001806200166b6037913960400191505060405180910390fd5b6004919091556005556006805460ff191690558061026f576040805162461bcd60e51b815260206004820152601e60248201527f526566756e6461626c6543726f776473616c653a20676f616c20697320300000604482015290519081900360640190fd5b60085560405161027e906102c7565b604051809103906000f08015801561029a573d6000803e3d6000fd5b50600a80546001600160a01b0319166001600160a01b0392909216919091179055506102d5945050505050565b6103c7806200127183390190565b610f8c80620002e56000396000f3fe6080604052600436106100fe5760003560e01c80634bb278f311610095578063b3f05b9711610064578063b3f05b97146102a8578063b5545a3c146102bd578063b7a8807c146102d2578063ec8ac4d8146102e7578063fc0c546a1461030d576100fe565b80634bb278f31461021a578063521eb2731461022f57806370a08231146102605780637d3d652214610293576100fe565b80634042b66f116100d15780634042b66f146101a857806347535d7b146101bd57806349df728c146101d25780634b6753bc14610205576100fe565b80631515bc2b146101105780632c4e722e1461013957806336668f34146101605780634019388314610193575b61010e610109610322565b610326565b005b34801561011c57600080fd5b50610125610448565b604080519115158252519081900360200190f35b34801561014557600080fd5b5061014e610450565b60408051918252519081900360200190f35b34801561016c57600080fd5b5061014e6004803603602081101561018357600080fd5b50356001600160a01b0316610456565b34801561019f57600080fd5b5061014e610468565b3480156101b457600080fd5b5061014e61046e565b3480156101c957600080fd5b50610125610474565b3480156101de57600080fd5b5061010e600480360360208110156101f557600080fd5b50356001600160a01b031661048f565b34801561021157600080fd5b5061014e610521565b34801561022657600080fd5b5061010e610527565b34801561023b57600080fd5b50610244610602565b604080516001600160a01b039092168252519081900360200190f35b34801561026c57600080fd5b5061014e6004803603602081101561028357600080fd5b50356001600160a01b0316610611565b34801561029f57600080fd5b5061012561062c565b3480156102b457600080fd5b50610125610640565b3480156102c957600080fd5b5061010e610649565b3480156102de57600080fd5b5061014e610730565b61010e600480360360208110156102fd57600080fd5b50356001600160a01b0316610326565b34801561031957600080fd5b50610244610736565b3390565b60005460ff1661037d576040805162461bcd60e51b815260206004820152601f60248201527f5265656e7472616e637947756172643a207265656e7472616e742063616c6c00604482015290519081900360640190fd5b6000805460ff1916905534610392828261074a565b600061039d826107b1565b6003549091506103b3908363ffffffff6107ce16565b6003556103c0838261082f565b826001600160a01b03166103d2610322565b6001600160a01b03167f6faf93231a456e552dbc9961f58d9713ee4f2e69d15f1975b050ef0911053a7b8484604051808381526020018281526020019250505060405180910390a361042483836107ad565b61042c610883565b61043683836107ad565b50506000805460ff1916600117905550565b600554421190565b60025490565b60076020526000908152604090205481565b60085490565b60035490565b6000600454421015801561048a57506005544211155b905090565b610497610640565b6104d25760405162461bcd60e51b815260040180806020018281038252602e815260200180610dbe602e913960400191505060405180910390fd5b6104da61062c565b6105155760405162461bcd60e51b8152600401808060200182810382526031815260200180610e116031913960400191505060405180910390fd5b61051e8161089a565b50565b60055490565b60065460ff16156105695760405162461bcd60e51b8152600401808060200182810382526027815260200180610e9b6027913960400191505060405180910390fd5b610571610448565b6105c2576040805162461bcd60e51b815260206004820181905260248201527f46696e616c697a61626c6543726f776473616c653a206e6f7420636c6f736564604482015290519081900360640190fd5b6006805460ff191660011790556105d76109ce565b6040517f9270cc390c096600a1c17c44345a1ba689fafd99d97487b10cfccf86cf73183690600090a1565b6001546001600160a01b031690565b6001600160a01b031660009081526009602052604090205490565b600060085461063961046e565b1015905090565b60065460ff1690565b610651610448565b6106a2576040805162461bcd60e51b815260206004820152601f60248201527f526566756e6461626c6543726f776473616c653a206e6f7420636c6f73656400604482015290519081900360640190fd5b6106aa61062c565b156106e65760405162461bcd60e51b8152600401808060200182810382526021815260200180610ec26021913960400191505060405180910390fd5b3360008181526007602052604080822054905181156108fc0292818181858888f1935050505015801561071d573d6000803e3d6000fd5b5033600090815260076020526040812055565b60045490565b60005461010090046001600160a01b031690565b610752610474565b6107a3576040805162461bcd60e51b815260206004820152601860248201527f54696d656443726f776473616c653a206e6f74206f70656e0000000000000000604482015290519081900360640190fd5b6107ad8282610a5c565b5050565b60006107c860025483610af390919063ffffffff16565b92915050565b600082820183811015610828576040805162461bcd60e51b815260206004820152601b60248201527f536166654d6174683a206164646974696f6e206f766572666c6f770000000000604482015290519081900360640190fd5b9392505050565b6001600160a01b038216600090815260096020526040902054610858908263ffffffff6107ce16565b6001600160a01b03808416600090815260096020526040902091909155600a546107ad911682610b4c565b336000908152600760205260409020805434019055565b6108a2610448565b6108dd5760405162461bcd60e51b8152600401808060200182810382526021815260200180610f0d6021913960400191505060405180910390fd5b6001600160a01b038116600090815260096020526040902054806109325760405162461bcd60e51b8152600401808060200182810382526038815260200180610e426038913960400191505060405180910390fd5b6001600160a01b03808316600090815260096020526040812055600a541663beabacc861095d610736565b604080516001600160e01b031960e085901b1681526001600160a01b03928316600482015291861660248301526044820185905251606480830192600092919082900301818387803b1580156109b257600080fd5b505af11580156109c6573d6000803e3d6000fd5b505050505050565b6109d661062c565b610a115760405162461bcd60e51b8152600401808060200182810382526025815260200180610dec6025913960400191505060405180910390fd5b610a19610602565b6001600160a01b03166108fc610a2d610b68565b6040518115909202916000818181858888f19350505050158015610a55573d6000803e3d6000fd5b50610a5a5b565b6001600160a01b038216610aa15760405162461bcd60e51b815260040180806020018281038252602a815260200180610ee3602a913960400191505060405180910390fd5b806107ad576040805162461bcd60e51b815260206004820152601960248201527f43726f776473616c653a20776569416d6f756e74206973203000000000000000604482015290519081900360640190fd5b600082610b02575060006107c8565b82820282848281610b0f57fe5b04146108285760405162461bcd60e51b8152600401808060200182810382526021815260200180610e7a6021913960400191505060405180910390fd5b6000546107ad9061010090046001600160a01b03168383610b6c565b4790565b604080516001600160a01b038416602482015260448082018490528251808303909101815260649091019091526020810180516001600160e01b031663a9059cbb60e01b179052610bbe908490610bc3565b505050565b610bd5826001600160a01b0316610d81565b610c26576040805162461bcd60e51b815260206004820152601f60248201527f5361666545524332303a2063616c6c20746f206e6f6e2d636f6e747261637400604482015290519081900360640190fd5b60006060836001600160a01b0316836040518082805190602001908083835b60208310610c645780518252601f199092019160209182019101610c45565b6001836020036101000a0380198251168184511680821785525050505050509050019150506000604051808303816000865af19150503d8060008114610cc6576040519150601f19603f3d011682016040523d82523d6000602084013e610ccb565b606091505b509150915081610d22576040805162461bcd60e51b815260206004820181905260248201527f5361666545524332303a206c6f772d6c6576656c2063616c6c206661696c6564604482015290519081900360640190fd5b805115610d7b57808060200190516020811015610d3e57600080fd5b5051610d7b5760405162461bcd60e51b815260040180806020018281038252602a815260200180610f2e602a913960400191505060405180910390fd5b50505050565b6000813f7fc5d2460186f7233c927e7db2dcc703c0e500b653ca82273b7bfad8045d85a470818114801590610db557508115155b94935050505056fe526566756e6461626c65506f737444656c697665727943726f776473616c653a206e6f742066696e616c697a6564526566756e6461626c6543726f776473616c653a20676f616c206e6f742072656163686564526566756e6461626c65506f737444656c697665727943726f776473616c653a20676f616c206e6f742072656163686564506f737444656c697665727943726f776473616c653a2062656e6566696369617279206973206e6f742064756520616e7920746f6b656e73536166654d6174683a206d756c7469706c69636174696f6e206f766572666c6f7746696e616c697a61626c6543726f776473616c653a20616c72656164792066696e616c697a6564526566756e6461626c6543726f776473616c653a20676f616c207265616368656443726f776473616c653a2062656e656669636961727920697320746865207a65726f2061646472657373506f737444656c697665727943726f776473616c653a206e6f7420636c6f7365645361666545524332303a204552433230206f7065726174696f6e20646964206e6f742073756363656564a265627a7a723158203239281cdaec362ba61bc78dd22414a3ccfd9d7ebdec452b00c6648d8d62ab1664736f6c63430005110032608060405260006100176001600160e01b0361007216565b600080546001600160a01b0383166001600160a01b0319909116811790915560408051918252519192507f4101e71e974f68df5e9730cc223280b41654676bbb052cdcc735c3337e64d2d9919081900360200190a150610076565b3390565b610342806100856000396000f3fe608060405234801561001057600080fd5b50600436106100415760003560e01c80632348238c14610046578063beabacc81461006e578063c6dbdf61146100a4575b600080fd5b61006c6004803603602081101561005c57600080fd5b50356001600160a01b03166100c8565b005b61006c6004803603606081101561008457600080fd5b506001600160a01b038135811691602081013590911690604001356101ba565b6100ac6102a4565b604080516001600160a01b039092168252519081900360200190f35b6000546001600160a01b03166100dc6102b3565b6001600160a01b0316146101215760405162461bcd60e51b815260040180806020018281038252602c8152602001806102e2602c913960400191505060405180910390fd5b6001600160a01b0381166101665760405162461bcd60e51b815260040180806020018281038252602a8152602001806102b8602a913960400191505060405180910390fd5b600080546001600160a01b0383166001600160a01b0319909116811790915560408051918252517f4101e71e974f68df5e9730cc223280b41654676bbb052cdcc735c3337e64d2d99181900360200190a150565b6000546001600160a01b03166101ce6102b3565b6001600160a01b0316146102135760405162461bcd60e51b815260040180806020018281038252602c8152602001806102e2602c913960400191505060405180910390fd5b826001600160a01b031663a9059cbb83836040518363ffffffff1660e01b815260040180836001600160a01b03166001600160a01b0316815260200182815260200192505050602060405180830381600087803b15801561027357600080fd5b505af1158015610287573d6000803e3d6000fd5b505050506040513d602081101561029d57600080fd5b5050505050565b6000546001600160a01b031690565b339056fe5365636f6e646172793a206e6577207072696d61727920697320746865207a65726f20616464726573735365636f6e646172793a2063616c6c6572206973206e6f7420746865207072696d617279206163636f756e74a265627a7a72315820e48104ff1248b93128cd469c88121ef952c96363ddcea86379d0abcb79e06f3864736f6c6343000511003254696d656443726f776473616c653a206f70656e696e672074696d65206973206265666f72652063757272656e742074696d6554696d656443726f776473616c653a206f70656e696e672074696d65206973206e6f74206265666f726520636c6f73696e672074696d6543726f776473616c653a20746f6b656e20697320746865207a65726f206164647265737343726f776473616c653a2077616c6c657420697320746865207a65726f2061646472657373",
  "source": "pragma solidity ^0.5.0;\n\nimport \"../token/ERC20/IERC20.sol\";\nimport \"../crowdsale/distribution/RefundablePostDeliveryCrowdsale.sol\";\n\ncontract RefundablePostDeliveryCrowdsaleImpl is RefundablePostDeliveryCrowdsale {\n    constructor (\n        uint256 openingTime,\n        uint256 closingTime,\n        uint256 rate,\n        address payable wallet,\n        IERC20 token,\n        uint256 goal\n    )\n        public\n        Crowdsale(rate, wallet, token)\n        TimedCrowdsale(openingTime, closingTime)\n        RefundableCrowdsale(goal)\n    {\n        // solhint-disable-previous-line no-empty-blocks\n    }\n}\n",
  "sourcePath": "/Users/sudipbhattarai/Documents/erc20-tokensale-gen/solidity-contracts/openzeppelin-contracts-v2.5/mocks/RefundablePostDeliveryCrowdsaleImpl.sol",
  "compiler": {
    "name": "solc",
    "version": "0.5.17+commit.d19bba13.Emscripten.clang"
  },
  "schemaVersion": "3.4.3",
  "updatedAt": "2022-02-06T18:13:26.172Z",
  "devdoc": {
    "methods": {
      "balanceOf(address)": {
        "return": "the balance of an account."
      },
      "buyTokens(address)": {
        "details": "low level token purchase ***DO NOT OVERRIDE*** This function has a non-reentrancy guard, so it shouldn't be called by another `nonReentrant` function.",
        "params": {
          "beneficiary": "Recipient of the token purchase"
        }
      },
      "claimRefund()": {
        "details": "Investors can claim refunds here if crowdsale is unsuccessful."
      },
      "closingTime()": {
        "return": "the crowdsale closing time."
      },
      "finalize()": {
        "details": "Must be called after crowdsale ends, to do some extra finalization work. Calls the contract's finalization function."
      },
      "finalized()": {
        "return": "true if the crowdsale is finalized, false otherwise."
      },
      "goal()": {
        "return": "minimum amount of funds to be raised in wei."
      },
      "goalReached()": {
        "details": "Checks whether funding goal was reached.",
        "return": "Whether funding goal was reached"
      },
      "hasClosed()": {
        "details": "Checks whether the period in which the crowdsale is open has already elapsed.",
        "return": "Whether crowdsale period has elapsed"
      },
      "isOpen()": {
        "return": "true if the crowdsale is open, false otherwise."
      },
      "openingTime()": {
        "return": "the crowdsale opening time."
      },
      "rate()": {
        "return": "the number of token units a buyer gets per wei."
      },
      "token()": {
        "return": "the token being sold."
      },
      "wallet()": {
        "return": "the address where funds are collected."
      },
      "weiRaised()": {
        "return": "the amount of wei raised."
      }
    }
  },
  "userdoc": {
    "methods": {}
  }
}