{
  "contractName": "RolesMock",
  "abi": [
    {
      "constant": false,
      "inputs": [
        {
          "internalType": "address",
          "name": "account",
          "type": "address"
        }
      ],
      "name": "add",
      "outputs": [],
      "payable": false,
      "stateMutability": "nonpayable",
      "type": "function"
    },
    {
      "constant": false,
      "inputs": [
        {
          "internalType": "address",
          "name": "account",
          "type": "address"
        }
      ],
      "name": "remove",
      "outputs": [],
      "payable": false,
      "stateMutability": "nonpayable",
      "type": "function"
    },
    {
      "constant": true,
      "inputs": [
        {
          "internalType": "address",
          "name": "account",
          "type": "address"
        }
      ],
      "name": "has",
      "outputs": [
        {
          "internalType": "bool",
          "name": "",
          "type": "bool"
        }
      ],
      "payable": false,
      "stateMutability": "view",
      "type": "function"
    }
  ],
  "bytecode": "0x608060405234801561001057600080fd5b506102d2806100206000396000f3fe608060405234801561001057600080fd5b50600436106100415760003560e01c80630a3b0a4f1461004657806321887c3d1461006e57806329092d0e146100a8575b600080fd5b61006c6004803603602081101561005c57600080fd5b50356001600160a01b03166100ce565b005b6100946004803603602081101561008457600080fd5b50356001600160a01b03166100e2565b604080519115158252519081900360200190f35b61006c600480360360208110156100be57600080fd5b50356001600160a01b03166100fa565b6100df60008263ffffffff61010b16565b50565b60006100f4818363ffffffff61018c16565b92915050565b6100df60008263ffffffff6101f316565b610115828261018c565b15610167576040805162461bcd60e51b815260206004820152601f60248201527f526f6c65733a206163636f756e7420616c72656164792068617320726f6c6500604482015290519081900360640190fd5b6001600160a01b0316600090815260209190915260409020805460ff19166001179055565b60006001600160a01b0382166101d35760405162461bcd60e51b815260040180806020018281038252602281526020018061027c6022913960400191505060405180910390fd5b506001600160a01b03166000908152602091909152604090205460ff1690565b6101fd828261018c565b6102385760405162461bcd60e51b815260040180806020018281038252602181526020018061025b6021913960400191505060405180910390fd5b6001600160a01b0316600090815260209190915260409020805460ff1916905556fe526f6c65733a206163636f756e7420646f6573206e6f74206861766520726f6c65526f6c65733a206163636f756e7420697320746865207a65726f2061646472657373a265627a7a72315820be20b8d1b38f34cb6b4918d63dcd547e7e851c914341abc3f88daf70f45826f064736f6c63430005110032",
  "source": "pragma solidity ^0.5.0;\n\nimport \"../access/Roles.sol\";\n\ncontract RolesMock {\n    using Roles for Roles.Role;\n\n    Roles.Role private dummyRole;\n\n    function add(address account) public {\n        dummyRole.add(account);\n    }\n\n    function remove(address account) public {\n        dummyRole.remove(account);\n    }\n\n    function has(address account) public view returns (bool) {\n        return dummyRole.has(account);\n    }\n}\n",
  "sourcePath": "/Users/sudipbhattarai/Documents/erc20-tokensale-gen/solidity-contracts/openzeppelin-contracts-v2.5/mocks/RolesMock.sol",
  "compiler": {
    "name": "solc",
    "version": "0.5.17+commit.d19bba13.Emscripten.clang"
  },
  "schemaVersion": "3.4.3",
  "updatedAt": "2022-02-06T18:13:26.172Z",
  "devdoc": {
    "methods": {}
  },
  "userdoc": {
    "methods": {}
  }
}