{
  "contractName": "SafeCastMock",
  "abi": [
    {
      "constant": true,
      "inputs": [
        {
          "internalType": "uint256",
          "name": "a",
          "type": "uint256"
        }
      ],
      "name": "toUint128",
      "outputs": [
        {
          "internalType": "uint128",
          "name": "",
          "type": "uint128"
        }
      ],
      "payable": false,
      "stateMutability": "pure",
      "type": "function"
    },
    {
      "constant": true,
      "inputs": [
        {
          "internalType": "uint256",
          "name": "a",
          "type": "uint256"
        }
      ],
      "name": "toUint64",
      "outputs": [
        {
          "internalType": "uint64",
          "name": "",
          "type": "uint64"
        }
      ],
      "payable": false,
      "stateMutability": "pure",
      "type": "function"
    },
    {
      "constant": true,
      "inputs": [
        {
          "internalType": "uint256",
          "name": "a",
          "type": "uint256"
        }
      ],
      "name": "toUint32",
      "outputs": [
        {
          "internalType": "uint32",
          "name": "",
          "type": "uint32"
        }
      ],
      "payable": false,
      "stateMutability": "pure",
      "type": "function"
    },
    {
      "constant": true,
      "inputs": [
        {
          "internalType": "uint256",
          "name": "a",
          "type": "uint256"
        }
      ],
      "name": "toUint16",
      "outputs": [
        {
          "internalType": "uint16",
          "name": "",
          "type": "uint16"
        }
      ],
      "payable": false,
      "stateMutability": "pure",
      "type": "function"
    },
    {
      "constant": true,
      "inputs": [
        {
          "internalType": "uint256",
          "name": "a",
          "type": "uint256"
        }
      ],
      "name": "toUint8",
      "outputs": [
        {
          "internalType": "uint8",
          "name": "",
          "type": "uint8"
        }
      ],
      "payable": false,
      "stateMutability": "pure",
      "type": "function"
    }
  ],
  "bytecode": "0x608060405234801561001057600080fd5b50610400806100206000396000f3fe608060405234801561001057600080fd5b50600436106100575760003560e01c80630cc4681e1461005c5780632665fad01461008f578063809fdd33146100c95780639374068f1461010b578063c81932551461013f575b600080fd5b6100796004803603602081101561007257600080fd5b5035610175565b6040805160ff9092168252519081900360200190f35b6100ac600480360360208110156100a557600080fd5b5035610186565b6040805167ffffffffffffffff9092168252519081900360200190f35b6100e6600480360360208110156100df57600080fd5b5035610191565b604080516fffffffffffffffffffffffffffffffff9092168252519081900360200190f35b6101286004803603602081101561012157600080fd5b503561019c565b6040805161ffff9092168252519081900360200190f35b61015c6004803603602081101561015557600080fd5b50356101a7565b6040805163ffffffff9092168252519081900360200190f35b6000610180826101b2565b92915050565b6000610180826101f8565b600061018082610241565b600061018082610285565b6000610180826102c8565b600061010082106101f45760405162461bcd60e51b81526004018080602001828103825260258152602001806103346025913960400191505060405180910390fd5b5090565b60006801000000000000000082106101f45760405162461bcd60e51b81526004018080602001828103825260268152602001806103806026913960400191505060405180910390fd5b6000600160801b82106101f45760405162461bcd60e51b81526004018080602001828103825260278152602001806103596027913960400191505060405180910390fd5b60006201000082106101f45760405162461bcd60e51b815260040180806020018281038252602681526020018061030e6026913960400191505060405180910390fd5b600064010000000082106101f45760405162461bcd60e51b81526004018080602001828103825260268152602001806103a66026913960400191505060405180910390fdfe53616665436173743a2076616c756520646f65736e27742066697420696e203136206269747353616665436173743a2076616c756520646f65736e27742066697420696e2038206269747353616665436173743a2076616c756520646f65736e27742066697420696e20313238206269747353616665436173743a2076616c756520646f65736e27742066697420696e203634206269747353616665436173743a2076616c756520646f65736e27742066697420696e2033322062697473a265627a7a723158209efa0bacef0decc0ff815eb70e733295593e20c3e738e2bb52d0b6a6828bce6064736f6c63430005110032",
  "source": "pragma solidity ^0.5.0;\n\nimport \"../utils/SafeCast.sol\";\n\ncontract SafeCastMock {\n    using SafeCast for uint;\n\n    function toUint128(uint a) public pure returns (uint128) {\n        return a.toUint128();\n    }\n\n    function toUint64(uint a) public pure returns (uint64) {\n        return a.toUint64();\n    }\n\n    function toUint32(uint a) public pure returns (uint32) {\n        return a.toUint32();\n    }\n\n    function toUint16(uint a) public pure returns (uint16) {\n        return a.toUint16();\n    }\n\n    function toUint8(uint a) public pure returns (uint8) {\n        return a.toUint8();\n    }\n}\n",
  "sourcePath": "/Users/sudipbhattarai/Documents/erc20-tokensale-gen/solidity-contracts/openzeppelin-contracts-v2.5/mocks/SafeCastMock.sol",
  "compiler": {
    "name": "solc",
    "version": "0.5.17+commit.d19bba13.Emscripten.clang"
  },
  "schemaVersion": "3.4.3",
  "updatedAt": "2022-02-06T18:13:26.173Z",
  "devdoc": {
    "methods": {}
  },
  "userdoc": {
    "methods": {}
  }
}