{
  "contractName": "SimpleTokenSale",
  "abi": [
    {
      "inputs": [
        {
          "internalType": "uint256",
          "name": "rate",
          "type": "uint256"
        },
        {
          "internalType": "contract IERC20",
          "name": "token",
          "type": "address"
        },
        {
          "internalType": "address payable",
          "name": "wallet",
          "type": "address"
        },
        {
          "internalType": "uint256",
          "name": "softCap",
          "type": "uint256"
        },
        {
          "internalType": "uint256",
          "name": "hardCap",
          "type": "uint256"
        },
        {
          "internalType": "uint256",
          "name": "openingTime",
          "type": "uint256"
        },
        {
          "internalType": "uint256",
          "name": "closingTime",
          "type": "uint256"
        },
        {
          "internalType": "bool",
          "name": "_shouldBurn",
          "type": "bool"
        }
      ],
      "payable": false,
      "stateMutability": "nonpayable",
      "type": "constructor"
    },
    {
      "anonymous": false,
      "inputs": [],
      "name": "CrowdsaleFinalized",
      "type": "event"
    },
    {
      "anonymous": false,
      "inputs": [
        {
          "indexed": false,
          "internalType": "uint256",
          "name": "prevClosingTime",
          "type": "uint256"
        },
        {
          "indexed": false,
          "internalType": "uint256",
          "name": "newClosingTime",
          "type": "uint256"
        }
      ],
      "name": "TimedCrowdsaleExtended",
      "type": "event"
    },
    {
      "anonymous": false,
      "inputs": [
        {
          "indexed": true,
          "internalType": "address",
          "name": "purchaser",
          "type": "address"
        },
        {
          "indexed": true,
          "internalType": "address",
          "name": "beneficiary",
          "type": "address"
        },
        {
          "indexed": false,
          "internalType": "uint256",
          "name": "value",
          "type": "uint256"
        },
        {
          "indexed": false,
          "internalType": "uint256",
          "name": "amount",
          "type": "uint256"
        }
      ],
      "name": "TokensPurchased",
      "type": "event"
    },
    {
      "payable": true,
      "stateMutability": "payable",
      "type": "fallback"
    },
    {
      "constant": true,
      "inputs": [
        {
          "internalType": "address",
          "name": "account",
          "type": "address"
        }
      ],
      "name": "balanceOf",
      "outputs": [
        {
          "internalType": "uint256",
          "name": "",
          "type": "uint256"
        }
      ],
      "payable": false,
      "stateMutability": "view",
      "type": "function"
    },
    {
      "constant": false,
      "inputs": [
        {
          "internalType": "address",
          "name": "beneficiary",
          "type": "address"
        }
      ],
      "name": "buyTokens",
      "outputs": [],
      "payable": true,
      "stateMutability": "payable",
      "type": "function"
    },
    {
      "constant": true,
      "inputs": [],
      "name": "cap",
      "outputs": [
        {
          "internalType": "uint256",
          "name": "",
          "type": "uint256"
        }
      ],
      "payable": false,
      "stateMutability": "view",
      "type": "function"
    },
    {
      "constant": true,
      "inputs": [],
      "name": "capReached",
      "outputs": [
        {
          "internalType": "bool",
          "name": "",
          "type": "bool"
        }
      ],
      "payable": false,
      "stateMutability": "view",
      "type": "function"
    },
    {
      "constant": false,
      "inputs": [],
      "name": "claimRefund",
      "outputs": [],
      "payable": false,
      "stateMutability": "nonpayable",
      "type": "function"
    },
    {
      "constant": true,
      "inputs": [],
      "name": "closingTime",
      "outputs": [
        {
          "internalType": "uint256",
          "name": "",
          "type": "uint256"
        }
      ],
      "payable": false,
      "stateMutability": "view",
      "type": "function"
    },
    {
      "constant": false,
      "inputs": [],
      "name": "finalize",
      "outputs": [],
      "payable": false,
      "stateMutability": "nonpayable",
      "type": "function"
    },
    {
      "constant": true,
      "inputs": [],
      "name": "finalized",
      "outputs": [
        {
          "internalType": "bool",
          "name": "",
          "type": "bool"
        }
      ],
      "payable": false,
      "stateMutability": "view",
      "type": "function"
    },
    {
      "constant": true,
      "inputs": [],
      "name": "goal",
      "outputs": [
        {
          "internalType": "uint256",
          "name": "",
          "type": "uint256"
        }
      ],
      "payable": false,
      "stateMutability": "view",
      "type": "function"
    },
    {
      "constant": true,
      "inputs": [],
      "name": "goalReached",
      "outputs": [
        {
          "internalType": "bool",
          "name": "",
          "type": "bool"
        }
      ],
      "payable": false,
      "stateMutability": "view",
      "type": "function"
    },
    {
      "constant": true,
      "inputs": [],
      "name": "hasClosed",
      "outputs": [
        {
          "internalType": "bool",
          "name": "",
          "type": "bool"
        }
      ],
      "payable": false,
      "stateMutability": "view",
      "type": "function"
    },
    {
      "constant": true,
      "inputs": [],
      "name": "isOpen",
      "outputs": [
        {
          "internalType": "bool",
          "name": "",
          "type": "bool"
        }
      ],
      "payable": false,
      "stateMutability": "view",
      "type": "function"
    },
    {
      "constant": true,
      "inputs": [
        {
          "internalType": "address",
          "name": "",
          "type": "address"
        }
      ],
      "name": "lockedEthers",
      "outputs": [
        {
          "internalType": "uint256",
          "name": "",
          "type": "uint256"
        }
      ],
      "payable": false,
      "stateMutability": "view",
      "type": "function"
    },
    {
      "constant": true,
      "inputs": [],
      "name": "openingTime",
      "outputs": [
        {
          "internalType": "uint256",
          "name": "",
          "type": "uint256"
        }
      ],
      "payable": false,
      "stateMutability": "view",
      "type": "function"
    },
    {
      "constant": true,
      "inputs": [],
      "name": "rate",
      "outputs": [
        {
          "internalType": "uint256",
          "name": "",
          "type": "uint256"
        }
      ],
      "payable": false,
      "stateMutability": "view",
      "type": "function"
    },
    {
      "constant": true,
      "inputs": [],
      "name": "token",
      "outputs": [
        {
          "internalType": "contract IERC20",
          "name": "",
          "type": "address"
        }
      ],
      "payable": false,
      "stateMutability": "view",
      "type": "function"
    },
    {
      "constant": true,
      "inputs": [],
      "name": "wallet",
      "outputs": [
        {
          "internalType": "address payable",
          "name": "",
          "type": "address"
        }
      ],
      "payable": false,
      "stateMutability": "view",
      "type": "function"
    },
    {
      "constant": true,
      "inputs": [],
      "name": "weiRaised",
      "outputs": [
        {
          "internalType": "uint256",
          "name": "",
          "type": "uint256"
        }
      ],
      "payable": false,
      "stateMutability": "view",
      "type": "function"
    },
    {
      "constant": false,
      "inputs": [
        {
          "internalType": "address",
          "name": "beneficiary",
          "type": "address"
        }
      ],
      "name": "withdrawTokens",
      "outputs": [],
      "payable": false,
      "stateMutability": "nonpayable",
      "type": "function"
    },
    {
      "constant": true,
      "inputs": [],
      "name": "simpleStats",
      "outputs": [
        {
          "internalType": "uint256",
          "name": "",
          "type": "uint256"
        },
        {
          "internalType": "uint256",
          "name": "",
          "type": "uint256"
        },
        {
          "internalType": "uint256",
          "name": "",
          "type": "uint256"
        },
        {
          "internalType": "uint256",
          "name": "",
          "type": "uint256"
        },
        {
          "internalType": "uint256",
          "name": "",
          "type": "uint256"
        },
        {
          "internalType": "uint256",
          "name": "",
          "type": "uint256"
        },
        {
          "internalType": "uint256",
          "name": "",
          "type": "uint256"
        },
        {
          "internalType": "uint256",
          "name": "",
          "type": "uint256"
        },
        {
          "internalType": "address",
          "name": "",
          "type": "address"
        },
        {
          "internalType": "address",
          "name": "",
          "type": "address"
        },
        {
          "internalType": "bool",
          "name": "",
          "type": "bool"
        },
        {
          "internalType": "bool",
          "name": "",
          "type": "bool"
        },
        {
          "internalType": "bool",
          "name": "",
          "type": "bool"
        }
      ],
      "payable": false,
      "stateMutability": "view",
      "type": "function"
    },
    {
      "constant": true,
      "inputs": [],
      "name": "tokenInfo",
      "outputs": [
        {
          "internalType": "string",
          "name": "",
          "type": "string"
        },
        {
          "internalType": "string",
          "name": "",
          "type": "string"
        },
        {
          "internalType": "uint8",
          "name": "",
          "type": "uint8"
        },
        {
          "internalType": "uint256",
          "name": "",
          "type": "uint256"
        },
        {
          "internalType": "uint256",
          "name": "",
          "type": "uint256"
        },
        {
          "internalType": "uint256",
          "name": "",
          "type": "uint256"
        },
        {
          "internalType": "bool",
          "name": "",
          "type": "bool"
        },
        {
          "internalType": "bool",
          "name": "",
          "type": "bool"
        }
      ],
      "payable": false,
      "stateMutability": "view",
      "type": "function"
    },
    {
      "constant": false,
      "inputs": [],
      "name": "superFinalize",
      "outputs": [],
      "payable": false,
      "stateMutability": "nonpayable",
      "type": "function"
    },
    {
      "constant": false,
      "inputs": [],
      "name": "simpleFinalize",
      "outputs": [],
      "payable": false,
      "stateMutability": "nonpayable",
      "type": "function"
    }
  ],
  "bytecode": "0x60806040523480156200001157600080fd5b50604051620020903803806200209083398181016040526101008110156200003857600080fd5b508051602082015160408301516060840151608085015160a086015160c087015160e0909701516000805460ff19166001179055959694959394929391929091848383868b8a8c82620000d2576040805162461bcd60e51b815260206004820152601460248201527f43726f776473616c653a20726174652069732030000000000000000000000000604482015290519081900360640190fd5b6001600160a01b038216620001195760405162461bcd60e51b81526004018080602001828103825260258152602001806200206b6025913960400191505060405180910390fd5b6001600160a01b038116620001605760405162461bcd60e51b8152600401808060200182810382526024815260200180620020476024913960400191505060405180910390fd5b600292909255600180546001600160a01b039283166001600160a01b0319909116179055600080549190921661010002610100600160a81b031990911617905580620001f3576040805162461bcd60e51b815260206004820152601960248201527f43617070656443726f776473616c653a20636170206973203000000000000000604482015290519081900360640190fd5b60045542821015620002375760405162461bcd60e51b815260040180806020018281038252603381526020018062001fdd6033913960400191505060405180910390fd5b818111620002775760405162461bcd60e51b8152600401808060200182810382526037815260200180620020106037913960400191505060405180910390fd5b6005919091556006556007805460ff1916905580620002dd576040805162461bcd60e51b815260206004820152601e60248201527f526566756e6461626c6543726f776473616c653a20676f616c20697320300000604482015290519081900360640190fd5b600955604051620002ee9062000359565b604051809103906000f0801580156200030b573d6000803e3d6000fd5b50600b80546001600160a01b03929092166001600160a01b0319928316179055600c8054921515600160a01b0260ff60a01b1993909216331792909216179055506200036795505050505050565b6103c78062001c1683390190565b61189f80620003776000396000f3fe6080604052600436106101405760003560e01c806351182386116100b65780637d3d65221161006f5780637d3d6522146104de578063b3f05b97146104f3578063b5545a3c14610508578063b7a8807c1461051d578063ec8ac4d814610532578063fc0c546a1461055857610140565b8063511823861461029b578063521eb273146102b05780635777fbea146102e15780636addb6631461036d5780636b2f64d61461049657806370a08231146104ab57610140565b80634042b66f116101085780634042b66f146101ff57806347535d7b1461021457806349df728c146102295780634b6753bc1461025c5780634bb278f3146102715780634f9359451461028657610140565b80631515bc2b146101525780632c4e722e1461017b578063355274ea146101a257806336668f34146101b757806340193883146101ea575b61015061014b61056d565b610571565b005b34801561015e57600080fd5b50610167610693565b604080519115158252519081900360200190f35b34801561018757600080fd5b5061019061069b565b60408051918252519081900360200190f35b3480156101ae57600080fd5b506101906106a1565b3480156101c357600080fd5b50610190600480360360208110156101da57600080fd5b50356001600160a01b03166106a7565b3480156101f657600080fd5b506101906106b9565b34801561020b57600080fd5b506101906106bf565b34801561022057600080fd5b506101676106c5565b34801561023557600080fd5b506101506004803603602081101561024c57600080fd5b50356001600160a01b03166106e0565b34801561026857600080fd5b50610190610772565b34801561027d57600080fd5b50610150610778565b34801561029257600080fd5b50610167610853565b3480156102a757600080fd5b50610150610867565b3480156102bc57600080fd5b506102c5610a2c565b604080516001600160a01b039092168252519081900360200190f35b3480156102ed57600080fd5b506102f6610a3b565b604080519d8e5260208e019c909c528c8c019a909a5260608c019890985260808b019690965260a08a019490945260c089019290925260e08801526001600160a01b039081166101008801521661012086015215156101408501521515610160840152151561018083015251908190036101a00190f35b34801561037957600080fd5b50610382610aec565b6040805160ff881691810191909152606081018690526080810185905260a0810184905282151560c082015281151560e0820152610100808252895190820152885181906020808301916101208401918d019080838360005b838110156103f35781810151838201526020016103db565b50505050905090810190601f1680156104205780820380516001836020036101000a031916815260200191505b5083810382528a5181528a516020918201918c019080838360005b8381101561045357818101518382015260200161043b565b50505050905090810190601f1680156104805780820380516001836020036101000a031916815260200191505b509a505050505050505050505060405180910390f35b3480156104a257600080fd5b50610150610d31565b3480156104b757600080fd5b50610190600480360360208110156104ce57600080fd5b50356001600160a01b0316610d3b565b3480156104ea57600080fd5b50610167610d56565b3480156104ff57600080fd5b50610167610d63565b34801561051457600080fd5b50610150610d6c565b34801561052957600080fd5b50610190610e53565b6101506004803603602081101561054857600080fd5b50356001600160a01b0316610571565b34801561056457600080fd5b506102c5610e59565b3390565b60005460ff166105c8576040805162461bcd60e51b815260206004820152601f60248201527f5265656e7472616e637947756172643a207265656e7472616e742063616c6c00604482015290519081900360640190fd5b6000805460ff19169055346105dd8282610e6d565b60006105e882610ed4565b6003549091506105fe908363ffffffff610f1316565b60035561060b8382610f74565b826001600160a01b031661061d61056d565b6001600160a01b03167f6faf93231a456e552dbc9961f58d9713ee4f2e69d15f1975b050ef0911053a7b8484604051808381526020018281526020019250505060405180910390a361066f8383610ed0565b610677610fc8565b6106818383610ed0565b50506000805460ff1916600117905550565b600654421190565b60025490565b60045490565b60086020526000908152604090205481565b60095490565b60035490565b600060055442101580156106db57506006544211155b905090565b6106e8610d63565b6107235760405162461bcd60e51b815260040180806020018281038252602e8152602001806116da602e913960400191505060405180910390fd5b61072b610d56565b6107665760405162461bcd60e51b815260040180806020018281038252603181526020018061174e6031913960400191505060405180910390fd5b61076f81610fdf565b50565b60065490565b60075460ff16156107ba5760405162461bcd60e51b81526004018080602001828103825260278152602001806117d86027913960400191505060405180910390fd5b6107c2610693565b610813576040805162461bcd60e51b815260206004820181905260248201527f46696e616c697a61626c6543726f776473616c653a206e6f7420636c6f736564604482015290519081900360640190fd5b6007805460ff19166001179055610828611113565b6040517f9270cc390c096600a1c17c44345a1ba689fafd99d97487b10cfccf86cf73183690600090a1565b60006004546108606106bf565b1015905090565b6000610871610e59565b6001600160a01b03166370a08231306040518263ffffffff1660e01b815260040180826001600160a01b03166001600160a01b0316815260200191505060206040518083038186803b1580156108c657600080fd5b505afa1580156108da573d6000803e3d6000fd5b505050506040513d60208110156108f057600080fd5b505190508015610a1757600c54600160a01b900460ff161561097c576000610916610e59565b9050806001600160a01b03166342966c68836040518263ffffffff1660e01b815260040180828152602001915050600060405180830381600087803b15801561095e57600080fd5b505af1158015610972573d6000803e3d6000fd5b5050505050610a17565b610984610e59565b6001600160a01b031663a9059cbb61099a610a2c565b836040518363ffffffff1660e01b815260040180836001600160a01b03166001600160a01b0316815260200182815260200192505050602060405180830381600087803b1580156109ea57600080fd5b505af11580156109fe573d6000803e3d6000fd5b505050506040513d6020811015610a1457600080fd5b50505b610a1f610853565b1561076f5761076f6112e7565b6001546001600160a01b031690565b6000806000806000806000806000806000806000610a5761069b565b610a5f6106b9565b610a676106a1565b610a6f6106bf565b610a77610e53565b610a7f610772565b610a8833610d3b565b33600090815260086020526040902054610aa0610e59565b610aa8610a2c565b610ab06106c5565b610ab8610693565b610ac0610d63565b8393509c509c509c509c509c509c509c509c509c509c509c509c509c50909192939495969798999a9b9c565b6060806000806000806000806000610b02610e59565b9050806001600160a01b031663370158ea6040518163ffffffff1660e01b815260040160006040518083038186803b158015610b3d57600080fd5b505afa158015610b51573d6000803e3d6000fd5b505050506040513d6000823e601f3d908101601f19168201604052610100811015610b7b57600080fd5b8101908080516040519392919084640100000000821115610b9b57600080fd5b908301906020820185811115610bb057600080fd5b8251640100000000811182820188101715610bca57600080fd5b82525081516020918201929091019080838360005b83811015610bf7578181015183820152602001610bdf565b50505050905090810190601f168015610c245780820380516001836020036101000a031916815260200191505b5060405260200180516040519392919084640100000000821115610c4757600080fd5b908301906020820185811115610c5c57600080fd5b8251640100000000811182820188101715610c7657600080fd5b82525081516020918201929091019080838360005b83811015610ca3578181015183820152602001610c8b565b50505050905090810190601f168015610cd05780820380516001836020036101000a031916815260200191505b5060405260200180519060200190929190805190602001909291908051906020019092919080519060200190929190805190602001909291908051906020019092919050505098509850985098509850985098509850509091929394959697565b610d3961132b565b565b6001600160a01b03166000908152600a602052604090205490565b60006009546108606106bf565b60075460ff1690565b610d74610693565b610dc5576040805162461bcd60e51b815260206004820152601f60248201527f526566756e6461626c6543726f776473616c653a206e6f7420636c6f73656400604482015290519081900360640190fd5b610dcd610d56565b15610e095760405162461bcd60e51b81526004018080602001828103825260218152602001806117ff6021913960400191505060405180910390fd5b3360008181526008602052604080822054905181156108fc0292818181858888f19350505050158015610e40573d6000803e3d6000fd5b5033600090815260086020526040812055565b60055490565b60005461010090046001600160a01b031690565b610e756106c5565b610ec6576040805162461bcd60e51b815260206004820152601860248201527f54696d656443726f776473616c653a206e6f74206f70656e0000000000000000604482015290519081900360640190fd5b610ed082826113bb565b5050565b6000610f0d6ec097ce7bc90715b34b9f1000000000610f01610ef461069b565b859063ffffffff61143316565b9063ffffffff61148c16565b92915050565b600082820183811015610f6d576040805162461bcd60e51b815260206004820152601b60248201527f536166654d6174683a206164646974696f6e206f766572666c6f770000000000604482015290519081900360640190fd5b9392505050565b6001600160a01b0382166000908152600a6020526040902054610f9d908263ffffffff610f1316565b6001600160a01b038084166000908152600a6020526040902091909155600b54610ed09116826114ce565b336000908152600860205260409020805434019055565b610fe7610693565b6110225760405162461bcd60e51b815260040180806020018281038252602181526020018061184a6021913960400191505060405180910390fd5b6001600160a01b0381166000908152600a6020526040902054806110775760405162461bcd60e51b815260040180806020018281038252603881526020018061177f6038913960400191505060405180910390fd5b6001600160a01b038083166000908152600a6020526040812055600b541663beabacc86110a2610e59565b604080516001600160e01b031960e085901b1681526001600160a01b03928316600482015291861660248301526044820185905251606480830192600092919082900301818387803b1580156110f757600080fd5b505af115801561110b573d6000803e3d6000fd5b505050505050565b600061111d610e59565b6001600160a01b03166370a08231306040518263ffffffff1660e01b815260040180826001600160a01b03166001600160a01b0316815260200191505060206040518083038186803b15801561117257600080fd5b505afa158015611186573d6000803e3d6000fd5b505050506040513d602081101561119c57600080fd5b5051600c54909150600160a01b900460ff1680156111ba5750600081115b1561122f5760006111c9610e59565b9050806001600160a01b03166342966c68836040518263ffffffff1660e01b815260040180828152602001915050600060405180830381600087803b15801561121157600080fd5b505af1158015611225573d6000803e3d6000fd5b50505050506112ca565b611237610e59565b6001600160a01b031663a9059cbb61124d610a2c565b836040518363ffffffff1660e01b815260040180836001600160a01b03166001600160a01b0316815260200182815260200192505050602060405180830381600087803b15801561129d57600080fd5b505af11580156112b1573d6000803e3d6000fd5b505050506040513d60208110156112c757600080fd5b50505b6112d2610853565b1561076f576112df6112e7565b61076f61132b565b600c546001600160a01b03166108fc6113036064610f016106bf565b6040518115909202916000818181858888f1935050505015801561076f573d6000803e3d6000fd5b611333610d56565b61136e5760405162461bcd60e51b81526004018080602001828103825260258152602001806117086025913960400191505060405180910390fd5b611376610a2c565b6001600160a01b03166108fc61138a61159c565b6040518115909202916000818181858888f193505050501580156113b2573d6000803e3d6000fd5b50610d39610d39565b6113c582826115a0565b6004546113e0826113d46106bf565b9063ffffffff610f1316565b1115610ed0576040805162461bcd60e51b815260206004820152601d60248201527f43617070656443726f776473616c653a20636170206578636565646564000000604482015290519081900360640190fd5b60008261144257506000610f0d565b8282028284828161144f57fe5b0414610f6d5760405162461bcd60e51b81526004018080602001828103825260218152602001806117b76021913960400191505060405180910390fd5b6000610f6d83836040518060400160405280601a81526020017f536166654d6174683a206469766973696f6e206279207a65726f000000000000815250611637565b6114d6610e59565b6001600160a01b031663a9059cbb83836040518363ffffffff1660e01b815260040180836001600160a01b03166001600160a01b0316815260200182815260200192505050602060405180830381600087803b15801561153557600080fd5b505af1158015611549573d6000803e3d6000fd5b505050506040513d602081101561155f57600080fd5b5051610ed05760405162461bcd60e51b815260040180806020018281038252602181526020018061172d6021913960400191505060405180910390fd5b4790565b6001600160a01b0382166115e55760405162461bcd60e51b815260040180806020018281038252602a815260200180611820602a913960400191505060405180910390fd5b80610ed0576040805162461bcd60e51b815260206004820152601960248201527f43726f776473616c653a20776569416d6f756e74206973203000000000000000604482015290519081900360640190fd5b600081836116c35760405162461bcd60e51b81526004018080602001828103825283818151815260200191508051906020019080838360005b83811015611688578181015183820152602001611670565b50505050905090810190601f1680156116b55780820380516001836020036101000a031916815260200191505b509250505060405180910390fd5b5060008385816116cf57fe5b049594505050505056fe526566756e6461626c65506f737444656c697665727943726f776473616c653a206e6f742066696e616c697a6564526566756e6461626c6543726f776473616c653a20676f616c206e6f742072656163686564546f6b656e5472616e736665722063616c6c2072657475726e65642066616c7365526566756e6461626c65506f737444656c697665727943726f776473616c653a20676f616c206e6f742072656163686564506f737444656c697665727943726f776473616c653a2062656e6566696369617279206973206e6f742064756520616e7920746f6b656e73536166654d6174683a206d756c7469706c69636174696f6e206f766572666c6f7746696e616c697a61626c6543726f776473616c653a20616c72656164792066696e616c697a6564526566756e6461626c6543726f776473616c653a20676f616c207265616368656443726f776473616c653a2062656e656669636961727920697320746865207a65726f2061646472657373506f737444656c697665727943726f776473616c653a206e6f7420636c6f736564a265627a7a72315820e59c6bc1b58ca2e1f38427222913ad27061890109ce7169825d730565842f7a164736f6c63430005110032608060405260006100176001600160e01b0361007216565b600080546001600160a01b0383166001600160a01b0319909116811790915560408051918252519192507f4101e71e974f68df5e9730cc223280b41654676bbb052cdcc735c3337e64d2d9919081900360200190a150610076565b3390565b610342806100856000396000f3fe608060405234801561001057600080fd5b50600436106100415760003560e01c80632348238c14610046578063beabacc81461006e578063c6dbdf61146100a4575b600080fd5b61006c6004803603602081101561005c57600080fd5b50356001600160a01b03166100c8565b005b61006c6004803603606081101561008457600080fd5b506001600160a01b038135811691602081013590911690604001356101ba565b6100ac6102a4565b604080516001600160a01b039092168252519081900360200190f35b6000546001600160a01b03166100dc6102b3565b6001600160a01b0316146101215760405162461bcd60e51b815260040180806020018281038252602c8152602001806102e2602c913960400191505060405180910390fd5b6001600160a01b0381166101665760405162461bcd60e51b815260040180806020018281038252602a8152602001806102b8602a913960400191505060405180910390fd5b600080546001600160a01b0383166001600160a01b0319909116811790915560408051918252517f4101e71e974f68df5e9730cc223280b41654676bbb052cdcc735c3337e64d2d99181900360200190a150565b6000546001600160a01b03166101ce6102b3565b6001600160a01b0316146102135760405162461bcd60e51b815260040180806020018281038252602c8152602001806102e2602c913960400191505060405180910390fd5b826001600160a01b031663a9059cbb83836040518363ffffffff1660e01b815260040180836001600160a01b03166001600160a01b0316815260200182815260200192505050602060405180830381600087803b15801561027357600080fd5b505af1158015610287573d6000803e3d6000fd5b505050506040513d602081101561029d57600080fd5b5050505050565b6000546001600160a01b031690565b339056fe5365636f6e646172793a206e6577207072696d61727920697320746865207a65726f20616464726573735365636f6e646172793a2063616c6c6572206973206e6f7420746865207072696d617279206163636f756e74a265627a7a72315820e48104ff1248b93128cd469c88121ef952c96363ddcea86379d0abcb79e06f3864736f6c6343000511003254696d656443726f776473616c653a206f70656e696e672074696d65206973206265666f72652063757272656e742074696d6554696d656443726f776473616c653a206f70656e696e672074696d65206973206e6f74206265666f726520636c6f73696e672074696d6543726f776473616c653a20746f6b656e20697320746865207a65726f206164647265737343726f776473616c653a2077616c6c657420697320746865207a65726f2061646472657373",
  "source": "pragma solidity ^0.5;\n\nimport \"./openzeppelin-contracts-v2.5/token/ERC20/IERC20.sol\";\nimport \"./openzeppelin-contracts-v2.5/crowdsale/Crowdsale.sol\";\nimport \"./openzeppelin-contracts-v2.5/crowdsale/emission/MintedCrowdsale.sol\";\nimport \"./openzeppelin-contracts-v2.5/crowdsale/validation/CappedCrowdsale.sol\";\nimport \"./openzeppelin-contracts-v2.5/crowdsale/validation/TimedCrowdsale.sol\";\nimport \"./openzeppelin-contracts-v2.5/crowdsale/distribution/RefundablePostDeliveryCrowdsale.sol\";\nimport \"./BEP20.sol\";\n\n// @TODO: Inherit the crowdsale contracts\ncontract SimpleTokenSale is Crowdsale, CappedCrowdsale, TimedCrowdsale,RefundablePostDeliveryCrowdsale {\n  using SafeMath for uint256;\n  using SafeMath for uint;\n  address  payable operator;\n  bool shouldBurn;\n  constructor(\n    uint rate, // rate in TKNbits\n    IERC20 token, // token\n    address payable wallet, // company's fundraising wallet that receives ETH sent from users\n    uint256 softCap, // goal of the crowdsale\n    uint256 hardCap,\n    uint256 openingTime, // testing: uint fakenow\n    uint256 closingTime, // testing: closingTime = fakenow + 2 minutes,\n    bool _shouldBurn\n  )\n  Crowdsale(rate, wallet, token)\n  CappedCrowdsale(hardCap)\n  TimedCrowdsale(openingTime, closingTime)\n  RefundableCrowdsale(softCap)\n    // @TODO: Pass the constructor parameters to the crowdsale contracts.\n  public\n  {\n    operator=msg.sender;\n    shouldBurn=_shouldBurn;\n    // constructor can stay empty\n  }\n  function _deliverTokens(address beneficiary, uint256 tokenAmount) internal {\n    require(token().transfer(beneficiary, tokenAmount),\"TokenTransfer call returned false\");\n  }\n  function _getTokenAmount(uint256 weiAmount)  internal view  returns (uint256)  {\n    return weiAmount.mul(rate()).div(10**36);\n  }\n  function simpleStats() public view returns(uint256,uint256,uint256,uint256,uint256,uint256,uint256,uint256,address,address,bool,bool,bool){\n    return (rate(),goal(),cap(),weiRaised(),openingTime(),closingTime(),balanceOf(msg.sender),lockedEthers[msg.sender],address(token()),wallet(),isOpen(),hasClosed(),finalized());\n  }\n    function tokenInfo() public view returns(string memory,string memory,uint8,uint256,uint256,uint256,bool,bool){\n        BEP20 token=(BEP20(address(token())));\n        return token.info();\n  }\n  function _payOperator() internal{\n    operator.transfer(weiRaised().div(100));\n\n  }\n\n  function superFinalize()public{\n    super._finalization();\n  }\n  function simpleFinalize()public{\n    uint256 _balance=token().balanceOf(address(this));\n    if(_balance>0){\n      if(shouldBurn){\n        BEP20 token=BEP20(address(token()));\n        token.burn(_balance);\n      }else{\n        token().transfer(wallet(),_balance);\n      }\n    }\n    if(capReached()){\n      _payOperator();\n    }\n  }\n  function _finalization() internal {\n    uint256 _balance=token().balanceOf(address(this));\n    if(shouldBurn && _balance >0){\n      BEP20 token=BEP20(address(token()));\n      token.burn(_balance);\n    }else{\n      token().transfer(wallet(),_balance);\n    }\n    if(capReached()){\n      _payOperator();\n      super._finalization();\n    }\n  }\n\n\n}\n",
  "sourcePath": "/Users/sudipbhattarai/Documents/erc20-tokensale-gen/solidity-contracts/SimpleTokenSale.sol",
  "compiler": {
    "name": "solc",
    "version": "0.5.17+commit.d19bba13.Emscripten.clang"
  },
  "schemaVersion": "3.4.3",
  "updatedAt": "2022-02-06T18:13:26.067Z",
  "devdoc": {
    "methods": {
      "balanceOf(address)": {
        "return": "the balance of an account."
      },
      "buyTokens(address)": {
        "details": "low level token purchase ***DO NOT OVERRIDE*** This function has a non-reentrancy guard, so it shouldn't be called by another `nonReentrant` function.",
        "params": {
          "beneficiary": "Recipient of the token purchase"
        }
      },
      "cap()": {
        "return": "the cap of the crowdsale."
      },
      "capReached()": {
        "details": "Checks whether the cap has been reached.",
        "return": "Whether the cap was reached"
      },
      "claimRefund()": {
        "details": "Investors can claim refunds here if crowdsale is unsuccessful."
      },
      "closingTime()": {
        "return": "the crowdsale closing time."
      },
      "finalize()": {
        "details": "Must be called after crowdsale ends, to do some extra finalization work. Calls the contract's finalization function."
      },
      "finalized()": {
        "return": "true if the crowdsale is finalized, false otherwise."
      },
      "goal()": {
        "return": "minimum amount of funds to be raised in wei."
      },
      "goalReached()": {
        "details": "Checks whether funding goal was reached.",
        "return": "Whether funding goal was reached"
      },
      "hasClosed()": {
        "details": "Checks whether the period in which the crowdsale is open has already elapsed.",
        "return": "Whether crowdsale period has elapsed"
      },
      "isOpen()": {
        "return": "true if the crowdsale is open, false otherwise."
      },
      "openingTime()": {
        "return": "the crowdsale opening time."
      },
      "rate()": {
        "return": "the number of token units a buyer gets per wei."
      },
      "token()": {
        "return": "the token being sold."
      },
      "wallet()": {
        "return": "the address where funds are collected."
      },
      "weiRaised()": {
        "return": "the amount of wei raised."
      }
    }
  },
  "userdoc": {
    "methods": {}
  }
}