{
  "contractName": "StringsMock",
  "abi": [
    {
      "constant": true,
      "inputs": [
        {
          "internalType": "uint256",
          "name": "value",
          "type": "uint256"
        }
      ],
      "name": "fromUint256",
      "outputs": [
        {
          "internalType": "string",
          "name": "",
          "type": "string"
        }
      ],
      "payable": false,
      "stateMutability": "pure",
      "type": "function"
    }
  ],
  "bytecode": "0x608060405234801561001057600080fd5b506101ce806100206000396000f3fe608060405234801561001057600080fd5b506004361061002b5760003560e01c8063a2bd364414610030575b600080fd5b61004d6004803603602081101561004657600080fd5b50356100c2565b6040805160208082528351818301528351919283929083019185019080838360005b8381101561008757818101518382015260200161006f565b50505050905090810190601f1680156100b45780820380516001836020036101000a031916815260200191505b509250505060405180910390f35b60606100cd826100d5565b90505b919050565b6060816100fa57506040805180820190915260018152600360fc1b60208201526100d0565b8160005b811561011257600101600a820491506100fe565b6060816040519080825280601f01601f19166020018201604052801561013f576020820181803883390190505b50859350905060001982015b831561019057600a840660300160f81b8282806001900393508151811061016e57fe5b60200101906001600160f81b031916908160001a905350600a8404935061014b565b5094935050505056fea265627a7a723158206472867c2eccb5577684f10ae5022b8cb10516ef5e87b63b9a364020cd370dfc64736f6c63430005110032",
  "source": "pragma solidity ^0.5.0;\n\nimport \"../drafts/Strings.sol\";\n\ncontract StringsMock {\n    function fromUint256(uint256 value) public pure returns (string memory) {\n        return Strings.fromUint256(value);\n    }\n}\n",
  "sourcePath": "/Users/sudipbhattarai/Documents/erc20-tokensale-gen/solidity-contracts/openzeppelin-contracts-v2.5/mocks/StringsMock.sol",
  "compiler": {
    "name": "solc",
    "version": "0.5.17+commit.d19bba13.Emscripten.clang"
  },
  "schemaVersion": "3.4.3",
  "updatedAt": "2022-02-06T18:13:26.184Z",
  "devdoc": {
    "methods": {}
  },
  "userdoc": {
    "methods": {}
  }
}