{
  "contractName": "TokenRegistry",
  "abi": [
    {
      "inputs": [],
      "payable": false,
      "stateMutability": "nonpayable",
      "type": "constructor"
    },
    {
      "anonymous": false,
      "inputs": [
        {
          "indexed": true,
          "internalType": "address",
          "name": "creator",
          "type": "address"
        },
        {
          "indexed": false,
          "internalType": "address",
          "name": "tokenContract",
          "type": "address"
        }
      ],
      "name": "TokenCreated",
      "type": "event"
    },
    {
      "constant": true,
      "inputs": [],
      "name": "fee",
      "outputs": [
        {
          "internalType": "uint256",
          "name": "",
          "type": "uint256"
        }
      ],
      "payable": false,
      "stateMutability": "view",
      "type": "function"
    },
    {
      "constant": true,
      "inputs": [],
      "name": "owner",
      "outputs": [
        {
          "internalType": "address payable",
          "name": "",
          "type": "address"
        }
      ],
      "payable": false,
      "stateMutability": "view",
      "type": "function"
    },
    {
      "constant": true,
      "inputs": [
        {
          "internalType": "address",
          "name": "",
          "type": "address"
        },
        {
          "internalType": "uint256",
          "name": "",
          "type": "uint256"
        }
      ],
      "name": "tokens",
      "outputs": [
        {
          "internalType": "address",
          "name": "",
          "type": "address"
        }
      ],
      "payable": false,
      "stateMutability": "view",
      "type": "function"
    },
    {
      "constant": true,
      "inputs": [
        {
          "internalType": "address",
          "name": "",
          "type": "address"
        }
      ],
      "name": "wasCreated",
      "outputs": [
        {
          "internalType": "bool",
          "name": "",
          "type": "bool"
        }
      ],
      "payable": false,
      "stateMutability": "view",
      "type": "function"
    },
    {
      "constant": true,
      "inputs": [],
      "name": "lastTokens",
      "outputs": [
        {
          "internalType": "uint8",
          "name": "",
          "type": "uint8"
        },
        {
          "internalType": "address",
          "name": "",
          "type": "address"
        },
        {
          "internalType": "address",
          "name": "",
          "type": "address"
        },
        {
          "internalType": "address",
          "name": "",
          "type": "address"
        },
        {
          "internalType": "address",
          "name": "",
          "type": "address"
        },
        {
          "internalType": "address",
          "name": "",
          "type": "address"
        }
      ],
      "payable": false,
      "stateMutability": "view",
      "type": "function"
    },
    {
      "constant": false,
      "inputs": [
        {
          "internalType": "string",
          "name": "name",
          "type": "string"
        },
        {
          "internalType": "string",
          "name": "symbol",
          "type": "string"
        },
        {
          "internalType": "uint8",
          "name": "decimals",
          "type": "uint8"
        },
        {
          "internalType": "uint256",
          "name": "supply",
          "type": "uint256"
        },
        {
          "internalType": "bool",
          "name": "burnable",
          "type": "bool"
        }
      ],
      "name": "createSimpleToken",
      "outputs": [],
      "payable": true,
      "stateMutability": "payable",
      "type": "function"
    },
    {
      "constant": false,
      "inputs": [
        {
          "internalType": "string",
          "name": "name",
          "type": "string"
        },
        {
          "internalType": "string",
          "name": "symbol",
          "type": "string"
        },
        {
          "internalType": "uint8",
          "name": "decimals",
          "type": "uint8"
        },
        {
          "internalType": "uint256",
          "name": "supply",
          "type": "uint256"
        },
        {
          "internalType": "bool",
          "name": "burnable",
          "type": "bool"
        }
      ],
      "name": "createMintableUncappedToken",
      "outputs": [],
      "payable": true,
      "stateMutability": "payable",
      "type": "function"
    },
    {
      "constant": false,
      "inputs": [
        {
          "internalType": "string",
          "name": "name",
          "type": "string"
        },
        {
          "internalType": "string",
          "name": "symbol",
          "type": "string"
        },
        {
          "internalType": "uint8",
          "name": "decimals",
          "type": "uint8"
        },
        {
          "internalType": "uint256",
          "name": "supply",
          "type": "uint256"
        },
        {
          "internalType": "bool",
          "name": "burnable",
          "type": "bool"
        },
        {
          "internalType": "uint256",
          "name": "cap",
          "type": "uint256"
        }
      ],
      "name": "createMintableCappedToken",
      "outputs": [],
      "payable": true,
      "stateMutability": "payable",
      "type": "function"
    },
    {
      "constant": false,
      "inputs": [],
      "name": "withdraw",
      "outputs": [],
      "payable": true,
      "stateMutability": "payable",
      "type": "function"
    },
    {
      "constant": false,
      "inputs": [
        {
          "internalType": "uint256",
          "name": "_fee",
          "type": "uint256"
        }
      ],
      "name": "setFee",
      "outputs": [],
      "payable": false,
      "stateMutability": "nonpayable",
      "type": "function"
    }
  ],
  "bytecode": "0x608060405234801561001057600080fd5b50600280546001600160a01b0319163317905567016345785d8a0000600355613c6f8061003e6000396000f3fe6080604052600436106200009e5760003560e01c806369fe0e2d116200006157806369fe0e2d14620003d75780637178e6fe14620004055780638da5cb5b146200054d578063c969e0d71462000565578063ddca3f4314620005c1576200009e565b806317205b3414620000a35780631c36f25b14620000ee5780633ccfd60b14620002325780634abf825d146200023c578063608ddfcb1462000295575b600080fd5b348015620000b057600080fd5b50620000da60048036036020811015620000c957600080fd5b50356001600160a01b0316620005eb565b604080519115158252519081900360200190f35b62000230600480360360a08110156200010657600080fd5b810190602081018135600160201b8111156200012157600080fd5b8201836020820111156200013457600080fd5b803590602001918460018302840111600160201b831117156200015657600080fd5b91908080601f0160208091040260200160405190810160405280939291908181526020018383808284376000920191909152509295949360208101935035915050600160201b811115620001a957600080fd5b820183602082011115620001bc57600080fd5b803590602001918460018302840111600160201b83111715620001de57600080fd5b91908080601f0160208091040260200160405190810160405280939291908181526020018383808284376000920191909152509295505060ff8335169350505060208101359060400135151562000600565b005b6200023062000797565b3480156200024957600080fd5b5062000279600480360360408110156200026257600080fd5b506001600160a01b0381351690602001356200082b565b604080516001600160a01b039092168252519081900360200190f35b62000230600480360360a0811015620002ad57600080fd5b810190602081018135600160201b811115620002c857600080fd5b820183602082011115620002db57600080fd5b803590602001918460018302840111600160201b83111715620002fd57600080fd5b91908080601f0160208091040260200160405190810160405280939291908181526020018383808284376000920191909152509295949360208101935035915050600160201b8111156200035057600080fd5b8201836020820111156200036357600080fd5b803590602001918460018302840111600160201b831117156200038557600080fd5b91908080601f0160208091040260200160405190810160405280939291908181526020018383808284376000920191909152509295505060ff8335169350505060208101359060400135151562000861565b348015620003e457600080fd5b506200023060048036036020811015620003fd57600080fd5b5035620009d8565b62000230600480360360c08110156200041d57600080fd5b810190602081018135600160201b8111156200043857600080fd5b8201836020820111156200044b57600080fd5b803590602001918460018302840111600160201b831117156200046d57600080fd5b91908080601f0160208091040260200160405190810160405280939291908181526020018383808284376000920191909152509295949360208101935035915050600160201b811115620004c057600080fd5b820183602082011115620004d357600080fd5b803590602001918460018302840111600160201b83111715620004f557600080fd5b91908080601f0160208091040260200160405190810160405280939291908181526020018383808284376000920191909152509295505060ff8335169350505060208101359060408101351515906060013562000a34565b3480156200055a57600080fd5b506200027962000c21565b3480156200057257600080fd5b506200057d62000c30565b6040805160ff90971687526001600160a01b0395861660208801529385168685015291841660608601528316608085015290911660a0830152519081900360c00190f35b348015620005ce57600080fd5b50620005d962000d90565b60408051918252519081900360200190f35b60016020526000908152604090205460ff1681565b60035434101562000655576040805162461bcd60e51b815260206004820152601a60248201527952656769737472793a20496e73756666696369656e742066656560301b604482015290519081900360640190fd5b6000858585858560006040516200066c9062000e1a565b60ff8516604082015260608101849052821515608082015260a0810182905260c08082528751908201528651819060208083019160e08401918b019080838360005b83811015620006c8578181015183820152602001620006ae565b50505050905090810190601f168015620006f65780820380516001836020036101000a031916815260200191505b5083810382528851815288516020918201918a019080838360005b838110156200072b57818101518382015260200162000711565b50505050905090810190601f168015620007595780820380516001836020036101000a031916815260200191505b5098505050505050505050604051809103906000f08015801562000781573d6000803e3d6000fd5b5090506200078f8162000d96565b505050505050565b6002546001600160a01b03163314620007ee576040805162461bcd60e51b81526020600482015260146024820152732932b3b4b9ba393c9d1027b7363c9037bbb732b960611b604482015290519081900360640190fd5b6002546040516001600160a01b03909116904780156108fc02916000818181858888f1935050505015801562000828573d6000803e3d6000fd5b50565b600060205281600052604060002081815481106200084557fe5b6000918252602090912001546001600160a01b03169150829050565b600354341015620008b6576040805162461bcd60e51b815260206004820152601a60248201527952656769737472793a20496e73756666696369656e742066656560301b604482015290519081900360640190fd5b60008585858585604051620008cb9062000e28565b60ff8416604082015260608101839052811515608082015260a08082528651908201528551819060208083019160c08401918a019080838360005b838110156200092057818101518382015260200162000906565b50505050905090810190601f1680156200094e5780820380516001836020036101000a031916815260200191505b50838103825287518152875160209182019189019080838360005b838110156200098357818101518382015260200162000969565b50505050905090810190601f168015620009b15780820380516001836020036101000a031916815260200191505b50975050505050505050604051809103906000f08015801562000781573d6000803e3d6000fd5b6002546001600160a01b0316331462000a2f576040805162461bcd60e51b81526020600482015260146024820152732932b3b4b9ba393c9d1027b7363c9037bbb732b960611b604482015290519081900360640190fd5b600355565b60035434101562000a89576040805162461bcd60e51b815260206004820152601a60248201527952656769737472793a20496e73756666696369656e742066656560301b604482015290519081900360640190fd5b6000811162000adf576040805162461bcd60e51b815260206004820181905260248201527f52656769737472793a20436170706564546f6b656e73616c65206361703d3d30604482015290519081900360640190fd5b600086868686868660405162000af59062000e1a565b60ff8516604082015260608101849052821515608082015260a0810182905260c08082528751908201528651819060208083019160e08401918b019080838360005b8381101562000b5157818101518382015260200162000b37565b50505050905090810190601f16801562000b7f5780820380516001836020036101000a031916815260200191505b5083810382528851815288516020918201918a019080838360005b8381101562000bb457818101518382015260200162000b9a565b50505050905090810190601f16801562000be25780820380516001836020036101000a031916815260200191505b5098505050505050505050604051809103906000f08015801562000c0a573d6000803e3d6000fd5b50905062000c188162000d96565b50505050505050565b6002546001600160a01b031681565b336000908152602081815260408083208151600580825260c08201909352849384938493849384939192606092820160a080388339505083549192505060010160006005821162000c845750600162000c8b565b5060041981015b60005b8183111562000d08578260019003925084600184038154811062000cae57fe5b9060005260206000200160009054906101000a90046001600160a01b0316848280600101935060ff168151811062000ce257fe5b60200260200101906001600160a01b031690816001600160a01b03168152505062000c8e565b808460008151811062000d1757fe5b60200260200101518560018151811062000d2d57fe5b60200260200101518660028151811062000d4357fe5b60200260200101518760038151811062000d5957fe5b60200260200101518860048151811062000d6f57fe5b60200260200101519a509a509a509a509a509a505050505050909192939495565b60035481565b336000818152602081815260408083208054600180820183559185528385200180546001600160a01b0319166001600160a01b03881690811790915580855281845293829020805460ff191690911790558051928352517fd5f9bdf12adf29dab0248c349842c3822d53ae2bb4f36352f301630d018c81399281900390910190a250565b611a878062000e3783390190565b61137d80620028be8339019056fe60806040523480156200001157600080fd5b5060405162001a8738038062001a87833981810160405260c08110156200003757600080fd5b81019080805160405193929190846401000000008211156200005857600080fd5b9083019060208201858111156200006e57600080fd5b82516401000000008111828201881017156200008957600080fd5b82525081516020918201929091019080838360005b83811015620000b85781810151838201526020016200009e565b50505050905090810190601f168015620000e65780820380516001836020036101000a031916815260200191505b50604052602001805160405193929190846401000000008211156200010a57600080fd5b9083019060208201858111156200012057600080fd5b82516401000000008111828201881017156200013b57600080fd5b82525081516020918201929091019080838360005b838110156200016a57818101518382015260200162000150565b50505050905090810190601f168015620001985780820380516001836020036101000a031916815260200191505b5060409081526020820151908201516060830151608090930151919450925085858585858180156200020f57326000818152602081815260408083208590556002859055805185815290517fddf252ad1be2c89b69c2b068fc378daa952ba7f163c4a11628f55a4df523b3ef929181900390910190a35b50845162000225906005906020880190620003eb565b5083516200023b906004906020870190620003eb565b506003805460ff90941660ff19909416939093179092555060068054911515600160a01b0260ff60a01b196001600160a01b0319909316329081179390931617905562000294925090506001600160e01b03620002a316565b60085550620004909350505050565b620002be816007620002f560201b620012cd1790919060201c565b6040516001600160a01b038216907f6ae172837ea30b801fbfcdd4108aa1d5bf8ff775444fd70256b44e6bf3dfc3f690600090a250565b6200030a82826001600160e01b036200038216565b156200035d576040805162461bcd60e51b815260206004820152601f60248201527f526f6c65733a206163636f756e7420616c72656164792068617320726f6c6500604482015290519081900360640190fd5b6001600160a01b0316600090815260209190915260409020805460ff19166001179055565b60006001600160a01b038216620003cb5760405162461bcd60e51b815260040180806020018281038252602281526020018062001a656022913960400191505060405180910390fd5b506001600160a01b03166000908152602091909152604090205460ff1690565b828054600181600116156101000203166002900490600052602060002090601f016020900481019282601f106200042e57805160ff19168380011785556200045e565b828001600101855582156200045e579182015b828111156200045e57825182559160200191906001019062000441565b506200046c92915062000470565b5090565b6200048d91905b808211156200046c576000815560010162000477565b90565b6115c580620004a06000396000f3fe608060405234801561001057600080fd5b506004361061014d5760003560e01c80635eb101c3116100c3578063986502751161007c57806398650275146104cc578063a07c7ce4146104d4578063a457c2d7146104dc578063a9059cbb14610508578063aa271e1a14610534578063dd62ed3e1461055a5761014d565b80635eb101c31461042057806370a082311461042857806379cc67901461044e578063893d20e81461047a57806395d89b411461049e578063983b2d56146104a65761014d565b8063355274ea11610115578063355274ea1461027d578063370158ea1461028557806339509351146103a157806340c10f19146103cd57806342966c68146103f95780634bf365df146104185761014d565b806306fdde0314610152578063095ea7b3146101cf57806318160ddd1461020f57806323b872dd14610229578063313ce5671461025f575b600080fd5b61015a610588565b6040805160208082528351818301528351919283929083019185019080838360005b8381101561019457818101518382015260200161017c565b50505050905090810190601f1680156101c15780820380516001836020036101000a031916815260200191505b509250505060405180910390f35b6101fb600480360360408110156101e557600080fd5b506001600160a01b038135169060200135610616565b604080519115158252519081900360200190f35b610217610633565b60408051918252519081900360200190f35b6101fb6004803603606081101561023f57600080fd5b506001600160a01b03813581169160208101359091169060400135610639565b6102676106c6565b6040805160ff9092168252519081900360200190f35b6102176106cf565b61028d6106d5565b6040805160ff881691810191909152606081018690526080810185905260a0810184905282151560c082015281151560e0820152610100808252895190820152885181906020808301916101208401918d019080838360005b838110156102fe5781810151838201526020016102e6565b50505050905090810190601f16801561032b5780820380516001836020036101000a031916815260200191505b5083810382528a5181528a516020918201918c019080838360005b8381101561035e578181015183820152602001610346565b50505050905090810190601f16801561038b5780820380516001836020036101000a031916815260200191505b509a505050505050505050505060405180910390f35b6101fb600480360360408110156103b757600080fd5b506001600160a01b038135169060200135610853565b6101fb600480360360408110156103e357600080fd5b506001600160a01b0381351690602001356108a7565b6104166004803603602081101561040f57600080fd5b50356108fe565b005b6101fb610964565b6101fb610969565b6102176004803603602081101561043e57600080fd5b50356001600160a01b0316610971565b6104166004803603604081101561046457600080fd5b506001600160a01b03813516906020013561098c565b6104826109ec565b604080516001600160a01b039092168252519081900360200190f35b61015a6109fb565b610416600480360360208110156104bc57600080fd5b50356001600160a01b0316610a56565b610416610aa5565b6101fb610ab7565b6101fb600480360360408110156104f257600080fd5b506001600160a01b038135169060200135610ac7565b6101fb6004803603604081101561051e57600080fd5b506001600160a01b038135169060200135610b35565b6101fb6004803603602081101561054a57600080fd5b50356001600160a01b0316610b49565b6102176004803603604081101561057057600080fd5b506001600160a01b0381358116916020013516610b62565b6005805460408051602060026001851615610100026000190190941693909304601f8101849004840282018401909252818152929183018282801561060e5780601f106105e35761010080835404028352916020019161060e565b820191906000526020600020905b8154815290600101906020018083116105f157829003601f168201915b505050505081565b600061062a610623610b8d565b8484610b91565b50600192915050565b60025490565b6000610646848484610c7d565b6106bc84610652610b8d565b6106b785604051806060016040528060288152602001611494602891396001600160a01b038a16600090815260016020526040812090610690610b8d565b6001600160a01b03168152602081019190915260400160002054919063ffffffff610dd916565b610b91565b5060019392505050565b60035460ff1681565b60085490565b60608060008060008060008060056004600360009054906101000a900460ff166106fd610633565b61070633610971565b61070e6106cf565b60065486546040805160206002610100600180871615919091026000190190951604601f8101829004820283018201909352828252600160a01b90940460ff169390918a918301828280156107a45780601f10610779576101008083540402835291602001916107a4565b820191906000526020600020905b81548152906001019060200180831161078757829003601f168201915b50508a5460408051602060026001851615610100026000190190941693909304601f8101849004840282018401909252818152959d508c9450925084019050828280156108325780601f1061080757610100808354040283529160200191610832565b820191906000526020600020905b81548152906001019060200180831161081557829003601f168201915b50505050509650975097509750975097509750975097509091929394959697565b600061062a610860610b8d565b846106b78560016000610871610b8d565b6001600160a01b03908116825260208083019390935260409182016000908120918c16815292529020549063ffffffff610e7016565b60006108b96108b4610b8d565b610b49565b6108f45760405162461bcd60e51b81526004018080602001828103825260308152602001806114436030913960400191505060405180910390fd5b61062a8383610ed1565b600654600160a01b900460ff16610950576040805162461bcd60e51b815260206004820152601160248201527045726332303a20556e4275726e61626c6560781b604482015290519081900360640190fd5b61096161095b610b8d565b82610f54565b50565b600190565b600854151590565b6001600160a01b031660009081526020819052604090205490565b600654600160a01b900460ff166109de576040805162461bcd60e51b815260206004820152601160248201527045726332303a20556e4275726e61626c6560781b604482015290519081900360640190fd5b6109e88282611050565b5050565b6006546001600160a01b031690565b6004805460408051602060026001851615610100026000190190941693909304601f8101849004840282018401909252818152929183018282801561060e5780601f106105e35761010080835404028352916020019161060e565b610a616108b4610b8d565b610a9c5760405162461bcd60e51b81526004018080602001828103825260308152602001806114436030913960400191505060405180910390fd5b610961816110a4565b610ab5610ab0610b8d565b6110ec565b565b600654600160a01b900460ff1681565b600061062a610ad4610b8d565b846106b78560405180606001604052806025815260200161156c6025913960016000610afe610b8d565b6001600160a01b03908116825260208083019390935260409182016000908120918d1681529252902054919063ffffffff610dd916565b600061062a610b42610b8d565b8484610c7d565b6000610b5c60078363ffffffff61113416565b92915050565b6001600160a01b03918216600090815260016020908152604080832093909416825291909152205490565b3390565b6001600160a01b038316610bd65760405162461bcd60e51b81526004018080602001828103825260248152602001806115486024913960400191505060405180910390fd5b6001600160a01b038216610c1b5760405162461bcd60e51b81526004018080602001828103825260228152602001806113fb6022913960400191505060405180910390fd5b6001600160a01b03808416600081815260016020908152604080832094871680845294825291829020859055815185815291517f8c5be1e5ebec7d5bd14f71427d1e84f3dd0314c0f7b2291e5b200ac8c7c3b9259281900390910190a3505050565b6001600160a01b038316610cc25760405162461bcd60e51b81526004018080602001828103825260258152602001806115236025913960400191505060405180910390fd5b6001600160a01b038216610d075760405162461bcd60e51b81526004018080602001828103825260238152602001806113b66023913960400191505060405180910390fd5b610d4a8160405180606001604052806026815260200161141d602691396001600160a01b038616600090815260208190526040902054919063ffffffff610dd916565b6001600160a01b038085166000908152602081905260408082209390935590841681522054610d7f908263ffffffff610e7016565b6001600160a01b038084166000818152602081815260409182902094909455805185815290519193928716927fddf252ad1be2c89b69c2b068fc378daa952ba7f163c4a11628f55a4df523b3ef92918290030190a3505050565b60008184841115610e685760405162461bcd60e51b81526004018080602001828103825283818151815260200191508051906020019080838360005b83811015610e2d578181015183820152602001610e15565b50505050905090810190601f168015610e5a5780820380516001836020036101000a031916815260200191505b509250505060405180910390fd5b505050900390565b600082820183811015610eca576040805162461bcd60e51b815260206004820152601b60248201527f536166654d6174683a206164646974696f6e206f766572666c6f770000000000604482015290519081900360640190fd5b9392505050565b6008541580610ef95750600854610ef682610eea610633565b9063ffffffff610e7016565b11155b610f4a576040805162461bcd60e51b815260206004820152601960248201527f45524332304361707065643a2063617020657863656564656400000000000000604482015290519081900360640190fd5b6109e8828261119b565b6001600160a01b038216610f995760405162461bcd60e51b81526004018080602001828103825260218152602001806115026021913960400191505060405180910390fd5b610fdc816040518060600160405280602281526020016113d9602291396001600160a01b038516600090815260208190526040902054919063ffffffff610dd916565b6001600160a01b038316600090815260208190526040902055600254611008908263ffffffff61128b16565b6002556040805182815290516000916001600160a01b038516917fddf252ad1be2c89b69c2b068fc378daa952ba7f163c4a11628f55a4df523b3ef9181900360200190a35050565b61105a8282610f54565b6109e882611066610b8d565b6106b7846040518060600160405280602481526020016114de602491396001600160a01b038816600090815260016020526040812090610690610b8d565b6110b560078263ffffffff6112cd16565b6040516001600160a01b038216907f6ae172837ea30b801fbfcdd4108aa1d5bf8ff775444fd70256b44e6bf3dfc3f690600090a250565b6110fd60078263ffffffff61134e16565b6040516001600160a01b038216907fe94479a9f7e1952cc78f2d6baab678adc1b772d936c6583def489e524cb6669290600090a250565b60006001600160a01b03821661117b5760405162461bcd60e51b81526004018080602001828103825260228152602001806114bc6022913960400191505060405180910390fd5b506001600160a01b03166000908152602091909152604090205460ff1690565b6001600160a01b0382166111f6576040805162461bcd60e51b815260206004820152601f60248201527f45524332303a206d696e7420746f20746865207a65726f206164647265737300604482015290519081900360640190fd5b600254611209908263ffffffff610e7016565b6002556001600160a01b038216600090815260208190526040902054611235908263ffffffff610e7016565b6001600160a01b0383166000818152602081815260408083209490945583518581529351929391927fddf252ad1be2c89b69c2b068fc378daa952ba7f163c4a11628f55a4df523b3ef9281900390910190a35050565b6000610eca83836040518060400160405280601e81526020017f536166654d6174683a207375627472616374696f6e206f766572666c6f770000815250610dd9565b6112d78282611134565b15611329576040805162461bcd60e51b815260206004820152601f60248201527f526f6c65733a206163636f756e7420616c72656164792068617320726f6c6500604482015290519081900360640190fd5b6001600160a01b0316600090815260209190915260409020805460ff19166001179055565b6113588282611134565b6113935760405162461bcd60e51b81526004018080602001828103825260218152602001806114736021913960400191505060405180910390fd5b6001600160a01b0316600090815260209190915260409020805460ff1916905556fe45524332303a207472616e7366657220746f20746865207a65726f206164647265737345524332303a206275726e20616d6f756e7420657863656564732062616c616e636545524332303a20617070726f766520746f20746865207a65726f206164647265737345524332303a207472616e7366657220616d6f756e7420657863656564732062616c616e63654d696e746572526f6c653a2063616c6c657220646f6573206e6f74206861766520746865204d696e74657220726f6c65526f6c65733a206163636f756e7420646f6573206e6f74206861766520726f6c6545524332303a207472616e7366657220616d6f756e74206578636565647320616c6c6f77616e6365526f6c65733a206163636f756e7420697320746865207a65726f206164647265737345524332303a206275726e20616d6f756e74206578636565647320616c6c6f77616e636545524332303a206275726e2066726f6d20746865207a65726f206164647265737345524332303a207472616e736665722066726f6d20746865207a65726f206164647265737345524332303a20617070726f76652066726f6d20746865207a65726f206164647265737345524332303a2064656372656173656420616c6c6f77616e63652062656c6f77207a65726fa265627a7a72315820e28d9ea1fda237935832cf405e7580c6a19b9bb2419e2ff03bebc9f9ba13892064736f6c63430005110032526f6c65733a206163636f756e7420697320746865207a65726f206164647265737360806040523480156200001157600080fd5b506040516200137d3803806200137d833981810160405260a08110156200003757600080fd5b81019080805160405193929190846401000000008211156200005857600080fd5b9083019060208201858111156200006e57600080fd5b82516401000000008111828201881017156200008957600080fd5b82525081516020918201929091019080838360005b83811015620000b85781810151838201526020016200009e565b50505050905090810190601f168015620000e65780820380516001836020036101000a031916815260200191505b50604052602001805160405193929190846401000000008211156200010a57600080fd5b9083019060208201858111156200012057600080fd5b82516401000000008111828201881017156200013b57600080fd5b82525081516020918201929091019080838360005b838110156200016a57818101518382015260200162000150565b50505050905090810190601f168015620001985780820380516001836020036101000a031916815260200191505b5060409081526020820151908201516060909201519093509091508180156200020657326000818152602081815260408083208590556002859055805185815290517fddf252ad1be2c89b69c2b068fc378daa952ba7f163c4a11628f55a4df523b3ef929181900390910190a35b5084516200021c9060059060208801906200027d565b508351620002329060049060208701906200027d565b506003805460ff191660ff94909416939093179092555060068054326001600160a01b03199091161760ff60a01b1916600160a01b9215159290920291909117905550620003229050565b828054600181600116156101000203166002900490600052602060002090601f016020900481019282601f10620002c057805160ff1916838001178555620002f0565b82800160010185558215620002f0579182015b82811115620002f0578251825591602001919060010190620002d3565b50620002fe92915062000302565b5090565b6200031f91905b80821115620002fe576000815560010162000309565b90565b61104b80620003326000396000f3fe608060405234801561001057600080fd5b506004361061010b5760003560e01c80634bf365df116100a257806395d89b411161007157806395d89b4114610420578063a07c7ce414610428578063a457c2d714610430578063a9059cbb1461045c578063dd62ed3e146104885761010b565b80634bf365df146103a257806370a08231146103aa57806379cc6790146103d0578063893d20e8146103fc5761010b565b8063313ce567116100de578063313ce5671461021d578063370158ea1461023b578063395093511461035757806342966c68146103835761010b565b806306fdde0314610110578063095ea7b31461018d57806318160ddd146101cd57806323b872dd146101e7575b600080fd5b6101186104b6565b6040805160208082528351818301528351919283929083019185019080838360005b8381101561015257818101518382015260200161013a565b50505050905090810190601f16801561017f5780820380516001836020036101000a031916815260200191505b509250505060405180910390f35b6101b9600480360360408110156101a357600080fd5b506001600160a01b038135169060200135610544565b604080519115158252519081900360200190f35b6101d5610561565b60408051918252519081900360200190f35b6101b9600480360360608110156101fd57600080fd5b506001600160a01b03813581169160208101359091169060400135610567565b6102256105f4565b6040805160ff9092168252519081900360200190f35b6102436105fd565b6040805160ff881691810191909152606081018690526080810185905260a0810184905282151560c082015281151560e0820152610100808252895190820152885181906020808301916101208401918d019080838360005b838110156102b457818101518382015260200161029c565b50505050905090810190601f1680156102e15780820380516001836020036101000a031916815260200191505b5083810382528a5181528a516020918201918c019080838360005b838110156103145781810151838201526020016102fc565b50505050905090810190601f1680156103415780820380516001836020036101000a031916815260200191505b509a505050505050505050505060405180910390f35b6101b96004803603604081101561036d57600080fd5b506001600160a01b038135169060200135610777565b6103a06004803603602081101561039957600080fd5b50356107cb565b005b6101b9610831565b6101d5600480360360208110156103c057600080fd5b50356001600160a01b0316610836565b6103a0600480360360408110156103e657600080fd5b506001600160a01b038135169060200135610851565b6104046108b1565b604080516001600160a01b039092168252519081900360200190f35b6101186108c0565b6101b961091b565b6101b96004803603604081101561044657600080fd5b506001600160a01b03813516906020013561092b565b6101b96004803603604081101561047257600080fd5b506001600160a01b038135169060200135610999565b6101d56004803603604081101561049e57600080fd5b506001600160a01b03813581169160200135166109ad565b6005805460408051602060026001851615610100026000190190941693909304601f8101849004840282018401909252818152929183018282801561053c5780601f106105115761010080835404028352916020019161053c565b820191906000526020600020905b81548152906001019060200180831161051f57829003601f168201915b505050505081565b60006105586105516109d8565b84846109dc565b50600192915050565b60025490565b6000610574848484610ac8565b6105ea846105806109d8565b6105e585604051806060016040528060288152602001610f3c602891396001600160a01b038a166000908152600160205260408120906105be6109d8565b6001600160a01b03168152602081019190915260400160002054919063ffffffff610c2416565b6109dc565b5060019392505050565b60035460ff1681565b60608060008060008060008060056004600360009054906101000a900460ff16610625610561565b61062e33610836565b600654855460408051602060026101006001861615026000190190941693909304601f8101849004840282018401909252818152600093600160a01b900460ff169284928a918301828280156106c55780601f1061069a576101008083540402835291602001916106c5565b820191906000526020600020905b8154815290600101906020018083116106a857829003601f168201915b50508a5460408051602060026001851615610100026000190190941693909304601f8101849004840282018401909252818152959d508c9450925084019050828280156107535780601f1061072857610100808354040283529160200191610753565b820191906000526020600020905b81548152906001019060200180831161073657829003601f168201915b50505050509650829250975097509750975097509750975097509091929394959697565b60006105586107846109d8565b846105e585600160006107956109d8565b6001600160a01b03908116825260208083019390935260409182016000908120918c16815292529020549063ffffffff610cbb16565b600654600160a01b900460ff1661081d576040805162461bcd60e51b815260206004820152601160248201527045726332303a20556e4275726e61626c6560781b604482015290519081900360640190fd5b61082e6108286109d8565b82610d1c565b50565b600090565b6001600160a01b031660009081526020819052604090205490565b600654600160a01b900460ff166108a3576040805162461bcd60e51b815260206004820152601160248201527045726332303a20556e4275726e61626c6560781b604482015290519081900360640190fd5b6108ad8282610e18565b5050565b6006546001600160a01b031690565b6004805460408051602060026001851615610100026000190190941693909304601f8101849004840282018401909252818152929183018282801561053c5780601f106105115761010080835404028352916020019161053c565b600654600160a01b900460ff1681565b60006105586109386109d8565b846105e585604051806060016040528060258152602001610ff260259139600160006109626109d8565b6001600160a01b03908116825260208083019390935260409182016000908120918d1681529252902054919063ffffffff610c2416565b60006105586109a66109d8565b8484610ac8565b6001600160a01b03918216600090815260016020908152604080832093909416825291909152205490565b3390565b6001600160a01b038316610a215760405162461bcd60e51b8152600401808060200182810382526024815260200180610fce6024913960400191505060405180910390fd5b6001600160a01b038216610a665760405162461bcd60e51b8152600401808060200182810382526022815260200180610ef46022913960400191505060405180910390fd5b6001600160a01b03808416600081815260016020908152604080832094871680845294825291829020859055815185815291517f8c5be1e5ebec7d5bd14f71427d1e84f3dd0314c0f7b2291e5b200ac8c7c3b9259281900390910190a3505050565b6001600160a01b038316610b0d5760405162461bcd60e51b8152600401808060200182810382526025815260200180610fa96025913960400191505060405180910390fd5b6001600160a01b038216610b525760405162461bcd60e51b8152600401808060200182810382526023815260200180610eaf6023913960400191505060405180910390fd5b610b9581604051806060016040528060268152602001610f16602691396001600160a01b038616600090815260208190526040902054919063ffffffff610c2416565b6001600160a01b038085166000908152602081905260408082209390935590841681522054610bca908263ffffffff610cbb16565b6001600160a01b038084166000818152602081815260409182902094909455805185815290519193928716927fddf252ad1be2c89b69c2b068fc378daa952ba7f163c4a11628f55a4df523b3ef92918290030190a3505050565b60008184841115610cb35760405162461bcd60e51b81526004018080602001828103825283818151815260200191508051906020019080838360005b83811015610c78578181015183820152602001610c60565b50505050905090810190601f168015610ca55780820380516001836020036101000a031916815260200191505b509250505060405180910390fd5b505050900390565b600082820183811015610d15576040805162461bcd60e51b815260206004820152601b60248201527f536166654d6174683a206164646974696f6e206f766572666c6f770000000000604482015290519081900360640190fd5b9392505050565b6001600160a01b038216610d615760405162461bcd60e51b8152600401808060200182810382526021815260200180610f886021913960400191505060405180910390fd5b610da481604051806060016040528060228152602001610ed2602291396001600160a01b038516600090815260208190526040902054919063ffffffff610c2416565b6001600160a01b038316600090815260208190526040902055600254610dd0908263ffffffff610e6c16565b6002556040805182815290516000916001600160a01b038516917fddf252ad1be2c89b69c2b068fc378daa952ba7f163c4a11628f55a4df523b3ef9181900360200190a35050565b610e228282610d1c565b6108ad82610e2e6109d8565b6105e584604051806060016040528060248152602001610f64602491396001600160a01b0388166000908152600160205260408120906105be6109d8565b6000610d1583836040518060400160405280601e81526020017f536166654d6174683a207375627472616374696f6e206f766572666c6f770000815250610c2456fe45524332303a207472616e7366657220746f20746865207a65726f206164647265737345524332303a206275726e20616d6f756e7420657863656564732062616c616e636545524332303a20617070726f766520746f20746865207a65726f206164647265737345524332303a207472616e7366657220616d6f756e7420657863656564732062616c616e636545524332303a207472616e7366657220616d6f756e74206578636565647320616c6c6f77616e636545524332303a206275726e20616d6f756e74206578636565647320616c6c6f77616e636545524332303a206275726e2066726f6d20746865207a65726f206164647265737345524332303a207472616e736665722066726f6d20746865207a65726f206164647265737345524332303a20617070726f76652066726f6d20746865207a65726f206164647265737345524332303a2064656372656173656420616c6c6f77616e63652062656c6f77207a65726fa265627a7a72315820566c5c4aaeca822f81bec00bc20385e2b2f70fe15c1198c886fca7f5ddd70a8d64736f6c63430005110032a265627a7a7231582006e16ad079a2be95f5e22c7fde24a2770dad596778a77373e6f3581a2991fd6b64736f6c63430005110032",
  "source": "pragma solidity ^0.5;\n\nimport \"./SimpleTokenSale.sol\";\nimport \"./BEP20Mintable.sol\";\n\ncontract TokenRegistry {\n\n  mapping(address  => address []) public tokens ;\n  mapping (address => bool) public wasCreated;\n  address payable public owner;\n  uint256 public fee;\n\n\n  event TokenCreated(address indexed creator, address tokenContract);\n\n  constructor() public {\n    owner = msg.sender;\n    fee=100000000000000000;\n  }\n\n  function lastTokens () public view returns(uint8 ,address,address,address,address,address){\n    address [] storage userTokens=tokens[msg.sender];\n    address[] memory response=new  address[](5);\n    // we want to index starting from 1\n    uint256 start=userTokens.length+1;\n    uint256 end;\n    if(start<=5){\n      end=1;\n    }else{\n      end=start-5;\n    }\n    uint8 i=0;\n    while(start>end){\n      --start;\n      response[i++]=userTokens[start-1];\n    }\n    return (i,response[0],response[1],response[2],response[3],response[4]);\n\n\n  }\n\n  function _notifyTokenCreation(IBEP20 bep20) internal{\n    tokens[msg.sender].push(address(bep20));\n    wasCreated[address(bep20)]=true;\n    emit TokenCreated(msg.sender, address(bep20));\n  }\n\n  function createSimpleToken(string memory name, string memory symbol, uint8 decimals, uint256 supply,bool burnable) public payable {\n    require(msg.value>=fee,\"Registry: Insufficient fee\");\n    IBEP20 bep20 = new BEP20(name, symbol, decimals,supply,burnable);\n    _notifyTokenCreation(bep20);\n  }\n  \n  function createMintableUncappedToken(string memory name, string memory symbol, uint8 decimals, uint256 supply,bool burnable) public payable {\n    require(msg.value>=fee,\"Registry: Insufficient fee\");\n    IBEP20 bep20 = new BEP20Mintable(name, symbol, decimals,supply,burnable,0);\n    _notifyTokenCreation(bep20);\n  }\n\n  function createMintableCappedToken(string memory name, string memory symbol, uint8 decimals, uint256 supply, bool burnable,uint256 cap) public payable {\n    require(msg.value>=fee,\"Registry: Insufficient fee\");\n    require( cap>0,\"Registry: CappedTokensale cap==0\");\n    BEP20 bep20 = new BEP20Mintable(name, symbol, decimals,supply,burnable,cap);\n    _notifyTokenCreation(bep20);\n  }\n    function withdraw() public payable{\n    require(msg.sender==owner,\"Registry: Only owner\");\n    owner.transfer(address(this).balance);\n  }\n\n  function setFee(uint256 _fee) public {\n    require(msg.sender==owner,\"Registry: Only owner\");\n    fee=_fee;\n  }\n\n}\n",
  "sourcePath": "/Users/sudipbhattarai/Documents/erc20-tokensale-gen/solidity-contracts/TokenRegistry.sol",
  "compiler": {
    "name": "solc",
    "version": "0.5.17+commit.d19bba13.Emscripten.clang"
  },
  "schemaVersion": "3.4.3",
  "updatedAt": "2022-02-06T18:13:26.070Z",
  "devdoc": {
    "methods": {}
  },
  "userdoc": {
    "methods": {}
  }
}