{
  "contractName": "WhitelistAdminRoleMock",
  "abi": [
    {
      "anonymous": false,
      "inputs": [
        {
          "indexed": true,
          "internalType": "address",
          "name": "account",
          "type": "address"
        }
      ],
      "name": "WhitelistAdminAdded",
      "type": "event"
    },
    {
      "anonymous": false,
      "inputs": [
        {
          "indexed": true,
          "internalType": "address",
          "name": "account",
          "type": "address"
        }
      ],
      "name": "WhitelistAdminRemoved",
      "type": "event"
    },
    {
      "constant": false,
      "inputs": [
        {
          "internalType": "address",
          "name": "account",
          "type": "address"
        }
      ],
      "name": "addWhitelistAdmin",
      "outputs": [],
      "payable": false,
      "stateMutability": "nonpayable",
      "type": "function"
    },
    {
      "constant": true,
      "inputs": [
        {
          "internalType": "address",
          "name": "account",
          "type": "address"
        }
      ],
      "name": "isWhitelistAdmin",
      "outputs": [
        {
          "internalType": "bool",
          "name": "",
          "type": "bool"
        }
      ],
      "payable": false,
      "stateMutability": "view",
      "type": "function"
    },
    {
      "constant": false,
      "inputs": [],
      "name": "renounceWhitelistAdmin",
      "outputs": [],
      "payable": false,
      "stateMutability": "nonpayable",
      "type": "function"
    },
    {
      "constant": false,
      "inputs": [
        {
          "internalType": "address",
          "name": "account",
          "type": "address"
        }
      ],
      "name": "removeWhitelistAdmin",
      "outputs": [],
      "payable": false,
      "stateMutability": "nonpayable",
      "type": "function"
    },
    {
      "constant": true,
      "inputs": [],
      "name": "onlyWhitelistAdminMock",
      "outputs": [],
      "payable": false,
      "stateMutability": "view",
      "type": "function"
    }
  ],
  "bytecode": "0x60806040526100266100186001600160e01b0361002b16565b6001600160e01b0361002f16565b61016f565b3390565b61004781600061007e60201b6102c81790919060201c565b6040516001600160a01b038216907f22380c05984257a1cb900161c713dd71d39e74820f1aea43bd3f1bdd2096129990600090a250565b61009182826001600160e01b0361010816565b156100e3576040805162461bcd60e51b815260206004820152601f60248201527f526f6c65733a206163636f756e7420616c72656164792068617320726f6c6500604482015290519081900360640190fd5b6001600160a01b0316600090815260209190915260409020805460ff19166001179055565b60006001600160a01b03821661014f5760405162461bcd60e51b81526004018080602001828103825260228152602001806105e66022913960400191505060405180910390fd5b506001600160a01b03166000908152602091909152604090205460ff1690565b6104688061017e6000396000f3fe608060405234801561001057600080fd5b50600436106100575760003560e01c80634c5a628c1461005c578063564c74a3146100665780636897e9741461006e5780637362d9c814610094578063bb5f747b146100ba575b600080fd5b6100646100f4565b005b610064610106565b6100646004803603602081101561008457600080fd5b50356001600160a01b0316610151565b610064600480360360208110156100aa57600080fd5b50356001600160a01b031661015d565b6100e0600480360360208110156100d057600080fd5b50356001600160a01b03166101ac565b604080519115158252519081900360200190f35b6101046100ff6101c4565b6101c8565b565b6101166101116101c4565b6101ac565b6101045760405162461bcd60e51b81526004018080602001828103825260408152602001806103f46040913960400191505060405180910390fd5b61015a816101c8565b50565b6101686101116101c4565b6101a35760405162461bcd60e51b81526004018080602001828103825260408152602001806103f46040913960400191505060405180910390fd5b61015a816101d1565b60006101be818363ffffffff61021916565b92915050565b3390565b61015a81610280565b6101e260008263ffffffff6102c816565b6040516001600160a01b038216907f22380c05984257a1cb900161c713dd71d39e74820f1aea43bd3f1bdd2096129990600090a250565b60006001600160a01b0382166102605760405162461bcd60e51b81526004018080602001828103825260228152602001806103d26022913960400191505060405180910390fd5b506001600160a01b03166000908152602091909152604090205460ff1690565b61029160008263ffffffff61034916565b6040516001600160a01b038216907f0a8eb35e5ca14b3d6f28e4abf2f128dbab231a58b56e89beb5d636115001e16590600090a250565b6102d28282610219565b15610324576040805162461bcd60e51b815260206004820152601f60248201527f526f6c65733a206163636f756e7420616c72656164792068617320726f6c6500604482015290519081900360640190fd5b6001600160a01b0316600090815260209190915260409020805460ff19166001179055565b6103538282610219565b61038e5760405162461bcd60e51b81526004018080602001828103825260218152602001806103b16021913960400191505060405180910390fd5b6001600160a01b0316600090815260209190915260409020805460ff1916905556fe526f6c65733a206163636f756e7420646f6573206e6f74206861766520726f6c65526f6c65733a206163636f756e7420697320746865207a65726f206164647265737357686974656c69737441646d696e526f6c653a2063616c6c657220646f6573206e6f742068617665207468652057686974656c69737441646d696e20726f6c65a265627a7a72315820aaa1a98e5b7cc23204ba305b2b198974ddc803617fd1fffcdf57f615f966469964736f6c63430005110032526f6c65733a206163636f756e7420697320746865207a65726f2061646472657373",
  "source": "pragma solidity ^0.5.0;\n\nimport \"../access/roles/WhitelistAdminRole.sol\";\n\ncontract WhitelistAdminRoleMock is WhitelistAdminRole {\n    function removeWhitelistAdmin(address account) public {\n        _removeWhitelistAdmin(account);\n    }\n\n    function onlyWhitelistAdminMock() public view onlyWhitelistAdmin {\n        // solhint-disable-previous-line no-empty-blocks\n    }\n\n    // Causes a compilation error if super._removeWhitelistAdmin is not internal\n    function _removeWhitelistAdmin(address account) internal {\n        super._removeWhitelistAdmin(account);\n    }\n}\n",
  "sourcePath": "/Users/sudipbhattarai/Documents/erc20-tokensale-gen/solidity-contracts/openzeppelin-contracts-v2.5/mocks/WhitelistAdminRoleMock.sol",
  "compiler": {
    "name": "solc",
    "version": "0.5.17+commit.d19bba13.Emscripten.clang"
  },
  "schemaVersion": "3.4.3",
  "updatedAt": "2022-02-06T18:13:26.185Z",
  "devdoc": {
    "methods": {}
  },
  "userdoc": {
    "methods": {}
  }
}