{
  "contractName": "WhitelistCrowdsaleImpl",
  "abi": [
    {
      "inputs": [
        {
          "internalType": "uint256",
          "name": "_rate",
          "type": "uint256"
        },
        {
          "internalType": "address payable",
          "name": "_wallet",
          "type": "address"
        },
        {
          "internalType": "contract IERC20",
          "name": "_token",
          "type": "address"
        }
      ],
      "payable": false,
      "stateMutability": "nonpayable",
      "type": "constructor"
    },
    {
      "anonymous": false,
      "inputs": [
        {
          "indexed": true,
          "internalType": "address",
          "name": "purchaser",
          "type": "address"
        },
        {
          "indexed": true,
          "internalType": "address",
          "name": "beneficiary",
          "type": "address"
        },
        {
          "indexed": false,
          "internalType": "uint256",
          "name": "value",
          "type": "uint256"
        },
        {
          "indexed": false,
          "internalType": "uint256",
          "name": "amount",
          "type": "uint256"
        }
      ],
      "name": "TokensPurchased",
      "type": "event"
    },
    {
      "anonymous": false,
      "inputs": [
        {
          "indexed": true,
          "internalType": "address",
          "name": "account",
          "type": "address"
        }
      ],
      "name": "WhitelistAdminAdded",
      "type": "event"
    },
    {
      "anonymous": false,
      "inputs": [
        {
          "indexed": true,
          "internalType": "address",
          "name": "account",
          "type": "address"
        }
      ],
      "name": "WhitelistAdminRemoved",
      "type": "event"
    },
    {
      "anonymous": false,
      "inputs": [
        {
          "indexed": true,
          "internalType": "address",
          "name": "account",
          "type": "address"
        }
      ],
      "name": "WhitelistedAdded",
      "type": "event"
    },
    {
      "anonymous": false,
      "inputs": [
        {
          "indexed": true,
          "internalType": "address",
          "name": "account",
          "type": "address"
        }
      ],
      "name": "WhitelistedRemoved",
      "type": "event"
    },
    {
      "payable": true,
      "stateMutability": "payable",
      "type": "fallback"
    },
    {
      "constant": false,
      "inputs": [
        {
          "internalType": "address",
          "name": "account",
          "type": "address"
        }
      ],
      "name": "addWhitelistAdmin",
      "outputs": [],
      "payable": false,
      "stateMutability": "nonpayable",
      "type": "function"
    },
    {
      "constant": false,
      "inputs": [
        {
          "internalType": "address",
          "name": "account",
          "type": "address"
        }
      ],
      "name": "addWhitelisted",
      "outputs": [],
      "payable": false,
      "stateMutability": "nonpayable",
      "type": "function"
    },
    {
      "constant": false,
      "inputs": [
        {
          "internalType": "address",
          "name": "beneficiary",
          "type": "address"
        }
      ],
      "name": "buyTokens",
      "outputs": [],
      "payable": true,
      "stateMutability": "payable",
      "type": "function"
    },
    {
      "constant": true,
      "inputs": [
        {
          "internalType": "address",
          "name": "account",
          "type": "address"
        }
      ],
      "name": "isWhitelistAdmin",
      "outputs": [
        {
          "internalType": "bool",
          "name": "",
          "type": "bool"
        }
      ],
      "payable": false,
      "stateMutability": "view",
      "type": "function"
    },
    {
      "constant": true,
      "inputs": [
        {
          "internalType": "address",
          "name": "account",
          "type": "address"
        }
      ],
      "name": "isWhitelisted",
      "outputs": [
        {
          "internalType": "bool",
          "name": "",
          "type": "bool"
        }
      ],
      "payable": false,
      "stateMutability": "view",
      "type": "function"
    },
    {
      "constant": true,
      "inputs": [],
      "name": "rate",
      "outputs": [
        {
          "internalType": "uint256",
          "name": "",
          "type": "uint256"
        }
      ],
      "payable": false,
      "stateMutability": "view",
      "type": "function"
    },
    {
      "constant": false,
      "inputs": [
        {
          "internalType": "address",
          "name": "account",
          "type": "address"
        }
      ],
      "name": "removeWhitelisted",
      "outputs": [],
      "payable": false,
      "stateMutability": "nonpayable",
      "type": "function"
    },
    {
      "constant": false,
      "inputs": [],
      "name": "renounceWhitelistAdmin",
      "outputs": [],
      "payable": false,
      "stateMutability": "nonpayable",
      "type": "function"
    },
    {
      "constant": false,
      "inputs": [],
      "name": "renounceWhitelisted",
      "outputs": [],
      "payable": false,
      "stateMutability": "nonpayable",
      "type": "function"
    },
    {
      "constant": true,
      "inputs": [],
      "name": "token",
      "outputs": [
        {
          "internalType": "contract IERC20",
          "name": "",
          "type": "address"
        }
      ],
      "payable": false,
      "stateMutability": "view",
      "type": "function"
    },
    {
      "constant": true,
      "inputs": [],
      "name": "wallet",
      "outputs": [
        {
          "internalType": "address payable",
          "name": "",
          "type": "address"
        }
      ],
      "payable": false,
      "stateMutability": "view",
      "type": "function"
    },
    {
      "constant": true,
      "inputs": [],
      "name": "weiRaised",
      "outputs": [
        {
          "internalType": "uint256",
          "name": "",
          "type": "uint256"
        }
      ],
      "payable": false,
      "stateMutability": "view",
      "type": "function"
    }
  ],
  "bytecode": "0x608060405234801561001057600080fd5b50604051620010db380380620010db8339818101604052606081101561003557600080fd5b508051602082015160409092015190919082828261006b61005d6001600160e01b0361019f16565b6001600160e01b036101a316565b6002805460ff19166001179055826100ca576040805162461bcd60e51b815260206004820152601460248201527f43726f776473616c653a20726174652069732030000000000000000000000000604482015290519081900360640190fd5b6001600160a01b0382166101105760405162461bcd60e51b8152600401808060200182810382526025815260200180620010b66025913960400191505060405180910390fd5b6001600160a01b0381166101565760405162461bcd60e51b8152600401808060200182810382526024815260200180620010706024913960400191505060405180910390fd5b600492909255600380546001600160a01b039283166001600160a01b0319909116179055600280549190921661010002610100600160a81b0319909116179055506102e4915050565b3390565b6101bb8160006101f260201b6108d51790919060201c565b6040516001600160a01b038216907f22380c05984257a1cb900161c713dd71d39e74820f1aea43bd3f1bdd2096129990600090a250565b61020582826001600160e01b0361027c16565b15610257576040805162461bcd60e51b815260206004820152601f60248201527f526f6c65733a206163636f756e7420616c72656164792068617320726f6c6500604482015290519081900360640190fd5b6001600160a01b0316600090815260209190915260409020805460ff19166001179055565b60006001600160a01b0382166102c45760405162461bcd60e51b8152600401808060200182810382526022815260200180620010946022913960400191505060405180910390fd5b506001600160a01b03166000908152602091909152604090205460ff1690565b610d7c80620002f46000396000f3fe6080604052600436106100a75760003560e01c8063521eb27311610064578063521eb273146101b75780637362d9c8146101e8578063bb5f747b1461021b578063d6cd94731461024e578063ec8ac4d814610263578063fc0c546a14610289576100a7565b806310154bad146100b9578063291d9549146100ec5780632c4e722e1461011f5780633af32abf146101465780634042b66f1461018d5780634c5a628c146101a2575b6100b76100b261029e565b6102a2565b005b3480156100c557600080fd5b506100b7600480360360208110156100dc57600080fd5b50356001600160a01b03166103c4565b3480156100f857600080fd5b506100b76004803603602081101561010f57600080fd5b50356001600160a01b031661041b565b34801561012b57600080fd5b5061013461046a565b60408051918252519081900360200190f35b34801561015257600080fd5b506101796004803603602081101561016957600080fd5b50356001600160a01b0316610470565b604080519115158252519081900360200190f35b34801561019957600080fd5b50610134610489565b3480156101ae57600080fd5b506100b761048f565b3480156101c357600080fd5b506101cc6104a1565b604080516001600160a01b039092168252519081900360200190f35b3480156101f457600080fd5b506100b76004803603602081101561020b57600080fd5b50356001600160a01b03166104b0565b34801561022757600080fd5b506101796004803603602081101561023e57600080fd5b50356001600160a01b03166104ff565b34801561025a57600080fd5b506100b7610511565b6100b76004803603602081101561027957600080fd5b50356001600160a01b03166102a2565b34801561029557600080fd5b506101cc610521565b3390565b60025460ff166102f9576040805162461bcd60e51b815260206004820152601f60248201527f5265656e7472616e637947756172643a207265656e7472616e742063616c6c00604482015290519081900360640190fd5b6002805460ff191690553461030e8282610535565b600061031982610587565b60055490915061032f908363ffffffff61059e16565b60055561033c83826105ff565b826001600160a01b031661034e61029e565b6001600160a01b03167f6faf93231a456e552dbc9961f58d9713ee4f2e69d15f1975b050ef0911053a7b8484604051808381526020018281526020019250505060405180910390a36103a08383610583565b6103a8610609565b6103b28383610583565b50506002805460ff1916600117905550565b6103d46103cf61029e565b6104ff565b61040f5760405162461bcd60e51b8152600401808060200182810382526040815260200180610cb46040913960400191505060405180910390fd5b61041881610642565b50565b6104266103cf61029e565b6104615760405162461bcd60e51b8152600401808060200182810382526040815260200180610cb46040913960400191505060405180910390fd5b6104188161068a565b60045490565b600061048360018363ffffffff6106d216565b92915050565b60055490565b61049f61049a61029e565b610739565b565b6003546001600160a01b031690565b6104bb6103cf61029e565b6104f65760405162461bcd60e51b8152600401808060200182810382526040815260200180610cb46040913960400191505060405180910390fd5b61041881610781565b6000610483818363ffffffff6106d216565b61049f61051c61029e565b61068a565b60025461010090046001600160a01b031690565b61053e82610470565b6105795760405162461bcd60e51b8152600401808060200182810382526041815260200180610c0f6041913960600191505060405180910390fd5b61058382826107c9565b5050565b60006104836004548361086090919063ffffffff16565b6000828201838110156105f8576040805162461bcd60e51b815260206004820152601b60248201527f536166654d6174683a206164646974696f6e206f766572666c6f770000000000604482015290519081900360640190fd5b9392505050565b61058382826108b9565b6003546040516001600160a01b03909116903480156108fc02916000818181858888f19350505050158015610418573d6000803e3d6000fd5b61065360018263ffffffff6108d516565b6040516001600160a01b038216907fee1504a83b6d4a361f4c1dc78ab59bfa30d6a3b6612c403e86bb01ef2984295f90600090a250565b61069b60018263ffffffff61095616565b6040516001600160a01b038216907f270d9b30cf5b0793bbfd54c9d5b94aeb49462b8148399000265144a8722da6b690600090a250565b60006001600160a01b0382166107195760405162461bcd60e51b8152600401808060200182810382526022815260200180610c926022913960400191505060405180910390fd5b506001600160a01b03166000908152602091909152604090205460ff1690565b61074a60008263ffffffff61095616565b6040516001600160a01b038216907f0a8eb35e5ca14b3d6f28e4abf2f128dbab231a58b56e89beb5d636115001e16590600090a250565b61079260008263ffffffff6108d516565b6040516001600160a01b038216907f22380c05984257a1cb900161c713dd71d39e74820f1aea43bd3f1bdd2096129990600090a250565b6001600160a01b03821661080e5760405162461bcd60e51b815260040180806020018281038252602a815260200180610cf4602a913960400191505060405180910390fd5b80610583576040805162461bcd60e51b815260206004820152601960248201527f43726f776473616c653a20776569416d6f756e74206973203000000000000000604482015290519081900360640190fd5b60008261086f57506000610483565b8282028284828161087c57fe5b04146105f85760405162461bcd60e51b8152600401808060200182810382526021815260200180610c716021913960400191505060405180910390fd5b6002546105839061010090046001600160a01b031683836109bd565b6108df82826106d2565b15610931576040805162461bcd60e51b815260206004820152601f60248201527f526f6c65733a206163636f756e7420616c72656164792068617320726f6c6500604482015290519081900360640190fd5b6001600160a01b0316600090815260209190915260409020805460ff19166001179055565b61096082826106d2565b61099b5760405162461bcd60e51b8152600401808060200182810382526021815260200180610c506021913960400191505060405180910390fd5b6001600160a01b0316600090815260209190915260409020805460ff19169055565b604080516001600160a01b038416602482015260448082018490528251808303909101815260649091019091526020810180516001600160e01b031663a9059cbb60e01b179052610a0f908490610a14565b505050565b610a26826001600160a01b0316610bd2565b610a77576040805162461bcd60e51b815260206004820152601f60248201527f5361666545524332303a2063616c6c20746f206e6f6e2d636f6e747261637400604482015290519081900360640190fd5b60006060836001600160a01b0316836040518082805190602001908083835b60208310610ab55780518252601f199092019160209182019101610a96565b6001836020036101000a0380198251168184511680821785525050505050509050019150506000604051808303816000865af19150503d8060008114610b17576040519150601f19603f3d011682016040523d82523d6000602084013e610b1c565b606091505b509150915081610b73576040805162461bcd60e51b815260206004820181905260248201527f5361666545524332303a206c6f772d6c6576656c2063616c6c206661696c6564604482015290519081900360640190fd5b805115610bcc57808060200190516020811015610b8f57600080fd5b5051610bcc5760405162461bcd60e51b815260040180806020018281038252602a815260200180610d1e602a913960400191505060405180910390fd5b50505050565b6000813f7fc5d2460186f7233c927e7db2dcc703c0e500b653ca82273b7bfad8045d85a470818114801590610c0657508115155b94935050505056fe57686974656c69737443726f776473616c653a2062656e656669636961727920646f65736e27742068617665207468652057686974656c697374656420726f6c65526f6c65733a206163636f756e7420646f6573206e6f74206861766520726f6c65536166654d6174683a206d756c7469706c69636174696f6e206f766572666c6f77526f6c65733a206163636f756e7420697320746865207a65726f206164647265737357686974656c69737441646d696e526f6c653a2063616c6c657220646f6573206e6f742068617665207468652057686974656c69737441646d696e20726f6c6543726f776473616c653a2062656e656669636961727920697320746865207a65726f20616464726573735361666545524332303a204552433230206f7065726174696f6e20646964206e6f742073756363656564a265627a7a723158202558677f5e8f239d7adebac41b0df0daac6d324d2cbe4b60f34fdcaaf5e67b2264736f6c6343000511003243726f776473616c653a20746f6b656e20697320746865207a65726f2061646472657373526f6c65733a206163636f756e7420697320746865207a65726f206164647265737343726f776473616c653a2077616c6c657420697320746865207a65726f2061646472657373",
  "source": "pragma solidity ^0.5.0;\n\nimport \"../token/ERC20/IERC20.sol\";\nimport \"../crowdsale/validation/WhitelistCrowdsale.sol\";\nimport \"../crowdsale/Crowdsale.sol\";\n\n\ncontract WhitelistCrowdsaleImpl is Crowdsale, WhitelistCrowdsale {\n    constructor (uint256 _rate, address payable _wallet, IERC20 _token) public Crowdsale(_rate, _wallet, _token) {\n        // solhint-disable-previous-line no-empty-blocks\n    }\n}\n",
  "sourcePath": "/Users/sudipbhattarai/Documents/erc20-tokensale-gen/solidity-contracts/openzeppelin-contracts-v2.5/mocks/WhitelistCrowdsaleImpl.sol",
  "compiler": {
    "name": "solc",
    "version": "0.5.17+commit.d19bba13.Emscripten.clang"
  },
  "schemaVersion": "3.4.3",
  "updatedAt": "2022-02-06T18:13:26.186Z",
  "devdoc": {
    "methods": {
      "buyTokens(address)": {
        "details": "low level token purchase ***DO NOT OVERRIDE*** This function has a non-reentrancy guard, so it shouldn't be called by another `nonReentrant` function.",
        "params": {
          "beneficiary": "Recipient of the token purchase"
        }
      },
      "rate()": {
        "return": "the number of token units a buyer gets per wei."
      },
      "token()": {
        "return": "the token being sold."
      },
      "wallet()": {
        "return": "the address where funds are collected."
      },
      "weiRaised()": {
        "return": "the amount of wei raised."
      }
    }
  },
  "userdoc": {
    "methods": {}
  }
}